{
	"data": {
		"bytecode": {
			"linkReferences": {},
			"object": "6080604052670f43fc2c04ee0000600255676124fee993bc00006003555f6007555f6008555f6009555f600a555f600b555f600c555f600d556103e8600e555f601055670de0b6b3a764000060135568056bc75e2d631000006014555f6015553480156200006b575f80fd5b5060405162003b8238038062003b828339810160408190526200008e916200013b565b60015f81815581546001600160a01b03939093166001600160a01b031993841617825560166020527f0263c2b778d062355049effc2dece97bc6547ff8a88a3258daa512061c2153de805460ff199081166004908117909255918390527f4c4dc693d7db52f85fe052106f4b4b920e78e8ef37dee82878a60ab8585faf4a80549092169092179055805482163390811790915560068054831682179055600580549092161790556200016a565b5f602082840312156200014c575f80fd5b81516001600160a01b038116811462000163575f80fd5b9392505050565b613a0a80620001785f395ff3fe608060405234801561000f575f80fd5b506004361061037d575f3560e01c80638da5cb5b116101d4578063b6b55f2511610109578063dbbe2550116100a9578063f2fde38b11610079578063f2fde38b14610937578063f715db581461094a578063fc0c546a1461095d578063fca8d84314610970575f80fd5b8063dbbe25501461087f578063e149628614610892578063e2eb41ff1461089b578063efbd7bd21461092e575f80fd5b8063befa1e2f116100e4578063befa1e2f1461082d578063cb02c10a14610836578063ce314f4314610849578063cfbd9c951461085c575f80fd5b8063b6b55f25146107da578063be2ff4a9146107ed578063bed8840c14610800575f80fd5b8063a279114311610174578063a4ab92351161014f578063a4ab92351461077d578063aaf5eb68146107a0578063aef18bf7146107af578063b42a275e146107d1575f80fd5b8063a279114314610763578063a32bf5971461076c578063a3f67d6d14610774575f80fd5b80639972780a116101af5780639972780a146106f75780639b29953b1461071a5780639fd751c714610747578063a24e0d871461075a575f80fd5b80638da5cb5b146106aa57806391b1db18146106bd5780639619367d146106ee575f80fd5b80635c7b79f5116102b55780637adbf9731161025557806381a486f71161022557806381a486f7146105f0578063881eff1e1461060357806388ea41b9146106165780638c65c81f14610629575f80fd5b80637adbf973146105af5780637dc0d1d0146105c25780637e07ab09146105d55780638011d1ed146105e8575f80fd5b80637319b43e116102905780637319b43e14610540578063773ed91e1461058057806379c3f6831461059357806379e02b95146105a6575f80fd5b80635c7b79f5146104d45780635fc3d52d146104e7578063671eea01146104fa575f80fd5b806322d4bcbd116103205780633c28f9ce116102fb5780633c28f9ce1461046457806340f74f47146104775780634aa823801461049757806350570248146104c1575f80fd5b806322d4bcbd1461042e5780632e5b21681461043757806338a5081714610440575f80fd5b8063074e00361161035b578063074e0036146103bb5780630d2dce22146103c457806313b8ac5e146103e45780631f69565f1461040e575f80fd5b806301526a43146103815780630187aea014610396578063034420c4146103b2575b5f80fd5b61039461038f366004613233565b61099a565b005b61039f60035481565b6040519081526020015b60405180910390f35b61039f60155481565b61039f600a5481565b6103d76103d236600461324a565b6109d2565b6040516103a991906132eb565b61039f6103f236600461324a565b601b60209081525f928352604080842090915290825290205481565b61042161041c36600461331f565b610b7d565b6040516103a99190613385565b61039f600e5481565b61039f60145481565b6015545f9081526016602052604090206001015460ff166040516103a99190613431565b61039461047236600461343f565b610e47565b61048a61048536600461324a565b610f5c565b6040516103a99190613509565b61039f6104a536600461324a565b601260209081525f928352604080842090915290825290205481565b6103946104cf366004613233565b61112e565b6103946104e2366004613233565b61115d565b6103946104f5366004613233565b611275565b61052b61050836600461324a565b601760209081525f92835260408084209091529082529020805460019091015482565b604080519283526020830191909152016103a9565b61056861054e366004613233565b60116020525f90815260409020546001600160a01b031681565b6040516001600160a01b0390911681526020016103a9565b600654610568906001600160a01b031681565b6103946105a1366004613233565b611326565b61039f60085481565b6103946105bd36600461331f565b61143d565b600454610568906001600160a01b031681565b6103946105e3366004613233565b611489565b61039f6116a5565b6103946105fe366004613233565b6116ba565b610394610611366004613233565b6117ce565b610394610624366004613233565b6117fd565b610693610637366004613233565b60166020525f9081526040902080546001820154600283015460038401546004850154600586015460068701546007880154600889015460098a0154600a909a0154989960ff909816989697959694959394929391929091908b565b6040516103a99b9a9998979695949392919061351b565b600554610568906001600160a01b031681565b61052b6106cb36600461324a565b601a60209081525f92835260408084209091529082529020805460019091015482565b61039f60135481565b61070a610705366004613576565b61182c565b60405190151581526020016103a9565b61070a61072836600461324a565b601c60209081525f928352604080842090915290825290205460ff1681565b610394610755366004613233565b61186e565b61039f60025481565b61039f600c5481565b60155461039f565b61039f60105481565b61079061078b366004613576565b61189d565b6040516103a994939291906135ce565b61039f670de0b6b3a764000081565b61070a6107bd366004613233565b601d6020525f908152604090205460ff1681565b61039f60075481565b6103946107e8366004613233565b611c84565b6103946107fb366004613233565b611d98565b61070a61080e36600461324a565b601960209081525f928352604080842090915290825290205460ff1681565b61039f60095481565b610394610844366004613233565b611e95565b61039461085736600461370b565b61215e565b61086f61086a366004613761565b6124e8565b6040516103a99493929190613791565b61039461088d36600461331f565b6129e3565b61039f600d5481565b6108ef6108a936600461331f565b600f6020525f908152604090208054600182015460028301546003840154600485015460058601546006909601546001600160a01b039095169593949293919290919087565b604080516001600160a01b0390981688526020880196909652948601939093526060850191909152608084015260a083015260c082015260e0016103a9565b61039f600b5481565b61039461094536600461331f565b612a2f565b6103946109583660046137a3565b612a7b565b600154610568906001600160a01b031681565b61039f61097e36600461324a565b601860209081525f928352604080842090915290825290205481565b6005546001600160a01b031633146109cd5760405162461bcd60e51b81526004016109c49061380b565b60405180910390fd5b600355565b6060601054831115610a1657604080515f8082526020820190925290610a0e565b6109fb61319d565b8152602001906001900390816109f35790505b509050610b77565b82158015610a22575081155b15610a2d5760105491505b601054610a3a8385613843565b1115610a515782601054610a4e9190613856565b91505b5f826001600160401b03811115610a6a57610a6a613625565b604051908082528060200260200182016040528015610aa357816020015b610a9061319d565b815260200190600190039081610a885790505b5090505f5b83811015610b7357600f5f60115f8885601054610ac59190613856565b610acf9190613856565b815260208082019290925260409081015f908120546001600160a01b03908116855284840195909552928101909220825160e081018452815490941684526001810154918401919091526002810154918301919091526003810154606083015260048101546080830152600581015460a08301526006015460c08201528251839083908110610b6057610b60613869565b6020908102919091010152600101610aa8565b5090505b92915050565b610bbe6040518060c001604052805f6001600160a01b031681526020015f60ff16815260200160608152602001606081526020015f81526020015f81525090565b6040805160c0810182526001546001600160a01b0316808252825163313ce56760e01b81529251919260208085019363313ce5679260048082019392918290030181865afa158015610c12573d5f803e3d5ffd5b505050506040513d601f19601f82011682018060405250810190610c36919061387d565b60ff16815260200160015f9054906101000a90046001600160a01b03166001600160a01b03166306fdde036040518163ffffffff1660e01b81526004015f60405180830381865afa158015610c8d573d5f803e3d5ffd5b505050506040513d5f823e601f3d908101601f19168201604052610cb4919081019061389d565b815260200160015f9054906101000a90046001600160a01b03166001600160a01b03166395d89b416040518163ffffffff1660e01b81526004015f60405180830381865afa158015610d08573d5f803e3d5ffd5b505050506040513d5f823e601f3d908101601f19168201604052610d2f919081019061389d565b81526020016001600160a01b038416610d48575f610db4565b6001546040516370a0823160e01b81526001600160a01b038681166004830152909116906370a0823190602401602060405180830381865afa158015610d90573d5f803e3d5ffd5b505050506040513d601f19601f82011682018060405250810190610db4919061392b565b81526020016001600160a01b038416610dcd575f610e3f565b600154604051636eb1769f60e11b81526001600160a01b0386811660048301523060248301529091169063dd62ed3e90604401602060405180830381865afa158015610e1b573d5f803e3d5ffd5b505050506040513d601f19601f82011682018060405250810190610e3f919061392b565b905292915050565b6005546001600160a01b03163314610e715760405162461bcd60e51b81526004016109c49061380b565b6001546001600160a01b0390811690831603610ee35760405162461bcd60e51b815260206004820152602b60248201527f43616e74207265636f7765722067616d6520746f6b656e2e204f6e6c7920626160448201526a6e6b20776974686472617760a81b60648201526084016109c4565b60055460405163a9059cbb60e01b81526001600160a01b039182166004820152602481018390529083169063a9059cbb906044016020604051808303815f875af1158015610f33573d5f803e3d5ffd5b505050506040513d601f19601f82011682018060405250810190610f579190613942565b505050565b6060601554831115610f9f57604080515f8082526020820190925290610a0e565b610f856131dc565b815260200190600190039081610f7d579050509050610b77565b82158015610fab575081155b15610fb65760155491505b601554610fc38385613843565b1115610fda5782601554610fd79190613856565b91505b5f826001600160401b03811115610ff357610ff3613625565b60405190808252806020026020018201604052801561102c57816020015b6110196131dc565b8152602001906001900390816110115790505b5090505f5b83811015610b735760165f868360155461104b9190613856565b6110559190613856565b81526020019081526020015f20604051806101600160405290815f8201548152602001600182015f9054906101000a900460ff16600581111561109a5761109a6133fd565b60058111156110ab576110ab6133fd565b81526020016002820154815260200160038201548152602001600482015481526020016005820154815260200160068201548152602001600782015481526020016008820154815260200160098201548152602001600a8201548152505082828151811061111b5761111b613869565b6020908102919091010152600101611031565b6005546001600160a01b031633146111585760405162461bcd60e51b81526004016109c49061380b565b600e55565b61116561306d565b335f908152600f6020526040902060028101548211156111c75760405162461bcd60e51b815260206004820152601b60248201527f4e6f7420656e6f75676874206465706f7369742062616c616e6365000000000060448201526064016109c4565b60015460405163a9059cbb60e01b8152336004820152602481018490526001600160a01b039091169063a9059cbb906044016020604051808303815f875af1158015611215573d5f803e3d5ffd5b505050506040513d601f19601f820116820180604052508101906112399190613942565b5081816002015f82825461124d9190613856565b9250508190555081600d5f8282546112659190613856565b909155505060015f555050565b50565b6004546001600160a01b0316331461129f5760405162461bcd60e51b81526004016109c490613961565b60025f8281526016602052604090206001015460ff1660058111156112c6576112c66133fd565b146113015760405162461bcd60e51b815260206004820152600b60248201526a4e6f742070656e64696e6760a81b60448201526064016109c4565b5f90815260166020526040902060018101805460ff1916600317905542600290910155565b6005546001600160a01b031633146113505760405162461bcd60e51b81526004016109c49061380b565b61135861306d565b5f81116113a75760405162461bcd60e51b815260206004820152601d60248201527f416d6f756e74206d7573742062652067726561746572207468616e203000000060448201526064016109c4565b6001546040516323b872dd60e01b8152336004820152306024820152604481018390526001600160a01b03909116906323b872dd906064016020604051808303815f875af11580156113fb573d5f803e3d5ffd5b505050506040513d601f19601f8201168201806040525081019061141f9190613942565b508060075f8282546114319190613843565b909155505060015f5550565b6005546001600160a01b031633146114675760405162461bcd60e51b81526004016109c49061380b565b600480546001600160a01b0319166001600160a01b0392909216919091179055565b61149161306d565b6005546001600160a01b03163314806114b457506004546001600160a01b031633145b6114f75760405162461bcd60e51b81526020600482015260146024820152734f6e6c79206f776e6572206f72206f7261636c6560601b60448201526064016109c4565b60025f8281526016602052604090206001015460ff16600581111561151e5761151e6133fd565b148061154e575060035f8281526016602052604090206001015460ff16600581111561154c5761154c6133fd565b145b61158f5760405162461bcd60e51b81526020600482015260126024820152712737ba103832b73234b7339037b910393ab760711b60448201526064016109c4565b5f81815260166020526040812060018101805460ff19166005179055426003909101555b5f8281526016602052604090206004015481101561169b575f8281526017602090815260408083208484528083528184208054855260118452828520546001600160a01b03168552600f845291842085855292526001015460028201805492939192909190611623908490613843565b90915550505f83815260176020908152604080832085845290915281206001015460038301805491929091611659908490613856565b90915550505f838152601760209081526040808320858452909152812060010154600d80549192909161168d908490613843565b9091555050506001016115b3565b5061127260015f55565b5f60155460016116b59190613843565b905090565b6005546001600160a01b031633146116e45760405162461bcd60e51b81526004016109c49061380b565b6116ec61306d565b60085481111561172c5760405162461bcd60e51b815260206004820152600b60248201526a139bdd08195b9bdd59da1d60aa1b60448201526064016109c4565b6001546040516323b872dd60e01b8152336004820152306024820152604481018390526001600160a01b03909116906323b872dd906064016020604051808303815f875af1158015611780573d5f803e3d5ffd5b505050506040513d601f19601f820116820180604052508101906117a49190613942565b508060085f8282546117b69190613856565b925050819055508060075f8282546114319190613843565b6005546001600160a01b031633146117f85760405162461bcd60e51b81526004016109c49061380b565b601455565b6005546001600160a01b031633146118275760405162461bcd60e51b81526004016109c49061380b565b601355565b5f80848360405160200161184a929190918252602082015260400190565b60408051601f19818403018152919052805160209091012084149150509392505050565b6005546001600160a01b031633146118985760405162461bcd60e51b81526004016109c49061380b565b600255565b60608060608060165f8881526020019081526020015f206004015486111561191a57604080515f80825260208201909252906118ef565b6118dc61319d565b8152602001906001900390816118d45790505b50604080515f8082526020820181815282840191825260608301909352929650945092509050611c7b565b85158015611926575084155b1561193f575f8781526016602052604090206004015494505b5f8781526016602052604090206004015461195a8688613843565b111561197f575f8781526016602052604090206004015461197c908790613856565b94505b846001600160401b0381111561199757611997613625565b6040519080825280602002602001820160405280156119d057816020015b6119bd61319d565b8152602001906001900390816119b55790505b509350846001600160401b038111156119eb576119eb613625565b604051908082528060200260200182016040528015611a14578160200160208202803683370190505b509250846001600160401b03811115611a2f57611a2f613625565b604051908082528060200260200182016040528015611a58578160200160208202803683370190505b5090505f5b85811015611c79575f888152601660205260408120600401546001908990611a86908590613856565b611a909190613856565b611a9a9190613856565b5f8a8152601760209081526040808320848452825280832054835260118252808320546001600160a01b039081168452600f835292819020815160e081018352815490941684526001810154928401929092526002820154908301526003810154606083015260048101546080830152600581015460a08301526006015460c08201528751919250908190889085908110611b3757611b37613869565b6020908102919091018101919091525f8b815260178252604080822085835290925220600101548651879085908110611b7257611b72613869565b6020908102919091018101919091525f8b8152601c82526040808220848401518352909252205460ff1615611c6f575f8a8152601a60209081526040808320601b835281842085840151855283528184205484529091529020600101548551869085908110611be357611be3613869565b6020908102919091018101919091525f8b8152601a82526040808220601b8452818320858501518452845281832054835283528082206001908101548e84526017855282842087855290945291200154670de0b6b3a764000091611c4691613986565b611c50919061399d565b848481518110611c6257611c62613869565b6020026020010181815250505b5050600101611a5d565b505b93509350935093565b611c8c61306d565b5f8111611cdb5760405162461bcd60e51b815260206004820152601d60248201527f416d6f756e74206d7573742062652067726561746572207468616e203000000060448201526064016109c4565b6001546040516323b872dd60e01b8152336004820152306024820152604481018390526001600160a01b03909116906323b872dd906064016020604051808303815f875af1158015611d2f573d5f803e3d5ffd5b505050506040513d601f19601f82011682018060405250810190611d539190613942565b50611d5d336130c4565b335f908152600f6020526040812060028101805491928492611d80908490613843565b9250508190555081600d5f8282546112659190613843565b6005546001600160a01b03163314611dc25760405162461bcd60e51b81526004016109c49061380b565b611dca61306d565b600754811115611e115760405162461bcd60e51b81526020600482015260126024820152714e6f7420656e6f75746820696e2062616e6b60701b60448201526064016109c4565b60015460405163a9059cbb60e01b8152336004820152602481018390526001600160a01b039091169063a9059cbb906044016020604051808303815f875af1158015611e5f573d5f803e3d5ffd5b505050506040513d601f19601f82011682018060405250810190611e839190613942565b508060075f8282546114319190613856565b6004546001600160a01b03163314611ebf5760405162461bcd60e51b81526004016109c490613961565b6015545f9081526016602052604081206001015460ff166005811115611ee757611ee76133fd565b1480611f1a575060046015545f9081526016602052604090206001015460ff166005811115611f1857611f186133fd565b145b80611f4c575060056015545f9081526016602052604090206001015460ff166005811115611f4a57611f4a6133fd565b145b611f905760405162461bcd60e51b8152602060048201526015602482015274141c995d881c9bdd5b99081b9bdd0818db1bdcd959605a1b60448201526064016109c4565b5f818152601d602052604090205460ff1615611fe25760405162461bcd60e51b815260206004820152601160248201527012185cda08185b1c9958591e481d5cd959607a1b60448201526064016109c4565b5f818152601d60205260408120805460ff191660011790556015805491612008836139bc565b90915550506015545f81815260166020818152604080842081516101608101835286815260028185019081524293820193909352606081018690526004820154608082015260a08101869052600682015460c082015260e08101869052610100810186905261012081018890526101408101869052948690529290915282518255516001808301805493949385939260ff1991909116908360058111156120b1576120b16133fd565b021790555060408201516002820155606082015160038201556080820151600482015560a0820151600582015560c0820151600682015560e082015160078201556101008201516008820155610120820151600982015561014090910151600a90910155600160165f6121248584613843565b81526020019081526020015f206001015f6101000a81548160ff02191690836005811115612154576121546133fd565b0217905550505050565b6004546001600160a01b031633146121885760405162461bcd60e51b81526004016109c490613961565b60025f8381526016602052604090206001015460ff1660058111156121af576121af6133fd565b146121f05760405162461bcd60e51b8152602060048201526011602482015270139bdd081c195b991a5b99c81c9bdd5b99607a1b60448201526064016109c4565b5f82815260166020526040812060040154815b835181101561247b575f600f5f60115f88868151811061222557612225613869565b60200260200101515f015181526020019081526020015f205f9054906101000a90046001600160a01b03166001600160a01b03166001600160a01b031681526020019081526020015f20905084828151811061228357612283613869565b6020026020010151602001518160020154101580156122bf57505f8681526019602090815260408083206001850154845290915290205460ff16155b80156122ea57506013548583815181106122db576122db613869565b60200260200101516020015110155b8015612315575060145485838151811061230657612306613869565b60200260200101516020015111155b156124725784828151811061232c5761232c613869565b602002602001015160200151816002015f82825461234a9190613856565b9250508190555084828151811061236357612363613869565b602002602001015160200151816003015f8282546123819190613843565b90915550506006810186905560018101545f9081526012602090815260408083206005850180548552925282208890558054916123bd836139bc565b91905055508482815181106123d4576123d4613869565b6020908102919091018101515f888152601783526040808220878352845280822083518155928401516001938401558982526019845280822085840154835290935291909120805460ff191690911790558261242f816139bc565b93505084828151811061244457612444613869565b6020026020010151602001518461245b9190613843565b600980549195505f61246c836139bc565b91905055505b50600101612203565b5081600d5f82825461248d9190613856565b9250508190555081600b5f8282546124a59190613843565b90915550505f84815260166020526040812060060180548492906124ca908490613843565b90915550505f93845260166020526040909320600401929092555050565b6001600160a01b038084165f818152600f6020908152604091829020825160e0810184528154909516808652600182015492860192909252600281015492850192909252600382015460608581019190915260048301546080860152600583015460a086015260069092015460c08501529092839283928392919003612983578060a001518711156125d157604080515f80825260208201909252906125a4565b6125916131dc565b8152602001906001900390816125895790505b50604080515f8082526020820181815282840191825260608301909352929750955093509150611c7b9050565b861580156125dd575085155b156125ea578060a0015195505b60a08101516125f98789613843565b111561261257868160a0015161260f9190613856565b95505b856001600160401b0381111561262a5761262a613625565b60405190808252806020026020018201604052801561266357816020015b6126506131dc565b8152602001906001900390816126485790505b509450856001600160401b0381111561267e5761267e613625565b6040519080825280602002602001820160405280156126a7578160200160208202803683370190505b509350856001600160401b038111156126c2576126c2613625565b6040519080825280602002602001820160405280156126eb578160200160208202803683370190505b509250856001600160401b0381111561270657612706613625565b60405190808252806020026020018201604052801561272f578160200160208202803683370190505b5091505f5b8681101561297c575f60125f846020015181526020019081526020015f205f60018b858760a001516127669190613856565b6127709190613856565b61277a9190613856565b815260208082019290925260409081015f908120548082526016845282822083516101608101909452805484526001810154919550919383019060ff1660058111156127c8576127c86133fd565b60058111156127d9576127d96133fd565b8152600282015460208083019190915260038301546040808401919091526004840154606084015260058401546080840152600684015460a0840152600784015460c0840152600884015460e08401526009840154610100840152600a90930154610120909201919091525f858152601782528281206018835283822089840180518452908452848320548352908352838220845180860186528154815260019182015481860152888452601a8552858420601b8652868520935185529285528584205484529184529184902084518086019095528054855290910154918301919091528a519293509183908b90879081106128d7576128d7613869565b602002602001018190525081602001518986815181106128f9576128f9613869565b602002602001018181525050670de0b6b3a7640000816020015183602001516129229190613986565b61292c919061399d565b88868151811061293e5761293e613869565b602002602001018181525050806020015187868151811061296157612961613869565b60209081029190910101525050600190920191506127349050565b5050611c7b565b604080515f80825260208201909252906129b3565b6129a06131dc565b8152602001906001900390816129985790505b50604080515f8082526020820181815282840191825260608301909352929b909a50909850909650945050505050565b6005546001600160a01b03163314612a0d5760405162461bcd60e51b81526004016109c49061380b565b600680546001600160a01b0319166001600160a01b0392909216919091179055565b6005546001600160a01b03163314612a595760405162461bcd60e51b81526004016109c49061380b565b600580546001600160a01b0319166001600160a01b0392909216919091179055565b6004546001600160a01b03163314612aa55760405162461bcd60e51b81526004016109c490613961565b612aad61306d565b60035f8581526016602052604090206001015460ff166005811115612ad457612ad46133fd565b14612b0e5760405162461bcd60e51b815260206004820152600a602482015269139bdd081c9d5b9b995960b21b60448201526064016109c4565b5f84815260166020526040902060090154612b2b9084908461182c565b612b6e5760405162461bcd60e51b81526020600482015260146024820152732737ba103b30b634b21036bab63a34b83634b2b960611b60448201526064016109c4565b5f84815260166020526040812060088101859055600a810184905560018101805460ff19166004179055426003909101558080805b8451811015612ecd575f600f5f60115f898681518110612bc557612bc5613869565b60200260200101515f015181526020019081526020015f205f9054906101000a90046001600160a01b03166001600160a01b03166001600160a01b031681526020019081526020015f20905060195f8a81526020019081526020015f205f878481518110612c3557612c35613869565b6020908102919091018101515182528101919091526040015f205460ff168015612c9e5750601c5f8a81526020019081526020015f205f878481518110612c7e57612c7e613869565b6020908102919091018101515182528101919091526040015f205460ff16155b15612ec4575f89815260176020908152604080832060189092528220885191929182908a9087908110612cd357612cd3613869565b60200260200101515f015181526020019081526020015f205481526020019081526020015f206001015484612d089190613843565b93505f670de0b6b3a7640000878481518110612d2657612d26613869565b6020908102919091018101518101515f8d8152601783526040808220601890945281208b5192939282908d908a908110612d6257612d62613869565b60200260200101515f015181526020019081526020015f205481526020019081526020015f2060010154612d969190613986565b612da0919061399d565b9050612dac8187613843565b955080826004015f828254612dc19190613843565b9250508190555080826002015f828254612ddb9190613843565b90915550505f8a8152601c602052604081208851600192908a9087908110612e0557612e05613869565b60200260200101515f015181526020019081526020015f205f6101000a81548160ff021916908315150217905550868381518110612e4557612e45613869565b6020908102919091018101515f8c8152601a83526040808220888352845280822083518155928401516001909301929092558c8152601b909252812088518692908a9087908110612e9857612e98613869565b60200260200101515f015181526020019081526020015f20819055508380612ebf906139bc565b945050505b50600101612ba3565b5082600d5f828254612edf9190613843565b9250508190555080600a5f828254612ef79190613843565b9250508190555082600c5f828254612f0f9190613843565b90915550505f878152601660205260408120600781018590556005810183905560060154612f3e908490613856565b90505f612710600e54612710612f549190613856565b612f5e9084613986565b612f68919061399d565b90505f612710600e5484612f7c9190613986565b612f86919061399d565b90508160075f828254612f999190613843565b90915550506007548611612fc3578560075f828254612fb89190613856565b90915550612fda9050565b8560085f828254612fd49190613843565b90915550505b80156130585760015460065460405163a9059cbb60e01b81526001600160a01b0391821660048201526024810184905291169063a9059cbb906044016020604051808303815f875af1158015613032573d5f803e3d5ffd5b505050506040513d601f19601f820116820180604052508101906130569190613942565b505b50505050505061306760015f55565b50505050565b60025f54036130be5760405162461bcd60e51b815260206004820152601f60248201527f5265656e7472616e637947756172643a207265656e7472616e742063616c6c0060448201526064016109c4565b60025f55565b6001600160a01b038082165f818152600f6020526040902054909116146112725760108054905f6130f4836139bc565b90915550506010546040805160e0810182526001600160a01b0393841680825260208083018581525f848601818152606086018281526080870183815260a0880184815260c08901858152888652600f88528a862099518a549d166001600160a01b03199d8e16178a55955160018a0155925160028901559051600388015551600487015551600586015590516006909401939093559382526011909352208054909216179055565b6040518060e001604052805f6001600160a01b031681526020015f81526020015f81526020015f81526020015f81526020015f81526020015f81525090565b6040805161016081019091525f808252602082019081526020015f81526020015f81526020015f81526020015f81526020015f81526020015f81526020015f81526020015f80191681526020015f80191681525090565b5f60208284031215613243575f80fd5b5035919050565b5f806040838503121561325b575f80fd5b50508035926020909101359150565b5f815180845260208085019450602084015f5b838110156132e057815180516001600160a01b03168852838101518489015260408082015190890152606080820151908901526080808201519089015260a0808201519089015260c0908101519088015260e0909601959082019060010161327d565b509495945050505050565b602081525f6132fd602083018461326a565b9392505050565b80356001600160a01b038116811461331a575f80fd5b919050565b5f6020828403121561332f575f80fd5b6132fd82613304565b5f5b8381101561335257818101518382015260200161333a565b50505f910152565b5f8151808452613371816020860160208601613338565b601f01601f19169290920160200192915050565b6020815260018060a01b03825116602082015260ff60208301511660408201525f604083015160c060608401526133bf60e084018261335a565b90506060840151601f198483030160808501526133dc828261335a565b915050608084015160a084015260a084015160c08401528091505092915050565b634e487b7160e01b5f52602160045260245ffd5b6006811061342d57634e487b7160e01b5f52602160045260245ffd5b9052565b60208101610b778284613411565b5f8060408385031215613450575f80fd5b61345983613304565b946020939093013593505050565b5f815180845260208085019450602084015f5b838110156132e05781518051885283810151613498858a0182613411565b5060408181015190890152606080820151908901526080808201519089015260a0808201519089015260c0808201519089015260e08082015190890152610100808201519089015261012080820151908901526101409081015190880152610160909601959082019060010161347a565b602081525f6132fd6020830184613467565b8b81526101608101613530602083018d613411565b604082019a909a526060810198909852608088019690965260a087019490945260c086019290925260e08501526101008401526101208301526101409091015292915050565b5f805f60608486031215613588575f80fd5b505081359360208301359350604090920135919050565b5f815180845260208085019450602084015f5b838110156132e0578151875295820195908201906001016135b2565b608081525f6135e0608083018761326a565b82810360208401526135f2818761359f565b90508281036040840152613606818661359f565b9050828103606084015261361a818561359f565b979650505050505050565b634e487b7160e01b5f52604160045260245ffd5b604051601f8201601f191681016001600160401b038111828210171561366157613661613625565b604052919050565b5f6001600160401b038084111561368257613682613625565b602061369360208660051b01613639565b858152925060208301600686901b8501878111156136af575f80fd5b855b818110156136ff57604080828b0312156136c9575f80fd5b805181810181811088821117156136e2576136e2613625565b9091528135815284820135858201528352918301916040016136b1565b50505050509392505050565b5f806040838503121561371c575f80fd5b8235915060208301356001600160401b03811115613738575f80fd5b8301601f81018513613748575f80fd5b61375785823560208401613669565b9150509250929050565b5f805f60608486031215613773575f80fd5b61377c84613304565b95602085013595506040909401359392505050565b608081525f6135e06080830187613467565b5f805f80608085870312156137b6575f80fd5b84359350602085013592506040850135915060608501356001600160401b038111156137e0575f80fd5b8501601f810187136137f0575f80fd5b6137ff87823560208401613669565b91505092959194509250565b6020808252600a908201526927b7363c9037bbb732b960b11b604082015260600190565b634e487b7160e01b5f52601160045260245ffd5b80820180821115610b7757610b7761382f565b81810381811115610b7757610b7761382f565b634e487b7160e01b5f52603260045260245ffd5b5f6020828403121561388d575f80fd5b815160ff811681146132fd575f80fd5b5f602082840312156138ad575f80fd5b81516001600160401b03808211156138c3575f80fd5b818401915084601f8301126138d6575f80fd5b8151818111156138e8576138e8613625565b6138fb601f8201601f1916602001613639565b9150808252856020828501011115613911575f80fd5b613922816020840160208601613338565b50949350505050565b5f6020828403121561393b575f80fd5b5051919050565b5f60208284031215613952575f80fd5b815180151581146132fd575f80fd5b6020808252600b908201526a4f6e6c79206f7261636c6560a81b604082015260600190565b8082028115828204841417610b7757610b7761382f565b5f826139b757634e487b7160e01b5f52601260045260245ffd5b500490565b5f600182016139cd576139cd61382f565b506001019056fea2646970667358221220a6c2f4599a6cf6c7e3cc9c13bb371051cde4e005170d99cd57fe6b26889b26fb64736f6c63430008180033",
			"opcodes": "PUSH1 0x80 PUSH1 0x40 MSTORE PUSH8 0xF43FC2C04EE0000 PUSH1 0x2 SSTORE PUSH8 0x6124FEE993BC0000 PUSH1 0x3 SSTORE PUSH0 PUSH1 0x7 SSTORE PUSH0 PUSH1 0x8 SSTORE PUSH0 PUSH1 0x9 SSTORE PUSH0 PUSH1 0xA SSTORE PUSH0 PUSH1 0xB SSTORE PUSH0 PUSH1 0xC SSTORE PUSH0 PUSH1 0xD SSTORE PUSH2 0x3E8 PUSH1 0xE SSTORE PUSH0 PUSH1 0x10 SSTORE PUSH8 0xDE0B6B3A7640000 PUSH1 0x13 SSTORE PUSH9 0x56BC75E2D63100000 PUSH1 0x14 SSTORE PUSH0 PUSH1 0x15 SSTORE CALLVALUE DUP1 ISZERO PUSH3 0x6B JUMPI PUSH0 DUP1 REVERT JUMPDEST POP PUSH1 0x40 MLOAD PUSH3 0x3B82 CODESIZE SUB DUP1 PUSH3 0x3B82 DUP4 CODECOPY DUP2 ADD PUSH1 0x40 DUP2 SWAP1 MSTORE PUSH3 0x8E SWAP2 PUSH3 0x13B JUMP JUMPDEST PUSH1 0x1 PUSH0 DUP2 DUP2 SSTORE DUP2 SLOAD PUSH1 0x1 PUSH1 0x1 PUSH1 0xA0 SHL SUB SWAP4 SWAP1 SWAP4 AND PUSH1 0x1 PUSH1 0x1 PUSH1 0xA0 SHL SUB NOT SWAP4 DUP5 AND OR DUP3 SSTORE PUSH1 0x16 PUSH1 0x20 MSTORE PUSH32 0x263C2B778D062355049EFFC2DECE97BC6547FF8A88A3258DAA512061C2153DE DUP1 SLOAD PUSH1 0xFF NOT SWAP1 DUP2 AND PUSH1 0x4 SWAP1 DUP2 OR SWAP1 SWAP3 SSTORE SWAP2 DUP4 SWAP1 MSTORE PUSH32 0x4C4DC693D7DB52F85FE052106F4B4B920E78E8EF37DEE82878A60AB8585FAF4A DUP1 SLOAD SWAP1 SWAP3 AND SWAP1 SWAP3 OR SWAP1 SSTORE DUP1 SLOAD DUP3 AND CALLER SWAP1 DUP2 OR SWAP1 SWAP2 SSTORE PUSH1 0x6 DUP1 SLOAD DUP4 AND DUP3 OR SWAP1 SSTORE PUSH1 0x5 DUP1 SLOAD SWAP1 SWAP3 AND OR SWAP1 SSTORE PUSH3 0x16A JUMP JUMPDEST PUSH0 PUSH1 0x20 DUP3 DUP5 SUB SLT ISZERO PUSH3 0x14C JUMPI PUSH0 DUP1 REVERT JUMPDEST DUP2 MLOAD PUSH1 0x1 PUSH1 0x1 PUSH1 0xA0 SHL SUB DUP2 AND DUP2 EQ PUSH3 0x163 JUMPI PUSH0 DUP1 REVERT JUMPDEST SWAP4 SWAP3 POP POP POP JUMP JUMPDEST PUSH2 0x3A0A DUP1 PUSH3 0x178 PUSH0 CODECOPY PUSH0 RETURN INVALID PUSH1 0x80 PUSH1 0x40 MSTORE CALLVALUE DUP1 ISZERO PUSH2 0xF JUMPI PUSH0 DUP1 REVERT JUMPDEST POP PUSH1 0x4 CALLDATASIZE LT PUSH2 0x37D JUMPI PUSH0 CALLDATALOAD PUSH1 0xE0 SHR DUP1 PUSH4 0x8DA5CB5B GT PUSH2 0x1D4 JUMPI DUP1 PUSH4 0xB6B55F25 GT PUSH2 0x109 JUMPI DUP1 PUSH4 0xDBBE2550 GT PUSH2 0xA9 JUMPI DUP1 PUSH4 0xF2FDE38B GT PUSH2 0x79 JUMPI DUP1 PUSH4 0xF2FDE38B EQ PUSH2 0x937 JUMPI DUP1 PUSH4 0xF715DB58 EQ PUSH2 0x94A JUMPI DUP1 PUSH4 0xFC0C546A EQ PUSH2 0x95D JUMPI DUP1 PUSH4 0xFCA8D843 EQ PUSH2 0x970 JUMPI PUSH0 DUP1 REVERT JUMPDEST DUP1 PUSH4 0xDBBE2550 EQ PUSH2 0x87F JUMPI DUP1 PUSH4 0xE1496286 EQ PUSH2 0x892 JUMPI DUP1 PUSH4 0xE2EB41FF EQ PUSH2 0x89B JUMPI DUP1 PUSH4 0xEFBD7BD2 EQ PUSH2 0x92E JUMPI PUSH0 DUP1 REVERT JUMPDEST DUP1 PUSH4 0xBEFA1E2F GT PUSH2 0xE4 JUMPI DUP1 PUSH4 0xBEFA1E2F EQ PUSH2 0x82D JUMPI DUP1 PUSH4 0xCB02C10A EQ PUSH2 0x836 JUMPI DUP1 PUSH4 0xCE314F43 EQ PUSH2 0x849 JUMPI DUP1 PUSH4 0xCFBD9C95 EQ PUSH2 0x85C JUMPI PUSH0 DUP1 REVERT JUMPDEST DUP1 PUSH4 0xB6B55F25 EQ PUSH2 0x7DA JUMPI DUP1 PUSH4 0xBE2FF4A9 EQ PUSH2 0x7ED JUMPI DUP1 PUSH4 0xBED8840C EQ PUSH2 0x800 JUMPI PUSH0 DUP1 REVERT JUMPDEST DUP1 PUSH4 0xA2791143 GT PUSH2 0x174 JUMPI DUP1 PUSH4 0xA4AB9235 GT PUSH2 0x14F JUMPI DUP1 PUSH4 0xA4AB9235 EQ PUSH2 0x77D JUMPI DUP1 PUSH4 0xAAF5EB68 EQ PUSH2 0x7A0 JUMPI DUP1 PUSH4 0xAEF18BF7 EQ PUSH2 0x7AF JUMPI DUP1 PUSH4 0xB42A275E EQ PUSH2 0x7D1 JUMPI PUSH0 DUP1 REVERT JUMPDEST DUP1 PUSH4 0xA2791143 EQ PUSH2 0x763 JUMPI DUP1 PUSH4 0xA32BF597 EQ PUSH2 0x76C JUMPI DUP1 PUSH4 0xA3F67D6D EQ PUSH2 0x774 JUMPI PUSH0 DUP1 REVERT JUMPDEST DUP1 PUSH4 0x9972780A GT PUSH2 0x1AF JUMPI DUP1 PUSH4 0x9972780A EQ PUSH2 0x6F7 JUMPI DUP1 PUSH4 0x9B29953B EQ PUSH2 0x71A JUMPI DUP1 PUSH4 0x9FD751C7 EQ PUSH2 0x747 JUMPI DUP1 PUSH4 0xA24E0D87 EQ PUSH2 0x75A JUMPI PUSH0 DUP1 REVERT JUMPDEST DUP1 PUSH4 0x8DA5CB5B EQ PUSH2 0x6AA JUMPI DUP1 PUSH4 0x91B1DB18 EQ PUSH2 0x6BD JUMPI DUP1 PUSH4 0x9619367D EQ PUSH2 0x6EE JUMPI PUSH0 DUP1 REVERT JUMPDEST DUP1 PUSH4 0x5C7B79F5 GT PUSH2 0x2B5 JUMPI DUP1 PUSH4 0x7ADBF973 GT PUSH2 0x255 JUMPI DUP1 PUSH4 0x81A486F7 GT PUSH2 0x225 JUMPI DUP1 PUSH4 0x81A486F7 EQ PUSH2 0x5F0 JUMPI DUP1 PUSH4 0x881EFF1E EQ PUSH2 0x603 JUMPI DUP1 PUSH4 0x88EA41B9 EQ PUSH2 0x616 JUMPI DUP1 PUSH4 0x8C65C81F EQ PUSH2 0x629 JUMPI PUSH0 DUP1 REVERT JUMPDEST DUP1 PUSH4 0x7ADBF973 EQ PUSH2 0x5AF JUMPI DUP1 PUSH4 0x7DC0D1D0 EQ PUSH2 0x5C2 JUMPI DUP1 PUSH4 0x7E07AB09 EQ PUSH2 0x5D5 JUMPI DUP1 PUSH4 0x8011D1ED EQ PUSH2 0x5E8 JUMPI PUSH0 DUP1 REVERT JUMPDEST DUP1 PUSH4 0x7319B43E GT PUSH2 0x290 JUMPI DUP1 PUSH4 0x7319B43E EQ PUSH2 0x540 JUMPI DUP1 PUSH4 0x773ED91E EQ PUSH2 0x580 JUMPI DUP1 PUSH4 0x79C3F683 EQ PUSH2 0x593 JUMPI DUP1 PUSH4 0x79E02B95 EQ PUSH2 0x5A6 JUMPI PUSH0 DUP1 REVERT JUMPDEST DUP1 PUSH4 0x5C7B79F5 EQ PUSH2 0x4D4 JUMPI DUP1 PUSH4 0x5FC3D52D EQ PUSH2 0x4E7 JUMPI DUP1 PUSH4 0x671EEA01 EQ PUSH2 0x4FA JUMPI PUSH0 DUP1 REVERT JUMPDEST DUP1 PUSH4 0x22D4BCBD GT PUSH2 0x320 JUMPI DUP1 PUSH4 0x3C28F9CE GT PUSH2 0x2FB JUMPI DUP1 PUSH4 0x3C28F9CE EQ PUSH2 0x464 JUMPI DUP1 PUSH4 0x40F74F47 EQ PUSH2 0x477 JUMPI DUP1 PUSH4 0x4AA82380 EQ PUSH2 0x497 JUMPI DUP1 PUSH4 0x50570248 EQ PUSH2 0x4C1 JUMPI PUSH0 DUP1 REVERT JUMPDEST DUP1 PUSH4 0x22D4BCBD EQ PUSH2 0x42E JUMPI DUP1 PUSH4 0x2E5B2168 EQ PUSH2 0x437 JUMPI DUP1 PUSH4 0x38A50817 EQ PUSH2 0x440 JUMPI PUSH0 DUP1 REVERT JUMPDEST DUP1 PUSH4 0x74E0036 GT PUSH2 0x35B JUMPI DUP1 PUSH4 0x74E0036 EQ PUSH2 0x3BB JUMPI DUP1 PUSH4 0xD2DCE22 EQ PUSH2 0x3C4 JUMPI DUP1 PUSH4 0x13B8AC5E EQ PUSH2 0x3E4 JUMPI DUP1 PUSH4 0x1F69565F EQ PUSH2 0x40E JUMPI PUSH0 DUP1 REVERT JUMPDEST DUP1 PUSH4 0x1526A43 EQ PUSH2 0x381 JUMPI DUP1 PUSH4 0x187AEA0 EQ PUSH2 0x396 JUMPI DUP1 PUSH4 0x34420C4 EQ PUSH2 0x3B2 JUMPI JUMPDEST PUSH0 DUP1 REVERT JUMPDEST PUSH2 0x394 PUSH2 0x38F CALLDATASIZE PUSH1 0x4 PUSH2 0x3233 JUMP JUMPDEST PUSH2 0x99A JUMP JUMPDEST STOP JUMPDEST PUSH2 0x39F PUSH1 0x3 SLOAD DUP2 JUMP JUMPDEST PUSH1 0x40 MLOAD SWAP1 DUP2 MSTORE PUSH1 0x20 ADD JUMPDEST PUSH1 0x40 MLOAD DUP1 SWAP2 SUB SWAP1 RETURN JUMPDEST PUSH2 0x39F PUSH1 0x15 SLOAD DUP2 JUMP JUMPDEST PUSH2 0x39F PUSH1 0xA SLOAD DUP2 JUMP JUMPDEST PUSH2 0x3D7 PUSH2 0x3D2 CALLDATASIZE PUSH1 0x4 PUSH2 0x324A JUMP JUMPDEST PUSH2 0x9D2 JUMP JUMPDEST PUSH1 0x40 MLOAD PUSH2 0x3A9 SWAP2 SWAP1 PUSH2 0x32EB JUMP JUMPDEST PUSH2 0x39F PUSH2 0x3F2 CALLDATASIZE PUSH1 0x4 PUSH2 0x324A JUMP JUMPDEST PUSH1 0x1B PUSH1 0x20 SWAP1 DUP2 MSTORE PUSH0 SWAP3 DUP4 MSTORE PUSH1 0x40 DUP1 DUP5 KECCAK256 SWAP1 SWAP2 MSTORE SWAP1 DUP3 MSTORE SWAP1 KECCAK256 SLOAD DUP2 JUMP JUMPDEST PUSH2 0x421 PUSH2 0x41C CALLDATASIZE PUSH1 0x4 PUSH2 0x331F JUMP JUMPDEST PUSH2 0xB7D JUMP JUMPDEST PUSH1 0x40 MLOAD PUSH2 0x3A9 SWAP2 SWAP1 PUSH2 0x3385 JUMP JUMPDEST PUSH2 0x39F PUSH1 0xE SLOAD DUP2 JUMP JUMPDEST PUSH2 0x39F PUSH1 0x14 SLOAD DUP2 JUMP JUMPDEST PUSH1 0x15 SLOAD PUSH0 SWAP1 DUP2 MSTORE PUSH1 0x16 PUSH1 0x20 MSTORE PUSH1 0x40 SWAP1 KECCAK256 PUSH1 0x1 ADD SLOAD PUSH1 0xFF AND PUSH1 0x40 MLOAD PUSH2 0x3A9 SWAP2 SWAP1 PUSH2 0x3431 JUMP JUMPDEST PUSH2 0x394 PUSH2 0x472 CALLDATASIZE PUSH1 0x4 PUSH2 0x343F JUMP JUMPDEST PUSH2 0xE47 JUMP JUMPDEST PUSH2 0x48A PUSH2 0x485 CALLDATASIZE PUSH1 0x4 PUSH2 0x324A JUMP JUMPDEST PUSH2 0xF5C JUMP JUMPDEST PUSH1 0x40 MLOAD PUSH2 0x3A9 SWAP2 SWAP1 PUSH2 0x3509 JUMP JUMPDEST PUSH2 0x39F PUSH2 0x4A5 CALLDATASIZE PUSH1 0x4 PUSH2 0x324A JUMP JUMPDEST PUSH1 0x12 PUSH1 0x20 SWAP1 DUP2 MSTORE PUSH0 SWAP3 DUP4 MSTORE PUSH1 0x40 DUP1 DUP5 KECCAK256 SWAP1 SWAP2 MSTORE SWAP1 DUP3 MSTORE SWAP1 KECCAK256 SLOAD DUP2 JUMP JUMPDEST PUSH2 0x394 PUSH2 0x4CF CALLDATASIZE PUSH1 0x4 PUSH2 0x3233 JUMP JUMPDEST PUSH2 0x112E JUMP JUMPDEST PUSH2 0x394 PUSH2 0x4E2 CALLDATASIZE PUSH1 0x4 PUSH2 0x3233 JUMP JUMPDEST PUSH2 0x115D JUMP JUMPDEST PUSH2 0x394 PUSH2 0x4F5 CALLDATASIZE PUSH1 0x4 PUSH2 0x3233 JUMP JUMPDEST PUSH2 0x1275 JUMP JUMPDEST PUSH2 0x52B PUSH2 0x508 CALLDATASIZE PUSH1 0x4 PUSH2 0x324A JUMP JUMPDEST PUSH1 0x17 PUSH1 0x20 SWAP1 DUP2 MSTORE PUSH0 SWAP3 DUP4 MSTORE PUSH1 0x40 DUP1 DUP5 KECCAK256 SWAP1 SWAP2 MSTORE SWAP1 DUP3 MSTORE SWAP1 KECCAK256 DUP1 SLOAD PUSH1 0x1 SWAP1 SWAP2 ADD SLOAD DUP3 JUMP JUMPDEST PUSH1 0x40 DUP1 MLOAD SWAP3 DUP4 MSTORE PUSH1 0x20 DUP4 ADD SWAP2 SWAP1 SWAP2 MSTORE ADD PUSH2 0x3A9 JUMP JUMPDEST PUSH2 0x568 PUSH2 0x54E CALLDATASIZE PUSH1 0x4 PUSH2 0x3233 JUMP JUMPDEST PUSH1 0x11 PUSH1 0x20 MSTORE PUSH0 SWAP1 DUP2 MSTORE PUSH1 0x40 SWAP1 KECCAK256 SLOAD PUSH1 0x1 PUSH1 0x1 PUSH1 0xA0 SHL SUB AND DUP2 JUMP JUMPDEST PUSH1 0x40 MLOAD PUSH1 0x1 PUSH1 0x1 PUSH1 0xA0 SHL SUB SWAP1 SWAP2 AND DUP2 MSTORE PUSH1 0x20 ADD PUSH2 0x3A9 JUMP JUMPDEST PUSH1 0x6 SLOAD PUSH2 0x568 SWAP1 PUSH1 0x1 PUSH1 0x1 PUSH1 0xA0 SHL SUB AND DUP2 JUMP JUMPDEST PUSH2 0x394 PUSH2 0x5A1 CALLDATASIZE PUSH1 0x4 PUSH2 0x3233 JUMP JUMPDEST PUSH2 0x1326 JUMP JUMPDEST PUSH2 0x39F PUSH1 0x8 SLOAD DUP2 JUMP JUMPDEST PUSH2 0x394 PUSH2 0x5BD CALLDATASIZE PUSH1 0x4 PUSH2 0x331F JUMP JUMPDEST PUSH2 0x143D JUMP JUMPDEST PUSH1 0x4 SLOAD PUSH2 0x568 SWAP1 PUSH1 0x1 PUSH1 0x1 PUSH1 0xA0 SHL SUB AND DUP2 JUMP JUMPDEST PUSH2 0x394 PUSH2 0x5E3 CALLDATASIZE PUSH1 0x4 PUSH2 0x3233 JUMP JUMPDEST PUSH2 0x1489 JUMP JUMPDEST PUSH2 0x39F PUSH2 0x16A5 JUMP JUMPDEST PUSH2 0x394 PUSH2 0x5FE CALLDATASIZE PUSH1 0x4 PUSH2 0x3233 JUMP JUMPDEST PUSH2 0x16BA JUMP JUMPDEST PUSH2 0x394 PUSH2 0x611 CALLDATASIZE PUSH1 0x4 PUSH2 0x3233 JUMP JUMPDEST PUSH2 0x17CE JUMP JUMPDEST PUSH2 0x394 PUSH2 0x624 CALLDATASIZE PUSH1 0x4 PUSH2 0x3233 JUMP JUMPDEST PUSH2 0x17FD JUMP JUMPDEST PUSH2 0x693 PUSH2 0x637 CALLDATASIZE PUSH1 0x4 PUSH2 0x3233 JUMP JUMPDEST PUSH1 0x16 PUSH1 0x20 MSTORE PUSH0 SWAP1 DUP2 MSTORE PUSH1 0x40 SWAP1 KECCAK256 DUP1 SLOAD PUSH1 0x1 DUP3 ADD SLOAD PUSH1 0x2 DUP4 ADD SLOAD PUSH1 0x3 DUP5 ADD SLOAD PUSH1 0x4 DUP6 ADD SLOAD PUSH1 0x5 DUP7 ADD SLOAD PUSH1 0x6 DUP8 ADD SLOAD PUSH1 0x7 DUP9 ADD SLOAD PUSH1 0x8 DUP10 ADD SLOAD PUSH1 0x9 DUP11 ADD SLOAD PUSH1 0xA SWAP1 SWAP11 ADD SLOAD SWAP9 SWAP10 PUSH1 0xFF SWAP1 SWAP9 AND SWAP9 SWAP7 SWAP8 SWAP6 SWAP7 SWAP5 SWAP6 SWAP4 SWAP5 SWAP3 SWAP4 SWAP2 SWAP3 SWAP1 SWAP2 SWAP1 DUP12 JUMP JUMPDEST PUSH1 0x40 MLOAD PUSH2 0x3A9 SWAP12 SWAP11 SWAP10 SWAP9 SWAP8 SWAP7 SWAP6 SWAP5 SWAP4 SWAP3 SWAP2 SWAP1 PUSH2 0x351B JUMP JUMPDEST PUSH1 0x5 SLOAD PUSH2 0x568 SWAP1 PUSH1 0x1 PUSH1 0x1 PUSH1 0xA0 SHL SUB AND DUP2 JUMP JUMPDEST PUSH2 0x52B PUSH2 0x6CB CALLDATASIZE PUSH1 0x4 PUSH2 0x324A JUMP JUMPDEST PUSH1 0x1A PUSH1 0x20 SWAP1 DUP2 MSTORE PUSH0 SWAP3 DUP4 MSTORE PUSH1 0x40 DUP1 DUP5 KECCAK256 SWAP1 SWAP2 MSTORE SWAP1 DUP3 MSTORE SWAP1 KECCAK256 DUP1 SLOAD PUSH1 0x1 SWAP1 SWAP2 ADD SLOAD DUP3 JUMP JUMPDEST PUSH2 0x39F PUSH1 0x13 SLOAD DUP2 JUMP JUMPDEST PUSH2 0x70A PUSH2 0x705 CALLDATASIZE PUSH1 0x4 PUSH2 0x3576 JUMP JUMPDEST PUSH2 0x182C JUMP JUMPDEST PUSH1 0x40 MLOAD SWAP1 ISZERO ISZERO DUP2 MSTORE PUSH1 0x20 ADD PUSH2 0x3A9 JUMP JUMPDEST PUSH2 0x70A PUSH2 0x728 CALLDATASIZE PUSH1 0x4 PUSH2 0x324A JUMP JUMPDEST PUSH1 0x1C PUSH1 0x20 SWAP1 DUP2 MSTORE PUSH0 SWAP3 DUP4 MSTORE PUSH1 0x40 DUP1 DUP5 KECCAK256 SWAP1 SWAP2 MSTORE SWAP1 DUP3 MSTORE SWAP1 KECCAK256 SLOAD PUSH1 0xFF AND DUP2 JUMP JUMPDEST PUSH2 0x394 PUSH2 0x755 CALLDATASIZE PUSH1 0x4 PUSH2 0x3233 JUMP JUMPDEST PUSH2 0x186E JUMP JUMPDEST PUSH2 0x39F PUSH1 0x2 SLOAD DUP2 JUMP JUMPDEST PUSH2 0x39F PUSH1 0xC SLOAD DUP2 JUMP JUMPDEST PUSH1 0x15 SLOAD PUSH2 0x39F JUMP JUMPDEST PUSH2 0x39F PUSH1 0x10 SLOAD DUP2 JUMP JUMPDEST PUSH2 0x790 PUSH2 0x78B CALLDATASIZE PUSH1 0x4 PUSH2 0x3576 JUMP JUMPDEST PUSH2 0x189D JUMP JUMPDEST PUSH1 0x40 MLOAD PUSH2 0x3A9 SWAP5 SWAP4 SWAP3 SWAP2 SWAP1 PUSH2 0x35CE JUMP JUMPDEST PUSH2 0x39F PUSH8 0xDE0B6B3A7640000 DUP2 JUMP JUMPDEST PUSH2 0x70A PUSH2 0x7BD CALLDATASIZE PUSH1 0x4 PUSH2 0x3233 JUMP JUMPDEST PUSH1 0x1D PUSH1 0x20 MSTORE PUSH0 SWAP1 DUP2 MSTORE PUSH1 0x40 SWAP1 KECCAK256 SLOAD PUSH1 0xFF AND DUP2 JUMP JUMPDEST PUSH2 0x39F PUSH1 0x7 SLOAD DUP2 JUMP JUMPDEST PUSH2 0x394 PUSH2 0x7E8 CALLDATASIZE PUSH1 0x4 PUSH2 0x3233 JUMP JUMPDEST PUSH2 0x1C84 JUMP JUMPDEST PUSH2 0x394 PUSH2 0x7FB CALLDATASIZE PUSH1 0x4 PUSH2 0x3233 JUMP JUMPDEST PUSH2 0x1D98 JUMP JUMPDEST PUSH2 0x70A PUSH2 0x80E CALLDATASIZE PUSH1 0x4 PUSH2 0x324A JUMP JUMPDEST PUSH1 0x19 PUSH1 0x20 SWAP1 DUP2 MSTORE PUSH0 SWAP3 DUP4 MSTORE PUSH1 0x40 DUP1 DUP5 KECCAK256 SWAP1 SWAP2 MSTORE SWAP1 DUP3 MSTORE SWAP1 KECCAK256 SLOAD PUSH1 0xFF AND DUP2 JUMP JUMPDEST PUSH2 0x39F PUSH1 0x9 SLOAD DUP2 JUMP JUMPDEST PUSH2 0x394 PUSH2 0x844 CALLDATASIZE PUSH1 0x4 PUSH2 0x3233 JUMP JUMPDEST PUSH2 0x1E95 JUMP JUMPDEST PUSH2 0x394 PUSH2 0x857 CALLDATASIZE PUSH1 0x4 PUSH2 0x370B JUMP JUMPDEST PUSH2 0x215E JUMP JUMPDEST PUSH2 0x86F PUSH2 0x86A CALLDATASIZE PUSH1 0x4 PUSH2 0x3761 JUMP JUMPDEST PUSH2 0x24E8 JUMP JUMPDEST PUSH1 0x40 MLOAD PUSH2 0x3A9 SWAP5 SWAP4 SWAP3 SWAP2 SWAP1 PUSH2 0x3791 JUMP JUMPDEST PUSH2 0x394 PUSH2 0x88D CALLDATASIZE PUSH1 0x4 PUSH2 0x331F JUMP JUMPDEST PUSH2 0x29E3 JUMP JUMPDEST PUSH2 0x39F PUSH1 0xD SLOAD DUP2 JUMP JUMPDEST PUSH2 0x8EF PUSH2 0x8A9 CALLDATASIZE PUSH1 0x4 PUSH2 0x331F JUMP JUMPDEST PUSH1 0xF PUSH1 0x20 MSTORE PUSH0 SWAP1 DUP2 MSTORE PUSH1 0x40 SWAP1 KECCAK256 DUP1 SLOAD PUSH1 0x1 DUP3 ADD SLOAD PUSH1 0x2 DUP4 ADD SLOAD PUSH1 0x3 DUP5 ADD SLOAD PUSH1 0x4 DUP6 ADD SLOAD PUSH1 0x5 DUP7 ADD SLOAD PUSH1 0x6 SWAP1 SWAP7 ADD SLOAD PUSH1 0x1 PUSH1 0x1 PUSH1 0xA0 SHL SUB SWAP1 SWAP6 AND SWAP6 SWAP4 SWAP5 SWAP3 SWAP4 SWAP2 SWAP3 SWAP1 SWAP2 SWAP1 DUP8 JUMP JUMPDEST PUSH1 0x40 DUP1 MLOAD PUSH1 0x1 PUSH1 0x1 PUSH1 0xA0 SHL SUB SWAP1 SWAP9 AND DUP9 MSTORE PUSH1 0x20 DUP9 ADD SWAP7 SWAP1 SWAP7 MSTORE SWAP5 DUP7 ADD SWAP4 SWAP1 SWAP4 MSTORE PUSH1 0x60 DUP6 ADD SWAP2 SWAP1 SWAP2 MSTORE PUSH1 0x80 DUP5 ADD MSTORE PUSH1 0xA0 DUP4 ADD MSTORE PUSH1 0xC0 DUP3 ADD MSTORE PUSH1 0xE0 ADD PUSH2 0x3A9 JUMP JUMPDEST PUSH2 0x39F PUSH1 0xB SLOAD DUP2 JUMP JUMPDEST PUSH2 0x394 PUSH2 0x945 CALLDATASIZE PUSH1 0x4 PUSH2 0x331F JUMP JUMPDEST PUSH2 0x2A2F JUMP JUMPDEST PUSH2 0x394 PUSH2 0x958 CALLDATASIZE PUSH1 0x4 PUSH2 0x37A3 JUMP JUMPDEST PUSH2 0x2A7B JUMP JUMPDEST PUSH1 0x1 SLOAD PUSH2 0x568 SWAP1 PUSH1 0x1 PUSH1 0x1 PUSH1 0xA0 SHL SUB AND DUP2 JUMP JUMPDEST PUSH2 0x39F PUSH2 0x97E CALLDATASIZE PUSH1 0x4 PUSH2 0x324A JUMP JUMPDEST PUSH1 0x18 PUSH1 0x20 SWAP1 DUP2 MSTORE PUSH0 SWAP3 DUP4 MSTORE PUSH1 0x40 DUP1 DUP5 KECCAK256 SWAP1 SWAP2 MSTORE SWAP1 DUP3 MSTORE SWAP1 KECCAK256 SLOAD DUP2 JUMP JUMPDEST PUSH1 0x5 SLOAD PUSH1 0x1 PUSH1 0x1 PUSH1 0xA0 SHL SUB AND CALLER EQ PUSH2 0x9CD JUMPI PUSH1 0x40 MLOAD PUSH3 0x461BCD PUSH1 0xE5 SHL DUP2 MSTORE PUSH1 0x4 ADD PUSH2 0x9C4 SWAP1 PUSH2 0x380B JUMP JUMPDEST PUSH1 0x40 MLOAD DUP1 SWAP2 SUB SWAP1 REVERT JUMPDEST PUSH1 0x3 SSTORE JUMP JUMPDEST PUSH1 0x60 PUSH1 0x10 SLOAD DUP4 GT ISZERO PUSH2 0xA16 JUMPI PUSH1 0x40 DUP1 MLOAD PUSH0 DUP1 DUP3 MSTORE PUSH1 0x20 DUP3 ADD SWAP1 SWAP3 MSTORE SWAP1 PUSH2 0xA0E JUMP JUMPDEST PUSH2 0x9FB PUSH2 0x319D JUMP JUMPDEST DUP2 MSTORE PUSH1 0x20 ADD SWAP1 PUSH1 0x1 SWAP1 SUB SWAP1 DUP2 PUSH2 0x9F3 JUMPI SWAP1 POP JUMPDEST POP SWAP1 POP PUSH2 0xB77 JUMP JUMPDEST DUP3 ISZERO DUP1 ISZERO PUSH2 0xA22 JUMPI POP DUP2 ISZERO JUMPDEST ISZERO PUSH2 0xA2D JUMPI PUSH1 0x10 SLOAD SWAP2 POP JUMPDEST PUSH1 0x10 SLOAD PUSH2 0xA3A DUP4 DUP6 PUSH2 0x3843 JUMP JUMPDEST GT ISZERO PUSH2 0xA51 JUMPI DUP3 PUSH1 0x10 SLOAD PUSH2 0xA4E SWAP2 SWAP1 PUSH2 0x3856 JUMP JUMPDEST SWAP2 POP JUMPDEST PUSH0 DUP3 PUSH1 0x1 PUSH1 0x1 PUSH1 0x40 SHL SUB DUP2 GT ISZERO PUSH2 0xA6A JUMPI PUSH2 0xA6A PUSH2 0x3625 JUMP JUMPDEST PUSH1 0x40 MLOAD SWAP1 DUP1 DUP3 MSTORE DUP1 PUSH1 0x20 MUL PUSH1 0x20 ADD DUP3 ADD PUSH1 0x40 MSTORE DUP1 ISZERO PUSH2 0xAA3 JUMPI DUP2 PUSH1 0x20 ADD JUMPDEST PUSH2 0xA90 PUSH2 0x319D JUMP JUMPDEST DUP2 MSTORE PUSH1 0x20 ADD SWAP1 PUSH1 0x1 SWAP1 SUB SWAP1 DUP2 PUSH2 0xA88 JUMPI SWAP1 POP JUMPDEST POP SWAP1 POP PUSH0 JUMPDEST DUP4 DUP2 LT ISZERO PUSH2 0xB73 JUMPI PUSH1 0xF PUSH0 PUSH1 0x11 PUSH0 DUP9 DUP6 PUSH1 0x10 SLOAD PUSH2 0xAC5 SWAP2 SWAP1 PUSH2 0x3856 JUMP JUMPDEST PUSH2 0xACF SWAP2 SWAP1 PUSH2 0x3856 JUMP JUMPDEST DUP2 MSTORE PUSH1 0x20 DUP1 DUP3 ADD SWAP3 SWAP1 SWAP3 MSTORE PUSH1 0x40 SWAP1 DUP2 ADD PUSH0 SWAP1 DUP2 KECCAK256 SLOAD PUSH1 0x1 PUSH1 0x1 PUSH1 0xA0 SHL SUB SWAP1 DUP2 AND DUP6 MSTORE DUP5 DUP5 ADD SWAP6 SWAP1 SWAP6 MSTORE SWAP3 DUP2 ADD SWAP1 SWAP3 KECCAK256 DUP3 MLOAD PUSH1 0xE0 DUP2 ADD DUP5 MSTORE DUP2 SLOAD SWAP1 SWAP5 AND DUP5 MSTORE PUSH1 0x1 DUP2 ADD SLOAD SWAP2 DUP5 ADD SWAP2 SWAP1 SWAP2 MSTORE PUSH1 0x2 DUP2 ADD SLOAD SWAP2 DUP4 ADD SWAP2 SWAP1 SWAP2 MSTORE PUSH1 0x3 DUP2 ADD SLOAD PUSH1 0x60 DUP4 ADD MSTORE PUSH1 0x4 DUP2 ADD SLOAD PUSH1 0x80 DUP4 ADD MSTORE PUSH1 0x5 DUP2 ADD SLOAD PUSH1 0xA0 DUP4 ADD MSTORE PUSH1 0x6 ADD SLOAD PUSH1 0xC0 DUP3 ADD MSTORE DUP3 MLOAD DUP4 SWAP1 DUP4 SWAP1 DUP2 LT PUSH2 0xB60 JUMPI PUSH2 0xB60 PUSH2 0x3869 JUMP JUMPDEST PUSH1 0x20 SWAP1 DUP2 MUL SWAP2 SWAP1 SWAP2 ADD ADD MSTORE PUSH1 0x1 ADD PUSH2 0xAA8 JUMP JUMPDEST POP SWAP1 POP JUMPDEST SWAP3 SWAP2 POP POP JUMP JUMPDEST PUSH2 0xBBE PUSH1 0x40 MLOAD DUP1 PUSH1 0xC0 ADD PUSH1 0x40 MSTORE DUP1 PUSH0 PUSH1 0x1 PUSH1 0x1 PUSH1 0xA0 SHL SUB AND DUP2 MSTORE PUSH1 0x20 ADD PUSH0 PUSH1 0xFF AND DUP2 MSTORE PUSH1 0x20 ADD PUSH1 0x60 DUP2 MSTORE PUSH1 0x20 ADD PUSH1 0x60 DUP2 MSTORE PUSH1 0x20 ADD PUSH0 DUP2 MSTORE PUSH1 0x20 ADD PUSH0 DUP2 MSTORE POP SWAP1 JUMP JUMPDEST PUSH1 0x40 DUP1 MLOAD PUSH1 0xC0 DUP2 ADD DUP3 MSTORE PUSH1 0x1 SLOAD PUSH1 0x1 PUSH1 0x1 PUSH1 0xA0 SHL SUB AND DUP1 DUP3 MSTORE DUP3 MLOAD PUSH4 0x313CE567 PUSH1 0xE0 SHL DUP2 MSTORE SWAP3 MLOAD SWAP2 SWAP3 PUSH1 0x20 DUP1 DUP6 ADD SWAP4 PUSH4 0x313CE567 SWAP3 PUSH1 0x4 DUP1 DUP3 ADD SWAP4 SWAP3 SWAP2 DUP3 SWAP1 SUB ADD DUP2 DUP7 GAS STATICCALL ISZERO DUP1 ISZERO PUSH2 0xC12 JUMPI RETURNDATASIZE PUSH0 DUP1 RETURNDATACOPY RETURNDATASIZE PUSH0 REVERT JUMPDEST POP POP POP POP PUSH1 0x40 MLOAD RETURNDATASIZE PUSH1 0x1F NOT PUSH1 0x1F DUP3 ADD AND DUP3 ADD DUP1 PUSH1 0x40 MSTORE POP DUP2 ADD SWAP1 PUSH2 0xC36 SWAP2 SWAP1 PUSH2 0x387D JUMP JUMPDEST PUSH1 0xFF AND DUP2 MSTORE PUSH1 0x20 ADD PUSH1 0x1 PUSH0 SWAP1 SLOAD SWAP1 PUSH2 0x100 EXP SWAP1 DIV PUSH1 0x1 PUSH1 0x1 PUSH1 0xA0 SHL SUB AND PUSH1 0x1 PUSH1 0x1 PUSH1 0xA0 SHL SUB AND PUSH4 0x6FDDE03 PUSH1 0x40 MLOAD DUP2 PUSH4 0xFFFFFFFF AND PUSH1 0xE0 SHL DUP2 MSTORE PUSH1 0x4 ADD PUSH0 PUSH1 0x40 MLOAD DUP1 DUP4 SUB DUP2 DUP7 GAS STATICCALL ISZERO DUP1 ISZERO PUSH2 0xC8D JUMPI RETURNDATASIZE PUSH0 DUP1 RETURNDATACOPY RETURNDATASIZE PUSH0 REVERT JUMPDEST POP POP POP POP PUSH1 0x40 MLOAD RETURNDATASIZE PUSH0 DUP3 RETURNDATACOPY PUSH1 0x1F RETURNDATASIZE SWAP1 DUP2 ADD PUSH1 0x1F NOT AND DUP3 ADD PUSH1 0x40 MSTORE PUSH2 0xCB4 SWAP2 SWAP1 DUP2 ADD SWAP1 PUSH2 0x389D JUMP JUMPDEST DUP2 MSTORE PUSH1 0x20 ADD PUSH1 0x1 PUSH0 SWAP1 SLOAD SWAP1 PUSH2 0x100 EXP SWAP1 DIV PUSH1 0x1 PUSH1 0x1 PUSH1 0xA0 SHL SUB AND PUSH1 0x1 PUSH1 0x1 PUSH1 0xA0 SHL SUB AND PUSH4 0x95D89B41 PUSH1 0x40 MLOAD DUP2 PUSH4 0xFFFFFFFF AND PUSH1 0xE0 SHL DUP2 MSTORE PUSH1 0x4 ADD PUSH0 PUSH1 0x40 MLOAD DUP1 DUP4 SUB DUP2 DUP7 GAS STATICCALL ISZERO DUP1 ISZERO PUSH2 0xD08 JUMPI RETURNDATASIZE PUSH0 DUP1 RETURNDATACOPY RETURNDATASIZE PUSH0 REVERT JUMPDEST POP POP POP POP PUSH1 0x40 MLOAD RETURNDATASIZE PUSH0 DUP3 RETURNDATACOPY PUSH1 0x1F RETURNDATASIZE SWAP1 DUP2 ADD PUSH1 0x1F NOT AND DUP3 ADD PUSH1 0x40 MSTORE PUSH2 0xD2F SWAP2 SWAP1 DUP2 ADD SWAP1 PUSH2 0x389D JUMP JUMPDEST DUP2 MSTORE PUSH1 0x20 ADD PUSH1 0x1 PUSH1 0x1 PUSH1 0xA0 SHL SUB DUP5 AND PUSH2 0xD48 JUMPI PUSH0 PUSH2 0xDB4 JUMP JUMPDEST PUSH1 0x1 SLOAD PUSH1 0x40 MLOAD PUSH4 0x70A08231 PUSH1 0xE0 SHL DUP2 MSTORE PUSH1 0x1 PUSH1 0x1 PUSH1 0xA0 SHL SUB DUP7 DUP2 AND PUSH1 0x4 DUP4 ADD MSTORE SWAP1 SWAP2 AND SWAP1 PUSH4 0x70A08231 SWAP1 PUSH1 0x24 ADD PUSH1 0x20 PUSH1 0x40 MLOAD DUP1 DUP4 SUB DUP2 DUP7 GAS STATICCALL ISZERO DUP1 ISZERO PUSH2 0xD90 JUMPI RETURNDATASIZE PUSH0 DUP1 RETURNDATACOPY RETURNDATASIZE PUSH0 REVERT JUMPDEST POP POP POP POP PUSH1 0x40 MLOAD RETURNDATASIZE PUSH1 0x1F NOT PUSH1 0x1F DUP3 ADD AND DUP3 ADD DUP1 PUSH1 0x40 MSTORE POP DUP2 ADD SWAP1 PUSH2 0xDB4 SWAP2 SWAP1 PUSH2 0x392B JUMP JUMPDEST DUP2 MSTORE PUSH1 0x20 ADD PUSH1 0x1 PUSH1 0x1 PUSH1 0xA0 SHL SUB DUP5 AND PUSH2 0xDCD JUMPI PUSH0 PUSH2 0xE3F JUMP JUMPDEST PUSH1 0x1 SLOAD PUSH1 0x40 MLOAD PUSH4 0x6EB1769F PUSH1 0xE1 SHL DUP2 MSTORE PUSH1 0x1 PUSH1 0x1 PUSH1 0xA0 SHL SUB DUP7 DUP2 AND PUSH1 0x4 DUP4 ADD MSTORE ADDRESS PUSH1 0x24 DUP4 ADD MSTORE SWAP1 SWAP2 AND SWAP1 PUSH4 0xDD62ED3E SWAP1 PUSH1 0x44 ADD PUSH1 0x20 PUSH1 0x40 MLOAD DUP1 DUP4 SUB DUP2 DUP7 GAS STATICCALL ISZERO DUP1 ISZERO PUSH2 0xE1B JUMPI RETURNDATASIZE PUSH0 DUP1 RETURNDATACOPY RETURNDATASIZE PUSH0 REVERT JUMPDEST POP POP POP POP PUSH1 0x40 MLOAD RETURNDATASIZE PUSH1 0x1F NOT PUSH1 0x1F DUP3 ADD AND DUP3 ADD DUP1 PUSH1 0x40 MSTORE POP DUP2 ADD SWAP1 PUSH2 0xE3F SWAP2 SWAP1 PUSH2 0x392B JUMP JUMPDEST SWAP1 MSTORE SWAP3 SWAP2 POP POP JUMP JUMPDEST PUSH1 0x5 SLOAD PUSH1 0x1 PUSH1 0x1 PUSH1 0xA0 SHL SUB AND CALLER EQ PUSH2 0xE71 JUMPI PUSH1 0x40 MLOAD PUSH3 0x461BCD PUSH1 0xE5 SHL DUP2 MSTORE PUSH1 0x4 ADD PUSH2 0x9C4 SWAP1 PUSH2 0x380B JUMP JUMPDEST PUSH1 0x1 SLOAD PUSH1 0x1 PUSH1 0x1 PUSH1 0xA0 SHL SUB SWAP1 DUP2 AND SWAP1 DUP4 AND SUB PUSH2 0xEE3 JUMPI PUSH1 0x40 MLOAD PUSH3 0x461BCD PUSH1 0xE5 SHL DUP2 MSTORE PUSH1 0x20 PUSH1 0x4 DUP3 ADD MSTORE PUSH1 0x2B PUSH1 0x24 DUP3 ADD MSTORE PUSH32 0x43616E74207265636F7765722067616D6520746F6B656E2E204F6E6C79206261 PUSH1 0x44 DUP3 ADD MSTORE PUSH11 0x6E6B207769746864726177 PUSH1 0xA8 SHL PUSH1 0x64 DUP3 ADD MSTORE PUSH1 0x84 ADD PUSH2 0x9C4 JUMP JUMPDEST PUSH1 0x5 SLOAD PUSH1 0x40 MLOAD PUSH4 0xA9059CBB PUSH1 0xE0 SHL DUP2 MSTORE PUSH1 0x1 PUSH1 0x1 PUSH1 0xA0 SHL SUB SWAP2 DUP3 AND PUSH1 0x4 DUP3 ADD MSTORE PUSH1 0x24 DUP2 ADD DUP4 SWAP1 MSTORE SWAP1 DUP4 AND SWAP1 PUSH4 0xA9059CBB SWAP1 PUSH1 0x44 ADD PUSH1 0x20 PUSH1 0x40 MLOAD DUP1 DUP4 SUB DUP2 PUSH0 DUP8 GAS CALL ISZERO DUP1 ISZERO PUSH2 0xF33 JUMPI RETURNDATASIZE PUSH0 DUP1 RETURNDATACOPY RETURNDATASIZE PUSH0 REVERT JUMPDEST POP POP POP POP PUSH1 0x40 MLOAD RETURNDATASIZE PUSH1 0x1F NOT PUSH1 0x1F DUP3 ADD AND DUP3 ADD DUP1 PUSH1 0x40 MSTORE POP DUP2 ADD SWAP1 PUSH2 0xF57 SWAP2 SWAP1 PUSH2 0x3942 JUMP JUMPDEST POP POP POP JUMP JUMPDEST PUSH1 0x60 PUSH1 0x15 SLOAD DUP4 GT ISZERO PUSH2 0xF9F JUMPI PUSH1 0x40 DUP1 MLOAD PUSH0 DUP1 DUP3 MSTORE PUSH1 0x20 DUP3 ADD SWAP1 SWAP3 MSTORE SWAP1 PUSH2 0xA0E JUMP JUMPDEST PUSH2 0xF85 PUSH2 0x31DC JUMP JUMPDEST DUP2 MSTORE PUSH1 0x20 ADD SWAP1 PUSH1 0x1 SWAP1 SUB SWAP1 DUP2 PUSH2 0xF7D JUMPI SWAP1 POP POP SWAP1 POP PUSH2 0xB77 JUMP JUMPDEST DUP3 ISZERO DUP1 ISZERO PUSH2 0xFAB JUMPI POP DUP2 ISZERO JUMPDEST ISZERO PUSH2 0xFB6 JUMPI PUSH1 0x15 SLOAD SWAP2 POP JUMPDEST PUSH1 0x15 SLOAD PUSH2 0xFC3 DUP4 DUP6 PUSH2 0x3843 JUMP JUMPDEST GT ISZERO PUSH2 0xFDA JUMPI DUP3 PUSH1 0x15 SLOAD PUSH2 0xFD7 SWAP2 SWAP1 PUSH2 0x3856 JUMP JUMPDEST SWAP2 POP JUMPDEST PUSH0 DUP3 PUSH1 0x1 PUSH1 0x1 PUSH1 0x40 SHL SUB DUP2 GT ISZERO PUSH2 0xFF3 JUMPI PUSH2 0xFF3 PUSH2 0x3625 JUMP JUMPDEST PUSH1 0x40 MLOAD SWAP1 DUP1 DUP3 MSTORE DUP1 PUSH1 0x20 MUL PUSH1 0x20 ADD DUP3 ADD PUSH1 0x40 MSTORE DUP1 ISZERO PUSH2 0x102C JUMPI DUP2 PUSH1 0x20 ADD JUMPDEST PUSH2 0x1019 PUSH2 0x31DC JUMP JUMPDEST DUP2 MSTORE PUSH1 0x20 ADD SWAP1 PUSH1 0x1 SWAP1 SUB SWAP1 DUP2 PUSH2 0x1011 JUMPI SWAP1 POP JUMPDEST POP SWAP1 POP PUSH0 JUMPDEST DUP4 DUP2 LT ISZERO PUSH2 0xB73 JUMPI PUSH1 0x16 PUSH0 DUP7 DUP4 PUSH1 0x15 SLOAD PUSH2 0x104B SWAP2 SWAP1 PUSH2 0x3856 JUMP JUMPDEST PUSH2 0x1055 SWAP2 SWAP1 PUSH2 0x3856 JUMP JUMPDEST DUP2 MSTORE PUSH1 0x20 ADD SWAP1 DUP2 MSTORE PUSH1 0x20 ADD PUSH0 KECCAK256 PUSH1 0x40 MLOAD DUP1 PUSH2 0x160 ADD PUSH1 0x40 MSTORE SWAP1 DUP2 PUSH0 DUP3 ADD SLOAD DUP2 MSTORE PUSH1 0x20 ADD PUSH1 0x1 DUP3 ADD PUSH0 SWAP1 SLOAD SWAP1 PUSH2 0x100 EXP SWAP1 DIV PUSH1 0xFF AND PUSH1 0x5 DUP2 GT ISZERO PUSH2 0x109A JUMPI PUSH2 0x109A PUSH2 0x33FD JUMP JUMPDEST PUSH1 0x5 DUP2 GT ISZERO PUSH2 0x10AB JUMPI PUSH2 0x10AB PUSH2 0x33FD JUMP JUMPDEST DUP2 MSTORE PUSH1 0x20 ADD PUSH1 0x2 DUP3 ADD SLOAD DUP2 MSTORE PUSH1 0x20 ADD PUSH1 0x3 DUP3 ADD SLOAD DUP2 MSTORE PUSH1 0x20 ADD PUSH1 0x4 DUP3 ADD SLOAD DUP2 MSTORE PUSH1 0x20 ADD PUSH1 0x5 DUP3 ADD SLOAD DUP2 MSTORE PUSH1 0x20 ADD PUSH1 0x6 DUP3 ADD SLOAD DUP2 MSTORE PUSH1 0x20 ADD PUSH1 0x7 DUP3 ADD SLOAD DUP2 MSTORE PUSH1 0x20 ADD PUSH1 0x8 DUP3 ADD SLOAD DUP2 MSTORE PUSH1 0x20 ADD PUSH1 0x9 DUP3 ADD SLOAD DUP2 MSTORE PUSH1 0x20 ADD PUSH1 0xA DUP3 ADD SLOAD DUP2 MSTORE POP POP DUP3 DUP3 DUP2 MLOAD DUP2 LT PUSH2 0x111B JUMPI PUSH2 0x111B PUSH2 0x3869 JUMP JUMPDEST PUSH1 0x20 SWAP1 DUP2 MUL SWAP2 SWAP1 SWAP2 ADD ADD MSTORE PUSH1 0x1 ADD PUSH2 0x1031 JUMP JUMPDEST PUSH1 0x5 SLOAD PUSH1 0x1 PUSH1 0x1 PUSH1 0xA0 SHL SUB AND CALLER EQ PUSH2 0x1158 JUMPI PUSH1 0x40 MLOAD PUSH3 0x461BCD PUSH1 0xE5 SHL DUP2 MSTORE PUSH1 0x4 ADD PUSH2 0x9C4 SWAP1 PUSH2 0x380B JUMP JUMPDEST PUSH1 0xE SSTORE JUMP JUMPDEST PUSH2 0x1165 PUSH2 0x306D JUMP JUMPDEST CALLER PUSH0 SWAP1 DUP2 MSTORE PUSH1 0xF PUSH1 0x20 MSTORE PUSH1 0x40 SWAP1 KECCAK256 PUSH1 0x2 DUP2 ADD SLOAD DUP3 GT ISZERO PUSH2 0x11C7 JUMPI PUSH1 0x40 MLOAD PUSH3 0x461BCD PUSH1 0xE5 SHL DUP2 MSTORE PUSH1 0x20 PUSH1 0x4 DUP3 ADD MSTORE PUSH1 0x1B PUSH1 0x24 DUP3 ADD MSTORE PUSH32 0x4E6F7420656E6F75676874206465706F7369742062616C616E63650000000000 PUSH1 0x44 DUP3 ADD MSTORE PUSH1 0x64 ADD PUSH2 0x9C4 JUMP JUMPDEST PUSH1 0x1 SLOAD PUSH1 0x40 MLOAD PUSH4 0xA9059CBB PUSH1 0xE0 SHL DUP2 MSTORE CALLER PUSH1 0x4 DUP3 ADD MSTORE PUSH1 0x24 DUP2 ADD DUP5 SWAP1 MSTORE PUSH1 0x1 PUSH1 0x1 PUSH1 0xA0 SHL SUB SWAP1 SWAP2 AND SWAP1 PUSH4 0xA9059CBB SWAP1 PUSH1 0x44 ADD PUSH1 0x20 PUSH1 0x40 MLOAD DUP1 DUP4 SUB DUP2 PUSH0 DUP8 GAS CALL ISZERO DUP1 ISZERO PUSH2 0x1215 JUMPI RETURNDATASIZE PUSH0 DUP1 RETURNDATACOPY RETURNDATASIZE PUSH0 REVERT JUMPDEST POP POP POP POP PUSH1 0x40 MLOAD RETURNDATASIZE PUSH1 0x1F NOT PUSH1 0x1F DUP3 ADD AND DUP3 ADD DUP1 PUSH1 0x40 MSTORE POP DUP2 ADD SWAP1 PUSH2 0x1239 SWAP2 SWAP1 PUSH2 0x3942 JUMP JUMPDEST POP DUP2 DUP2 PUSH1 0x2 ADD PUSH0 DUP3 DUP3 SLOAD PUSH2 0x124D SWAP2 SWAP1 PUSH2 0x3856 JUMP JUMPDEST SWAP3 POP POP DUP2 SWAP1 SSTORE POP DUP2 PUSH1 0xD PUSH0 DUP3 DUP3 SLOAD PUSH2 0x1265 SWAP2 SWAP1 PUSH2 0x3856 JUMP JUMPDEST SWAP1 SWAP2 SSTORE POP POP PUSH1 0x1 PUSH0 SSTORE POP POP JUMP JUMPDEST POP JUMP JUMPDEST PUSH1 0x4 SLOAD PUSH1 0x1 PUSH1 0x1 PUSH1 0xA0 SHL SUB AND CALLER EQ PUSH2 0x129F JUMPI PUSH1 0x40 MLOAD PUSH3 0x461BCD PUSH1 0xE5 SHL DUP2 MSTORE PUSH1 0x4 ADD PUSH2 0x9C4 SWAP1 PUSH2 0x3961 JUMP JUMPDEST PUSH1 0x2 PUSH0 DUP3 DUP2 MSTORE PUSH1 0x16 PUSH1 0x20 MSTORE PUSH1 0x40 SWAP1 KECCAK256 PUSH1 0x1 ADD SLOAD PUSH1 0xFF AND PUSH1 0x5 DUP2 GT ISZERO PUSH2 0x12C6 JUMPI PUSH2 0x12C6 PUSH2 0x33FD JUMP JUMPDEST EQ PUSH2 0x1301 JUMPI PUSH1 0x40 MLOAD PUSH3 0x461BCD PUSH1 0xE5 SHL DUP2 MSTORE PUSH1 0x20 PUSH1 0x4 DUP3 ADD MSTORE PUSH1 0xB PUSH1 0x24 DUP3 ADD MSTORE PUSH11 0x4E6F742070656E64696E67 PUSH1 0xA8 SHL PUSH1 0x44 DUP3 ADD MSTORE PUSH1 0x64 ADD PUSH2 0x9C4 JUMP JUMPDEST PUSH0 SWAP1 DUP2 MSTORE PUSH1 0x16 PUSH1 0x20 MSTORE PUSH1 0x40 SWAP1 KECCAK256 PUSH1 0x1 DUP2 ADD DUP1 SLOAD PUSH1 0xFF NOT AND PUSH1 0x3 OR SWAP1 SSTORE TIMESTAMP PUSH1 0x2 SWAP1 SWAP2 ADD SSTORE JUMP JUMPDEST PUSH1 0x5 SLOAD PUSH1 0x1 PUSH1 0x1 PUSH1 0xA0 SHL SUB AND CALLER EQ PUSH2 0x1350 JUMPI PUSH1 0x40 MLOAD PUSH3 0x461BCD PUSH1 0xE5 SHL DUP2 MSTORE PUSH1 0x4 ADD PUSH2 0x9C4 SWAP1 PUSH2 0x380B JUMP JUMPDEST PUSH2 0x1358 PUSH2 0x306D JUMP JUMPDEST PUSH0 DUP2 GT PUSH2 0x13A7 JUMPI PUSH1 0x40 MLOAD PUSH3 0x461BCD PUSH1 0xE5 SHL DUP2 MSTORE PUSH1 0x20 PUSH1 0x4 DUP3 ADD MSTORE PUSH1 0x1D PUSH1 0x24 DUP3 ADD MSTORE PUSH32 0x416D6F756E74206D7573742062652067726561746572207468616E2030000000 PUSH1 0x44 DUP3 ADD MSTORE PUSH1 0x64 ADD PUSH2 0x9C4 JUMP JUMPDEST PUSH1 0x1 SLOAD PUSH1 0x40 MLOAD PUSH4 0x23B872DD PUSH1 0xE0 SHL DUP2 MSTORE CALLER PUSH1 0x4 DUP3 ADD MSTORE ADDRESS PUSH1 0x24 DUP3 ADD MSTORE PUSH1 0x44 DUP2 ADD DUP4 SWAP1 MSTORE PUSH1 0x1 PUSH1 0x1 PUSH1 0xA0 SHL SUB SWAP1 SWAP2 AND SWAP1 PUSH4 0x23B872DD SWAP1 PUSH1 0x64 ADD PUSH1 0x20 PUSH1 0x40 MLOAD DUP1 DUP4 SUB DUP2 PUSH0 DUP8 GAS CALL ISZERO DUP1 ISZERO PUSH2 0x13FB JUMPI RETURNDATASIZE PUSH0 DUP1 RETURNDATACOPY RETURNDATASIZE PUSH0 REVERT JUMPDEST POP POP POP POP PUSH1 0x40 MLOAD RETURNDATASIZE PUSH1 0x1F NOT PUSH1 0x1F DUP3 ADD AND DUP3 ADD DUP1 PUSH1 0x40 MSTORE POP DUP2 ADD SWAP1 PUSH2 0x141F SWAP2 SWAP1 PUSH2 0x3942 JUMP JUMPDEST POP DUP1 PUSH1 0x7 PUSH0 DUP3 DUP3 SLOAD PUSH2 0x1431 SWAP2 SWAP1 PUSH2 0x3843 JUMP JUMPDEST SWAP1 SWAP2 SSTORE POP POP PUSH1 0x1 PUSH0 SSTORE POP JUMP JUMPDEST PUSH1 0x5 SLOAD PUSH1 0x1 PUSH1 0x1 PUSH1 0xA0 SHL SUB AND CALLER EQ PUSH2 0x1467 JUMPI PUSH1 0x40 MLOAD PUSH3 0x461BCD PUSH1 0xE5 SHL DUP2 MSTORE PUSH1 0x4 ADD PUSH2 0x9C4 SWAP1 PUSH2 0x380B JUMP JUMPDEST PUSH1 0x4 DUP1 SLOAD PUSH1 0x1 PUSH1 0x1 PUSH1 0xA0 SHL SUB NOT AND PUSH1 0x1 PUSH1 0x1 PUSH1 0xA0 SHL SUB SWAP3 SWAP1 SWAP3 AND SWAP2 SWAP1 SWAP2 OR SWAP1 SSTORE JUMP JUMPDEST PUSH2 0x1491 PUSH2 0x306D JUMP JUMPDEST PUSH1 0x5 SLOAD PUSH1 0x1 PUSH1 0x1 PUSH1 0xA0 SHL SUB AND CALLER EQ DUP1 PUSH2 0x14B4 JUMPI POP PUSH1 0x4 SLOAD PUSH1 0x1 PUSH1 0x1 PUSH1 0xA0 SHL SUB AND CALLER EQ JUMPDEST PUSH2 0x14F7 JUMPI PUSH1 0x40 MLOAD PUSH3 0x461BCD PUSH1 0xE5 SHL DUP2 MSTORE PUSH1 0x20 PUSH1 0x4 DUP3 ADD MSTORE PUSH1 0x14 PUSH1 0x24 DUP3 ADD MSTORE PUSH20 0x4F6E6C79206F776E6572206F72206F7261636C65 PUSH1 0x60 SHL PUSH1 0x44 DUP3 ADD MSTORE PUSH1 0x64 ADD PUSH2 0x9C4 JUMP JUMPDEST PUSH1 0x2 PUSH0 DUP3 DUP2 MSTORE PUSH1 0x16 PUSH1 0x20 MSTORE PUSH1 0x40 SWAP1 KECCAK256 PUSH1 0x1 ADD SLOAD PUSH1 0xFF AND PUSH1 0x5 DUP2 GT ISZERO PUSH2 0x151E JUMPI PUSH2 0x151E PUSH2 0x33FD JUMP JUMPDEST EQ DUP1 PUSH2 0x154E JUMPI POP PUSH1 0x3 PUSH0 DUP3 DUP2 MSTORE PUSH1 0x16 PUSH1 0x20 MSTORE PUSH1 0x40 SWAP1 KECCAK256 PUSH1 0x1 ADD SLOAD PUSH1 0xFF AND PUSH1 0x5 DUP2 GT ISZERO PUSH2 0x154C JUMPI PUSH2 0x154C PUSH2 0x33FD JUMP JUMPDEST EQ JUMPDEST PUSH2 0x158F JUMPI PUSH1 0x40 MLOAD PUSH3 0x461BCD PUSH1 0xE5 SHL DUP2 MSTORE PUSH1 0x20 PUSH1 0x4 DUP3 ADD MSTORE PUSH1 0x12 PUSH1 0x24 DUP3 ADD MSTORE PUSH18 0x2737BA103832B73234B7339037B910393AB7 PUSH1 0x71 SHL PUSH1 0x44 DUP3 ADD MSTORE PUSH1 0x64 ADD PUSH2 0x9C4 JUMP JUMPDEST PUSH0 DUP2 DUP2 MSTORE PUSH1 0x16 PUSH1 0x20 MSTORE PUSH1 0x40 DUP2 KECCAK256 PUSH1 0x1 DUP2 ADD DUP1 SLOAD PUSH1 0xFF NOT AND PUSH1 0x5 OR SWAP1 SSTORE TIMESTAMP PUSH1 0x3 SWAP1 SWAP2 ADD SSTORE JUMPDEST PUSH0 DUP3 DUP2 MSTORE PUSH1 0x16 PUSH1 0x20 MSTORE PUSH1 0x40 SWAP1 KECCAK256 PUSH1 0x4 ADD SLOAD DUP2 LT ISZERO PUSH2 0x169B JUMPI PUSH0 DUP3 DUP2 MSTORE PUSH1 0x17 PUSH1 0x20 SWAP1 DUP2 MSTORE PUSH1 0x40 DUP1 DUP4 KECCAK256 DUP5 DUP5 MSTORE DUP1 DUP4 MSTORE DUP2 DUP5 KECCAK256 DUP1 SLOAD DUP6 MSTORE PUSH1 0x11 DUP5 MSTORE DUP3 DUP6 KECCAK256 SLOAD PUSH1 0x1 PUSH1 0x1 PUSH1 0xA0 SHL SUB AND DUP6 MSTORE PUSH1 0xF DUP5 MSTORE SWAP2 DUP5 KECCAK256 DUP6 DUP6 MSTORE SWAP3 MSTORE PUSH1 0x1 ADD SLOAD PUSH1 0x2 DUP3 ADD DUP1 SLOAD SWAP3 SWAP4 SWAP2 SWAP3 SWAP1 SWAP2 SWAP1 PUSH2 0x1623 SWAP1 DUP5 SWAP1 PUSH2 0x3843 JUMP JUMPDEST SWAP1 SWAP2 SSTORE POP POP PUSH0 DUP4 DUP2 MSTORE PUSH1 0x17 PUSH1 0x20 SWAP1 DUP2 MSTORE PUSH1 0x40 DUP1 DUP4 KECCAK256 DUP6 DUP5 MSTORE SWAP1 SWAP2 MSTORE DUP2 KECCAK256 PUSH1 0x1 ADD SLOAD PUSH1 0x3 DUP4 ADD DUP1 SLOAD SWAP2 SWAP3 SWAP1 SWAP2 PUSH2 0x1659 SWAP1 DUP5 SWAP1 PUSH2 0x3856 JUMP JUMPDEST SWAP1 SWAP2 SSTORE POP POP PUSH0 DUP4 DUP2 MSTORE PUSH1 0x17 PUSH1 0x20 SWAP1 DUP2 MSTORE PUSH1 0x40 DUP1 DUP4 KECCAK256 DUP6 DUP5 MSTORE SWAP1 SWAP2 MSTORE DUP2 KECCAK256 PUSH1 0x1 ADD SLOAD PUSH1 0xD DUP1 SLOAD SWAP2 SWAP3 SWAP1 SWAP2 PUSH2 0x168D SWAP1 DUP5 SWAP1 PUSH2 0x3843 JUMP JUMPDEST SWAP1 SWAP2 SSTORE POP POP POP PUSH1 0x1 ADD PUSH2 0x15B3 JUMP JUMPDEST POP PUSH2 0x1272 PUSH1 0x1 PUSH0 SSTORE JUMP JUMPDEST PUSH0 PUSH1 0x15 SLOAD PUSH1 0x1 PUSH2 0x16B5 SWAP2 SWAP1 PUSH2 0x3843 JUMP JUMPDEST SWAP1 POP SWAP1 JUMP JUMPDEST PUSH1 0x5 SLOAD PUSH1 0x1 PUSH1 0x1 PUSH1 0xA0 SHL SUB AND CALLER EQ PUSH2 0x16E4 JUMPI PUSH1 0x40 MLOAD PUSH3 0x461BCD PUSH1 0xE5 SHL DUP2 MSTORE PUSH1 0x4 ADD PUSH2 0x9C4 SWAP1 PUSH2 0x380B JUMP JUMPDEST PUSH2 0x16EC PUSH2 0x306D JUMP JUMPDEST PUSH1 0x8 SLOAD DUP2 GT ISZERO PUSH2 0x172C JUMPI PUSH1 0x40 MLOAD PUSH3 0x461BCD PUSH1 0xE5 SHL DUP2 MSTORE PUSH1 0x20 PUSH1 0x4 DUP3 ADD MSTORE PUSH1 0xB PUSH1 0x24 DUP3 ADD MSTORE PUSH11 0x139BDD08195B9BDD59DA1D PUSH1 0xAA SHL PUSH1 0x44 DUP3 ADD MSTORE PUSH1 0x64 ADD PUSH2 0x9C4 JUMP JUMPDEST PUSH1 0x1 SLOAD PUSH1 0x40 MLOAD PUSH4 0x23B872DD PUSH1 0xE0 SHL DUP2 MSTORE CALLER PUSH1 0x4 DUP3 ADD MSTORE ADDRESS PUSH1 0x24 DUP3 ADD MSTORE PUSH1 0x44 DUP2 ADD DUP4 SWAP1 MSTORE PUSH1 0x1 PUSH1 0x1 PUSH1 0xA0 SHL SUB SWAP1 SWAP2 AND SWAP1 PUSH4 0x23B872DD SWAP1 PUSH1 0x64 ADD PUSH1 0x20 PUSH1 0x40 MLOAD DUP1 DUP4 SUB DUP2 PUSH0 DUP8 GAS CALL ISZERO DUP1 ISZERO PUSH2 0x1780 JUMPI RETURNDATASIZE PUSH0 DUP1 RETURNDATACOPY RETURNDATASIZE PUSH0 REVERT JUMPDEST POP POP POP POP PUSH1 0x40 MLOAD RETURNDATASIZE PUSH1 0x1F NOT PUSH1 0x1F DUP3 ADD AND DUP3 ADD DUP1 PUSH1 0x40 MSTORE POP DUP2 ADD SWAP1 PUSH2 0x17A4 SWAP2 SWAP1 PUSH2 0x3942 JUMP JUMPDEST POP DUP1 PUSH1 0x8 PUSH0 DUP3 DUP3 SLOAD PUSH2 0x17B6 SWAP2 SWAP1 PUSH2 0x3856 JUMP JUMPDEST SWAP3 POP POP DUP2 SWAP1 SSTORE POP DUP1 PUSH1 0x7 PUSH0 DUP3 DUP3 SLOAD PUSH2 0x1431 SWAP2 SWAP1 PUSH2 0x3843 JUMP JUMPDEST PUSH1 0x5 SLOAD PUSH1 0x1 PUSH1 0x1 PUSH1 0xA0 SHL SUB AND CALLER EQ PUSH2 0x17F8 JUMPI PUSH1 0x40 MLOAD PUSH3 0x461BCD PUSH1 0xE5 SHL DUP2 MSTORE PUSH1 0x4 ADD PUSH2 0x9C4 SWAP1 PUSH2 0x380B JUMP JUMPDEST PUSH1 0x14 SSTORE JUMP JUMPDEST PUSH1 0x5 SLOAD PUSH1 0x1 PUSH1 0x1 PUSH1 0xA0 SHL SUB AND CALLER EQ PUSH2 0x1827 JUMPI PUSH1 0x40 MLOAD PUSH3 0x461BCD PUSH1 0xE5 SHL DUP2 MSTORE PUSH1 0x4 ADD PUSH2 0x9C4 SWAP1 PUSH2 0x380B JUMP JUMPDEST PUSH1 0x13 SSTORE JUMP JUMPDEST PUSH0 DUP1 DUP5 DUP4 PUSH1 0x40 MLOAD PUSH1 0x20 ADD PUSH2 0x184A SWAP3 SWAP2 SWAP1 SWAP2 DUP3 MSTORE PUSH1 0x20 DUP3 ADD MSTORE PUSH1 0x40 ADD SWAP1 JUMP JUMPDEST PUSH1 0x40 DUP1 MLOAD PUSH1 0x1F NOT DUP2 DUP5 SUB ADD DUP2 MSTORE SWAP2 SWAP1 MSTORE DUP1 MLOAD PUSH1 0x20 SWAP1 SWAP2 ADD KECCAK256 DUP5 EQ SWAP2 POP POP SWAP4 SWAP3 POP POP POP JUMP JUMPDEST PUSH1 0x5 SLOAD PUSH1 0x1 PUSH1 0x1 PUSH1 0xA0 SHL SUB AND CALLER EQ PUSH2 0x1898 JUMPI PUSH1 0x40 MLOAD PUSH3 0x461BCD PUSH1 0xE5 SHL DUP2 MSTORE PUSH1 0x4 ADD PUSH2 0x9C4 SWAP1 PUSH2 0x380B JUMP JUMPDEST PUSH1 0x2 SSTORE JUMP JUMPDEST PUSH1 0x60 DUP1 PUSH1 0x60 DUP1 PUSH1 0x16 PUSH0 DUP9 DUP2 MSTORE PUSH1 0x20 ADD SWAP1 DUP2 MSTORE PUSH1 0x20 ADD PUSH0 KECCAK256 PUSH1 0x4 ADD SLOAD DUP7 GT ISZERO PUSH2 0x191A JUMPI PUSH1 0x40 DUP1 MLOAD PUSH0 DUP1 DUP3 MSTORE PUSH1 0x20 DUP3 ADD SWAP1 SWAP3 MSTORE SWAP1 PUSH2 0x18EF JUMP JUMPDEST PUSH2 0x18DC PUSH2 0x319D JUMP JUMPDEST DUP2 MSTORE PUSH1 0x20 ADD SWAP1 PUSH1 0x1 SWAP1 SUB SWAP1 DUP2 PUSH2 0x18D4 JUMPI SWAP1 POP JUMPDEST POP PUSH1 0x40 DUP1 MLOAD PUSH0 DUP1 DUP3 MSTORE PUSH1 0x20 DUP3 ADD DUP2 DUP2 MSTORE DUP3 DUP5 ADD SWAP2 DUP3 MSTORE PUSH1 0x60 DUP4 ADD SWAP1 SWAP4 MSTORE SWAP3 SWAP7 POP SWAP5 POP SWAP3 POP SWAP1 POP PUSH2 0x1C7B JUMP JUMPDEST DUP6 ISZERO DUP1 ISZERO PUSH2 0x1926 JUMPI POP DUP5 ISZERO JUMPDEST ISZERO PUSH2 0x193F JUMPI PUSH0 DUP8 DUP2 MSTORE PUSH1 0x16 PUSH1 0x20 MSTORE PUSH1 0x40 SWAP1 KECCAK256 PUSH1 0x4 ADD SLOAD SWAP5 POP JUMPDEST PUSH0 DUP8 DUP2 MSTORE PUSH1 0x16 PUSH1 0x20 MSTORE PUSH1 0x40 SWAP1 KECCAK256 PUSH1 0x4 ADD SLOAD PUSH2 0x195A DUP7 DUP9 PUSH2 0x3843 JUMP JUMPDEST GT ISZERO PUSH2 0x197F JUMPI PUSH0 DUP8 DUP2 MSTORE PUSH1 0x16 PUSH1 0x20 MSTORE PUSH1 0x40 SWAP1 KECCAK256 PUSH1 0x4 ADD SLOAD PUSH2 0x197C SWAP1 DUP8 SWAP1 PUSH2 0x3856 JUMP JUMPDEST SWAP5 POP JUMPDEST DUP5 PUSH1 0x1 PUSH1 0x1 PUSH1 0x40 SHL SUB DUP2 GT ISZERO PUSH2 0x1997 JUMPI PUSH2 0x1997 PUSH2 0x3625 JUMP JUMPDEST PUSH1 0x40 MLOAD SWAP1 DUP1 DUP3 MSTORE DUP1 PUSH1 0x20 MUL PUSH1 0x20 ADD DUP3 ADD PUSH1 0x40 MSTORE DUP1 ISZERO PUSH2 0x19D0 JUMPI DUP2 PUSH1 0x20 ADD JUMPDEST PUSH2 0x19BD PUSH2 0x319D JUMP JUMPDEST DUP2 MSTORE PUSH1 0x20 ADD SWAP1 PUSH1 0x1 SWAP1 SUB SWAP1 DUP2 PUSH2 0x19B5 JUMPI SWAP1 POP JUMPDEST POP SWAP4 POP DUP5 PUSH1 0x1 PUSH1 0x1 PUSH1 0x40 SHL SUB DUP2 GT ISZERO PUSH2 0x19EB JUMPI PUSH2 0x19EB PUSH2 0x3625 JUMP JUMPDEST PUSH1 0x40 MLOAD SWAP1 DUP1 DUP3 MSTORE DUP1 PUSH1 0x20 MUL PUSH1 0x20 ADD DUP3 ADD PUSH1 0x40 MSTORE DUP1 ISZERO PUSH2 0x1A14 JUMPI DUP2 PUSH1 0x20 ADD PUSH1 0x20 DUP3 MUL DUP1 CALLDATASIZE DUP4 CALLDATACOPY ADD SWAP1 POP JUMPDEST POP SWAP3 POP DUP5 PUSH1 0x1 PUSH1 0x1 PUSH1 0x40 SHL SUB DUP2 GT ISZERO PUSH2 0x1A2F JUMPI PUSH2 0x1A2F PUSH2 0x3625 JUMP JUMPDEST PUSH1 0x40 MLOAD SWAP1 DUP1 DUP3 MSTORE DUP1 PUSH1 0x20 MUL PUSH1 0x20 ADD DUP3 ADD PUSH1 0x40 MSTORE DUP1 ISZERO PUSH2 0x1A58 JUMPI DUP2 PUSH1 0x20 ADD PUSH1 0x20 DUP3 MUL DUP1 CALLDATASIZE DUP4 CALLDATACOPY ADD SWAP1 POP JUMPDEST POP SWAP1 POP PUSH0 JUMPDEST DUP6 DUP2 LT ISZERO PUSH2 0x1C79 JUMPI PUSH0 DUP9 DUP2 MSTORE PUSH1 0x16 PUSH1 0x20 MSTORE PUSH1 0x40 DUP2 KECCAK256 PUSH1 0x4 ADD SLOAD PUSH1 0x1 SWAP1 DUP10 SWAP1 PUSH2 0x1A86 SWAP1 DUP6 SWAP1 PUSH2 0x3856 JUMP JUMPDEST PUSH2 0x1A90 SWAP2 SWAP1 PUSH2 0x3856 JUMP JUMPDEST PUSH2 0x1A9A SWAP2 SWAP1 PUSH2 0x3856 JUMP JUMPDEST PUSH0 DUP11 DUP2 MSTORE PUSH1 0x17 PUSH1 0x20 SWAP1 DUP2 MSTORE PUSH1 0x40 DUP1 DUP4 KECCAK256 DUP5 DUP5 MSTORE DUP3 MSTORE DUP1 DUP4 KECCAK256 SLOAD DUP4 MSTORE PUSH1 0x11 DUP3 MSTORE DUP1 DUP4 KECCAK256 SLOAD PUSH1 0x1 PUSH1 0x1 PUSH1 0xA0 SHL SUB SWAP1 DUP2 AND DUP5 MSTORE PUSH1 0xF DUP4 MSTORE SWAP3 DUP2 SWAP1 KECCAK256 DUP2 MLOAD PUSH1 0xE0 DUP2 ADD DUP4 MSTORE DUP2 SLOAD SWAP1 SWAP5 AND DUP5 MSTORE PUSH1 0x1 DUP2 ADD SLOAD SWAP3 DUP5 ADD SWAP3 SWAP1 SWAP3 MSTORE PUSH1 0x2 DUP3 ADD SLOAD SWAP1 DUP4 ADD MSTORE PUSH1 0x3 DUP2 ADD SLOAD PUSH1 0x60 DUP4 ADD MSTORE PUSH1 0x4 DUP2 ADD SLOAD PUSH1 0x80 DUP4 ADD MSTORE PUSH1 0x5 DUP2 ADD SLOAD PUSH1 0xA0 DUP4 ADD MSTORE PUSH1 0x6 ADD SLOAD PUSH1 0xC0 DUP3 ADD MSTORE DUP8 MLOAD SWAP2 SWAP3 POP SWAP1 DUP2 SWAP1 DUP9 SWAP1 DUP6 SWAP1 DUP2 LT PUSH2 0x1B37 JUMPI PUSH2 0x1B37 PUSH2 0x3869 JUMP JUMPDEST PUSH1 0x20 SWAP1 DUP2 MUL SWAP2 SWAP1 SWAP2 ADD DUP2 ADD SWAP2 SWAP1 SWAP2 MSTORE PUSH0 DUP12 DUP2 MSTORE PUSH1 0x17 DUP3 MSTORE PUSH1 0x40 DUP1 DUP3 KECCAK256 DUP6 DUP4 MSTORE SWAP1 SWAP3 MSTORE KECCAK256 PUSH1 0x1 ADD SLOAD DUP7 MLOAD DUP8 SWAP1 DUP6 SWAP1 DUP2 LT PUSH2 0x1B72 JUMPI PUSH2 0x1B72 PUSH2 0x3869 JUMP JUMPDEST PUSH1 0x20 SWAP1 DUP2 MUL SWAP2 SWAP1 SWAP2 ADD DUP2 ADD SWAP2 SWAP1 SWAP2 MSTORE PUSH0 DUP12 DUP2 MSTORE PUSH1 0x1C DUP3 MSTORE PUSH1 0x40 DUP1 DUP3 KECCAK256 DUP5 DUP5 ADD MLOAD DUP4 MSTORE SWAP1 SWAP3 MSTORE KECCAK256 SLOAD PUSH1 0xFF AND ISZERO PUSH2 0x1C6F JUMPI PUSH0 DUP11 DUP2 MSTORE PUSH1 0x1A PUSH1 0x20 SWAP1 DUP2 MSTORE PUSH1 0x40 DUP1 DUP4 KECCAK256 PUSH1 0x1B DUP4 MSTORE DUP2 DUP5 KECCAK256 DUP6 DUP5 ADD MLOAD DUP6 MSTORE DUP4 MSTORE DUP2 DUP5 KECCAK256 SLOAD DUP5 MSTORE SWAP1 SWAP2 MSTORE SWAP1 KECCAK256 PUSH1 0x1 ADD SLOAD DUP6 MLOAD DUP7 SWAP1 DUP6 SWAP1 DUP2 LT PUSH2 0x1BE3 JUMPI PUSH2 0x1BE3 PUSH2 0x3869 JUMP JUMPDEST PUSH1 0x20 SWAP1 DUP2 MUL SWAP2 SWAP1 SWAP2 ADD DUP2 ADD SWAP2 SWAP1 SWAP2 MSTORE PUSH0 DUP12 DUP2 MSTORE PUSH1 0x1A DUP3 MSTORE PUSH1 0x40 DUP1 DUP3 KECCAK256 PUSH1 0x1B DUP5 MSTORE DUP2 DUP4 KECCAK256 DUP6 DUP6 ADD MLOAD DUP5 MSTORE DUP5 MSTORE DUP2 DUP4 KECCAK256 SLOAD DUP4 MSTORE DUP4 MSTORE DUP1 DUP3 KECCAK256 PUSH1 0x1 SWAP1 DUP2 ADD SLOAD DUP15 DUP5 MSTORE PUSH1 0x17 DUP6 MSTORE DUP3 DUP5 KECCAK256 DUP8 DUP6 MSTORE SWAP1 SWAP5 MSTORE SWAP2 KECCAK256 ADD SLOAD PUSH8 0xDE0B6B3A7640000 SWAP2 PUSH2 0x1C46 SWAP2 PUSH2 0x3986 JUMP JUMPDEST PUSH2 0x1C50 SWAP2 SWAP1 PUSH2 0x399D JUMP JUMPDEST DUP5 DUP5 DUP2 MLOAD DUP2 LT PUSH2 0x1C62 JUMPI PUSH2 0x1C62 PUSH2 0x3869 JUMP JUMPDEST PUSH1 0x20 MUL PUSH1 0x20 ADD ADD DUP2 DUP2 MSTORE POP POP JUMPDEST POP POP PUSH1 0x1 ADD PUSH2 0x1A5D JUMP JUMPDEST POP JUMPDEST SWAP4 POP SWAP4 POP SWAP4 POP SWAP4 JUMP JUMPDEST PUSH2 0x1C8C PUSH2 0x306D JUMP JUMPDEST PUSH0 DUP2 GT PUSH2 0x1CDB JUMPI PUSH1 0x40 MLOAD PUSH3 0x461BCD PUSH1 0xE5 SHL DUP2 MSTORE PUSH1 0x20 PUSH1 0x4 DUP3 ADD MSTORE PUSH1 0x1D PUSH1 0x24 DUP3 ADD MSTORE PUSH32 0x416D6F756E74206D7573742062652067726561746572207468616E2030000000 PUSH1 0x44 DUP3 ADD MSTORE PUSH1 0x64 ADD PUSH2 0x9C4 JUMP JUMPDEST PUSH1 0x1 SLOAD PUSH1 0x40 MLOAD PUSH4 0x23B872DD PUSH1 0xE0 SHL DUP2 MSTORE CALLER PUSH1 0x4 DUP3 ADD MSTORE ADDRESS PUSH1 0x24 DUP3 ADD MSTORE PUSH1 0x44 DUP2 ADD DUP4 SWAP1 MSTORE PUSH1 0x1 PUSH1 0x1 PUSH1 0xA0 SHL SUB SWAP1 SWAP2 AND SWAP1 PUSH4 0x23B872DD SWAP1 PUSH1 0x64 ADD PUSH1 0x20 PUSH1 0x40 MLOAD DUP1 DUP4 SUB DUP2 PUSH0 DUP8 GAS CALL ISZERO DUP1 ISZERO PUSH2 0x1D2F JUMPI RETURNDATASIZE PUSH0 DUP1 RETURNDATACOPY RETURNDATASIZE PUSH0 REVERT JUMPDEST POP POP POP POP PUSH1 0x40 MLOAD RETURNDATASIZE PUSH1 0x1F NOT PUSH1 0x1F DUP3 ADD AND DUP3 ADD DUP1 PUSH1 0x40 MSTORE POP DUP2 ADD SWAP1 PUSH2 0x1D53 SWAP2 SWAP1 PUSH2 0x3942 JUMP JUMPDEST POP PUSH2 0x1D5D CALLER PUSH2 0x30C4 JUMP JUMPDEST CALLER PUSH0 SWAP1 DUP2 MSTORE PUSH1 0xF PUSH1 0x20 MSTORE PUSH1 0x40 DUP2 KECCAK256 PUSH1 0x2 DUP2 ADD DUP1 SLOAD SWAP2 SWAP3 DUP5 SWAP3 PUSH2 0x1D80 SWAP1 DUP5 SWAP1 PUSH2 0x3843 JUMP JUMPDEST SWAP3 POP POP DUP2 SWAP1 SSTORE POP DUP2 PUSH1 0xD PUSH0 DUP3 DUP3 SLOAD PUSH2 0x1265 SWAP2 SWAP1 PUSH2 0x3843 JUMP JUMPDEST PUSH1 0x5 SLOAD PUSH1 0x1 PUSH1 0x1 PUSH1 0xA0 SHL SUB AND CALLER EQ PUSH2 0x1DC2 JUMPI PUSH1 0x40 MLOAD PUSH3 0x461BCD PUSH1 0xE5 SHL DUP2 MSTORE PUSH1 0x4 ADD PUSH2 0x9C4 SWAP1 PUSH2 0x380B JUMP JUMPDEST PUSH2 0x1DCA PUSH2 0x306D JUMP JUMPDEST PUSH1 0x7 SLOAD DUP2 GT ISZERO PUSH2 0x1E11 JUMPI PUSH1 0x40 MLOAD PUSH3 0x461BCD PUSH1 0xE5 SHL DUP2 MSTORE PUSH1 0x20 PUSH1 0x4 DUP3 ADD MSTORE PUSH1 0x12 PUSH1 0x24 DUP3 ADD MSTORE PUSH18 0x4E6F7420656E6F75746820696E2062616E6B PUSH1 0x70 SHL PUSH1 0x44 DUP3 ADD MSTORE PUSH1 0x64 ADD PUSH2 0x9C4 JUMP JUMPDEST PUSH1 0x1 SLOAD PUSH1 0x40 MLOAD PUSH4 0xA9059CBB PUSH1 0xE0 SHL DUP2 MSTORE CALLER PUSH1 0x4 DUP3 ADD MSTORE PUSH1 0x24 DUP2 ADD DUP4 SWAP1 MSTORE PUSH1 0x1 PUSH1 0x1 PUSH1 0xA0 SHL SUB SWAP1 SWAP2 AND SWAP1 PUSH4 0xA9059CBB SWAP1 PUSH1 0x44 ADD PUSH1 0x20 PUSH1 0x40 MLOAD DUP1 DUP4 SUB DUP2 PUSH0 DUP8 GAS CALL ISZERO DUP1 ISZERO PUSH2 0x1E5F JUMPI RETURNDATASIZE PUSH0 DUP1 RETURNDATACOPY RETURNDATASIZE PUSH0 REVERT JUMPDEST POP POP POP POP PUSH1 0x40 MLOAD RETURNDATASIZE PUSH1 0x1F NOT PUSH1 0x1F DUP3 ADD AND DUP3 ADD DUP1 PUSH1 0x40 MSTORE POP DUP2 ADD SWAP1 PUSH2 0x1E83 SWAP2 SWAP1 PUSH2 0x3942 JUMP JUMPDEST POP DUP1 PUSH1 0x7 PUSH0 DUP3 DUP3 SLOAD PUSH2 0x1431 SWAP2 SWAP1 PUSH2 0x3856 JUMP JUMPDEST PUSH1 0x4 SLOAD PUSH1 0x1 PUSH1 0x1 PUSH1 0xA0 SHL SUB AND CALLER EQ PUSH2 0x1EBF JUMPI PUSH1 0x40 MLOAD PUSH3 0x461BCD PUSH1 0xE5 SHL DUP2 MSTORE PUSH1 0x4 ADD PUSH2 0x9C4 SWAP1 PUSH2 0x3961 JUMP JUMPDEST PUSH1 0x15 SLOAD PUSH0 SWAP1 DUP2 MSTORE PUSH1 0x16 PUSH1 0x20 MSTORE PUSH1 0x40 DUP2 KECCAK256 PUSH1 0x1 ADD SLOAD PUSH1 0xFF AND PUSH1 0x5 DUP2 GT ISZERO PUSH2 0x1EE7 JUMPI PUSH2 0x1EE7 PUSH2 0x33FD JUMP JUMPDEST EQ DUP1 PUSH2 0x1F1A JUMPI POP PUSH1 0x4 PUSH1 0x15 SLOAD PUSH0 SWAP1 DUP2 MSTORE PUSH1 0x16 PUSH1 0x20 MSTORE PUSH1 0x40 SWAP1 KECCAK256 PUSH1 0x1 ADD SLOAD PUSH1 0xFF AND PUSH1 0x5 DUP2 GT ISZERO PUSH2 0x1F18 JUMPI PUSH2 0x1F18 PUSH2 0x33FD JUMP JUMPDEST EQ JUMPDEST DUP1 PUSH2 0x1F4C JUMPI POP PUSH1 0x5 PUSH1 0x15 SLOAD PUSH0 SWAP1 DUP2 MSTORE PUSH1 0x16 PUSH1 0x20 MSTORE PUSH1 0x40 SWAP1 KECCAK256 PUSH1 0x1 ADD SLOAD PUSH1 0xFF AND PUSH1 0x5 DUP2 GT ISZERO PUSH2 0x1F4A JUMPI PUSH2 0x1F4A PUSH2 0x33FD JUMP JUMPDEST EQ JUMPDEST PUSH2 0x1F90 JUMPI PUSH1 0x40 MLOAD PUSH3 0x461BCD PUSH1 0xE5 SHL DUP2 MSTORE PUSH1 0x20 PUSH1 0x4 DUP3 ADD MSTORE PUSH1 0x15 PUSH1 0x24 DUP3 ADD MSTORE PUSH21 0x141C995D881C9BDD5B99081B9BDD0818DB1BDCD959 PUSH1 0x5A SHL PUSH1 0x44 DUP3 ADD MSTORE PUSH1 0x64 ADD PUSH2 0x9C4 JUMP JUMPDEST PUSH0 DUP2 DUP2 MSTORE PUSH1 0x1D PUSH1 0x20 MSTORE PUSH1 0x40 SWAP1 KECCAK256 SLOAD PUSH1 0xFF AND ISZERO PUSH2 0x1FE2 JUMPI PUSH1 0x40 MLOAD PUSH3 0x461BCD PUSH1 0xE5 SHL DUP2 MSTORE PUSH1 0x20 PUSH1 0x4 DUP3 ADD MSTORE PUSH1 0x11 PUSH1 0x24 DUP3 ADD MSTORE PUSH17 0x12185CDA08185B1C9958591E481D5CD959 PUSH1 0x7A SHL PUSH1 0x44 DUP3 ADD MSTORE PUSH1 0x64 ADD PUSH2 0x9C4 JUMP JUMPDEST PUSH0 DUP2 DUP2 MSTORE PUSH1 0x1D PUSH1 0x20 MSTORE PUSH1 0x40 DUP2 KECCAK256 DUP1 SLOAD PUSH1 0xFF NOT AND PUSH1 0x1 OR SWAP1 SSTORE PUSH1 0x15 DUP1 SLOAD SWAP2 PUSH2 0x2008 DUP4 PUSH2 0x39BC JUMP JUMPDEST SWAP1 SWAP2 SSTORE POP POP PUSH1 0x15 SLOAD PUSH0 DUP2 DUP2 MSTORE PUSH1 0x16 PUSH1 0x20 DUP2 DUP2 MSTORE PUSH1 0x40 DUP1 DUP5 KECCAK256 DUP2 MLOAD PUSH2 0x160 DUP2 ADD DUP4 MSTORE DUP7 DUP2 MSTORE PUSH1 0x2 DUP2 DUP6 ADD SWAP1 DUP2 MSTORE TIMESTAMP SWAP4 DUP3 ADD SWAP4 SWAP1 SWAP4 MSTORE PUSH1 0x60 DUP2 ADD DUP7 SWAP1 MSTORE PUSH1 0x4 DUP3 ADD SLOAD PUSH1 0x80 DUP3 ADD MSTORE PUSH1 0xA0 DUP2 ADD DUP7 SWAP1 MSTORE PUSH1 0x6 DUP3 ADD SLOAD PUSH1 0xC0 DUP3 ADD MSTORE PUSH1 0xE0 DUP2 ADD DUP7 SWAP1 MSTORE PUSH2 0x100 DUP2 ADD DUP7 SWAP1 MSTORE PUSH2 0x120 DUP2 ADD DUP9 SWAP1 MSTORE PUSH2 0x140 DUP2 ADD DUP7 SWAP1 MSTORE SWAP5 DUP7 SWAP1 MSTORE SWAP3 SWAP1 SWAP2 MSTORE DUP3 MLOAD DUP3 SSTORE MLOAD PUSH1 0x1 DUP1 DUP4 ADD DUP1 SLOAD SWAP4 SWAP5 SWAP4 DUP6 SWAP4 SWAP3 PUSH1 0xFF NOT SWAP2 SWAP1 SWAP2 AND SWAP1 DUP4 PUSH1 0x5 DUP2 GT ISZERO PUSH2 0x20B1 JUMPI PUSH2 0x20B1 PUSH2 0x33FD JUMP JUMPDEST MUL OR SWAP1 SSTORE POP PUSH1 0x40 DUP3 ADD MLOAD PUSH1 0x2 DUP3 ADD SSTORE PUSH1 0x60 DUP3 ADD MLOAD PUSH1 0x3 DUP3 ADD SSTORE PUSH1 0x80 DUP3 ADD MLOAD PUSH1 0x4 DUP3 ADD SSTORE PUSH1 0xA0 DUP3 ADD MLOAD PUSH1 0x5 DUP3 ADD SSTORE PUSH1 0xC0 DUP3 ADD MLOAD PUSH1 0x6 DUP3 ADD SSTORE PUSH1 0xE0 DUP3 ADD MLOAD PUSH1 0x7 DUP3 ADD SSTORE PUSH2 0x100 DUP3 ADD MLOAD PUSH1 0x8 DUP3 ADD SSTORE PUSH2 0x120 DUP3 ADD MLOAD PUSH1 0x9 DUP3 ADD SSTORE PUSH2 0x140 SWAP1 SWAP2 ADD MLOAD PUSH1 0xA SWAP1 SWAP2 ADD SSTORE PUSH1 0x1 PUSH1 0x16 PUSH0 PUSH2 0x2124 DUP6 DUP5 PUSH2 0x3843 JUMP JUMPDEST DUP2 MSTORE PUSH1 0x20 ADD SWAP1 DUP2 MSTORE PUSH1 0x20 ADD PUSH0 KECCAK256 PUSH1 0x1 ADD PUSH0 PUSH2 0x100 EXP DUP2 SLOAD DUP2 PUSH1 0xFF MUL NOT AND SWAP1 DUP4 PUSH1 0x5 DUP2 GT ISZERO PUSH2 0x2154 JUMPI PUSH2 0x2154 PUSH2 0x33FD JUMP JUMPDEST MUL OR SWAP1 SSTORE POP POP POP POP JUMP JUMPDEST PUSH1 0x4 SLOAD PUSH1 0x1 PUSH1 0x1 PUSH1 0xA0 SHL SUB AND CALLER EQ PUSH2 0x2188 JUMPI PUSH1 0x40 MLOAD PUSH3 0x461BCD PUSH1 0xE5 SHL DUP2 MSTORE PUSH1 0x4 ADD PUSH2 0x9C4 SWAP1 PUSH2 0x3961 JUMP JUMPDEST PUSH1 0x2 PUSH0 DUP4 DUP2 MSTORE PUSH1 0x16 PUSH1 0x20 MSTORE PUSH1 0x40 SWAP1 KECCAK256 PUSH1 0x1 ADD SLOAD PUSH1 0xFF AND PUSH1 0x5 DUP2 GT ISZERO PUSH2 0x21AF JUMPI PUSH2 0x21AF PUSH2 0x33FD JUMP JUMPDEST EQ PUSH2 0x21F0 JUMPI PUSH1 0x40 MLOAD PUSH3 0x461BCD PUSH1 0xE5 SHL DUP2 MSTORE PUSH1 0x20 PUSH1 0x4 DUP3 ADD MSTORE PUSH1 0x11 PUSH1 0x24 DUP3 ADD MSTORE PUSH17 0x139BDD081C195B991A5B99C81C9BDD5B99 PUSH1 0x7A SHL PUSH1 0x44 DUP3 ADD MSTORE PUSH1 0x64 ADD PUSH2 0x9C4 JUMP JUMPDEST PUSH0 DUP3 DUP2 MSTORE PUSH1 0x16 PUSH1 0x20 MSTORE PUSH1 0x40 DUP2 KECCAK256 PUSH1 0x4 ADD SLOAD DUP2 JUMPDEST DUP4 MLOAD DUP2 LT ISZERO PUSH2 0x247B JUMPI PUSH0 PUSH1 0xF PUSH0 PUSH1 0x11 PUSH0 DUP9 DUP7 DUP2 MLOAD DUP2 LT PUSH2 0x2225 JUMPI PUSH2 0x2225 PUSH2 0x3869 JUMP JUMPDEST PUSH1 0x20 MUL PUSH1 0x20 ADD ADD MLOAD PUSH0 ADD MLOAD DUP2 MSTORE PUSH1 0x20 ADD SWAP1 DUP2 MSTORE PUSH1 0x20 ADD PUSH0 KECCAK256 PUSH0 SWAP1 SLOAD SWAP1 PUSH2 0x100 EXP SWAP1 DIV PUSH1 0x1 PUSH1 0x1 PUSH1 0xA0 SHL SUB AND PUSH1 0x1 PUSH1 0x1 PUSH1 0xA0 SHL SUB AND PUSH1 0x1 PUSH1 0x1 PUSH1 0xA0 SHL SUB AND DUP2 MSTORE PUSH1 0x20 ADD SWAP1 DUP2 MSTORE PUSH1 0x20 ADD PUSH0 KECCAK256 SWAP1 POP DUP5 DUP3 DUP2 MLOAD DUP2 LT PUSH2 0x2283 JUMPI PUSH2 0x2283 PUSH2 0x3869 JUMP JUMPDEST PUSH1 0x20 MUL PUSH1 0x20 ADD ADD MLOAD PUSH1 0x20 ADD MLOAD DUP2 PUSH1 0x2 ADD SLOAD LT ISZERO DUP1 ISZERO PUSH2 0x22BF JUMPI POP PUSH0 DUP7 DUP2 MSTORE PUSH1 0x19 PUSH1 0x20 SWAP1 DUP2 MSTORE PUSH1 0x40 DUP1 DUP4 KECCAK256 PUSH1 0x1 DUP6 ADD SLOAD DUP5 MSTORE SWAP1 SWAP2 MSTORE SWAP1 KECCAK256 SLOAD PUSH1 0xFF AND ISZERO JUMPDEST DUP1 ISZERO PUSH2 0x22EA JUMPI POP PUSH1 0x13 SLOAD DUP6 DUP4 DUP2 MLOAD DUP2 LT PUSH2 0x22DB JUMPI PUSH2 0x22DB PUSH2 0x3869 JUMP JUMPDEST PUSH1 0x20 MUL PUSH1 0x20 ADD ADD MLOAD PUSH1 0x20 ADD MLOAD LT ISZERO JUMPDEST DUP1 ISZERO PUSH2 0x2315 JUMPI POP PUSH1 0x14 SLOAD DUP6 DUP4 DUP2 MLOAD DUP2 LT PUSH2 0x2306 JUMPI PUSH2 0x2306 PUSH2 0x3869 JUMP JUMPDEST PUSH1 0x20 MUL PUSH1 0x20 ADD ADD MLOAD PUSH1 0x20 ADD MLOAD GT ISZERO JUMPDEST ISZERO PUSH2 0x2472 JUMPI DUP5 DUP3 DUP2 MLOAD DUP2 LT PUSH2 0x232C JUMPI PUSH2 0x232C PUSH2 0x3869 JUMP JUMPDEST PUSH1 0x20 MUL PUSH1 0x20 ADD ADD MLOAD PUSH1 0x20 ADD MLOAD DUP2 PUSH1 0x2 ADD PUSH0 DUP3 DUP3 SLOAD PUSH2 0x234A SWAP2 SWAP1 PUSH2 0x3856 JUMP JUMPDEST SWAP3 POP POP DUP2 SWAP1 SSTORE POP DUP5 DUP3 DUP2 MLOAD DUP2 LT PUSH2 0x2363 JUMPI PUSH2 0x2363 PUSH2 0x3869 JUMP JUMPDEST PUSH1 0x20 MUL PUSH1 0x20 ADD ADD MLOAD PUSH1 0x20 ADD MLOAD DUP2 PUSH1 0x3 ADD PUSH0 DUP3 DUP3 SLOAD PUSH2 0x2381 SWAP2 SWAP1 PUSH2 0x3843 JUMP JUMPDEST SWAP1 SWAP2 SSTORE POP POP PUSH1 0x6 DUP2 ADD DUP7 SWAP1 SSTORE PUSH1 0x1 DUP2 ADD SLOAD PUSH0 SWAP1 DUP2 MSTORE PUSH1 0x12 PUSH1 0x20 SWAP1 DUP2 MSTORE PUSH1 0x40 DUP1 DUP4 KECCAK256 PUSH1 0x5 DUP6 ADD DUP1 SLOAD DUP6 MSTORE SWAP3 MSTORE DUP3 KECCAK256 DUP9 SWAP1 SSTORE DUP1 SLOAD SWAP2 PUSH2 0x23BD DUP4 PUSH2 0x39BC JUMP JUMPDEST SWAP2 SWAP1 POP SSTORE POP DUP5 DUP3 DUP2 MLOAD DUP2 LT PUSH2 0x23D4 JUMPI PUSH2 0x23D4 PUSH2 0x3869 JUMP JUMPDEST PUSH1 0x20 SWAP1 DUP2 MUL SWAP2 SWAP1 SWAP2 ADD DUP2 ADD MLOAD PUSH0 DUP9 DUP2 MSTORE PUSH1 0x17 DUP4 MSTORE PUSH1 0x40 DUP1 DUP3 KECCAK256 DUP8 DUP4 MSTORE DUP5 MSTORE DUP1 DUP3 KECCAK256 DUP4 MLOAD DUP2 SSTORE SWAP3 DUP5 ADD MLOAD PUSH1 0x1 SWAP4 DUP5 ADD SSTORE DUP10 DUP3 MSTORE PUSH1 0x19 DUP5 MSTORE DUP1 DUP3 KECCAK256 DUP6 DUP5 ADD SLOAD DUP4 MSTORE SWAP1 SWAP4 MSTORE SWAP2 SWAP1 SWAP2 KECCAK256 DUP1 SLOAD PUSH1 0xFF NOT AND SWAP1 SWAP2 OR SWAP1 SSTORE DUP3 PUSH2 0x242F DUP2 PUSH2 0x39BC JUMP JUMPDEST SWAP4 POP POP DUP5 DUP3 DUP2 MLOAD DUP2 LT PUSH2 0x2444 JUMPI PUSH2 0x2444 PUSH2 0x3869 JUMP JUMPDEST PUSH1 0x20 MUL PUSH1 0x20 ADD ADD MLOAD PUSH1 0x20 ADD MLOAD DUP5 PUSH2 0x245B SWAP2 SWAP1 PUSH2 0x3843 JUMP JUMPDEST PUSH1 0x9 DUP1 SLOAD SWAP2 SWAP6 POP PUSH0 PUSH2 0x246C DUP4 PUSH2 0x39BC JUMP JUMPDEST SWAP2 SWAP1 POP SSTORE POP JUMPDEST POP PUSH1 0x1 ADD PUSH2 0x2203 JUMP JUMPDEST POP DUP2 PUSH1 0xD PUSH0 DUP3 DUP3 SLOAD PUSH2 0x248D SWAP2 SWAP1 PUSH2 0x3856 JUMP JUMPDEST SWAP3 POP POP DUP2 SWAP1 SSTORE POP DUP2 PUSH1 0xB PUSH0 DUP3 DUP3 SLOAD PUSH2 0x24A5 SWAP2 SWAP1 PUSH2 0x3843 JUMP JUMPDEST SWAP1 SWAP2 SSTORE POP POP PUSH0 DUP5 DUP2 MSTORE PUSH1 0x16 PUSH1 0x20 MSTORE PUSH1 0x40 DUP2 KECCAK256 PUSH1 0x6 ADD DUP1 SLOAD DUP5 SWAP3 SWAP1 PUSH2 0x24CA SWAP1 DUP5 SWAP1 PUSH2 0x3843 JUMP JUMPDEST SWAP1 SWAP2 SSTORE POP POP PUSH0 SWAP4 DUP5 MSTORE PUSH1 0x16 PUSH1 0x20 MSTORE PUSH1 0x40 SWAP1 SWAP4 KECCAK256 PUSH1 0x4 ADD SWAP3 SWAP1 SWAP3 SSTORE POP POP JUMP JUMPDEST PUSH1 0x1 PUSH1 0x1 PUSH1 0xA0 SHL SUB DUP1 DUP5 AND PUSH0 DUP2 DUP2 MSTORE PUSH1 0xF PUSH1 0x20 SWAP1 DUP2 MSTORE PUSH1 0x40 SWAP2 DUP3 SWAP1 KECCAK256 DUP3 MLOAD PUSH1 0xE0 DUP2 ADD DUP5 MSTORE DUP2 SLOAD SWAP1 SWAP6 AND DUP1 DUP7 MSTORE PUSH1 0x1 DUP3 ADD SLOAD SWAP3 DUP7 ADD SWAP3 SWAP1 SWAP3 MSTORE PUSH1 0x2 DUP2 ADD SLOAD SWAP3 DUP6 ADD SWAP3 SWAP1 SWAP3 MSTORE PUSH1 0x3 DUP3 ADD SLOAD PUSH1 0x60 DUP6 DUP2 ADD SWAP2 SWAP1 SWAP2 MSTORE PUSH1 0x4 DUP4 ADD SLOAD PUSH1 0x80 DUP7 ADD MSTORE PUSH1 0x5 DUP4 ADD SLOAD PUSH1 0xA0 DUP7 ADD MSTORE PUSH1 0x6 SWAP1 SWAP3 ADD SLOAD PUSH1 0xC0 DUP6 ADD MSTORE SWAP1 SWAP3 DUP4 SWAP3 DUP4 SWAP3 DUP4 SWAP3 SWAP2 SWAP1 SUB PUSH2 0x2983 JUMPI DUP1 PUSH1 0xA0 ADD MLOAD DUP8 GT ISZERO PUSH2 0x25D1 JUMPI PUSH1 0x40 DUP1 MLOAD PUSH0 DUP1 DUP3 MSTORE PUSH1 0x20 DUP3 ADD SWAP1 SWAP3 MSTORE SWAP1 PUSH2 0x25A4 JUMP JUMPDEST PUSH2 0x2591 PUSH2 0x31DC JUMP JUMPDEST DUP2 MSTORE PUSH1 0x20 ADD SWAP1 PUSH1 0x1 SWAP1 SUB SWAP1 DUP2 PUSH2 0x2589 JUMPI SWAP1 POP JUMPDEST POP PUSH1 0x40 DUP1 MLOAD PUSH0 DUP1 DUP3 MSTORE PUSH1 0x20 DUP3 ADD DUP2 DUP2 MSTORE DUP3 DUP5 ADD SWAP2 DUP3 MSTORE PUSH1 0x60 DUP4 ADD SWAP1 SWAP4 MSTORE SWAP3 SWAP8 POP SWAP6 POP SWAP4 POP SWAP2 POP PUSH2 0x1C7B SWAP1 POP JUMP JUMPDEST DUP7 ISZERO DUP1 ISZERO PUSH2 0x25DD JUMPI POP DUP6 ISZERO JUMPDEST ISZERO PUSH2 0x25EA JUMPI DUP1 PUSH1 0xA0 ADD MLOAD SWAP6 POP JUMPDEST PUSH1 0xA0 DUP2 ADD MLOAD PUSH2 0x25F9 DUP8 DUP10 PUSH2 0x3843 JUMP JUMPDEST GT ISZERO PUSH2 0x2612 JUMPI DUP7 DUP2 PUSH1 0xA0 ADD MLOAD PUSH2 0x260F SWAP2 SWAP1 PUSH2 0x3856 JUMP JUMPDEST SWAP6 POP JUMPDEST DUP6 PUSH1 0x1 PUSH1 0x1 PUSH1 0x40 SHL SUB DUP2 GT ISZERO PUSH2 0x262A JUMPI PUSH2 0x262A PUSH2 0x3625 JUMP JUMPDEST PUSH1 0x40 MLOAD SWAP1 DUP1 DUP3 MSTORE DUP1 PUSH1 0x20 MUL PUSH1 0x20 ADD DUP3 ADD PUSH1 0x40 MSTORE DUP1 ISZERO PUSH2 0x2663 JUMPI DUP2 PUSH1 0x20 ADD JUMPDEST PUSH2 0x2650 PUSH2 0x31DC JUMP JUMPDEST DUP2 MSTORE PUSH1 0x20 ADD SWAP1 PUSH1 0x1 SWAP1 SUB SWAP1 DUP2 PUSH2 0x2648 JUMPI SWAP1 POP JUMPDEST POP SWAP5 POP DUP6 PUSH1 0x1 PUSH1 0x1 PUSH1 0x40 SHL SUB DUP2 GT ISZERO PUSH2 0x267E JUMPI PUSH2 0x267E PUSH2 0x3625 JUMP JUMPDEST PUSH1 0x40 MLOAD SWAP1 DUP1 DUP3 MSTORE DUP1 PUSH1 0x20 MUL PUSH1 0x20 ADD DUP3 ADD PUSH1 0x40 MSTORE DUP1 ISZERO PUSH2 0x26A7 JUMPI DUP2 PUSH1 0x20 ADD PUSH1 0x20 DUP3 MUL DUP1 CALLDATASIZE DUP4 CALLDATACOPY ADD SWAP1 POP JUMPDEST POP SWAP4 POP DUP6 PUSH1 0x1 PUSH1 0x1 PUSH1 0x40 SHL SUB DUP2 GT ISZERO PUSH2 0x26C2 JUMPI PUSH2 0x26C2 PUSH2 0x3625 JUMP JUMPDEST PUSH1 0x40 MLOAD SWAP1 DUP1 DUP3 MSTORE DUP1 PUSH1 0x20 MUL PUSH1 0x20 ADD DUP3 ADD PUSH1 0x40 MSTORE DUP1 ISZERO PUSH2 0x26EB JUMPI DUP2 PUSH1 0x20 ADD PUSH1 0x20 DUP3 MUL DUP1 CALLDATASIZE DUP4 CALLDATACOPY ADD SWAP1 POP JUMPDEST POP SWAP3 POP DUP6 PUSH1 0x1 PUSH1 0x1 PUSH1 0x40 SHL SUB DUP2 GT ISZERO PUSH2 0x2706 JUMPI PUSH2 0x2706 PUSH2 0x3625 JUMP JUMPDEST PUSH1 0x40 MLOAD SWAP1 DUP1 DUP3 MSTORE DUP1 PUSH1 0x20 MUL PUSH1 0x20 ADD DUP3 ADD PUSH1 0x40 MSTORE DUP1 ISZERO PUSH2 0x272F JUMPI DUP2 PUSH1 0x20 ADD PUSH1 0x20 DUP3 MUL DUP1 CALLDATASIZE DUP4 CALLDATACOPY ADD SWAP1 POP JUMPDEST POP SWAP2 POP PUSH0 JUMPDEST DUP7 DUP2 LT ISZERO PUSH2 0x297C JUMPI PUSH0 PUSH1 0x12 PUSH0 DUP5 PUSH1 0x20 ADD MLOAD DUP2 MSTORE PUSH1 0x20 ADD SWAP1 DUP2 MSTORE PUSH1 0x20 ADD PUSH0 KECCAK256 PUSH0 PUSH1 0x1 DUP12 DUP6 DUP8 PUSH1 0xA0 ADD MLOAD PUSH2 0x2766 SWAP2 SWAP1 PUSH2 0x3856 JUMP JUMPDEST PUSH2 0x2770 SWAP2 SWAP1 PUSH2 0x3856 JUMP JUMPDEST PUSH2 0x277A SWAP2 SWAP1 PUSH2 0x3856 JUMP JUMPDEST DUP2 MSTORE PUSH1 0x20 DUP1 DUP3 ADD SWAP3 SWAP1 SWAP3 MSTORE PUSH1 0x40 SWAP1 DUP2 ADD PUSH0 SWAP1 DUP2 KECCAK256 SLOAD DUP1 DUP3 MSTORE PUSH1 0x16 DUP5 MSTORE DUP3 DUP3 KECCAK256 DUP4 MLOAD PUSH2 0x160 DUP2 ADD SWAP1 SWAP5 MSTORE DUP1 SLOAD DUP5 MSTORE PUSH1 0x1 DUP2 ADD SLOAD SWAP2 SWAP6 POP SWAP2 SWAP4 DUP4 ADD SWAP1 PUSH1 0xFF AND PUSH1 0x5 DUP2 GT ISZERO PUSH2 0x27C8 JUMPI PUSH2 0x27C8 PUSH2 0x33FD JUMP JUMPDEST PUSH1 0x5 DUP2 GT ISZERO PUSH2 0x27D9 JUMPI PUSH2 0x27D9 PUSH2 0x33FD JUMP JUMPDEST DUP2 MSTORE PUSH1 0x2 DUP3 ADD SLOAD PUSH1 0x20 DUP1 DUP4 ADD SWAP2 SWAP1 SWAP2 MSTORE PUSH1 0x3 DUP4 ADD SLOAD PUSH1 0x40 DUP1 DUP5 ADD SWAP2 SWAP1 SWAP2 MSTORE PUSH1 0x4 DUP5 ADD SLOAD PUSH1 0x60 DUP5 ADD MSTORE PUSH1 0x5 DUP5 ADD SLOAD PUSH1 0x80 DUP5 ADD MSTORE PUSH1 0x6 DUP5 ADD SLOAD PUSH1 0xA0 DUP5 ADD MSTORE PUSH1 0x7 DUP5 ADD SLOAD PUSH1 0xC0 DUP5 ADD MSTORE PUSH1 0x8 DUP5 ADD SLOAD PUSH1 0xE0 DUP5 ADD MSTORE PUSH1 0x9 DUP5 ADD SLOAD PUSH2 0x100 DUP5 ADD MSTORE PUSH1 0xA SWAP1 SWAP4 ADD SLOAD PUSH2 0x120 SWAP1 SWAP3 ADD SWAP2 SWAP1 SWAP2 MSTORE PUSH0 DUP6 DUP2 MSTORE PUSH1 0x17 DUP3 MSTORE DUP3 DUP2 KECCAK256 PUSH1 0x18 DUP4 MSTORE DUP4 DUP3 KECCAK256 DUP10 DUP5 ADD DUP1 MLOAD DUP5 MSTORE SWAP1 DUP5 MSTORE DUP5 DUP4 KECCAK256 SLOAD DUP4 MSTORE SWAP1 DUP4 MSTORE DUP4 DUP3 KECCAK256 DUP5 MLOAD DUP1 DUP7 ADD DUP7 MSTORE DUP2 SLOAD DUP2 MSTORE PUSH1 0x1 SWAP2 DUP3 ADD SLOAD DUP2 DUP7 ADD MSTORE DUP9 DUP5 MSTORE PUSH1 0x1A DUP6 MSTORE DUP6 DUP5 KECCAK256 PUSH1 0x1B DUP7 MSTORE DUP7 DUP6 KECCAK256 SWAP4 MLOAD DUP6 MSTORE SWAP3 DUP6 MSTORE DUP6 DUP5 KECCAK256 SLOAD DUP5 MSTORE SWAP2 DUP5 MSTORE SWAP2 DUP5 SWAP1 KECCAK256 DUP5 MLOAD DUP1 DUP7 ADD SWAP1 SWAP6 MSTORE DUP1 SLOAD DUP6 MSTORE SWAP1 SWAP2 ADD SLOAD SWAP2 DUP4 ADD SWAP2 SWAP1 SWAP2 MSTORE DUP11 MLOAD SWAP3 SWAP4 POP SWAP2 DUP4 SWAP1 DUP12 SWAP1 DUP8 SWAP1 DUP2 LT PUSH2 0x28D7 JUMPI PUSH2 0x28D7 PUSH2 0x3869 JUMP JUMPDEST PUSH1 0x20 MUL PUSH1 0x20 ADD ADD DUP2 SWAP1 MSTORE POP DUP2 PUSH1 0x20 ADD MLOAD DUP10 DUP7 DUP2 MLOAD DUP2 LT PUSH2 0x28F9 JUMPI PUSH2 0x28F9 PUSH2 0x3869 JUMP JUMPDEST PUSH1 0x20 MUL PUSH1 0x20 ADD ADD DUP2 DUP2 MSTORE POP POP PUSH8 0xDE0B6B3A7640000 DUP2 PUSH1 0x20 ADD MLOAD DUP4 PUSH1 0x20 ADD MLOAD PUSH2 0x2922 SWAP2 SWAP1 PUSH2 0x3986 JUMP JUMPDEST PUSH2 0x292C SWAP2 SWAP1 PUSH2 0x399D JUMP JUMPDEST DUP9 DUP7 DUP2 MLOAD DUP2 LT PUSH2 0x293E JUMPI PUSH2 0x293E PUSH2 0x3869 JUMP JUMPDEST PUSH1 0x20 MUL PUSH1 0x20 ADD ADD DUP2 DUP2 MSTORE POP POP DUP1 PUSH1 0x20 ADD MLOAD DUP8 DUP7 DUP2 MLOAD DUP2 LT PUSH2 0x2961 JUMPI PUSH2 0x2961 PUSH2 0x3869 JUMP JUMPDEST PUSH1 0x20 SWAP1 DUP2 MUL SWAP2 SWAP1 SWAP2 ADD ADD MSTORE POP POP PUSH1 0x1 SWAP1 SWAP3 ADD SWAP2 POP PUSH2 0x2734 SWAP1 POP JUMP JUMPDEST POP POP PUSH2 0x1C7B JUMP JUMPDEST PUSH1 0x40 DUP1 MLOAD PUSH0 DUP1 DUP3 MSTORE PUSH1 0x20 DUP3 ADD SWAP1 SWAP3 MSTORE SWAP1 PUSH2 0x29B3 JUMP JUMPDEST PUSH2 0x29A0 PUSH2 0x31DC JUMP JUMPDEST DUP2 MSTORE PUSH1 0x20 ADD SWAP1 PUSH1 0x1 SWAP1 SUB SWAP1 DUP2 PUSH2 0x2998 JUMPI SWAP1 POP JUMPDEST POP PUSH1 0x40 DUP1 MLOAD PUSH0 DUP1 DUP3 MSTORE PUSH1 0x20 DUP3 ADD DUP2 DUP2 MSTORE DUP3 DUP5 ADD SWAP2 DUP3 MSTORE PUSH1 0x60 DUP4 ADD SWAP1 SWAP4 MSTORE SWAP3 SWAP12 SWAP1 SWAP11 POP SWAP1 SWAP9 POP SWAP1 SWAP7 POP SWAP5 POP POP POP POP POP JUMP JUMPDEST PUSH1 0x5 SLOAD PUSH1 0x1 PUSH1 0x1 PUSH1 0xA0 SHL SUB AND CALLER EQ PUSH2 0x2A0D JUMPI PUSH1 0x40 MLOAD PUSH3 0x461BCD PUSH1 0xE5 SHL DUP2 MSTORE PUSH1 0x4 ADD PUSH2 0x9C4 SWAP1 PUSH2 0x380B JUMP JUMPDEST PUSH1 0x6 DUP1 SLOAD PUSH1 0x1 PUSH1 0x1 PUSH1 0xA0 SHL SUB NOT AND PUSH1 0x1 PUSH1 0x1 PUSH1 0xA0 SHL SUB SWAP3 SWAP1 SWAP3 AND SWAP2 SWAP1 SWAP2 OR SWAP1 SSTORE JUMP JUMPDEST PUSH1 0x5 SLOAD PUSH1 0x1 PUSH1 0x1 PUSH1 0xA0 SHL SUB AND CALLER EQ PUSH2 0x2A59 JUMPI PUSH1 0x40 MLOAD PUSH3 0x461BCD PUSH1 0xE5 SHL DUP2 MSTORE PUSH1 0x4 ADD PUSH2 0x9C4 SWAP1 PUSH2 0x380B JUMP JUMPDEST PUSH1 0x5 DUP1 SLOAD PUSH1 0x1 PUSH1 0x1 PUSH1 0xA0 SHL SUB NOT AND PUSH1 0x1 PUSH1 0x1 PUSH1 0xA0 SHL SUB SWAP3 SWAP1 SWAP3 AND SWAP2 SWAP1 SWAP2 OR SWAP1 SSTORE JUMP JUMPDEST PUSH1 0x4 SLOAD PUSH1 0x1 PUSH1 0x1 PUSH1 0xA0 SHL SUB AND CALLER EQ PUSH2 0x2AA5 JUMPI PUSH1 0x40 MLOAD PUSH3 0x461BCD PUSH1 0xE5 SHL DUP2 MSTORE PUSH1 0x4 ADD PUSH2 0x9C4 SWAP1 PUSH2 0x3961 JUMP JUMPDEST PUSH2 0x2AAD PUSH2 0x306D JUMP JUMPDEST PUSH1 0x3 PUSH0 DUP6 DUP2 MSTORE PUSH1 0x16 PUSH1 0x20 MSTORE PUSH1 0x40 SWAP1 KECCAK256 PUSH1 0x1 ADD SLOAD PUSH1 0xFF AND PUSH1 0x5 DUP2 GT ISZERO PUSH2 0x2AD4 JUMPI PUSH2 0x2AD4 PUSH2 0x33FD JUMP JUMPDEST EQ PUSH2 0x2B0E JUMPI PUSH1 0x40 MLOAD PUSH3 0x461BCD PUSH1 0xE5 SHL DUP2 MSTORE PUSH1 0x20 PUSH1 0x4 DUP3 ADD MSTORE PUSH1 0xA PUSH1 0x24 DUP3 ADD MSTORE PUSH10 0x139BDD081C9D5B9B9959 PUSH1 0xB2 SHL PUSH1 0x44 DUP3 ADD MSTORE PUSH1 0x64 ADD PUSH2 0x9C4 JUMP JUMPDEST PUSH0 DUP5 DUP2 MSTORE PUSH1 0x16 PUSH1 0x20 MSTORE PUSH1 0x40 SWAP1 KECCAK256 PUSH1 0x9 ADD SLOAD PUSH2 0x2B2B SWAP1 DUP5 SWAP1 DUP5 PUSH2 0x182C JUMP JUMPDEST PUSH2 0x2B6E JUMPI PUSH1 0x40 MLOAD PUSH3 0x461BCD PUSH1 0xE5 SHL DUP2 MSTORE PUSH1 0x20 PUSH1 0x4 DUP3 ADD MSTORE PUSH1 0x14 PUSH1 0x24 DUP3 ADD MSTORE PUSH20 0x2737BA103B30B634B21036BAB63A34B83634B2B9 PUSH1 0x61 SHL PUSH1 0x44 DUP3 ADD MSTORE PUSH1 0x64 ADD PUSH2 0x9C4 JUMP JUMPDEST PUSH0 DUP5 DUP2 MSTORE PUSH1 0x16 PUSH1 0x20 MSTORE PUSH1 0x40 DUP2 KECCAK256 PUSH1 0x8 DUP2 ADD DUP6 SWAP1 SSTORE PUSH1 0xA DUP2 ADD DUP5 SWAP1 SSTORE PUSH1 0x1 DUP2 ADD DUP1 SLOAD PUSH1 0xFF NOT AND PUSH1 0x4 OR SWAP1 SSTORE TIMESTAMP PUSH1 0x3 SWAP1 SWAP2 ADD SSTORE DUP1 DUP1 DUP1 JUMPDEST DUP5 MLOAD DUP2 LT ISZERO PUSH2 0x2ECD JUMPI PUSH0 PUSH1 0xF PUSH0 PUSH1 0x11 PUSH0 DUP10 DUP7 DUP2 MLOAD DUP2 LT PUSH2 0x2BC5 JUMPI PUSH2 0x2BC5 PUSH2 0x3869 JUMP JUMPDEST PUSH1 0x20 MUL PUSH1 0x20 ADD ADD MLOAD PUSH0 ADD MLOAD DUP2 MSTORE PUSH1 0x20 ADD SWAP1 DUP2 MSTORE PUSH1 0x20 ADD PUSH0 KECCAK256 PUSH0 SWAP1 SLOAD SWAP1 PUSH2 0x100 EXP SWAP1 DIV PUSH1 0x1 PUSH1 0x1 PUSH1 0xA0 SHL SUB AND PUSH1 0x1 PUSH1 0x1 PUSH1 0xA0 SHL SUB AND PUSH1 0x1 PUSH1 0x1 PUSH1 0xA0 SHL SUB AND DUP2 MSTORE PUSH1 0x20 ADD SWAP1 DUP2 MSTORE PUSH1 0x20 ADD PUSH0 KECCAK256 SWAP1 POP PUSH1 0x19 PUSH0 DUP11 DUP2 MSTORE PUSH1 0x20 ADD SWAP1 DUP2 MSTORE PUSH1 0x20 ADD PUSH0 KECCAK256 PUSH0 DUP8 DUP5 DUP2 MLOAD DUP2 LT PUSH2 0x2C35 JUMPI PUSH2 0x2C35 PUSH2 0x3869 JUMP JUMPDEST PUSH1 0x20 SWAP1 DUP2 MUL SWAP2 SWAP1 SWAP2 ADD DUP2 ADD MLOAD MLOAD DUP3 MSTORE DUP2 ADD SWAP2 SWAP1 SWAP2 MSTORE PUSH1 0x40 ADD PUSH0 KECCAK256 SLOAD PUSH1 0xFF AND DUP1 ISZERO PUSH2 0x2C9E JUMPI POP PUSH1 0x1C PUSH0 DUP11 DUP2 MSTORE PUSH1 0x20 ADD SWAP1 DUP2 MSTORE PUSH1 0x20 ADD PUSH0 KECCAK256 PUSH0 DUP8 DUP5 DUP2 MLOAD DUP2 LT PUSH2 0x2C7E JUMPI PUSH2 0x2C7E PUSH2 0x3869 JUMP JUMPDEST PUSH1 0x20 SWAP1 DUP2 MUL SWAP2 SWAP1 SWAP2 ADD DUP2 ADD MLOAD MLOAD DUP3 MSTORE DUP2 ADD SWAP2 SWAP1 SWAP2 MSTORE PUSH1 0x40 ADD PUSH0 KECCAK256 SLOAD PUSH1 0xFF AND ISZERO JUMPDEST ISZERO PUSH2 0x2EC4 JUMPI PUSH0 DUP10 DUP2 MSTORE PUSH1 0x17 PUSH1 0x20 SWAP1 DUP2 MSTORE PUSH1 0x40 DUP1 DUP4 KECCAK256 PUSH1 0x18 SWAP1 SWAP3 MSTORE DUP3 KECCAK256 DUP9 MLOAD SWAP2 SWAP3 SWAP2 DUP3 SWAP1 DUP11 SWAP1 DUP8 SWAP1 DUP2 LT PUSH2 0x2CD3 JUMPI PUSH2 0x2CD3 PUSH2 0x3869 JUMP JUMPDEST PUSH1 0x20 MUL PUSH1 0x20 ADD ADD MLOAD PUSH0 ADD MLOAD DUP2 MSTORE PUSH1 0x20 ADD SWAP1 DUP2 MSTORE PUSH1 0x20 ADD PUSH0 KECCAK256 SLOAD DUP2 MSTORE PUSH1 0x20 ADD SWAP1 DUP2 MSTORE PUSH1 0x20 ADD PUSH0 KECCAK256 PUSH1 0x1 ADD SLOAD DUP5 PUSH2 0x2D08 SWAP2 SWAP1 PUSH2 0x3843 JUMP JUMPDEST SWAP4 POP PUSH0 PUSH8 0xDE0B6B3A7640000 DUP8 DUP5 DUP2 MLOAD DUP2 LT PUSH2 0x2D26 JUMPI PUSH2 0x2D26 PUSH2 0x3869 JUMP JUMPDEST PUSH1 0x20 SWAP1 DUP2 MUL SWAP2 SWAP1 SWAP2 ADD DUP2 ADD MLOAD DUP2 ADD MLOAD PUSH0 DUP14 DUP2 MSTORE PUSH1 0x17 DUP4 MSTORE PUSH1 0x40 DUP1 DUP3 KECCAK256 PUSH1 0x18 SWAP1 SWAP5 MSTORE DUP2 KECCAK256 DUP12 MLOAD SWAP3 SWAP4 SWAP3 DUP3 SWAP1 DUP14 SWAP1 DUP11 SWAP1 DUP2 LT PUSH2 0x2D62 JUMPI PUSH2 0x2D62 PUSH2 0x3869 JUMP JUMPDEST PUSH1 0x20 MUL PUSH1 0x20 ADD ADD MLOAD PUSH0 ADD MLOAD DUP2 MSTORE PUSH1 0x20 ADD SWAP1 DUP2 MSTORE PUSH1 0x20 ADD PUSH0 KECCAK256 SLOAD DUP2 MSTORE PUSH1 0x20 ADD SWAP1 DUP2 MSTORE PUSH1 0x20 ADD PUSH0 KECCAK256 PUSH1 0x1 ADD SLOAD PUSH2 0x2D96 SWAP2 SWAP1 PUSH2 0x3986 JUMP JUMPDEST PUSH2 0x2DA0 SWAP2 SWAP1 PUSH2 0x399D JUMP JUMPDEST SWAP1 POP PUSH2 0x2DAC DUP2 DUP8 PUSH2 0x3843 JUMP JUMPDEST SWAP6 POP DUP1 DUP3 PUSH1 0x4 ADD PUSH0 DUP3 DUP3 SLOAD PUSH2 0x2DC1 SWAP2 SWAP1 PUSH2 0x3843 JUMP JUMPDEST SWAP3 POP POP DUP2 SWAP1 SSTORE POP DUP1 DUP3 PUSH1 0x2 ADD PUSH0 DUP3 DUP3 SLOAD PUSH2 0x2DDB SWAP2 SWAP1 PUSH2 0x3843 JUMP JUMPDEST SWAP1 SWAP2 SSTORE POP POP PUSH0 DUP11 DUP2 MSTORE PUSH1 0x1C PUSH1 0x20 MSTORE PUSH1 0x40 DUP2 KECCAK256 DUP9 MLOAD PUSH1 0x1 SWAP3 SWAP1 DUP11 SWAP1 DUP8 SWAP1 DUP2 LT PUSH2 0x2E05 JUMPI PUSH2 0x2E05 PUSH2 0x3869 JUMP JUMPDEST PUSH1 0x20 MUL PUSH1 0x20 ADD ADD MLOAD PUSH0 ADD MLOAD DUP2 MSTORE PUSH1 0x20 ADD SWAP1 DUP2 MSTORE PUSH1 0x20 ADD PUSH0 KECCAK256 PUSH0 PUSH2 0x100 EXP DUP2 SLOAD DUP2 PUSH1 0xFF MUL NOT AND SWAP1 DUP4 ISZERO ISZERO MUL OR SWAP1 SSTORE POP DUP7 DUP4 DUP2 MLOAD DUP2 LT PUSH2 0x2E45 JUMPI PUSH2 0x2E45 PUSH2 0x3869 JUMP JUMPDEST PUSH1 0x20 SWAP1 DUP2 MUL SWAP2 SWAP1 SWAP2 ADD DUP2 ADD MLOAD PUSH0 DUP13 DUP2 MSTORE PUSH1 0x1A DUP4 MSTORE PUSH1 0x40 DUP1 DUP3 KECCAK256 DUP9 DUP4 MSTORE DUP5 MSTORE DUP1 DUP3 KECCAK256 DUP4 MLOAD DUP2 SSTORE SWAP3 DUP5 ADD MLOAD PUSH1 0x1 SWAP1 SWAP4 ADD SWAP3 SWAP1 SWAP3 SSTORE DUP13 DUP2 MSTORE PUSH1 0x1B SWAP1 SWAP3 MSTORE DUP2 KECCAK256 DUP9 MLOAD DUP7 SWAP3 SWAP1 DUP11 SWAP1 DUP8 SWAP1 DUP2 LT PUSH2 0x2E98 JUMPI PUSH2 0x2E98 PUSH2 0x3869 JUMP JUMPDEST PUSH1 0x20 MUL PUSH1 0x20 ADD ADD MLOAD PUSH0 ADD MLOAD DUP2 MSTORE PUSH1 0x20 ADD SWAP1 DUP2 MSTORE PUSH1 0x20 ADD PUSH0 KECCAK256 DUP2 SWAP1 SSTORE POP DUP4 DUP1 PUSH2 0x2EBF SWAP1 PUSH2 0x39BC JUMP JUMPDEST SWAP5 POP POP POP JUMPDEST POP PUSH1 0x1 ADD PUSH2 0x2BA3 JUMP JUMPDEST POP DUP3 PUSH1 0xD PUSH0 DUP3 DUP3 SLOAD PUSH2 0x2EDF SWAP2 SWAP1 PUSH2 0x3843 JUMP JUMPDEST SWAP3 POP POP DUP2 SWAP1 SSTORE POP DUP1 PUSH1 0xA PUSH0 DUP3 DUP3 SLOAD PUSH2 0x2EF7 SWAP2 SWAP1 PUSH2 0x3843 JUMP JUMPDEST SWAP3 POP POP DUP2 SWAP1 SSTORE POP DUP3 PUSH1 0xC PUSH0 DUP3 DUP3 SLOAD PUSH2 0x2F0F SWAP2 SWAP1 PUSH2 0x3843 JUMP JUMPDEST SWAP1 SWAP2 SSTORE POP POP PUSH0 DUP8 DUP2 MSTORE PUSH1 0x16 PUSH1 0x20 MSTORE PUSH1 0x40 DUP2 KECCAK256 PUSH1 0x7 DUP2 ADD DUP6 SWAP1 SSTORE PUSH1 0x5 DUP2 ADD DUP4 SWAP1 SSTORE PUSH1 0x6 ADD SLOAD PUSH2 0x2F3E SWAP1 DUP5 SWAP1 PUSH2 0x3856 JUMP JUMPDEST SWAP1 POP PUSH0 PUSH2 0x2710 PUSH1 0xE SLOAD PUSH2 0x2710 PUSH2 0x2F54 SWAP2 SWAP1 PUSH2 0x3856 JUMP JUMPDEST PUSH2 0x2F5E SWAP1 DUP5 PUSH2 0x3986 JUMP JUMPDEST PUSH2 0x2F68 SWAP2 SWAP1 PUSH2 0x399D JUMP JUMPDEST SWAP1 POP PUSH0 PUSH2 0x2710 PUSH1 0xE SLOAD DUP5 PUSH2 0x2F7C SWAP2 SWAP1 PUSH2 0x3986 JUMP JUMPDEST PUSH2 0x2F86 SWAP2 SWAP1 PUSH2 0x399D JUMP JUMPDEST SWAP1 POP DUP2 PUSH1 0x7 PUSH0 DUP3 DUP3 SLOAD PUSH2 0x2F99 SWAP2 SWAP1 PUSH2 0x3843 JUMP JUMPDEST SWAP1 SWAP2 SSTORE POP POP PUSH1 0x7 SLOAD DUP7 GT PUSH2 0x2FC3 JUMPI DUP6 PUSH1 0x7 PUSH0 DUP3 DUP3 SLOAD PUSH2 0x2FB8 SWAP2 SWAP1 PUSH2 0x3856 JUMP JUMPDEST SWAP1 SWAP2 SSTORE POP PUSH2 0x2FDA SWAP1 POP JUMP JUMPDEST DUP6 PUSH1 0x8 PUSH0 DUP3 DUP3 SLOAD PUSH2 0x2FD4 SWAP2 SWAP1 PUSH2 0x3843 JUMP JUMPDEST SWAP1 SWAP2 SSTORE POP POP JUMPDEST DUP1 ISZERO PUSH2 0x3058 JUMPI PUSH1 0x1 SLOAD PUSH1 0x6 SLOAD PUSH1 0x40 MLOAD PUSH4 0xA9059CBB PUSH1 0xE0 SHL DUP2 MSTORE PUSH1 0x1 PUSH1 0x1 PUSH1 0xA0 SHL SUB SWAP2 DUP3 AND PUSH1 0x4 DUP3 ADD MSTORE PUSH1 0x24 DUP2 ADD DUP5 SWAP1 MSTORE SWAP2 AND SWAP1 PUSH4 0xA9059CBB SWAP1 PUSH1 0x44 ADD PUSH1 0x20 PUSH1 0x40 MLOAD DUP1 DUP4 SUB DUP2 PUSH0 DUP8 GAS CALL ISZERO DUP1 ISZERO PUSH2 0x3032 JUMPI RETURNDATASIZE PUSH0 DUP1 RETURNDATACOPY RETURNDATASIZE PUSH0 REVERT JUMPDEST POP POP POP POP PUSH1 0x40 MLOAD RETURNDATASIZE PUSH1 0x1F NOT PUSH1 0x1F DUP3 ADD AND DUP3 ADD DUP1 PUSH1 0x40 MSTORE POP DUP2 ADD SWAP1 PUSH2 0x3056 SWAP2 SWAP1 PUSH2 0x3942 JUMP JUMPDEST POP JUMPDEST POP POP POP POP POP POP PUSH2 0x3067 PUSH1 0x1 PUSH0 SSTORE JUMP JUMPDEST POP POP POP POP JUMP JUMPDEST PUSH1 0x2 PUSH0 SLOAD SUB PUSH2 0x30BE JUMPI PUSH1 0x40 MLOAD PUSH3 0x461BCD PUSH1 0xE5 SHL DUP2 MSTORE PUSH1 0x20 PUSH1 0x4 DUP3 ADD MSTORE PUSH1 0x1F PUSH1 0x24 DUP3 ADD MSTORE PUSH32 0x5265656E7472616E637947756172643A207265656E7472616E742063616C6C00 PUSH1 0x44 DUP3 ADD MSTORE PUSH1 0x64 ADD PUSH2 0x9C4 JUMP JUMPDEST PUSH1 0x2 PUSH0 SSTORE JUMP JUMPDEST PUSH1 0x1 PUSH1 0x1 PUSH1 0xA0 SHL SUB DUP1 DUP3 AND PUSH0 DUP2 DUP2 MSTORE PUSH1 0xF PUSH1 0x20 MSTORE PUSH1 0x40 SWAP1 KECCAK256 SLOAD SWAP1 SWAP2 AND EQ PUSH2 0x1272 JUMPI PUSH1 0x10 DUP1 SLOAD SWAP1 PUSH0 PUSH2 0x30F4 DUP4 PUSH2 0x39BC JUMP JUMPDEST SWAP1 SWAP2 SSTORE POP POP PUSH1 0x10 SLOAD PUSH1 0x40 DUP1 MLOAD PUSH1 0xE0 DUP2 ADD DUP3 MSTORE PUSH1 0x1 PUSH1 0x1 PUSH1 0xA0 SHL SUB SWAP4 DUP5 AND DUP1 DUP3 MSTORE PUSH1 0x20 DUP1 DUP4 ADD DUP6 DUP2 MSTORE PUSH0 DUP5 DUP7 ADD DUP2 DUP2 MSTORE PUSH1 0x60 DUP7 ADD DUP3 DUP2 MSTORE PUSH1 0x80 DUP8 ADD DUP4 DUP2 MSTORE PUSH1 0xA0 DUP9 ADD DUP5 DUP2 MSTORE PUSH1 0xC0 DUP10 ADD DUP6 DUP2 MSTORE DUP9 DUP7 MSTORE PUSH1 0xF DUP9 MSTORE DUP11 DUP7 KECCAK256 SWAP10 MLOAD DUP11 SLOAD SWAP14 AND PUSH1 0x1 PUSH1 0x1 PUSH1 0xA0 SHL SUB NOT SWAP14 DUP15 AND OR DUP11 SSTORE SWAP6 MLOAD PUSH1 0x1 DUP11 ADD SSTORE SWAP3 MLOAD PUSH1 0x2 DUP10 ADD SSTORE SWAP1 MLOAD PUSH1 0x3 DUP9 ADD SSTORE MLOAD PUSH1 0x4 DUP8 ADD SSTORE MLOAD PUSH1 0x5 DUP7 ADD SSTORE SWAP1 MLOAD PUSH1 0x6 SWAP1 SWAP5 ADD SWAP4 SWAP1 SWAP4 SSTORE SWAP4 DUP3 MSTORE PUSH1 0x11 SWAP1 SWAP4 MSTORE KECCAK256 DUP1 SLOAD SWAP1 SWAP3 AND OR SWAP1 SSTORE JUMP JUMPDEST PUSH1 0x40 MLOAD DUP1 PUSH1 0xE0 ADD PUSH1 0x40 MSTORE DUP1 PUSH0 PUSH1 0x1 PUSH1 0x1 PUSH1 0xA0 SHL SUB AND DUP2 MSTORE PUSH1 0x20 ADD PUSH0 DUP2 MSTORE PUSH1 0x20 ADD PUSH0 DUP2 MSTORE PUSH1 0x20 ADD PUSH0 DUP2 MSTORE PUSH1 0x20 ADD PUSH0 DUP2 MSTORE PUSH1 0x20 ADD PUSH0 DUP2 MSTORE PUSH1 0x20 ADD PUSH0 DUP2 MSTORE POP SWAP1 JUMP JUMPDEST PUSH1 0x40 DUP1 MLOAD PUSH2 0x160 DUP2 ADD SWAP1 SWAP2 MSTORE PUSH0 DUP1 DUP3 MSTORE PUSH1 0x20 DUP3 ADD SWAP1 DUP2 MSTORE PUSH1 0x20 ADD PUSH0 DUP2 MSTORE PUSH1 0x20 ADD PUSH0 DUP2 MSTORE PUSH1 0x20 ADD PUSH0 DUP2 MSTORE PUSH1 0x20 ADD PUSH0 DUP2 MSTORE PUSH1 0x20 ADD PUSH0 DUP2 MSTORE PUSH1 0x20 ADD PUSH0 DUP2 MSTORE PUSH1 0x20 ADD PUSH0 DUP2 MSTORE PUSH1 0x20 ADD PUSH0 DUP1 NOT AND DUP2 MSTORE PUSH1 0x20 ADD PUSH0 DUP1 NOT AND DUP2 MSTORE POP SWAP1 JUMP JUMPDEST PUSH0 PUSH1 0x20 DUP3 DUP5 SUB SLT ISZERO PUSH2 0x3243 JUMPI PUSH0 DUP1 REVERT JUMPDEST POP CALLDATALOAD SWAP2 SWAP1 POP JUMP JUMPDEST PUSH0 DUP1 PUSH1 0x40 DUP4 DUP6 SUB SLT ISZERO PUSH2 0x325B JUMPI PUSH0 DUP1 REVERT JUMPDEST POP POP DUP1 CALLDATALOAD SWAP3 PUSH1 0x20 SWAP1 SWAP2 ADD CALLDATALOAD SWAP2 POP JUMP JUMPDEST PUSH0 DUP2 MLOAD DUP1 DUP5 MSTORE PUSH1 0x20 DUP1 DUP6 ADD SWAP5 POP PUSH1 0x20 DUP5 ADD PUSH0 JUMPDEST DUP4 DUP2 LT ISZERO PUSH2 0x32E0 JUMPI DUP2 MLOAD DUP1 MLOAD PUSH1 0x1 PUSH1 0x1 PUSH1 0xA0 SHL SUB AND DUP9 MSTORE DUP4 DUP2 ADD MLOAD DUP5 DUP10 ADD MSTORE PUSH1 0x40 DUP1 DUP3 ADD MLOAD SWAP1 DUP10 ADD MSTORE PUSH1 0x60 DUP1 DUP3 ADD MLOAD SWAP1 DUP10 ADD MSTORE PUSH1 0x80 DUP1 DUP3 ADD MLOAD SWAP1 DUP10 ADD MSTORE PUSH1 0xA0 DUP1 DUP3 ADD MLOAD SWAP1 DUP10 ADD MSTORE PUSH1 0xC0 SWAP1 DUP2 ADD MLOAD SWAP1 DUP9 ADD MSTORE PUSH1 0xE0 SWAP1 SWAP7 ADD SWAP6 SWAP1 DUP3 ADD SWAP1 PUSH1 0x1 ADD PUSH2 0x327D JUMP JUMPDEST POP SWAP5 SWAP6 SWAP5 POP POP POP POP POP JUMP JUMPDEST PUSH1 0x20 DUP2 MSTORE PUSH0 PUSH2 0x32FD PUSH1 0x20 DUP4 ADD DUP5 PUSH2 0x326A JUMP JUMPDEST SWAP4 SWAP3 POP POP POP JUMP JUMPDEST DUP1 CALLDATALOAD PUSH1 0x1 PUSH1 0x1 PUSH1 0xA0 SHL SUB DUP2 AND DUP2 EQ PUSH2 0x331A JUMPI PUSH0 DUP1 REVERT JUMPDEST SWAP2 SWAP1 POP JUMP JUMPDEST PUSH0 PUSH1 0x20 DUP3 DUP5 SUB SLT ISZERO PUSH2 0x332F JUMPI PUSH0 DUP1 REVERT JUMPDEST PUSH2 0x32FD DUP3 PUSH2 0x3304 JUMP JUMPDEST PUSH0 JUMPDEST DUP4 DUP2 LT ISZERO PUSH2 0x3352 JUMPI DUP2 DUP2 ADD MLOAD DUP4 DUP3 ADD MSTORE PUSH1 0x20 ADD PUSH2 0x333A JUMP JUMPDEST POP POP PUSH0 SWAP2 ADD MSTORE JUMP JUMPDEST PUSH0 DUP2 MLOAD DUP1 DUP5 MSTORE PUSH2 0x3371 DUP2 PUSH1 0x20 DUP7 ADD PUSH1 0x20 DUP7 ADD PUSH2 0x3338 JUMP JUMPDEST PUSH1 0x1F ADD PUSH1 0x1F NOT AND SWAP3 SWAP1 SWAP3 ADD PUSH1 0x20 ADD SWAP3 SWAP2 POP POP JUMP JUMPDEST PUSH1 0x20 DUP2 MSTORE PUSH1 0x1 DUP1 PUSH1 0xA0 SHL SUB DUP3 MLOAD AND PUSH1 0x20 DUP3 ADD MSTORE PUSH1 0xFF PUSH1 0x20 DUP4 ADD MLOAD AND PUSH1 0x40 DUP3 ADD MSTORE PUSH0 PUSH1 0x40 DUP4 ADD MLOAD PUSH1 0xC0 PUSH1 0x60 DUP5 ADD MSTORE PUSH2 0x33BF PUSH1 0xE0 DUP5 ADD DUP3 PUSH2 0x335A JUMP JUMPDEST SWAP1 POP PUSH1 0x60 DUP5 ADD MLOAD PUSH1 0x1F NOT DUP5 DUP4 SUB ADD PUSH1 0x80 DUP6 ADD MSTORE PUSH2 0x33DC DUP3 DUP3 PUSH2 0x335A JUMP JUMPDEST SWAP2 POP POP PUSH1 0x80 DUP5 ADD MLOAD PUSH1 0xA0 DUP5 ADD MSTORE PUSH1 0xA0 DUP5 ADD MLOAD PUSH1 0xC0 DUP5 ADD MSTORE DUP1 SWAP2 POP POP SWAP3 SWAP2 POP POP JUMP JUMPDEST PUSH4 0x4E487B71 PUSH1 0xE0 SHL PUSH0 MSTORE PUSH1 0x21 PUSH1 0x4 MSTORE PUSH1 0x24 PUSH0 REVERT JUMPDEST PUSH1 0x6 DUP2 LT PUSH2 0x342D JUMPI PUSH4 0x4E487B71 PUSH1 0xE0 SHL PUSH0 MSTORE PUSH1 0x21 PUSH1 0x4 MSTORE PUSH1 0x24 PUSH0 REVERT JUMPDEST SWAP1 MSTORE JUMP JUMPDEST PUSH1 0x20 DUP2 ADD PUSH2 0xB77 DUP3 DUP5 PUSH2 0x3411 JUMP JUMPDEST PUSH0 DUP1 PUSH1 0x40 DUP4 DUP6 SUB SLT ISZERO PUSH2 0x3450 JUMPI PUSH0 DUP1 REVERT JUMPDEST PUSH2 0x3459 DUP4 PUSH2 0x3304 JUMP JUMPDEST SWAP5 PUSH1 0x20 SWAP4 SWAP1 SWAP4 ADD CALLDATALOAD SWAP4 POP POP POP JUMP JUMPDEST PUSH0 DUP2 MLOAD DUP1 DUP5 MSTORE PUSH1 0x20 DUP1 DUP6 ADD SWAP5 POP PUSH1 0x20 DUP5 ADD PUSH0 JUMPDEST DUP4 DUP2 LT ISZERO PUSH2 0x32E0 JUMPI DUP2 MLOAD DUP1 MLOAD DUP9 MSTORE DUP4 DUP2 ADD MLOAD PUSH2 0x3498 DUP6 DUP11 ADD DUP3 PUSH2 0x3411 JUMP JUMPDEST POP PUSH1 0x40 DUP2 DUP2 ADD MLOAD SWAP1 DUP10 ADD MSTORE PUSH1 0x60 DUP1 DUP3 ADD MLOAD SWAP1 DUP10 ADD MSTORE PUSH1 0x80 DUP1 DUP3 ADD MLOAD SWAP1 DUP10 ADD MSTORE PUSH1 0xA0 DUP1 DUP3 ADD MLOAD SWAP1 DUP10 ADD MSTORE PUSH1 0xC0 DUP1 DUP3 ADD MLOAD SWAP1 DUP10 ADD MSTORE PUSH1 0xE0 DUP1 DUP3 ADD MLOAD SWAP1 DUP10 ADD MSTORE PUSH2 0x100 DUP1 DUP3 ADD MLOAD SWAP1 DUP10 ADD MSTORE PUSH2 0x120 DUP1 DUP3 ADD MLOAD SWAP1 DUP10 ADD MSTORE PUSH2 0x140 SWAP1 DUP2 ADD MLOAD SWAP1 DUP9 ADD MSTORE PUSH2 0x160 SWAP1 SWAP7 ADD SWAP6 SWAP1 DUP3 ADD SWAP1 PUSH1 0x1 ADD PUSH2 0x347A JUMP JUMPDEST PUSH1 0x20 DUP2 MSTORE PUSH0 PUSH2 0x32FD PUSH1 0x20 DUP4 ADD DUP5 PUSH2 0x3467 JUMP JUMPDEST DUP12 DUP2 MSTORE PUSH2 0x160 DUP2 ADD PUSH2 0x3530 PUSH1 0x20 DUP4 ADD DUP14 PUSH2 0x3411 JUMP JUMPDEST PUSH1 0x40 DUP3 ADD SWAP11 SWAP1 SWAP11 MSTORE PUSH1 0x60 DUP2 ADD SWAP9 SWAP1 SWAP9 MSTORE PUSH1 0x80 DUP9 ADD SWAP7 SWAP1 SWAP7 MSTORE PUSH1 0xA0 DUP8 ADD SWAP5 SWAP1 SWAP5 MSTORE PUSH1 0xC0 DUP7 ADD SWAP3 SWAP1 SWAP3 MSTORE PUSH1 0xE0 DUP6 ADD MSTORE PUSH2 0x100 DUP5 ADD MSTORE PUSH2 0x120 DUP4 ADD MSTORE PUSH2 0x140 SWAP1 SWAP2 ADD MSTORE SWAP3 SWAP2 POP POP JUMP JUMPDEST PUSH0 DUP1 PUSH0 PUSH1 0x60 DUP5 DUP7 SUB SLT ISZERO PUSH2 0x3588 JUMPI PUSH0 DUP1 REVERT JUMPDEST POP POP DUP2 CALLDATALOAD SWAP4 PUSH1 0x20 DUP4 ADD CALLDATALOAD SWAP4 POP PUSH1 0x40 SWAP1 SWAP3 ADD CALLDATALOAD SWAP2 SWAP1 POP JUMP JUMPDEST PUSH0 DUP2 MLOAD DUP1 DUP5 MSTORE PUSH1 0x20 DUP1 DUP6 ADD SWAP5 POP PUSH1 0x20 DUP5 ADD PUSH0 JUMPDEST DUP4 DUP2 LT ISZERO PUSH2 0x32E0 JUMPI DUP2 MLOAD DUP8 MSTORE SWAP6 DUP3 ADD SWAP6 SWAP1 DUP3 ADD SWAP1 PUSH1 0x1 ADD PUSH2 0x35B2 JUMP JUMPDEST PUSH1 0x80 DUP2 MSTORE PUSH0 PUSH2 0x35E0 PUSH1 0x80 DUP4 ADD DUP8 PUSH2 0x326A JUMP JUMPDEST DUP3 DUP2 SUB PUSH1 0x20 DUP5 ADD MSTORE PUSH2 0x35F2 DUP2 DUP8 PUSH2 0x359F JUMP JUMPDEST SWAP1 POP DUP3 DUP2 SUB PUSH1 0x40 DUP5 ADD MSTORE PUSH2 0x3606 DUP2 DUP7 PUSH2 0x359F JUMP JUMPDEST SWAP1 POP DUP3 DUP2 SUB PUSH1 0x60 DUP5 ADD MSTORE PUSH2 0x361A DUP2 DUP6 PUSH2 0x359F JUMP JUMPDEST SWAP8 SWAP7 POP POP POP POP POP POP POP JUMP JUMPDEST PUSH4 0x4E487B71 PUSH1 0xE0 SHL PUSH0 MSTORE PUSH1 0x41 PUSH1 0x4 MSTORE PUSH1 0x24 PUSH0 REVERT JUMPDEST PUSH1 0x40 MLOAD PUSH1 0x1F DUP3 ADD PUSH1 0x1F NOT AND DUP2 ADD PUSH1 0x1 PUSH1 0x1 PUSH1 0x40 SHL SUB DUP2 GT DUP3 DUP3 LT OR ISZERO PUSH2 0x3661 JUMPI PUSH2 0x3661 PUSH2 0x3625 JUMP JUMPDEST PUSH1 0x40 MSTORE SWAP2 SWAP1 POP JUMP JUMPDEST PUSH0 PUSH1 0x1 PUSH1 0x1 PUSH1 0x40 SHL SUB DUP1 DUP5 GT ISZERO PUSH2 0x3682 JUMPI PUSH2 0x3682 PUSH2 0x3625 JUMP JUMPDEST PUSH1 0x20 PUSH2 0x3693 PUSH1 0x20 DUP7 PUSH1 0x5 SHL ADD PUSH2 0x3639 JUMP JUMPDEST DUP6 DUP2 MSTORE SWAP3 POP PUSH1 0x20 DUP4 ADD PUSH1 0x6 DUP7 SWAP1 SHL DUP6 ADD DUP8 DUP2 GT ISZERO PUSH2 0x36AF JUMPI PUSH0 DUP1 REVERT JUMPDEST DUP6 JUMPDEST DUP2 DUP2 LT ISZERO PUSH2 0x36FF JUMPI PUSH1 0x40 DUP1 DUP3 DUP12 SUB SLT ISZERO PUSH2 0x36C9 JUMPI PUSH0 DUP1 REVERT JUMPDEST DUP1 MLOAD DUP2 DUP2 ADD DUP2 DUP2 LT DUP9 DUP3 GT OR ISZERO PUSH2 0x36E2 JUMPI PUSH2 0x36E2 PUSH2 0x3625 JUMP JUMPDEST SWAP1 SWAP2 MSTORE DUP2 CALLDATALOAD DUP2 MSTORE DUP5 DUP3 ADD CALLDATALOAD DUP6 DUP3 ADD MSTORE DUP4 MSTORE SWAP2 DUP4 ADD SWAP2 PUSH1 0x40 ADD PUSH2 0x36B1 JUMP JUMPDEST POP POP POP POP POP SWAP4 SWAP3 POP POP POP JUMP JUMPDEST PUSH0 DUP1 PUSH1 0x40 DUP4 DUP6 SUB SLT ISZERO PUSH2 0x371C JUMPI PUSH0 DUP1 REVERT JUMPDEST DUP3 CALLDATALOAD SWAP2 POP PUSH1 0x20 DUP4 ADD CALLDATALOAD PUSH1 0x1 PUSH1 0x1 PUSH1 0x40 SHL SUB DUP2 GT ISZERO PUSH2 0x3738 JUMPI PUSH0 DUP1 REVERT JUMPDEST DUP4 ADD PUSH1 0x1F DUP2 ADD DUP6 SGT PUSH2 0x3748 JUMPI PUSH0 DUP1 REVERT JUMPDEST PUSH2 0x3757 DUP6 DUP3 CALLDATALOAD PUSH1 0x20 DUP5 ADD PUSH2 0x3669 JUMP JUMPDEST SWAP2 POP POP SWAP3 POP SWAP3 SWAP1 POP JUMP JUMPDEST PUSH0 DUP1 PUSH0 PUSH1 0x60 DUP5 DUP7 SUB SLT ISZERO PUSH2 0x3773 JUMPI PUSH0 DUP1 REVERT JUMPDEST PUSH2 0x377C DUP5 PUSH2 0x3304 JUMP JUMPDEST SWAP6 PUSH1 0x20 DUP6 ADD CALLDATALOAD SWAP6 POP PUSH1 0x40 SWAP1 SWAP5 ADD CALLDATALOAD SWAP4 SWAP3 POP POP POP JUMP JUMPDEST PUSH1 0x80 DUP2 MSTORE PUSH0 PUSH2 0x35E0 PUSH1 0x80 DUP4 ADD DUP8 PUSH2 0x3467 JUMP JUMPDEST PUSH0 DUP1 PUSH0 DUP1 PUSH1 0x80 DUP6 DUP8 SUB SLT ISZERO PUSH2 0x37B6 JUMPI PUSH0 DUP1 REVERT JUMPDEST DUP5 CALLDATALOAD SWAP4 POP PUSH1 0x20 DUP6 ADD CALLDATALOAD SWAP3 POP PUSH1 0x40 DUP6 ADD CALLDATALOAD SWAP2 POP PUSH1 0x60 DUP6 ADD CALLDATALOAD PUSH1 0x1 PUSH1 0x1 PUSH1 0x40 SHL SUB DUP2 GT ISZERO PUSH2 0x37E0 JUMPI PUSH0 DUP1 REVERT JUMPDEST DUP6 ADD PUSH1 0x1F DUP2 ADD DUP8 SGT PUSH2 0x37F0 JUMPI PUSH0 DUP1 REVERT JUMPDEST PUSH2 0x37FF DUP8 DUP3 CALLDATALOAD PUSH1 0x20 DUP5 ADD PUSH2 0x3669 JUMP JUMPDEST SWAP2 POP POP SWAP3 SWAP6 SWAP2 SWAP5 POP SWAP3 POP JUMP JUMPDEST PUSH1 0x20 DUP1 DUP3 MSTORE PUSH1 0xA SWAP1 DUP3 ADD MSTORE PUSH10 0x27B7363C9037BBB732B9 PUSH1 0xB1 SHL PUSH1 0x40 DUP3 ADD MSTORE PUSH1 0x60 ADD SWAP1 JUMP JUMPDEST PUSH4 0x4E487B71 PUSH1 0xE0 SHL PUSH0 MSTORE PUSH1 0x11 PUSH1 0x4 MSTORE PUSH1 0x24 PUSH0 REVERT JUMPDEST DUP1 DUP3 ADD DUP1 DUP3 GT ISZERO PUSH2 0xB77 JUMPI PUSH2 0xB77 PUSH2 0x382F JUMP JUMPDEST DUP2 DUP2 SUB DUP2 DUP2 GT ISZERO PUSH2 0xB77 JUMPI PUSH2 0xB77 PUSH2 0x382F JUMP JUMPDEST PUSH4 0x4E487B71 PUSH1 0xE0 SHL PUSH0 MSTORE PUSH1 0x32 PUSH1 0x4 MSTORE PUSH1 0x24 PUSH0 REVERT JUMPDEST PUSH0 PUSH1 0x20 DUP3 DUP5 SUB SLT ISZERO PUSH2 0x388D JUMPI PUSH0 DUP1 REVERT JUMPDEST DUP2 MLOAD PUSH1 0xFF DUP2 AND DUP2 EQ PUSH2 0x32FD JUMPI PUSH0 DUP1 REVERT JUMPDEST PUSH0 PUSH1 0x20 DUP3 DUP5 SUB SLT ISZERO PUSH2 0x38AD JUMPI PUSH0 DUP1 REVERT JUMPDEST DUP2 MLOAD PUSH1 0x1 PUSH1 0x1 PUSH1 0x40 SHL SUB DUP1 DUP3 GT ISZERO PUSH2 0x38C3 JUMPI PUSH0 DUP1 REVERT JUMPDEST DUP2 DUP5 ADD SWAP2 POP DUP5 PUSH1 0x1F DUP4 ADD SLT PUSH2 0x38D6 JUMPI PUSH0 DUP1 REVERT JUMPDEST DUP2 MLOAD DUP2 DUP2 GT ISZERO PUSH2 0x38E8 JUMPI PUSH2 0x38E8 PUSH2 0x3625 JUMP JUMPDEST PUSH2 0x38FB PUSH1 0x1F DUP3 ADD PUSH1 0x1F NOT AND PUSH1 0x20 ADD PUSH2 0x3639 JUMP JUMPDEST SWAP2 POP DUP1 DUP3 MSTORE DUP6 PUSH1 0x20 DUP3 DUP6 ADD ADD GT ISZERO PUSH2 0x3911 JUMPI PUSH0 DUP1 REVERT JUMPDEST PUSH2 0x3922 DUP2 PUSH1 0x20 DUP5 ADD PUSH1 0x20 DUP7 ADD PUSH2 0x3338 JUMP JUMPDEST POP SWAP5 SWAP4 POP POP POP POP JUMP JUMPDEST PUSH0 PUSH1 0x20 DUP3 DUP5 SUB SLT ISZERO PUSH2 0x393B JUMPI PUSH0 DUP1 REVERT JUMPDEST POP MLOAD SWAP2 SWAP1 POP JUMP JUMPDEST PUSH0 PUSH1 0x20 DUP3 DUP5 SUB SLT ISZERO PUSH2 0x3952 JUMPI PUSH0 DUP1 REVERT JUMPDEST DUP2 MLOAD DUP1 ISZERO ISZERO DUP2 EQ PUSH2 0x32FD JUMPI PUSH0 DUP1 REVERT JUMPDEST PUSH1 0x20 DUP1 DUP3 MSTORE PUSH1 0xB SWAP1 DUP3 ADD MSTORE PUSH11 0x4F6E6C79206F7261636C65 PUSH1 0xA8 SHL PUSH1 0x40 DUP3 ADD MSTORE PUSH1 0x60 ADD SWAP1 JUMP JUMPDEST DUP1 DUP3 MUL DUP2 ISZERO DUP3 DUP3 DIV DUP5 EQ OR PUSH2 0xB77 JUMPI PUSH2 0xB77 PUSH2 0x382F JUMP JUMPDEST PUSH0 DUP3 PUSH2 0x39B7 JUMPI PUSH4 0x4E487B71 PUSH1 0xE0 SHL PUSH0 MSTORE PUSH1 0x12 PUSH1 0x4 MSTORE PUSH1 0x24 PUSH0 REVERT JUMPDEST POP DIV SWAP1 JUMP JUMPDEST PUSH0 PUSH1 0x1 DUP3 ADD PUSH2 0x39CD JUMPI PUSH2 0x39CD PUSH2 0x382F JUMP JUMPDEST POP PUSH1 0x1 ADD SWAP1 JUMP INVALID LOG2 PUSH5 0x6970667358 0x22 SLT KECCAK256 0xA6 0xC2 DELEGATECALL MSIZE SWAP11 PUSH13 0xF6C7E3CC9C13BB371051CDE4E0 SDIV OR 0xD SWAP10 0xCD JUMPI INVALID PUSH12 0x26889B26FB64736F6C634300 ADDMOD XOR STOP CALLER "
		},
		"gasEstimates": {
			"creation": {
				"codeDepositCost": "2971600",
				"executionCost": "infinite",
				"totalCost": "infinite"
			},
			"external": {
				"PRECISION()": "272",
				"bankAmount()": "2416",
				"burnAndStakeAddress()": "2426",
				"cancelRound(uint256)": "infinite",
				"cashOut(uint256)": "infinite",
				"checkHash(uint256,bytes32,bytes32)": "605",
				"deposit(uint256)": "infinite",
				"depositPendingAmount(uint256)": "infinite",
				"depositToBank(uint256)": "infinite",
				"enterToRound(uint256,(uint256,uint256)[])": "infinite",
				"finishRound(uint256,uint256,bytes32,(uint256,uint256)[])": "infinite",
				"getCurrentRound()": "2370",
				"getCurrentRoundState()": "4653",
				"getNextRound()": "2514",
				"getPlayerRounds(address,uint256,uint256)": "infinite",
				"getPlayers(uint256,uint256)": "infinite",
				"getRoundPlayers(uint256,uint256,uint256)": "infinite",
				"getRounds(uint256,uint256)": "infinite",
				"getTokenInfo(address)": "infinite",
				"maxBet()": "2374",
				"maxMultiplier()": "2375",
				"minBet()": "2396",
				"minMultiplier()": "2417",
				"onLosePercentToProcess()": "2352",
				"oracle()": "2426",
				"owner()": "2405",
				"pendingBankAmount()": "2417",
				"pendingRound(bytes32)": "257317",
				"players(address)": "15482",
				"playersCount()": "2395",
				"playersList(uint256)": "2542",
				"playersRounds(uint256,uint256)": "2631",
				"recoverWrongToken(address,uint256)": "infinite",
				"roundPlayers(uint256,uint256)": "4782",
				"roundPlayersCashOut(uint256,uint256)": "4760",
				"roundPlayersCashOutClaimed(uint256,uint256)": "2632",
				"roundPlayersCashOutIds(uint256,uint256)": "2632",
				"roundPlayersExists(uint256,uint256)": "2654",
				"roundPlayersIds(uint256,uint256)": "2651",
				"rounds(uint256)": "24042",
				"roundsCounter()": "2397",
				"setBurnAndStakeAddress(address)": "26776",
				"setBurnAndStakePercent(uint256)": "24596",
				"setMaxBet(uint256)": "24551",
				"setMaxMultiplier(uint256)": "24532",
				"setMinBet(uint256)": "24573",
				"setMinMultiplier(uint256)": "24574",
				"setOracle(address)": "26777",
				"startRound(uint256)": "51088",
				"token()": "2446",
				"totalBets()": "2350",
				"totalBetsAmount()": "2416",
				"totalCashOut()": "2352",
				"totalCashOutAmount()": "2351",
				"totalPlayersDeposit()": "2372",
				"transferOwnership(address)": "26775",
				"usedHashes(bytes32)": "2558",
				"withdrawBank(uint256)": "infinite"
			},
			"internal": {
				"registerPlayer(address)": "infinite"
			}
		},
		"methodIdentifiers": {
			"PRECISION()": "aaf5eb68",
			"bankAmount()": "b42a275e",
			"burnAndStakeAddress()": "773ed91e",
			"cancelRound(uint256)": "7e07ab09",
			"cashOut(uint256)": "5c7b79f5",
			"checkHash(uint256,bytes32,bytes32)": "9972780a",
			"deposit(uint256)": "b6b55f25",
			"depositPendingAmount(uint256)": "81a486f7",
			"depositToBank(uint256)": "79c3f683",
			"enterToRound(uint256,(uint256,uint256)[])": "ce314f43",
			"finishRound(uint256,uint256,bytes32,(uint256,uint256)[])": "f715db58",
			"getCurrentRound()": "a32bf597",
			"getCurrentRoundState()": "38a50817",
			"getNextRound()": "8011d1ed",
			"getPlayerRounds(address,uint256,uint256)": "cfbd9c95",
			"getPlayers(uint256,uint256)": "0d2dce22",
			"getRoundPlayers(uint256,uint256,uint256)": "a4ab9235",
			"getRounds(uint256,uint256)": "40f74f47",
			"getTokenInfo(address)": "1f69565f",
			"maxBet()": "2e5b2168",
			"maxMultiplier()": "0187aea0",
			"minBet()": "9619367d",
			"minMultiplier()": "a24e0d87",
			"onLosePercentToProcess()": "22d4bcbd",
			"oracle()": "7dc0d1d0",
			"owner()": "8da5cb5b",
			"pendingBankAmount()": "79e02b95",
			"pendingRound(bytes32)": "cb02c10a",
			"players(address)": "e2eb41ff",
			"playersCount()": "a3f67d6d",
			"playersList(uint256)": "7319b43e",
			"playersRounds(uint256,uint256)": "4aa82380",
			"recoverWrongToken(address,uint256)": "3c28f9ce",
			"roundPlayers(uint256,uint256)": "671eea01",
			"roundPlayersCashOut(uint256,uint256)": "91b1db18",
			"roundPlayersCashOutClaimed(uint256,uint256)": "9b29953b",
			"roundPlayersCashOutIds(uint256,uint256)": "13b8ac5e",
			"roundPlayersExists(uint256,uint256)": "bed8840c",
			"roundPlayersIds(uint256,uint256)": "fca8d843",
			"rounds(uint256)": "8c65c81f",
			"roundsCounter()": "034420c4",
			"setBurnAndStakeAddress(address)": "dbbe2550",
			"setBurnAndStakePercent(uint256)": "50570248",
			"setMaxBet(uint256)": "881eff1e",
			"setMaxMultiplier(uint256)": "01526a43",
			"setMinBet(uint256)": "88ea41b9",
			"setMinMultiplier(uint256)": "9fd751c7",
			"setOracle(address)": "7adbf973",
			"startRound(uint256)": "5fc3d52d",
			"token()": "fc0c546a",
			"totalBets()": "befa1e2f",
			"totalBetsAmount()": "efbd7bd2",
			"totalCashOut()": "074e0036",
			"totalCashOutAmount()": "a2791143",
			"totalPlayersDeposit()": "e1496286",
			"transferOwnership(address)": "f2fde38b",
			"usedHashes(bytes32)": "aef18bf7",
			"withdrawBank(uint256)": "be2ff4a9"
		}
	},
	"abi": [
		{
			"inputs": [
				{
					"internalType": "address",
					"name": "_tokenAddress",
					"type": "address"
				}
			],
			"stateMutability": "nonpayable",
			"type": "constructor"
		},
		{
			"inputs": [],
			"name": "PRECISION",
			"outputs": [
				{
					"internalType": "uint256",
					"name": "",
					"type": "uint256"
				}
			],
			"stateMutability": "view",
			"type": "function"
		},
		{
			"inputs": [],
			"name": "bankAmount",
			"outputs": [
				{
					"internalType": "uint256",
					"name": "",
					"type": "uint256"
				}
			],
			"stateMutability": "view",
			"type": "function"
		},
		{
			"inputs": [],
			"name": "burnAndStakeAddress",
			"outputs": [
				{
					"internalType": "address",
					"name": "",
					"type": "address"
				}
			],
			"stateMutability": "view",
			"type": "function"
		},
		{
			"inputs": [
				{
					"internalType": "uint256",
					"name": "roundId",
					"type": "uint256"
				}
			],
			"name": "cancelRound",
			"outputs": [],
			"stateMutability": "nonpayable",
			"type": "function"
		},
		{
			"inputs": [
				{
					"internalType": "uint256",
					"name": "amount",
					"type": "uint256"
				}
			],
			"name": "cashOut",
			"outputs": [],
			"stateMutability": "nonpayable",
			"type": "function"
		},
		{
			"inputs": [
				{
					"internalType": "uint256",
					"name": "multiplier",
					"type": "uint256"
				},
				{
					"internalType": "bytes32",
					"name": "multiplierHash",
					"type": "bytes32"
				},
				{
					"internalType": "bytes32",
					"name": "multiplierSalt",
					"type": "bytes32"
				}
			],
			"name": "checkHash",
			"outputs": [
				{
					"internalType": "bool",
					"name": "",
					"type": "bool"
				}
			],
			"stateMutability": "pure",
			"type": "function"
		},
		{
			"inputs": [
				{
					"internalType": "uint256",
					"name": "amount",
					"type": "uint256"
				}
			],
			"name": "deposit",
			"outputs": [],
			"stateMutability": "nonpayable",
			"type": "function"
		},
		{
			"inputs": [
				{
					"internalType": "uint256",
					"name": "amount",
					"type": "uint256"
				}
			],
			"name": "depositPendingAmount",
			"outputs": [],
			"stateMutability": "nonpayable",
			"type": "function"
		},
		{
			"inputs": [
				{
					"internalType": "uint256",
					"name": "amount",
					"type": "uint256"
				}
			],
			"name": "depositToBank",
			"outputs": [],
			"stateMutability": "nonpayable",
			"type": "function"
		},
		{
			"inputs": [
				{
					"internalType": "uint256",
					"name": "roundId",
					"type": "uint256"
				},
				{
					"components": [
						{
							"internalType": "uint256",
							"name": "playerId",
							"type": "uint256"
						},
						{
							"internalType": "uint256",
							"name": "betAmount",
							"type": "uint256"
						}
					],
					"internalType": "struct CrashGameWS.RoundPlayer[]",
					"name": "_players",
					"type": "tuple[]"
				}
			],
			"name": "enterToRound",
			"outputs": [],
			"stateMutability": "nonpayable",
			"type": "function"
		},
		{
			"inputs": [
				{
					"internalType": "uint256",
					"name": "roundId",
					"type": "uint256"
				},
				{
					"internalType": "uint256",
					"name": "multiplier",
					"type": "uint256"
				},
				{
					"internalType": "bytes32",
					"name": "multiplierSalt",
					"type": "bytes32"
				},
				{
					"components": [
						{
							"internalType": "uint256",
							"name": "playerId",
							"type": "uint256"
						},
						{
							"internalType": "uint256",
							"name": "multiplier",
							"type": "uint256"
						}
					],
					"internalType": "struct CrashGameWS.CashOutPlayer[]",
					"name": "cashOutPlayers",
					"type": "tuple[]"
				}
			],
			"name": "finishRound",
			"outputs": [],
			"stateMutability": "nonpayable",
			"type": "function"
		},
		{
			"inputs": [],
			"name": "getCurrentRound",
			"outputs": [
				{
					"internalType": "uint256",
					"name": "",
					"type": "uint256"
				}
			],
			"stateMutability": "view",
			"type": "function"
		},
		{
			"inputs": [],
			"name": "getCurrentRoundState",
			"outputs": [
				{
					"internalType": "enum CrashGameWS.ROUND_STATE",
					"name": "",
					"type": "uint8"
				}
			],
			"stateMutability": "view",
			"type": "function"
		},
		{
			"inputs": [],
			"name": "getNextRound",
			"outputs": [
				{
					"internalType": "uint256",
					"name": "",
					"type": "uint256"
				}
			],
			"stateMutability": "view",
			"type": "function"
		},
		{
			"inputs": [
				{
					"internalType": "address",
					"name": "playerAddress",
					"type": "address"
				},
				{
					"internalType": "uint256",
					"name": "offset",
					"type": "uint256"
				},
				{
					"internalType": "uint256",
					"name": "limit",
					"type": "uint256"
				}
			],
			"name": "getPlayerRounds",
			"outputs": [
				{
					"components": [
						{
							"internalType": "uint256",
							"name": "roundId",
							"type": "uint256"
						},
						{
							"internalType": "enum CrashGameWS.ROUND_STATE",
							"name": "state",
							"type": "uint8"
						},
						{
							"internalType": "uint256",
							"name": "startsIn",
							"type": "uint256"
						},
						{
							"internalType": "uint256",
							"name": "endsIn",
							"type": "uint256"
						},
						{
							"internalType": "uint256",
							"name": "playersCount",
							"type": "uint256"
						},
						{
							"internalType": "uint256",
							"name": "cashOutCount",
							"type": "uint256"
						},
						{
							"internalType": "uint256",
							"name": "betsAmount",
							"type": "uint256"
						},
						{
							"internalType": "uint256",
							"name": "cashOutAmount",
							"type": "uint256"
						},
						{
							"internalType": "uint256",
							"name": "multiplier",
							"type": "uint256"
						},
						{
							"internalType": "bytes32",
							"name": "multiplierHash",
							"type": "bytes32"
						},
						{
							"internalType": "bytes32",
							"name": "multiplierSalt",
							"type": "bytes32"
						}
					],
					"internalType": "struct CrashGameWS.Round[]",
					"name": "ret",
					"type": "tuple[]"
				},
				{
					"internalType": "uint256[]",
					"name": "bets",
					"type": "uint256[]"
				},
				{
					"internalType": "uint256[]",
					"name": "cashouts",
					"type": "uint256[]"
				},
				{
					"internalType": "uint256[]",
					"name": "multipliers",
					"type": "uint256[]"
				}
			],
			"stateMutability": "view",
			"type": "function"
		},
		{
			"inputs": [
				{
					"internalType": "uint256",
					"name": "offset",
					"type": "uint256"
				},
				{
					"internalType": "uint256",
					"name": "limit",
					"type": "uint256"
				}
			],
			"name": "getPlayers",
			"outputs": [
				{
					"components": [
						{
							"internalType": "address",
							"name": "playerAddress",
							"type": "address"
						},
						{
							"internalType": "uint256",
							"name": "playerId",
							"type": "uint256"
						},
						{
							"internalType": "uint256",
							"name": "depositAmount",
							"type": "uint256"
						},
						{
							"internalType": "uint256",
							"name": "betsAmount",
							"type": "uint256"
						},
						{
							"internalType": "uint256",
							"name": "cashOutAmount",
							"type": "uint256"
						},
						{
							"internalType": "uint256",
							"name": "roundsCount",
							"type": "uint256"
						},
						{
							"internalType": "uint256",
							"name": "currentRoundId",
							"type": "uint256"
						}
					],
					"internalType": "struct CrashGameWS.Player[]",
					"name": "",
					"type": "tuple[]"
				}
			],
			"stateMutability": "view",
			"type": "function"
		},
		{
			"inputs": [
				{
					"internalType": "uint256",
					"name": "roundId",
					"type": "uint256"
				},
				{
					"internalType": "uint256",
					"name": "offset",
					"type": "uint256"
				},
				{
					"internalType": "uint256",
					"name": "limit",
					"type": "uint256"
				}
			],
			"name": "getRoundPlayers",
			"outputs": [
				{
					"components": [
						{
							"internalType": "address",
							"name": "playerAddress",
							"type": "address"
						},
						{
							"internalType": "uint256",
							"name": "playerId",
							"type": "uint256"
						},
						{
							"internalType": "uint256",
							"name": "depositAmount",
							"type": "uint256"
						},
						{
							"internalType": "uint256",
							"name": "betsAmount",
							"type": "uint256"
						},
						{
							"internalType": "uint256",
							"name": "cashOutAmount",
							"type": "uint256"
						},
						{
							"internalType": "uint256",
							"name": "roundsCount",
							"type": "uint256"
						},
						{
							"internalType": "uint256",
							"name": "currentRoundId",
							"type": "uint256"
						}
					],
					"internalType": "struct CrashGameWS.Player[]",
					"name": "ret",
					"type": "tuple[]"
				},
				{
					"internalType": "uint256[]",
					"name": "bets",
					"type": "uint256[]"
				},
				{
					"internalType": "uint256[]",
					"name": "multipliers",
					"type": "uint256[]"
				},
				{
					"internalType": "uint256[]",
					"name": "cashoutAmounts",
					"type": "uint256[]"
				}
			],
			"stateMutability": "view",
			"type": "function"
		},
		{
			"inputs": [
				{
					"internalType": "uint256",
					"name": "offset",
					"type": "uint256"
				},
				{
					"internalType": "uint256",
					"name": "limit",
					"type": "uint256"
				}
			],
			"name": "getRounds",
			"outputs": [
				{
					"components": [
						{
							"internalType": "uint256",
							"name": "roundId",
							"type": "uint256"
						},
						{
							"internalType": "enum CrashGameWS.ROUND_STATE",
							"name": "state",
							"type": "uint8"
						},
						{
							"internalType": "uint256",
							"name": "startsIn",
							"type": "uint256"
						},
						{
							"internalType": "uint256",
							"name": "endsIn",
							"type": "uint256"
						},
						{
							"internalType": "uint256",
							"name": "playersCount",
							"type": "uint256"
						},
						{
							"internalType": "uint256",
							"name": "cashOutCount",
							"type": "uint256"
						},
						{
							"internalType": "uint256",
							"name": "betsAmount",
							"type": "uint256"
						},
						{
							"internalType": "uint256",
							"name": "cashOutAmount",
							"type": "uint256"
						},
						{
							"internalType": "uint256",
							"name": "multiplier",
							"type": "uint256"
						},
						{
							"internalType": "bytes32",
							"name": "multiplierHash",
							"type": "bytes32"
						},
						{
							"internalType": "bytes32",
							"name": "multiplierSalt",
							"type": "bytes32"
						}
					],
					"internalType": "struct CrashGameWS.Round[]",
					"name": "",
					"type": "tuple[]"
				}
			],
			"stateMutability": "view",
			"type": "function"
		},
		{
			"inputs": [
				{
					"internalType": "address",
					"name": "playerAddress",
					"type": "address"
				}
			],
			"name": "getTokenInfo",
			"outputs": [
				{
					"components": [
						{
							"internalType": "address",
							"name": "tokenAddress",
							"type": "address"
						},
						{
							"internalType": "uint8",
							"name": "decimals",
							"type": "uint8"
						},
						{
							"internalType": "string",
							"name": "name",
							"type": "string"
						},
						{
							"internalType": "string",
							"name": "symbol",
							"type": "string"
						},
						{
							"internalType": "uint256",
							"name": "balance",
							"type": "uint256"
						},
						{
							"internalType": "uint256",
							"name": "allowance",
							"type": "uint256"
						}
					],
					"internalType": "struct CrashGameWS.GameTokenInfo",
					"name": "",
					"type": "tuple"
				}
			],
			"stateMutability": "view",
			"type": "function"
		},
		{
			"inputs": [],
			"name": "maxBet",
			"outputs": [
				{
					"internalType": "uint256",
					"name": "",
					"type": "uint256"
				}
			],
			"stateMutability": "view",
			"type": "function"
		},
		{
			"inputs": [],
			"name": "maxMultiplier",
			"outputs": [
				{
					"internalType": "uint256",
					"name": "",
					"type": "uint256"
				}
			],
			"stateMutability": "view",
			"type": "function"
		},
		{
			"inputs": [],
			"name": "minBet",
			"outputs": [
				{
					"internalType": "uint256",
					"name": "",
					"type": "uint256"
				}
			],
			"stateMutability": "view",
			"type": "function"
		},
		{
			"inputs": [],
			"name": "minMultiplier",
			"outputs": [
				{
					"internalType": "uint256",
					"name": "",
					"type": "uint256"
				}
			],
			"stateMutability": "view",
			"type": "function"
		},
		{
			"inputs": [],
			"name": "onLosePercentToProcess",
			"outputs": [
				{
					"internalType": "uint256",
					"name": "",
					"type": "uint256"
				}
			],
			"stateMutability": "view",
			"type": "function"
		},
		{
			"inputs": [],
			"name": "oracle",
			"outputs": [
				{
					"internalType": "address",
					"name": "",
					"type": "address"
				}
			],
			"stateMutability": "view",
			"type": "function"
		},
		{
			"inputs": [],
			"name": "owner",
			"outputs": [
				{
					"internalType": "address",
					"name": "",
					"type": "address"
				}
			],
			"stateMutability": "view",
			"type": "function"
		},
		{
			"inputs": [],
			"name": "pendingBankAmount",
			"outputs": [
				{
					"internalType": "uint256",
					"name": "",
					"type": "uint256"
				}
			],
			"stateMutability": "view",
			"type": "function"
		},
		{
			"inputs": [
				{
					"internalType": "bytes32",
					"name": "multiplierHash",
					"type": "bytes32"
				}
			],
			"name": "pendingRound",
			"outputs": [],
			"stateMutability": "nonpayable",
			"type": "function"
		},
		{
			"inputs": [
				{
					"internalType": "address",
					"name": "",
					"type": "address"
				}
			],
			"name": "players",
			"outputs": [
				{
					"internalType": "address",
					"name": "playerAddress",
					"type": "address"
				},
				{
					"internalType": "uint256",
					"name": "playerId",
					"type": "uint256"
				},
				{
					"internalType": "uint256",
					"name": "depositAmount",
					"type": "uint256"
				},
				{
					"internalType": "uint256",
					"name": "betsAmount",
					"type": "uint256"
				},
				{
					"internalType": "uint256",
					"name": "cashOutAmount",
					"type": "uint256"
				},
				{
					"internalType": "uint256",
					"name": "roundsCount",
					"type": "uint256"
				},
				{
					"internalType": "uint256",
					"name": "currentRoundId",
					"type": "uint256"
				}
			],
			"stateMutability": "view",
			"type": "function"
		},
		{
			"inputs": [],
			"name": "playersCount",
			"outputs": [
				{
					"internalType": "uint256",
					"name": "",
					"type": "uint256"
				}
			],
			"stateMutability": "view",
			"type": "function"
		},
		{
			"inputs": [
				{
					"internalType": "uint256",
					"name": "",
					"type": "uint256"
				}
			],
			"name": "playersList",
			"outputs": [
				{
					"internalType": "address",
					"name": "",
					"type": "address"
				}
			],
			"stateMutability": "view",
			"type": "function"
		},
		{
			"inputs": [
				{
					"internalType": "uint256",
					"name": "",
					"type": "uint256"
				},
				{
					"internalType": "uint256",
					"name": "",
					"type": "uint256"
				}
			],
			"name": "playersRounds",
			"outputs": [
				{
					"internalType": "uint256",
					"name": "",
					"type": "uint256"
				}
			],
			"stateMutability": "view",
			"type": "function"
		},
		{
			"inputs": [
				{
					"internalType": "address",
					"name": "tokenAddress",
					"type": "address"
				},
				{
					"internalType": "uint256",
					"name": "amount",
					"type": "uint256"
				}
			],
			"name": "recoverWrongToken",
			"outputs": [],
			"stateMutability": "nonpayable",
			"type": "function"
		},
		{
			"inputs": [
				{
					"internalType": "uint256",
					"name": "",
					"type": "uint256"
				},
				{
					"internalType": "uint256",
					"name": "",
					"type": "uint256"
				}
			],
			"name": "roundPlayers",
			"outputs": [
				{
					"internalType": "uint256",
					"name": "playerId",
					"type": "uint256"
				},
				{
					"internalType": "uint256",
					"name": "betAmount",
					"type": "uint256"
				}
			],
			"stateMutability": "view",
			"type": "function"
		},
		{
			"inputs": [
				{
					"internalType": "uint256",
					"name": "",
					"type": "uint256"
				},
				{
					"internalType": "uint256",
					"name": "",
					"type": "uint256"
				}
			],
			"name": "roundPlayersCashOut",
			"outputs": [
				{
					"internalType": "uint256",
					"name": "playerId",
					"type": "uint256"
				},
				{
					"internalType": "uint256",
					"name": "multiplier",
					"type": "uint256"
				}
			],
			"stateMutability": "view",
			"type": "function"
		},
		{
			"inputs": [
				{
					"internalType": "uint256",
					"name": "",
					"type": "uint256"
				},
				{
					"internalType": "uint256",
					"name": "",
					"type": "uint256"
				}
			],
			"name": "roundPlayersCashOutClaimed",
			"outputs": [
				{
					"internalType": "bool",
					"name": "",
					"type": "bool"
				}
			],
			"stateMutability": "view",
			"type": "function"
		},
		{
			"inputs": [
				{
					"internalType": "uint256",
					"name": "",
					"type": "uint256"
				},
				{
					"internalType": "uint256",
					"name": "",
					"type": "uint256"
				}
			],
			"name": "roundPlayersCashOutIds",
			"outputs": [
				{
					"internalType": "uint256",
					"name": "",
					"type": "uint256"
				}
			],
			"stateMutability": "view",
			"type": "function"
		},
		{
			"inputs": [
				{
					"internalType": "uint256",
					"name": "",
					"type": "uint256"
				},
				{
					"internalType": "uint256",
					"name": "",
					"type": "uint256"
				}
			],
			"name": "roundPlayersExists",
			"outputs": [
				{
					"internalType": "bool",
					"name": "",
					"type": "bool"
				}
			],
			"stateMutability": "view",
			"type": "function"
		},
		{
			"inputs": [
				{
					"internalType": "uint256",
					"name": "",
					"type": "uint256"
				},
				{
					"internalType": "uint256",
					"name": "",
					"type": "uint256"
				}
			],
			"name": "roundPlayersIds",
			"outputs": [
				{
					"internalType": "uint256",
					"name": "",
					"type": "uint256"
				}
			],
			"stateMutability": "view",
			"type": "function"
		},
		{
			"inputs": [
				{
					"internalType": "uint256",
					"name": "",
					"type": "uint256"
				}
			],
			"name": "rounds",
			"outputs": [
				{
					"internalType": "uint256",
					"name": "roundId",
					"type": "uint256"
				},
				{
					"internalType": "enum CrashGameWS.ROUND_STATE",
					"name": "state",
					"type": "uint8"
				},
				{
					"internalType": "uint256",
					"name": "startsIn",
					"type": "uint256"
				},
				{
					"internalType": "uint256",
					"name": "endsIn",
					"type": "uint256"
				},
				{
					"internalType": "uint256",
					"name": "playersCount",
					"type": "uint256"
				},
				{
					"internalType": "uint256",
					"name": "cashOutCount",
					"type": "uint256"
				},
				{
					"internalType": "uint256",
					"name": "betsAmount",
					"type": "uint256"
				},
				{
					"internalType": "uint256",
					"name": "cashOutAmount",
					"type": "uint256"
				},
				{
					"internalType": "uint256",
					"name": "multiplier",
					"type": "uint256"
				},
				{
					"internalType": "bytes32",
					"name": "multiplierHash",
					"type": "bytes32"
				},
				{
					"internalType": "bytes32",
					"name": "multiplierSalt",
					"type": "bytes32"
				}
			],
			"stateMutability": "view",
			"type": "function"
		},
		{
			"inputs": [],
			"name": "roundsCounter",
			"outputs": [
				{
					"internalType": "uint256",
					"name": "",
					"type": "uint256"
				}
			],
			"stateMutability": "view",
			"type": "function"
		},
		{
			"inputs": [
				{
					"internalType": "address",
					"name": "_address",
					"type": "address"
				}
			],
			"name": "setBurnAndStakeAddress",
			"outputs": [],
			"stateMutability": "nonpayable",
			"type": "function"
		},
		{
			"inputs": [
				{
					"internalType": "uint256",
					"name": "amount",
					"type": "uint256"
				}
			],
			"name": "setBurnAndStakePercent",
			"outputs": [],
			"stateMutability": "nonpayable",
			"type": "function"
		},
		{
			"inputs": [
				{
					"internalType": "uint256",
					"name": "amount",
					"type": "uint256"
				}
			],
			"name": "setMaxBet",
			"outputs": [],
			"stateMutability": "nonpayable",
			"type": "function"
		},
		{
			"inputs": [
				{
					"internalType": "uint256",
					"name": "newValue",
					"type": "uint256"
				}
			],
			"name": "setMaxMultiplier",
			"outputs": [],
			"stateMutability": "nonpayable",
			"type": "function"
		},
		{
			"inputs": [
				{
					"internalType": "uint256",
					"name": "amount",
					"type": "uint256"
				}
			],
			"name": "setMinBet",
			"outputs": [],
			"stateMutability": "nonpayable",
			"type": "function"
		},
		{
			"inputs": [
				{
					"internalType": "uint256",
					"name": "newValue",
					"type": "uint256"
				}
			],
			"name": "setMinMultiplier",
			"outputs": [],
			"stateMutability": "nonpayable",
			"type": "function"
		},
		{
			"inputs": [
				{
					"internalType": "address",
					"name": "newOracle",
					"type": "address"
				}
			],
			"name": "setOracle",
			"outputs": [],
			"stateMutability": "nonpayable",
			"type": "function"
		},
		{
			"inputs": [
				{
					"internalType": "uint256",
					"name": "roundId",
					"type": "uint256"
				}
			],
			"name": "startRound",
			"outputs": [],
			"stateMutability": "nonpayable",
			"type": "function"
		},
		{
			"inputs": [],
			"name": "token",
			"outputs": [
				{
					"internalType": "contract IERC20",
					"name": "",
					"type": "address"
				}
			],
			"stateMutability": "view",
			"type": "function"
		},
		{
			"inputs": [],
			"name": "totalBets",
			"outputs": [
				{
					"internalType": "uint256",
					"name": "",
					"type": "uint256"
				}
			],
			"stateMutability": "view",
			"type": "function"
		},
		{
			"inputs": [],
			"name": "totalBetsAmount",
			"outputs": [
				{
					"internalType": "uint256",
					"name": "",
					"type": "uint256"
				}
			],
			"stateMutability": "view",
			"type": "function"
		},
		{
			"inputs": [],
			"name": "totalCashOut",
			"outputs": [
				{
					"internalType": "uint256",
					"name": "",
					"type": "uint256"
				}
			],
			"stateMutability": "view",
			"type": "function"
		},
		{
			"inputs": [],
			"name": "totalCashOutAmount",
			"outputs": [
				{
					"internalType": "uint256",
					"name": "",
					"type": "uint256"
				}
			],
			"stateMutability": "view",
			"type": "function"
		},
		{
			"inputs": [],
			"name": "totalPlayersDeposit",
			"outputs": [
				{
					"internalType": "uint256",
					"name": "",
					"type": "uint256"
				}
			],
			"stateMutability": "view",
			"type": "function"
		},
		{
			"inputs": [
				{
					"internalType": "address",
					"name": "newOwner",
					"type": "address"
				}
			],
			"name": "transferOwnership",
			"outputs": [],
			"stateMutability": "nonpayable",
			"type": "function"
		},
		{
			"inputs": [
				{
					"internalType": "bytes32",
					"name": "",
					"type": "bytes32"
				}
			],
			"name": "usedHashes",
			"outputs": [
				{
					"internalType": "bool",
					"name": "",
					"type": "bool"
				}
			],
			"stateMutability": "view",
			"type": "function"
		},
		{
			"inputs": [
				{
					"internalType": "uint256",
					"name": "amount",
					"type": "uint256"
				}
			],
			"name": "withdrawBank",
			"outputs": [],
			"stateMutability": "nonpayable",
			"type": "function"
		}
	]
}