{
	"data": {
		"bytecode": {
			"linkReferences": {},
			"object": "6080604052670f43fc2c04ee0000600255676124fee993bc0000600355603c6004555f6008555f6009555f600a555f600b555f600c555f600d555f600e556103e8600f555f601155670de0b6b3a764000060145568056bc75e2d631000006015555f60165534801562000070575f80fd5b5060405162003ca438038062003ca4833981016040819052620000939162000140565b60015f81815581546001600160a01b03939093166001600160a01b031993841617825560176020527fd840e16649f6b9a295d95876f4633d3a6b10b55e8162971cf78afd886d5ec89c805460ff19908116600417909155908290527ff36d6bc9642eb6fb6ee9998b09ce990566df752ab06e11f8de7ab633bbd57b90805490911690911790556005805482163390811790915560078054831682179055600680549092161790556200016f565b5f6020828403121562000151575f80fd5b81516001600160a01b038116811462000168575f80fd5b9392505050565b613b27806200017d5f395ff3fe608060405234801561000f575f80fd5b5060043610610393575f3560e01c806391b1db18116101df578063be2ff4a911610109578063e1496286116100a9578063f2fde38b11610079578063f2fde38b14610969578063f715db581461097c578063fc0c546a1461098f578063fca8d843146109a2575f80fd5b8063e1496286146108bb578063e2eb41ff146108c4578063e4a9f19214610957578063efbd7bd214610960575f80fd5b8063cb02c10a116100e4578063cb02c10a1461085f578063ce314f4314610872578063cfbd9c9514610885578063dbbe2550146108a8575f80fd5b8063be2ff4a914610816578063bed8840c14610829578063befa1e2f14610856575f80fd5b8063a32bf5971161017f578063aef18bf71161014f578063aef18bf7146107c5578063b32f59f0146107e7578063b42a275e146107fa578063b6b55f2514610803575f80fd5b8063a32bf59714610782578063a3f67d6d1461078a578063a4ab923514610793578063aaf5eb68146107b6575f80fd5b80639b29953b116101ba5780639b29953b146107305780639fd751c71461075d578063a24e0d8714610770578063a279114314610779575f80fd5b806391b1db18146106d35780639619367d146107045780639972780a1461070d575f80fd5b80635fc3d52d116102c05780637dc0d1d011610260578063881eff1e11610230578063881eff1e1461061957806388ea41b91461062c5780638c65c81f1461063f5780638da5cb5b146106c0575f80fd5b80637dc0d1d0146105d85780637e07ab09146105eb5780638011d1ed146105fe57806381a486f714610606575f80fd5b8063773ed91e1161029b578063773ed91e1461059657806379c3f683146105a957806379e02b95146105bc5780637adbf973146105c5575f80fd5b80635fc3d52d146104fd578063671eea01146105105780637319b43e14610556575f80fd5b806322d4bcbd1161033657806340f74f471161030657806340f74f471461048d5780634aa82380146104ad57806350570248146104d75780635c7b79f5146104ea575f80fd5b806322d4bcbd146104445780632e5b21681461044d57806338a50817146104565780633c28f9ce1461047a575f80fd5b8063074e003611610371578063074e0036146103d15780630d2dce22146103da57806313b8ac5e146103fa5780631f69565f14610424575f80fd5b806301526a43146103975780630187aea0146103ac578063034420c4146103c8575b5f80fd5b6103aa6103a53660046132f7565b6109cc565b005b6103b560035481565b6040519081526020015b60405180910390f35b6103b560165481565b6103b5600b5481565b6103ed6103e836600461330e565b610a04565b6040516103bf91906133af565b6103b561040836600461330e565b601c60209081525f928352604080842090915290825290205481565b6104376104323660046133e3565b610baf565b6040516103bf9190613449565b6103b5600f5481565b6103b560155481565b6016545f9081526017602052604090206001015460ff166040516103bf91906134f5565b6103aa610488366004613503565b610e79565b6104a061049b36600461330e565b610f8e565b6040516103bf91906135cd565b6103b56104bb36600461330e565b601360209081525f928352604080842090915290825290205481565b6103aa6104e53660046132f7565b611160565b6103aa6104f83660046132f7565b61118f565b6103aa61050b3660046132f7565b6112a7565b61054161051e36600461330e565b601860209081525f92835260408084209091529082529020805460019091015482565b604080519283526020830191909152016103bf565b61057e6105643660046132f7565b60126020525f90815260409020546001600160a01b031681565b6040516001600160a01b0390911681526020016103bf565b60075461057e906001600160a01b031681565b6103aa6105b73660046132f7565b6113a4565b6103b560095481565b6103aa6105d33660046133e3565b6114bb565b60055461057e906001600160a01b031681565b6103aa6105f93660046132f7565b611507565b6103b5611756565b6103aa6106143660046132f7565b61176b565b6103aa6106273660046132f7565b61187f565b6103aa61063a3660046132f7565b6118ae565b6106a961064d3660046132f7565b60176020525f9081526040902080546001820154600283015460038401546004850154600586015460068701546007880154600889015460098a0154600a909a0154989960ff909816989697959694959394929391929091908b565b6040516103bf9b9a999897969594939291906135df565b60065461057e906001600160a01b031681565b6105416106e136600461330e565b601b60209081525f92835260408084209091529082529020805460019091015482565b6103b560145481565b61072061071b36600461363a565b6118dd565b60405190151581526020016103bf565b61072061073e36600461330e565b601d60209081525f928352604080842090915290825290205460ff1681565b6103aa61076b3660046132f7565b61191f565b6103b560025481565b6103b5600d5481565b6016546103b5565b6103b560115481565b6107a66107a136600461363a565b61194e565b6040516103bf9493929190613692565b6103b5670de0b6b3a764000081565b6107206107d33660046132f7565b601e6020525f908152604090205460ff1681565b6103aa6107f53660046132f7565b611d35565b6103b560085481565b6103aa6108113660046132f7565b611d64565b6103aa6108243660046132f7565b611e78565b61072061083736600461330e565b601a60209081525f928352604080842090915290825290205460ff1681565b6103b5600a5481565b6103aa61086d3660046132f7565b611f75565b6103aa6108803660046137cf565b612277565b610898610893366004613825565b61263b565b6040516103bf9493929190613855565b6103aa6108b63660046133e3565b612b52565b6103b5600e5481565b6109186108d23660046133e3565b60106020525f908152604090208054600182015460028301546003840154600485015460058601546006909601546001600160a01b039095169593949293919290919087565b604080516001600160a01b0390981688526020880196909652948601939093526060850191909152608084015260a083015260c082015260e0016103bf565b6103b560045481565b6103b5600c5481565b6103aa6109773660046133e3565b612b9e565b6103aa61098a366004613867565b612bea565b60015461057e906001600160a01b031681565b6103b56109b036600461330e565b601960209081525f928352604080842090915290825290205481565b6006546001600160a01b031633146109ff5760405162461bcd60e51b81526004016109f6906138cf565b60405180910390fd5b600355565b6060601154831115610a4857604080515f8082526020820190925290610a40565b610a2d613261565b815260200190600190039081610a255790505b509050610ba9565b82158015610a54575081155b15610a5f5760115491505b601154610a6c8385613907565b1115610a835782601154610a80919061391a565b91505b5f826001600160401b03811115610a9c57610a9c6136e9565b604051908082528060200260200182016040528015610ad557816020015b610ac2613261565b815260200190600190039081610aba5790505b5090505f5b83811015610ba55760105f60125f8885601154610af7919061391a565b610b01919061391a565b815260208082019290925260409081015f908120546001600160a01b03908116855284840195909552928101909220825160e081018452815490941684526001810154918401919091526002810154918301919091526003810154606083015260048101546080830152600581015460a08301526006015460c08201528251839083908110610b9257610b9261392d565b6020908102919091010152600101610ada565b5090505b92915050565b610bf06040518060c001604052805f6001600160a01b031681526020015f60ff16815260200160608152602001606081526020015f81526020015f81525090565b6040805160c0810182526001546001600160a01b0316808252825163313ce56760e01b81529251919260208085019363313ce5679260048082019392918290030181865afa158015610c44573d5f803e3d5ffd5b505050506040513d601f19601f82011682018060405250810190610c689190613941565b60ff16815260200160015f9054906101000a90046001600160a01b03166001600160a01b03166306fdde036040518163ffffffff1660e01b81526004015f60405180830381865afa158015610cbf573d5f803e3d5ffd5b505050506040513d5f823e601f3d908101601f19168201604052610ce69190810190613961565b815260200160015f9054906101000a90046001600160a01b03166001600160a01b03166395d89b416040518163ffffffff1660e01b81526004015f60405180830381865afa158015610d3a573d5f803e3d5ffd5b505050506040513d5f823e601f3d908101601f19168201604052610d619190810190613961565b81526020016001600160a01b038416610d7a575f610de6565b6001546040516370a0823160e01b81526001600160a01b038681166004830152909116906370a0823190602401602060405180830381865afa158015610dc2573d5f803e3d5ffd5b505050506040513d601f19601f82011682018060405250810190610de691906139ef565b81526020016001600160a01b038416610dff575f610e71565b600154604051636eb1769f60e11b81526001600160a01b0386811660048301523060248301529091169063dd62ed3e90604401602060405180830381865afa158015610e4d573d5f803e3d5ffd5b505050506040513d601f19601f82011682018060405250810190610e7191906139ef565b905292915050565b6006546001600160a01b03163314610ea35760405162461bcd60e51b81526004016109f6906138cf565b6001546001600160a01b0390811690831603610f155760405162461bcd60e51b815260206004820152602b60248201527f43616e74207265636f7765722067616d6520746f6b656e2e204f6e6c7920626160448201526a6e6b20776974686472617760a81b60648201526084016109f6565b60065460405163a9059cbb60e01b81526001600160a01b039182166004820152602481018390529083169063a9059cbb906044016020604051808303815f875af1158015610f65573d5f803e3d5ffd5b505050506040513d601f19601f82011682018060405250810190610f899190613a06565b505050565b6060601654831115610fd157604080515f8082526020820190925290610a40565b610fb76132a0565b815260200190600190039081610faf579050509050610ba9565b82158015610fdd575081155b15610fe85760165491505b601654610ff58385613907565b111561100c5782601654611009919061391a565b91505b5f826001600160401b03811115611025576110256136e9565b60405190808252806020026020018201604052801561105e57816020015b61104b6132a0565b8152602001906001900390816110435790505b5090505f5b83811015610ba55760175f868360165461107d919061391a565b611087919061391a565b81526020019081526020015f20604051806101600160405290815f8201548152602001600182015f9054906101000a900460ff1660058111156110cc576110cc6134c1565b60058111156110dd576110dd6134c1565b81526020016002820154815260200160038201548152602001600482015481526020016005820154815260200160068201548152602001600782015481526020016008820154815260200160098201548152602001600a8201548152505082828151811061114d5761114d61392d565b6020908102919091010152600101611063565b6006546001600160a01b0316331461118a5760405162461bcd60e51b81526004016109f6906138cf565b600f55565b611197613131565b335f90815260106020526040902060028101548211156111f95760405162461bcd60e51b815260206004820152601b60248201527f4e6f7420656e6f75676874206465706f7369742062616c616e6365000000000060448201526064016109f6565b60015460405163a9059cbb60e01b8152336004820152602481018490526001600160a01b039091169063a9059cbb906044016020604051808303815f875af1158015611247573d5f803e3d5ffd5b505050506040513d601f19601f8201168201806040525081019061126b9190613a06565b5081816002015f82825461127f919061391a565b9250508190555081600e5f828254611297919061391a565b909155505060015f555050565b50565b6005546001600160a01b031633146112d15760405162461bcd60e51b81526004016109f690613a25565b60025f8281526017602052604090206001015460ff1660058111156112f8576112f86134c1565b146113335760405162461bcd60e51b815260206004820152600b60248201526a4e6f742070656e64696e6760a81b60448201526064016109f6565b5f8181526017602090815260409182902060018101805460ff1916600317905542600282015560048101546006909101548351858152928301919091528183015290517fa359b664a68acd8839e42112eb50eff3408165e15074fde89ddb58a0db2e691d916060908290030190a150565b6006546001600160a01b031633146113ce5760405162461bcd60e51b81526004016109f6906138cf565b6113d6613131565b5f81116114255760405162461bcd60e51b815260206004820152601d60248201527f416d6f756e74206d7573742062652067726561746572207468616e203000000060448201526064016109f6565b6001546040516323b872dd60e01b8152336004820152306024820152604481018390526001600160a01b03909116906323b872dd906064016020604051808303815f875af1158015611479573d5f803e3d5ffd5b505050506040513d601f19601f8201168201806040525081019061149d9190613a06565b508060085f8282546114af9190613907565b909155505060015f5550565b6006546001600160a01b031633146114e55760405162461bcd60e51b81526004016109f6906138cf565b600580546001600160a01b0319166001600160a01b0392909216919091179055565b61150f613131565b6006546001600160a01b031633148061153257506005546001600160a01b031633145b6115755760405162461bcd60e51b81526020600482015260146024820152734f6e6c79206f776e6572206f72206f7261636c6560601b60448201526064016109f6565b60025f8281526017602052604090206001015460ff16600581111561159c5761159c6134c1565b14806115cc575060035f8281526017602052604090206001015460ff1660058111156115ca576115ca6134c1565b145b61160d5760405162461bcd60e51b81526020600482015260126024820152712737ba103832b73234b7339037b910393ab760711b60448201526064016109f6565b5f81815260176020526040812060018101805460ff19166005179055426003909101555b5f82815260176020526040902060040154811015611719575f8281526018602090815260408083208484528083528184208054855260128452828520546001600160a01b0316855260108452918420858552925260010154600282018054929391929091906116a1908490613907565b90915550505f838152601860209081526040808320858452909152812060010154600383018054919290916116d790849061391a565b90915550505f838152601860209081526040808320858452909152812060010154600e80549192909161170b908490613907565b909155505050600101611631565b506040518181527ffcaa91c5f18db2a6c2f172bbcd4a3c8a2f06bbefaf847b579a6df431b77bb7459060200160405180910390a16112a460015f55565b5f60165460016117669190613907565b905090565b6006546001600160a01b031633146117955760405162461bcd60e51b81526004016109f6906138cf565b61179d613131565b6009548111156117dd5760405162461bcd60e51b815260206004820152600b60248201526a139bdd08195b9bdd59da1d60aa1b60448201526064016109f6565b6001546040516323b872dd60e01b8152336004820152306024820152604481018390526001600160a01b03909116906323b872dd906064016020604051808303815f875af1158015611831573d5f803e3d5ffd5b505050506040513d601f19601f820116820180604052508101906118559190613a06565b508060095f828254611867919061391a565b925050819055508060085f8282546114af9190613907565b6006546001600160a01b031633146118a95760405162461bcd60e51b81526004016109f6906138cf565b601555565b6006546001600160a01b031633146118d85760405162461bcd60e51b81526004016109f6906138cf565b601455565b5f8084836040516020016118fb929190918252602082015260400190565b60408051601f19818403018152919052805160209091012084149150509392505050565b6006546001600160a01b031633146119495760405162461bcd60e51b81526004016109f6906138cf565b600255565b60608060608060175f8881526020019081526020015f20600401548611156119cb57604080515f80825260208201909252906119a0565b61198d613261565b8152602001906001900390816119855790505b50604080515f8082526020820181815282840191825260608301909352929650945092509050611d2c565b851580156119d7575084155b156119f0575f8781526017602052604090206004015494505b5f87815260176020526040902060040154611a0b8688613907565b1115611a30575f87815260176020526040902060040154611a2d90879061391a565b94505b846001600160401b03811115611a4857611a486136e9565b604051908082528060200260200182016040528015611a8157816020015b611a6e613261565b815260200190600190039081611a665790505b509350846001600160401b03811115611a9c57611a9c6136e9565b604051908082528060200260200182016040528015611ac5578160200160208202803683370190505b509250846001600160401b03811115611ae057611ae06136e9565b604051908082528060200260200182016040528015611b09578160200160208202803683370190505b5090505f5b85811015611d2a575f888152601760205260408120600401546001908990611b3790859061391a565b611b41919061391a565b611b4b919061391a565b5f8a8152601860209081526040808320848452825280832054835260128252808320546001600160a01b0390811684526010835292819020815160e081018352815490941684526001810154928401929092526002820154908301526003810154606083015260048101546080830152600581015460a08301526006015460c08201528751919250908190889085908110611be857611be861392d565b6020908102919091018101919091525f8b815260188252604080822085835290925220600101548651879085908110611c2357611c2361392d565b6020908102919091018101919091525f8b8152601d82526040808220848401518352909252205460ff1615611d20575f8a8152601b60209081526040808320601c835281842085840151855283528184205484529091529020600101548551869085908110611c9457611c9461392d565b6020908102919091018101919091525f8b8152601b82526040808220601c8452818320858501518452845281832054835283528082206001908101548e84526018855282842087855290945291200154670de0b6b3a764000091611cf791613a4a565b611d019190613a61565b848481518110611d1357611d1361392d565b6020026020010181815250505b5050600101611b0e565b505b93509350935093565b6006546001600160a01b03163314611d5f5760405162461bcd60e51b81526004016109f6906138cf565b600455565b611d6c613131565b5f8111611dbb5760405162461bcd60e51b815260206004820152601d60248201527f416d6f756e74206d7573742062652067726561746572207468616e203000000060448201526064016109f6565b6001546040516323b872dd60e01b8152336004820152306024820152604481018390526001600160a01b03909116906323b872dd906064016020604051808303815f875af1158015611e0f573d5f803e3d5ffd5b505050506040513d601f19601f82011682018060405250810190611e339190613a06565b50611e3d33613188565b335f90815260106020526040812060028101805491928492611e60908490613907565b9250508190555081600e5f8282546112979190613907565b6006546001600160a01b03163314611ea25760405162461bcd60e51b81526004016109f6906138cf565b611eaa613131565b600854811115611ef15760405162461bcd60e51b81526020600482015260126024820152714e6f7420656e6f75746820696e2062616e6b60701b60448201526064016109f6565b60015460405163a9059cbb60e01b8152336004820152602481018390526001600160a01b039091169063a9059cbb906044016020604051808303815f875af1158015611f3f573d5f803e3d5ffd5b505050506040513d601f19601f82011682018060405250810190611f639190613a06565b508060085f8282546114af919061391a565b6005546001600160a01b03163314611f9f5760405162461bcd60e51b81526004016109f690613a25565b6016545f9081526017602052604081206001015460ff166005811115611fc757611fc76134c1565b1480611ffa575060046016545f9081526017602052604090206001015460ff166005811115611ff857611ff86134c1565b145b8061202c575060056016545f9081526017602052604090206001015460ff16600581111561202a5761202a6134c1565b145b6120705760405162461bcd60e51b8152602060048201526015602482015274141c995d881c9bdd5b99081b9bdd0818db1bdcd959605a1b60448201526064016109f6565b5f818152601e602052604090205460ff16156120c25760405162461bcd60e51b815260206004820152601160248201527012185cda08185b1c9958591e481d5cd959607a1b60448201526064016109f6565b5f818152601e60205260408120805460ff1916600117905560168054916120e883613a80565b90915550506016545f81815260176020818152604080842081516101608101835286815260028185019081524293820193909352606081018690526004820154608082015260a08101869052600682015460c082015260e08101869052610100810186905261012081018890526101408101869052948690529290915282518255516001808301805493949385939260ff199190911690836005811115612191576121916134c1565b021790555060408201516002820155606082015160038201556080820151600482015560a0820151600582015560c0820151600682015560e082015160078201556101008201516008820155610120820151600982015561014090910151600a90910155600160175f6122048584613907565b81526020019081526020015f206001015f6101000a81548160ff02191690836005811115612234576122346134c1565b021790555060408051838152602081018590527f3357c3c0655880285dc537cfe8d4510dd2641d10c070e47478e726bb67dd2439910160405180910390a1505050565b6005546001600160a01b031633146122a15760405162461bcd60e51b81526004016109f690613a25565b60025f8381526017602052604090206001015460ff1660058111156122c8576122c86134c1565b146123095760405162461bcd60e51b8152602060048201526011602482015270139bdd081c195b991a5b99c81c9bdd5b99607a1b60448201526064016109f6565b5f82815260176020526040812060040154815b8351811015612594575f60105f60125f88868151811061233e5761233e61392d565b60200260200101515f015181526020019081526020015f205f9054906101000a90046001600160a01b03166001600160a01b03166001600160a01b031681526020019081526020015f20905084828151811061239c5761239c61392d565b6020026020010151602001518160020154101580156123d857505f868152601a602090815260408083206001850154845290915290205460ff16155b801561240357506014548583815181106123f4576123f461392d565b60200260200101516020015110155b801561242e575060155485838151811061241f5761241f61392d565b60200260200101516020015111155b1561258b578482815181106124455761244561392d565b602002602001015160200151816002015f828254612463919061391a565b9250508190555084828151811061247c5761247c61392d565b602002602001015160200151816003015f82825461249a9190613907565b90915550506006810186905560018101545f9081526013602090815260408083206005850180548552925282208890558054916124d683613a80565b91905055508482815181106124ed576124ed61392d565b6020908102919091018101515f88815260188352604080822087835284528082208351815592840151600193840155898252601a845280822085840154835290935291909120805460ff191690911790558261254881613a80565b93505084828151811061255d5761255d61392d565b602002602001015160200151846125749190613907565b600a80549195505f61258583613a80565b91905055505b5060010161231c565b5081600e5f8282546125a6919061391a565b9250508190555081600c5f8282546125be9190613907565b90915550505f84815260176020526040812060060180548492906125e3908490613907565b90915550505f8481526017602052604090819020600401829055517fcca211b74f4f28c1eae2f7fb019d9077e72f9590980d41f0f18b34cceefbb9039061262d9086908690613a98565b60405180910390a150505050565b6001600160a01b038084165f81815260106020908152604091829020825160e0810184528154909516808652600182015492860192909252600281015492850192909252600382015460608581019190915260048301546080860152600583015460a086015260069092015460c08501529092839283928392919003612af2578060a0015187111561272457604080515f80825260208201909252906126f7565b6126e46132a0565b8152602001906001900390816126dc5790505b50604080515f8082526020820181815282840191825260608301909352929750955093509150611d2c9050565b86158015612730575085155b1561273d578060a0015195505b60a081015161274c8789613907565b111561276557868160a00151612762919061391a565b95505b856001600160401b0381111561277d5761277d6136e9565b6040519080825280602002602001820160405280156127b657816020015b6127a36132a0565b81526020019060019003908161279b5790505b509450856001600160401b038111156127d1576127d16136e9565b6040519080825280602002602001820160405280156127fa578160200160208202803683370190505b509350856001600160401b03811115612815576128156136e9565b60405190808252806020026020018201604052801561283e578160200160208202803683370190505b509250856001600160401b03811115612859576128596136e9565b604051908082528060200260200182016040528015612882578160200160208202803683370190505b5091505f5b86811015612aeb575f60135f846020015181526020019081526020015f205f60018b858760a001516128b9919061391a565b6128c3919061391a565b6128cd919061391a565b815260208082019290925260409081015f908120548082526017845282822083516101608101909452805484526001810154919550919383019060ff16600581111561291b5761291b6134c1565b600581111561292c5761292c6134c1565b8152600282015460208083019190915260038301546040808401919091526004840154606084015260058401546080840152600684015460a0840152600784015460c0840152600884015460e08401526009840154610100840152600a90930154610120909201919091525f858152601882528281206019835283822089840151835283528382205482528252829020825180840190935280548352600101549082015289519192509082908a90869081106129ea576129ea61392d565b60200260200101819052508060200151888581518110612a0c57612a0c61392d565b6020908102919091018101919091525f848152601d82526040808220888401518352909252205460ff1615612ae0575f838152601b60209081526040808320601c835281842089840151855283528184205484528252918290208251808401909352805483526001015482820181905290830151670de0b6b3a764000091612a9391613a4a565b612a9d9190613a61565b888681518110612aaf57612aaf61392d565b6020026020010181815250508060200151878681518110612ad257612ad261392d565b602002602001018181525050505b505050600101612887565b5050611d2c565b604080515f8082526020820190925290612b22565b612b0f6132a0565b815260200190600190039081612b075790505b50604080515f8082526020820181815282840191825260608301909352929b909a50909850909650945050505050565b6006546001600160a01b03163314612b7c5760405162461bcd60e51b81526004016109f6906138cf565b600780546001600160a01b0319166001600160a01b0392909216919091179055565b6006546001600160a01b03163314612bc85760405162461bcd60e51b81526004016109f6906138cf565b600680546001600160a01b0319166001600160a01b0392909216919091179055565b6005546001600160a01b03163314612c145760405162461bcd60e51b81526004016109f690613a25565b612c1c613131565b60035f8581526017602052604090206001015460ff166005811115612c4357612c436134c1565b14612c7d5760405162461bcd60e51b815260206004820152600a602482015269139bdd081c9d5b9b995960b21b60448201526064016109f6565b5f84815260176020526040902060090154612c9a908490846118dd565b612cdd5760405162461bcd60e51b81526020600482015260146024820152732737ba103b30b634b21036bab63a34b83634b2b960611b60448201526064016109f6565b5f84815260176020526040812060088101859055600a810184905560018101805460ff19166004179055426003820155908080805b8551811015612f30575f868281518110612d2e57612d2e61392d565b602090810291909101810151515f818152601283526040808220546001600160a01b03168252601084528082208e8352601a855281832084845290945290205490925060ff168015612d9957505f8b8152601d6020908152604080832085845290915290205460ff16155b15612f26575f8b8152601860209081526040808320601983528184208685528352818420548452909152902060010154612dd39086613907565b5f8c8152601860209081526040808320601983528184208785528352818420548452825280832081518083019092528054825260010154918101919091528a5192975091670de0b6b3a7640000908b9087908110612e3357612e3361392d565b6020026020010151602001518360200151612e4e9190613a4a565b612e589190613a61565b9050612e648189613907565b975080836004015f828254612e799190613907565b9250508190555080836002015f828254612e939190613907565b90915550505f8d8152601d602090815260408083208784529091529020805460ff1916600117905589518a9086908110612ecf57612ecf61392d565b6020908102919091018101515f8f8152601b835260408082208a8352845280822083518155928401516001909301929092558f8152601c8352818120878252909252902086905585612f2081613a80565b96505050505b5050600101612d12565b5082600e5f828254612f429190613907565b9250508190555080600b5f828254612f5a9190613907565b9250508190555082600d5f828254612f729190613907565b9091555050600784018390556005840181905560068401545f90612f9790849061391a565b90505f612710600f54612710612fad919061391a565b612fb79084613a4a565b612fc19190613a61565b90505f612710600f5484612fd59190613a4a565b612fdf9190613a61565b90508160085f828254612ff29190613907565b9091555050600854861161301c578560085f828254613011919061391a565b909155506130339050565b8560095f82825461302d9190613907565b90915550505b80156130b15760015460075460405163a9059cbb60e01b81526001600160a01b0391821660048201526024810184905291169063a9059cbb906044016020604051808303815f875af115801561308b573d5f803e3d5ffd5b505050506040513d601f19601f820116820180604052508101906130af9190613a06565b505b600987015460048801546006890154604080518f8152602081018f90528082018e90526060810194909452608084019290925260a083015260c08201889052517feb030656c7ee2589cdffc41b1300bbe114ecd21972dec0e8e5a4b5576e4334159181900360e00190a15050505050505061312b60015f55565b50505050565b60025f54036131825760405162461bcd60e51b815260206004820152601f60248201527f5265656e7472616e637947756172643a207265656e7472616e742063616c6c0060448201526064016109f6565b60025f55565b6001600160a01b038082165f81815260106020526040902054909116146112a45760118054905f6131b883613a80565b90915550506011546040805160e0810182526001600160a01b0393841680825260208083018581525f848601818152606086018281526080870183815260a0880184815260c08901858152888652601088528a862099518a549d166001600160a01b03199d8e16178a55955160018a0155925160028901559051600388015551600487015551600586015590516006909401939093559382526012909352208054909216179055565b6040518060e001604052805f6001600160a01b031681526020015f81526020015f81526020015f81526020015f81526020015f81526020015f81525090565b6040805161016081019091525f808252602082019081526020015f81526020015f81526020015f81526020015f81526020015f81526020015f81526020015f81526020015f80191681526020015f80191681525090565b5f60208284031215613307575f80fd5b5035919050565b5f806040838503121561331f575f80fd5b50508035926020909101359150565b5f815180845260208085019450602084015f5b838110156133a457815180516001600160a01b03168852838101518489015260408082015190890152606080820151908901526080808201519089015260a0808201519089015260c0908101519088015260e09096019590820190600101613341565b509495945050505050565b602081525f6133c1602083018461332e565b9392505050565b80356001600160a01b03811681146133de575f80fd5b919050565b5f602082840312156133f3575f80fd5b6133c1826133c8565b5f5b838110156134165781810151838201526020016133fe565b50505f910152565b5f81518084526134358160208601602086016133fc565b601f01601f19169290920160200192915050565b6020815260018060a01b03825116602082015260ff60208301511660408201525f604083015160c0606084015261348360e084018261341e565b90506060840151601f198483030160808501526134a0828261341e565b915050608084015160a084015260a084015160c08401528091505092915050565b634e487b7160e01b5f52602160045260245ffd5b600681106134f157634e487b7160e01b5f52602160045260245ffd5b9052565b60208101610ba982846134d5565b5f8060408385031215613514575f80fd5b61351d836133c8565b946020939093013593505050565b5f815180845260208085019450602084015f5b838110156133a4578151805188528381015161355c858a01826134d5565b5060408181015190890152606080820151908901526080808201519089015260a0808201519089015260c0808201519089015260e08082015190890152610100808201519089015261012080820151908901526101409081015190880152610160909601959082019060010161353e565b602081525f6133c1602083018461352b565b8b815261016081016135f4602083018d6134d5565b604082019a909a526060810198909852608088019690965260a087019490945260c086019290925260e08501526101008401526101208301526101409091015292915050565b5f805f6060848603121561364c575f80fd5b505081359360208301359350604090920135919050565b5f815180845260208085019450602084015f5b838110156133a457815187529582019590820190600101613676565b608081525f6136a4608083018761332e565b82810360208401526136b68187613663565b905082810360408401526136ca8186613663565b905082810360608401526136de8185613663565b979650505050505050565b634e487b7160e01b5f52604160045260245ffd5b604051601f8201601f191681016001600160401b0381118282101715613725576137256136e9565b604052919050565b5f6001600160401b0380841115613746576137466136e9565b602061375760208660051b016136fd565b858152925060208301600686901b850187811115613773575f80fd5b855b818110156137c357604080828b03121561378d575f80fd5b805181810181811088821117156137a6576137a66136e9565b909152813581528482013585820152835291830191604001613775565b50505050509392505050565b5f80604083850312156137e0575f80fd5b8235915060208301356001600160401b038111156137fc575f80fd5b8301601f8101851361380c575f80fd5b61381b8582356020840161372d565b9150509250929050565b5f805f60608486031215613837575f80fd5b613840846133c8565b95602085013595506040909401359392505050565b608081525f6136a4608083018761352b565b5f805f806080858703121561387a575f80fd5b84359350602085013592506040850135915060608501356001600160401b038111156138a4575f80fd5b8501601f810187136138b4575f80fd5b6138c38782356020840161372d565b91505092959194509250565b6020808252600a908201526927b7363c9037bbb732b960b11b604082015260600190565b634e487b7160e01b5f52601160045260245ffd5b80820180821115610ba957610ba96138f3565b81810381811115610ba957610ba96138f3565b634e487b7160e01b5f52603260045260245ffd5b5f60208284031215613951575f80fd5b815160ff811681146133c1575f80fd5b5f60208284031215613971575f80fd5b81516001600160401b0380821115613987575f80fd5b818401915084601f83011261399a575f80fd5b8151818111156139ac576139ac6136e9565b6139bf601f8201601f19166020016136fd565b91508082528560208285010111156139d5575f80fd5b6139e68160208401602086016133fc565b50949350505050565b5f602082840312156139ff575f80fd5b5051919050565b5f60208284031215613a16575f80fd5b815180151581146133c1575f80fd5b6020808252600b908201526a4f6e6c79206f7261636c6560a81b604082015260600190565b8082028115828204841417610ba957610ba96138f3565b5f82613a7b57634e487b7160e01b5f52601260045260245ffd5b500490565b5f60018201613a9157613a916138f3565b5060010190565b5f60408083018584526020604060208601528186518084526060870191506020880193505f5b81811015613ae357845180518452840151848401529383019391850191600101613abe565b50909897505050505050505056fea2646970667358221220690560a8b2542c3543895fc85969e30e2eee38380c576cb7ca8dcccb668dc0f764736f6c63430008180033",
			"opcodes": "PUSH1 0x80 PUSH1 0x40 MSTORE PUSH8 0xF43FC2C04EE0000 PUSH1 0x2 SSTORE PUSH8 0x6124FEE993BC0000 PUSH1 0x3 SSTORE PUSH1 0x3C PUSH1 0x4 SSTORE PUSH0 PUSH1 0x8 SSTORE PUSH0 PUSH1 0x9 SSTORE PUSH0 PUSH1 0xA SSTORE PUSH0 PUSH1 0xB SSTORE PUSH0 PUSH1 0xC SSTORE PUSH0 PUSH1 0xD SSTORE PUSH0 PUSH1 0xE SSTORE PUSH2 0x3E8 PUSH1 0xF SSTORE PUSH0 PUSH1 0x11 SSTORE PUSH8 0xDE0B6B3A7640000 PUSH1 0x14 SSTORE PUSH9 0x56BC75E2D63100000 PUSH1 0x15 SSTORE PUSH0 PUSH1 0x16 SSTORE CALLVALUE DUP1 ISZERO PUSH3 0x70 JUMPI PUSH0 DUP1 REVERT JUMPDEST POP PUSH1 0x40 MLOAD PUSH3 0x3CA4 CODESIZE SUB DUP1 PUSH3 0x3CA4 DUP4 CODECOPY DUP2 ADD PUSH1 0x40 DUP2 SWAP1 MSTORE PUSH3 0x93 SWAP2 PUSH3 0x140 JUMP JUMPDEST PUSH1 0x1 PUSH0 DUP2 DUP2 SSTORE DUP2 SLOAD PUSH1 0x1 PUSH1 0x1 PUSH1 0xA0 SHL SUB SWAP4 SWAP1 SWAP4 AND PUSH1 0x1 PUSH1 0x1 PUSH1 0xA0 SHL SUB NOT SWAP4 DUP5 AND OR DUP3 SSTORE PUSH1 0x17 PUSH1 0x20 MSTORE PUSH32 0xD840E16649F6B9A295D95876F4633D3A6B10B55E8162971CF78AFD886D5EC89C DUP1 SLOAD PUSH1 0xFF NOT SWAP1 DUP2 AND PUSH1 0x4 OR SWAP1 SWAP2 SSTORE SWAP1 DUP3 SWAP1 MSTORE PUSH32 0xF36D6BC9642EB6FB6EE9998B09CE990566DF752AB06E11F8DE7AB633BBD57B90 DUP1 SLOAD SWAP1 SWAP2 AND SWAP1 SWAP2 OR SWAP1 SSTORE PUSH1 0x5 DUP1 SLOAD DUP3 AND CALLER SWAP1 DUP2 OR SWAP1 SWAP2 SSTORE PUSH1 0x7 DUP1 SLOAD DUP4 AND DUP3 OR SWAP1 SSTORE PUSH1 0x6 DUP1 SLOAD SWAP1 SWAP3 AND OR SWAP1 SSTORE PUSH3 0x16F JUMP JUMPDEST PUSH0 PUSH1 0x20 DUP3 DUP5 SUB SLT ISZERO PUSH3 0x151 JUMPI PUSH0 DUP1 REVERT JUMPDEST DUP2 MLOAD PUSH1 0x1 PUSH1 0x1 PUSH1 0xA0 SHL SUB DUP2 AND DUP2 EQ PUSH3 0x168 JUMPI PUSH0 DUP1 REVERT JUMPDEST SWAP4 SWAP3 POP POP POP JUMP JUMPDEST PUSH2 0x3B27 DUP1 PUSH3 0x17D PUSH0 CODECOPY PUSH0 RETURN INVALID PUSH1 0x80 PUSH1 0x40 MSTORE CALLVALUE DUP1 ISZERO PUSH2 0xF JUMPI PUSH0 DUP1 REVERT JUMPDEST POP PUSH1 0x4 CALLDATASIZE LT PUSH2 0x393 JUMPI PUSH0 CALLDATALOAD PUSH1 0xE0 SHR DUP1 PUSH4 0x91B1DB18 GT PUSH2 0x1DF JUMPI DUP1 PUSH4 0xBE2FF4A9 GT PUSH2 0x109 JUMPI DUP1 PUSH4 0xE1496286 GT PUSH2 0xA9 JUMPI DUP1 PUSH4 0xF2FDE38B GT PUSH2 0x79 JUMPI DUP1 PUSH4 0xF2FDE38B EQ PUSH2 0x969 JUMPI DUP1 PUSH4 0xF715DB58 EQ PUSH2 0x97C JUMPI DUP1 PUSH4 0xFC0C546A EQ PUSH2 0x98F JUMPI DUP1 PUSH4 0xFCA8D843 EQ PUSH2 0x9A2 JUMPI PUSH0 DUP1 REVERT JUMPDEST DUP1 PUSH4 0xE1496286 EQ PUSH2 0x8BB JUMPI DUP1 PUSH4 0xE2EB41FF EQ PUSH2 0x8C4 JUMPI DUP1 PUSH4 0xE4A9F192 EQ PUSH2 0x957 JUMPI DUP1 PUSH4 0xEFBD7BD2 EQ PUSH2 0x960 JUMPI PUSH0 DUP1 REVERT JUMPDEST DUP1 PUSH4 0xCB02C10A GT PUSH2 0xE4 JUMPI DUP1 PUSH4 0xCB02C10A EQ PUSH2 0x85F JUMPI DUP1 PUSH4 0xCE314F43 EQ PUSH2 0x872 JUMPI DUP1 PUSH4 0xCFBD9C95 EQ PUSH2 0x885 JUMPI DUP1 PUSH4 0xDBBE2550 EQ PUSH2 0x8A8 JUMPI PUSH0 DUP1 REVERT JUMPDEST DUP1 PUSH4 0xBE2FF4A9 EQ PUSH2 0x816 JUMPI DUP1 PUSH4 0xBED8840C EQ PUSH2 0x829 JUMPI DUP1 PUSH4 0xBEFA1E2F EQ PUSH2 0x856 JUMPI PUSH0 DUP1 REVERT JUMPDEST DUP1 PUSH4 0xA32BF597 GT PUSH2 0x17F JUMPI DUP1 PUSH4 0xAEF18BF7 GT PUSH2 0x14F JUMPI DUP1 PUSH4 0xAEF18BF7 EQ PUSH2 0x7C5 JUMPI DUP1 PUSH4 0xB32F59F0 EQ PUSH2 0x7E7 JUMPI DUP1 PUSH4 0xB42A275E EQ PUSH2 0x7FA JUMPI DUP1 PUSH4 0xB6B55F25 EQ PUSH2 0x803 JUMPI PUSH0 DUP1 REVERT JUMPDEST DUP1 PUSH4 0xA32BF597 EQ PUSH2 0x782 JUMPI DUP1 PUSH4 0xA3F67D6D EQ PUSH2 0x78A JUMPI DUP1 PUSH4 0xA4AB9235 EQ PUSH2 0x793 JUMPI DUP1 PUSH4 0xAAF5EB68 EQ PUSH2 0x7B6 JUMPI PUSH0 DUP1 REVERT JUMPDEST DUP1 PUSH4 0x9B29953B GT PUSH2 0x1BA JUMPI DUP1 PUSH4 0x9B29953B EQ PUSH2 0x730 JUMPI DUP1 PUSH4 0x9FD751C7 EQ PUSH2 0x75D JUMPI DUP1 PUSH4 0xA24E0D87 EQ PUSH2 0x770 JUMPI DUP1 PUSH4 0xA2791143 EQ PUSH2 0x779 JUMPI PUSH0 DUP1 REVERT JUMPDEST DUP1 PUSH4 0x91B1DB18 EQ PUSH2 0x6D3 JUMPI DUP1 PUSH4 0x9619367D EQ PUSH2 0x704 JUMPI DUP1 PUSH4 0x9972780A EQ PUSH2 0x70D JUMPI PUSH0 DUP1 REVERT JUMPDEST DUP1 PUSH4 0x5FC3D52D GT PUSH2 0x2C0 JUMPI DUP1 PUSH4 0x7DC0D1D0 GT PUSH2 0x260 JUMPI DUP1 PUSH4 0x881EFF1E GT PUSH2 0x230 JUMPI DUP1 PUSH4 0x881EFF1E EQ PUSH2 0x619 JUMPI DUP1 PUSH4 0x88EA41B9 EQ PUSH2 0x62C JUMPI DUP1 PUSH4 0x8C65C81F EQ PUSH2 0x63F JUMPI DUP1 PUSH4 0x8DA5CB5B EQ PUSH2 0x6C0 JUMPI PUSH0 DUP1 REVERT JUMPDEST DUP1 PUSH4 0x7DC0D1D0 EQ PUSH2 0x5D8 JUMPI DUP1 PUSH4 0x7E07AB09 EQ PUSH2 0x5EB JUMPI DUP1 PUSH4 0x8011D1ED EQ PUSH2 0x5FE JUMPI DUP1 PUSH4 0x81A486F7 EQ PUSH2 0x606 JUMPI PUSH0 DUP1 REVERT JUMPDEST DUP1 PUSH4 0x773ED91E GT PUSH2 0x29B JUMPI DUP1 PUSH4 0x773ED91E EQ PUSH2 0x596 JUMPI DUP1 PUSH4 0x79C3F683 EQ PUSH2 0x5A9 JUMPI DUP1 PUSH4 0x79E02B95 EQ PUSH2 0x5BC JUMPI DUP1 PUSH4 0x7ADBF973 EQ PUSH2 0x5C5 JUMPI PUSH0 DUP1 REVERT JUMPDEST DUP1 PUSH4 0x5FC3D52D EQ PUSH2 0x4FD JUMPI DUP1 PUSH4 0x671EEA01 EQ PUSH2 0x510 JUMPI DUP1 PUSH4 0x7319B43E EQ PUSH2 0x556 JUMPI PUSH0 DUP1 REVERT JUMPDEST DUP1 PUSH4 0x22D4BCBD GT PUSH2 0x336 JUMPI DUP1 PUSH4 0x40F74F47 GT PUSH2 0x306 JUMPI DUP1 PUSH4 0x40F74F47 EQ PUSH2 0x48D JUMPI DUP1 PUSH4 0x4AA82380 EQ PUSH2 0x4AD JUMPI DUP1 PUSH4 0x50570248 EQ PUSH2 0x4D7 JUMPI DUP1 PUSH4 0x5C7B79F5 EQ PUSH2 0x4EA JUMPI PUSH0 DUP1 REVERT JUMPDEST DUP1 PUSH4 0x22D4BCBD EQ PUSH2 0x444 JUMPI DUP1 PUSH4 0x2E5B2168 EQ PUSH2 0x44D JUMPI DUP1 PUSH4 0x38A50817 EQ PUSH2 0x456 JUMPI DUP1 PUSH4 0x3C28F9CE EQ PUSH2 0x47A JUMPI PUSH0 DUP1 REVERT JUMPDEST DUP1 PUSH4 0x74E0036 GT PUSH2 0x371 JUMPI DUP1 PUSH4 0x74E0036 EQ PUSH2 0x3D1 JUMPI DUP1 PUSH4 0xD2DCE22 EQ PUSH2 0x3DA JUMPI DUP1 PUSH4 0x13B8AC5E EQ PUSH2 0x3FA JUMPI DUP1 PUSH4 0x1F69565F EQ PUSH2 0x424 JUMPI PUSH0 DUP1 REVERT JUMPDEST DUP1 PUSH4 0x1526A43 EQ PUSH2 0x397 JUMPI DUP1 PUSH4 0x187AEA0 EQ PUSH2 0x3AC JUMPI DUP1 PUSH4 0x34420C4 EQ PUSH2 0x3C8 JUMPI JUMPDEST PUSH0 DUP1 REVERT JUMPDEST PUSH2 0x3AA PUSH2 0x3A5 CALLDATASIZE PUSH1 0x4 PUSH2 0x32F7 JUMP JUMPDEST PUSH2 0x9CC JUMP JUMPDEST STOP JUMPDEST PUSH2 0x3B5 PUSH1 0x3 SLOAD DUP2 JUMP JUMPDEST PUSH1 0x40 MLOAD SWAP1 DUP2 MSTORE PUSH1 0x20 ADD JUMPDEST PUSH1 0x40 MLOAD DUP1 SWAP2 SUB SWAP1 RETURN JUMPDEST PUSH2 0x3B5 PUSH1 0x16 SLOAD DUP2 JUMP JUMPDEST PUSH2 0x3B5 PUSH1 0xB SLOAD DUP2 JUMP JUMPDEST PUSH2 0x3ED PUSH2 0x3E8 CALLDATASIZE PUSH1 0x4 PUSH2 0x330E JUMP JUMPDEST PUSH2 0xA04 JUMP JUMPDEST PUSH1 0x40 MLOAD PUSH2 0x3BF SWAP2 SWAP1 PUSH2 0x33AF JUMP JUMPDEST PUSH2 0x3B5 PUSH2 0x408 CALLDATASIZE PUSH1 0x4 PUSH2 0x330E JUMP JUMPDEST PUSH1 0x1C PUSH1 0x20 SWAP1 DUP2 MSTORE PUSH0 SWAP3 DUP4 MSTORE PUSH1 0x40 DUP1 DUP5 KECCAK256 SWAP1 SWAP2 MSTORE SWAP1 DUP3 MSTORE SWAP1 KECCAK256 SLOAD DUP2 JUMP JUMPDEST PUSH2 0x437 PUSH2 0x432 CALLDATASIZE PUSH1 0x4 PUSH2 0x33E3 JUMP JUMPDEST PUSH2 0xBAF JUMP JUMPDEST PUSH1 0x40 MLOAD PUSH2 0x3BF SWAP2 SWAP1 PUSH2 0x3449 JUMP JUMPDEST PUSH2 0x3B5 PUSH1 0xF SLOAD DUP2 JUMP JUMPDEST PUSH2 0x3B5 PUSH1 0x15 SLOAD DUP2 JUMP JUMPDEST PUSH1 0x16 SLOAD PUSH0 SWAP1 DUP2 MSTORE PUSH1 0x17 PUSH1 0x20 MSTORE PUSH1 0x40 SWAP1 KECCAK256 PUSH1 0x1 ADD SLOAD PUSH1 0xFF AND PUSH1 0x40 MLOAD PUSH2 0x3BF SWAP2 SWAP1 PUSH2 0x34F5 JUMP JUMPDEST PUSH2 0x3AA PUSH2 0x488 CALLDATASIZE PUSH1 0x4 PUSH2 0x3503 JUMP JUMPDEST PUSH2 0xE79 JUMP JUMPDEST PUSH2 0x4A0 PUSH2 0x49B CALLDATASIZE PUSH1 0x4 PUSH2 0x330E JUMP JUMPDEST PUSH2 0xF8E JUMP JUMPDEST PUSH1 0x40 MLOAD PUSH2 0x3BF SWAP2 SWAP1 PUSH2 0x35CD JUMP JUMPDEST PUSH2 0x3B5 PUSH2 0x4BB CALLDATASIZE PUSH1 0x4 PUSH2 0x330E JUMP JUMPDEST PUSH1 0x13 PUSH1 0x20 SWAP1 DUP2 MSTORE PUSH0 SWAP3 DUP4 MSTORE PUSH1 0x40 DUP1 DUP5 KECCAK256 SWAP1 SWAP2 MSTORE SWAP1 DUP3 MSTORE SWAP1 KECCAK256 SLOAD DUP2 JUMP JUMPDEST PUSH2 0x3AA PUSH2 0x4E5 CALLDATASIZE PUSH1 0x4 PUSH2 0x32F7 JUMP JUMPDEST PUSH2 0x1160 JUMP JUMPDEST PUSH2 0x3AA PUSH2 0x4F8 CALLDATASIZE PUSH1 0x4 PUSH2 0x32F7 JUMP JUMPDEST PUSH2 0x118F JUMP JUMPDEST PUSH2 0x3AA PUSH2 0x50B CALLDATASIZE PUSH1 0x4 PUSH2 0x32F7 JUMP JUMPDEST PUSH2 0x12A7 JUMP JUMPDEST PUSH2 0x541 PUSH2 0x51E CALLDATASIZE PUSH1 0x4 PUSH2 0x330E JUMP JUMPDEST PUSH1 0x18 PUSH1 0x20 SWAP1 DUP2 MSTORE PUSH0 SWAP3 DUP4 MSTORE PUSH1 0x40 DUP1 DUP5 KECCAK256 SWAP1 SWAP2 MSTORE SWAP1 DUP3 MSTORE SWAP1 KECCAK256 DUP1 SLOAD PUSH1 0x1 SWAP1 SWAP2 ADD SLOAD DUP3 JUMP JUMPDEST PUSH1 0x40 DUP1 MLOAD SWAP3 DUP4 MSTORE PUSH1 0x20 DUP4 ADD SWAP2 SWAP1 SWAP2 MSTORE ADD PUSH2 0x3BF JUMP JUMPDEST PUSH2 0x57E PUSH2 0x564 CALLDATASIZE PUSH1 0x4 PUSH2 0x32F7 JUMP JUMPDEST PUSH1 0x12 PUSH1 0x20 MSTORE PUSH0 SWAP1 DUP2 MSTORE PUSH1 0x40 SWAP1 KECCAK256 SLOAD PUSH1 0x1 PUSH1 0x1 PUSH1 0xA0 SHL SUB AND DUP2 JUMP JUMPDEST PUSH1 0x40 MLOAD PUSH1 0x1 PUSH1 0x1 PUSH1 0xA0 SHL SUB SWAP1 SWAP2 AND DUP2 MSTORE PUSH1 0x20 ADD PUSH2 0x3BF JUMP JUMPDEST PUSH1 0x7 SLOAD PUSH2 0x57E SWAP1 PUSH1 0x1 PUSH1 0x1 PUSH1 0xA0 SHL SUB AND DUP2 JUMP JUMPDEST PUSH2 0x3AA PUSH2 0x5B7 CALLDATASIZE PUSH1 0x4 PUSH2 0x32F7 JUMP JUMPDEST PUSH2 0x13A4 JUMP JUMPDEST PUSH2 0x3B5 PUSH1 0x9 SLOAD DUP2 JUMP JUMPDEST PUSH2 0x3AA PUSH2 0x5D3 CALLDATASIZE PUSH1 0x4 PUSH2 0x33E3 JUMP JUMPDEST PUSH2 0x14BB JUMP JUMPDEST PUSH1 0x5 SLOAD PUSH2 0x57E SWAP1 PUSH1 0x1 PUSH1 0x1 PUSH1 0xA0 SHL SUB AND DUP2 JUMP JUMPDEST PUSH2 0x3AA PUSH2 0x5F9 CALLDATASIZE PUSH1 0x4 PUSH2 0x32F7 JUMP JUMPDEST PUSH2 0x1507 JUMP JUMPDEST PUSH2 0x3B5 PUSH2 0x1756 JUMP JUMPDEST PUSH2 0x3AA PUSH2 0x614 CALLDATASIZE PUSH1 0x4 PUSH2 0x32F7 JUMP JUMPDEST PUSH2 0x176B JUMP JUMPDEST PUSH2 0x3AA PUSH2 0x627 CALLDATASIZE PUSH1 0x4 PUSH2 0x32F7 JUMP JUMPDEST PUSH2 0x187F JUMP JUMPDEST PUSH2 0x3AA PUSH2 0x63A CALLDATASIZE PUSH1 0x4 PUSH2 0x32F7 JUMP JUMPDEST PUSH2 0x18AE JUMP JUMPDEST PUSH2 0x6A9 PUSH2 0x64D CALLDATASIZE PUSH1 0x4 PUSH2 0x32F7 JUMP JUMPDEST PUSH1 0x17 PUSH1 0x20 MSTORE PUSH0 SWAP1 DUP2 MSTORE PUSH1 0x40 SWAP1 KECCAK256 DUP1 SLOAD PUSH1 0x1 DUP3 ADD SLOAD PUSH1 0x2 DUP4 ADD SLOAD PUSH1 0x3 DUP5 ADD SLOAD PUSH1 0x4 DUP6 ADD SLOAD PUSH1 0x5 DUP7 ADD SLOAD PUSH1 0x6 DUP8 ADD SLOAD PUSH1 0x7 DUP9 ADD SLOAD PUSH1 0x8 DUP10 ADD SLOAD PUSH1 0x9 DUP11 ADD SLOAD PUSH1 0xA SWAP1 SWAP11 ADD SLOAD SWAP9 SWAP10 PUSH1 0xFF SWAP1 SWAP9 AND SWAP9 SWAP7 SWAP8 SWAP6 SWAP7 SWAP5 SWAP6 SWAP4 SWAP5 SWAP3 SWAP4 SWAP2 SWAP3 SWAP1 SWAP2 SWAP1 DUP12 JUMP JUMPDEST PUSH1 0x40 MLOAD PUSH2 0x3BF SWAP12 SWAP11 SWAP10 SWAP9 SWAP8 SWAP7 SWAP6 SWAP5 SWAP4 SWAP3 SWAP2 SWAP1 PUSH2 0x35DF JUMP JUMPDEST PUSH1 0x6 SLOAD PUSH2 0x57E SWAP1 PUSH1 0x1 PUSH1 0x1 PUSH1 0xA0 SHL SUB AND DUP2 JUMP JUMPDEST PUSH2 0x541 PUSH2 0x6E1 CALLDATASIZE PUSH1 0x4 PUSH2 0x330E JUMP JUMPDEST PUSH1 0x1B PUSH1 0x20 SWAP1 DUP2 MSTORE PUSH0 SWAP3 DUP4 MSTORE PUSH1 0x40 DUP1 DUP5 KECCAK256 SWAP1 SWAP2 MSTORE SWAP1 DUP3 MSTORE SWAP1 KECCAK256 DUP1 SLOAD PUSH1 0x1 SWAP1 SWAP2 ADD SLOAD DUP3 JUMP JUMPDEST PUSH2 0x3B5 PUSH1 0x14 SLOAD DUP2 JUMP JUMPDEST PUSH2 0x720 PUSH2 0x71B CALLDATASIZE PUSH1 0x4 PUSH2 0x363A JUMP JUMPDEST PUSH2 0x18DD JUMP JUMPDEST PUSH1 0x40 MLOAD SWAP1 ISZERO ISZERO DUP2 MSTORE PUSH1 0x20 ADD PUSH2 0x3BF JUMP JUMPDEST PUSH2 0x720 PUSH2 0x73E CALLDATASIZE PUSH1 0x4 PUSH2 0x330E JUMP JUMPDEST PUSH1 0x1D PUSH1 0x20 SWAP1 DUP2 MSTORE PUSH0 SWAP3 DUP4 MSTORE PUSH1 0x40 DUP1 DUP5 KECCAK256 SWAP1 SWAP2 MSTORE SWAP1 DUP3 MSTORE SWAP1 KECCAK256 SLOAD PUSH1 0xFF AND DUP2 JUMP JUMPDEST PUSH2 0x3AA PUSH2 0x76B CALLDATASIZE PUSH1 0x4 PUSH2 0x32F7 JUMP JUMPDEST PUSH2 0x191F JUMP JUMPDEST PUSH2 0x3B5 PUSH1 0x2 SLOAD DUP2 JUMP JUMPDEST PUSH2 0x3B5 PUSH1 0xD SLOAD DUP2 JUMP JUMPDEST PUSH1 0x16 SLOAD PUSH2 0x3B5 JUMP JUMPDEST PUSH2 0x3B5 PUSH1 0x11 SLOAD DUP2 JUMP JUMPDEST PUSH2 0x7A6 PUSH2 0x7A1 CALLDATASIZE PUSH1 0x4 PUSH2 0x363A JUMP JUMPDEST PUSH2 0x194E JUMP JUMPDEST PUSH1 0x40 MLOAD PUSH2 0x3BF SWAP5 SWAP4 SWAP3 SWAP2 SWAP1 PUSH2 0x3692 JUMP JUMPDEST PUSH2 0x3B5 PUSH8 0xDE0B6B3A7640000 DUP2 JUMP JUMPDEST PUSH2 0x720 PUSH2 0x7D3 CALLDATASIZE PUSH1 0x4 PUSH2 0x32F7 JUMP JUMPDEST PUSH1 0x1E PUSH1 0x20 MSTORE PUSH0 SWAP1 DUP2 MSTORE PUSH1 0x40 SWAP1 KECCAK256 SLOAD PUSH1 0xFF AND DUP2 JUMP JUMPDEST PUSH2 0x3AA PUSH2 0x7F5 CALLDATASIZE PUSH1 0x4 PUSH2 0x32F7 JUMP JUMPDEST PUSH2 0x1D35 JUMP JUMPDEST PUSH2 0x3B5 PUSH1 0x8 SLOAD DUP2 JUMP JUMPDEST PUSH2 0x3AA PUSH2 0x811 CALLDATASIZE PUSH1 0x4 PUSH2 0x32F7 JUMP JUMPDEST PUSH2 0x1D64 JUMP JUMPDEST PUSH2 0x3AA PUSH2 0x824 CALLDATASIZE PUSH1 0x4 PUSH2 0x32F7 JUMP JUMPDEST PUSH2 0x1E78 JUMP JUMPDEST PUSH2 0x720 PUSH2 0x837 CALLDATASIZE PUSH1 0x4 PUSH2 0x330E JUMP JUMPDEST PUSH1 0x1A PUSH1 0x20 SWAP1 DUP2 MSTORE PUSH0 SWAP3 DUP4 MSTORE PUSH1 0x40 DUP1 DUP5 KECCAK256 SWAP1 SWAP2 MSTORE SWAP1 DUP3 MSTORE SWAP1 KECCAK256 SLOAD PUSH1 0xFF AND DUP2 JUMP JUMPDEST PUSH2 0x3B5 PUSH1 0xA SLOAD DUP2 JUMP JUMPDEST PUSH2 0x3AA PUSH2 0x86D CALLDATASIZE PUSH1 0x4 PUSH2 0x32F7 JUMP JUMPDEST PUSH2 0x1F75 JUMP JUMPDEST PUSH2 0x3AA PUSH2 0x880 CALLDATASIZE PUSH1 0x4 PUSH2 0x37CF JUMP JUMPDEST PUSH2 0x2277 JUMP JUMPDEST PUSH2 0x898 PUSH2 0x893 CALLDATASIZE PUSH1 0x4 PUSH2 0x3825 JUMP JUMPDEST PUSH2 0x263B JUMP JUMPDEST PUSH1 0x40 MLOAD PUSH2 0x3BF SWAP5 SWAP4 SWAP3 SWAP2 SWAP1 PUSH2 0x3855 JUMP JUMPDEST PUSH2 0x3AA PUSH2 0x8B6 CALLDATASIZE PUSH1 0x4 PUSH2 0x33E3 JUMP JUMPDEST PUSH2 0x2B52 JUMP JUMPDEST PUSH2 0x3B5 PUSH1 0xE SLOAD DUP2 JUMP JUMPDEST PUSH2 0x918 PUSH2 0x8D2 CALLDATASIZE PUSH1 0x4 PUSH2 0x33E3 JUMP JUMPDEST PUSH1 0x10 PUSH1 0x20 MSTORE PUSH0 SWAP1 DUP2 MSTORE PUSH1 0x40 SWAP1 KECCAK256 DUP1 SLOAD PUSH1 0x1 DUP3 ADD SLOAD PUSH1 0x2 DUP4 ADD SLOAD PUSH1 0x3 DUP5 ADD SLOAD PUSH1 0x4 DUP6 ADD SLOAD PUSH1 0x5 DUP7 ADD SLOAD PUSH1 0x6 SWAP1 SWAP7 ADD SLOAD PUSH1 0x1 PUSH1 0x1 PUSH1 0xA0 SHL SUB SWAP1 SWAP6 AND SWAP6 SWAP4 SWAP5 SWAP3 SWAP4 SWAP2 SWAP3 SWAP1 SWAP2 SWAP1 DUP8 JUMP JUMPDEST PUSH1 0x40 DUP1 MLOAD PUSH1 0x1 PUSH1 0x1 PUSH1 0xA0 SHL SUB SWAP1 SWAP9 AND DUP9 MSTORE PUSH1 0x20 DUP9 ADD SWAP7 SWAP1 SWAP7 MSTORE SWAP5 DUP7 ADD SWAP4 SWAP1 SWAP4 MSTORE PUSH1 0x60 DUP6 ADD SWAP2 SWAP1 SWAP2 MSTORE PUSH1 0x80 DUP5 ADD MSTORE PUSH1 0xA0 DUP4 ADD MSTORE PUSH1 0xC0 DUP3 ADD MSTORE PUSH1 0xE0 ADD PUSH2 0x3BF JUMP JUMPDEST PUSH2 0x3B5 PUSH1 0x4 SLOAD DUP2 JUMP JUMPDEST PUSH2 0x3B5 PUSH1 0xC SLOAD DUP2 JUMP JUMPDEST PUSH2 0x3AA PUSH2 0x977 CALLDATASIZE PUSH1 0x4 PUSH2 0x33E3 JUMP JUMPDEST PUSH2 0x2B9E JUMP JUMPDEST PUSH2 0x3AA PUSH2 0x98A CALLDATASIZE PUSH1 0x4 PUSH2 0x3867 JUMP JUMPDEST PUSH2 0x2BEA JUMP JUMPDEST PUSH1 0x1 SLOAD PUSH2 0x57E SWAP1 PUSH1 0x1 PUSH1 0x1 PUSH1 0xA0 SHL SUB AND DUP2 JUMP JUMPDEST PUSH2 0x3B5 PUSH2 0x9B0 CALLDATASIZE PUSH1 0x4 PUSH2 0x330E JUMP JUMPDEST PUSH1 0x19 PUSH1 0x20 SWAP1 DUP2 MSTORE PUSH0 SWAP3 DUP4 MSTORE PUSH1 0x40 DUP1 DUP5 KECCAK256 SWAP1 SWAP2 MSTORE SWAP1 DUP3 MSTORE SWAP1 KECCAK256 SLOAD DUP2 JUMP JUMPDEST PUSH1 0x6 SLOAD PUSH1 0x1 PUSH1 0x1 PUSH1 0xA0 SHL SUB AND CALLER EQ PUSH2 0x9FF JUMPI PUSH1 0x40 MLOAD PUSH3 0x461BCD PUSH1 0xE5 SHL DUP2 MSTORE PUSH1 0x4 ADD PUSH2 0x9F6 SWAP1 PUSH2 0x38CF JUMP JUMPDEST PUSH1 0x40 MLOAD DUP1 SWAP2 SUB SWAP1 REVERT JUMPDEST PUSH1 0x3 SSTORE JUMP JUMPDEST PUSH1 0x60 PUSH1 0x11 SLOAD DUP4 GT ISZERO PUSH2 0xA48 JUMPI PUSH1 0x40 DUP1 MLOAD PUSH0 DUP1 DUP3 MSTORE PUSH1 0x20 DUP3 ADD SWAP1 SWAP3 MSTORE SWAP1 PUSH2 0xA40 JUMP JUMPDEST PUSH2 0xA2D PUSH2 0x3261 JUMP JUMPDEST DUP2 MSTORE PUSH1 0x20 ADD SWAP1 PUSH1 0x1 SWAP1 SUB SWAP1 DUP2 PUSH2 0xA25 JUMPI SWAP1 POP JUMPDEST POP SWAP1 POP PUSH2 0xBA9 JUMP JUMPDEST DUP3 ISZERO DUP1 ISZERO PUSH2 0xA54 JUMPI POP DUP2 ISZERO JUMPDEST ISZERO PUSH2 0xA5F JUMPI PUSH1 0x11 SLOAD SWAP2 POP JUMPDEST PUSH1 0x11 SLOAD PUSH2 0xA6C DUP4 DUP6 PUSH2 0x3907 JUMP JUMPDEST GT ISZERO PUSH2 0xA83 JUMPI DUP3 PUSH1 0x11 SLOAD PUSH2 0xA80 SWAP2 SWAP1 PUSH2 0x391A JUMP JUMPDEST SWAP2 POP JUMPDEST PUSH0 DUP3 PUSH1 0x1 PUSH1 0x1 PUSH1 0x40 SHL SUB DUP2 GT ISZERO PUSH2 0xA9C JUMPI PUSH2 0xA9C PUSH2 0x36E9 JUMP JUMPDEST PUSH1 0x40 MLOAD SWAP1 DUP1 DUP3 MSTORE DUP1 PUSH1 0x20 MUL PUSH1 0x20 ADD DUP3 ADD PUSH1 0x40 MSTORE DUP1 ISZERO PUSH2 0xAD5 JUMPI DUP2 PUSH1 0x20 ADD JUMPDEST PUSH2 0xAC2 PUSH2 0x3261 JUMP JUMPDEST DUP2 MSTORE PUSH1 0x20 ADD SWAP1 PUSH1 0x1 SWAP1 SUB SWAP1 DUP2 PUSH2 0xABA JUMPI SWAP1 POP JUMPDEST POP SWAP1 POP PUSH0 JUMPDEST DUP4 DUP2 LT ISZERO PUSH2 0xBA5 JUMPI PUSH1 0x10 PUSH0 PUSH1 0x12 PUSH0 DUP9 DUP6 PUSH1 0x11 SLOAD PUSH2 0xAF7 SWAP2 SWAP1 PUSH2 0x391A JUMP JUMPDEST PUSH2 0xB01 SWAP2 SWAP1 PUSH2 0x391A JUMP JUMPDEST DUP2 MSTORE PUSH1 0x20 DUP1 DUP3 ADD SWAP3 SWAP1 SWAP3 MSTORE PUSH1 0x40 SWAP1 DUP2 ADD PUSH0 SWAP1 DUP2 KECCAK256 SLOAD PUSH1 0x1 PUSH1 0x1 PUSH1 0xA0 SHL SUB SWAP1 DUP2 AND DUP6 MSTORE DUP5 DUP5 ADD SWAP6 SWAP1 SWAP6 MSTORE SWAP3 DUP2 ADD SWAP1 SWAP3 KECCAK256 DUP3 MLOAD PUSH1 0xE0 DUP2 ADD DUP5 MSTORE DUP2 SLOAD SWAP1 SWAP5 AND DUP5 MSTORE PUSH1 0x1 DUP2 ADD SLOAD SWAP2 DUP5 ADD SWAP2 SWAP1 SWAP2 MSTORE PUSH1 0x2 DUP2 ADD SLOAD SWAP2 DUP4 ADD SWAP2 SWAP1 SWAP2 MSTORE PUSH1 0x3 DUP2 ADD SLOAD PUSH1 0x60 DUP4 ADD MSTORE PUSH1 0x4 DUP2 ADD SLOAD PUSH1 0x80 DUP4 ADD MSTORE PUSH1 0x5 DUP2 ADD SLOAD PUSH1 0xA0 DUP4 ADD MSTORE PUSH1 0x6 ADD SLOAD PUSH1 0xC0 DUP3 ADD MSTORE DUP3 MLOAD DUP4 SWAP1 DUP4 SWAP1 DUP2 LT PUSH2 0xB92 JUMPI PUSH2 0xB92 PUSH2 0x392D JUMP JUMPDEST PUSH1 0x20 SWAP1 DUP2 MUL SWAP2 SWAP1 SWAP2 ADD ADD MSTORE PUSH1 0x1 ADD PUSH2 0xADA JUMP JUMPDEST POP SWAP1 POP JUMPDEST SWAP3 SWAP2 POP POP JUMP JUMPDEST PUSH2 0xBF0 PUSH1 0x40 MLOAD DUP1 PUSH1 0xC0 ADD PUSH1 0x40 MSTORE DUP1 PUSH0 PUSH1 0x1 PUSH1 0x1 PUSH1 0xA0 SHL SUB AND DUP2 MSTORE PUSH1 0x20 ADD PUSH0 PUSH1 0xFF AND DUP2 MSTORE PUSH1 0x20 ADD PUSH1 0x60 DUP2 MSTORE PUSH1 0x20 ADD PUSH1 0x60 DUP2 MSTORE PUSH1 0x20 ADD PUSH0 DUP2 MSTORE PUSH1 0x20 ADD PUSH0 DUP2 MSTORE POP SWAP1 JUMP JUMPDEST PUSH1 0x40 DUP1 MLOAD PUSH1 0xC0 DUP2 ADD DUP3 MSTORE PUSH1 0x1 SLOAD PUSH1 0x1 PUSH1 0x1 PUSH1 0xA0 SHL SUB AND DUP1 DUP3 MSTORE DUP3 MLOAD PUSH4 0x313CE567 PUSH1 0xE0 SHL DUP2 MSTORE SWAP3 MLOAD SWAP2 SWAP3 PUSH1 0x20 DUP1 DUP6 ADD SWAP4 PUSH4 0x313CE567 SWAP3 PUSH1 0x4 DUP1 DUP3 ADD SWAP4 SWAP3 SWAP2 DUP3 SWAP1 SUB ADD DUP2 DUP7 GAS STATICCALL ISZERO DUP1 ISZERO PUSH2 0xC44 JUMPI RETURNDATASIZE PUSH0 DUP1 RETURNDATACOPY RETURNDATASIZE PUSH0 REVERT JUMPDEST POP POP POP POP PUSH1 0x40 MLOAD RETURNDATASIZE PUSH1 0x1F NOT PUSH1 0x1F DUP3 ADD AND DUP3 ADD DUP1 PUSH1 0x40 MSTORE POP DUP2 ADD SWAP1 PUSH2 0xC68 SWAP2 SWAP1 PUSH2 0x3941 JUMP JUMPDEST PUSH1 0xFF AND DUP2 MSTORE PUSH1 0x20 ADD PUSH1 0x1 PUSH0 SWAP1 SLOAD SWAP1 PUSH2 0x100 EXP SWAP1 DIV PUSH1 0x1 PUSH1 0x1 PUSH1 0xA0 SHL SUB AND PUSH1 0x1 PUSH1 0x1 PUSH1 0xA0 SHL SUB AND PUSH4 0x6FDDE03 PUSH1 0x40 MLOAD DUP2 PUSH4 0xFFFFFFFF AND PUSH1 0xE0 SHL DUP2 MSTORE PUSH1 0x4 ADD PUSH0 PUSH1 0x40 MLOAD DUP1 DUP4 SUB DUP2 DUP7 GAS STATICCALL ISZERO DUP1 ISZERO PUSH2 0xCBF JUMPI RETURNDATASIZE PUSH0 DUP1 RETURNDATACOPY RETURNDATASIZE PUSH0 REVERT JUMPDEST POP POP POP POP PUSH1 0x40 MLOAD RETURNDATASIZE PUSH0 DUP3 RETURNDATACOPY PUSH1 0x1F RETURNDATASIZE SWAP1 DUP2 ADD PUSH1 0x1F NOT AND DUP3 ADD PUSH1 0x40 MSTORE PUSH2 0xCE6 SWAP2 SWAP1 DUP2 ADD SWAP1 PUSH2 0x3961 JUMP JUMPDEST DUP2 MSTORE PUSH1 0x20 ADD PUSH1 0x1 PUSH0 SWAP1 SLOAD SWAP1 PUSH2 0x100 EXP SWAP1 DIV PUSH1 0x1 PUSH1 0x1 PUSH1 0xA0 SHL SUB AND PUSH1 0x1 PUSH1 0x1 PUSH1 0xA0 SHL SUB AND PUSH4 0x95D89B41 PUSH1 0x40 MLOAD DUP2 PUSH4 0xFFFFFFFF AND PUSH1 0xE0 SHL DUP2 MSTORE PUSH1 0x4 ADD PUSH0 PUSH1 0x40 MLOAD DUP1 DUP4 SUB DUP2 DUP7 GAS STATICCALL ISZERO DUP1 ISZERO PUSH2 0xD3A JUMPI RETURNDATASIZE PUSH0 DUP1 RETURNDATACOPY RETURNDATASIZE PUSH0 REVERT JUMPDEST POP POP POP POP PUSH1 0x40 MLOAD RETURNDATASIZE PUSH0 DUP3 RETURNDATACOPY PUSH1 0x1F RETURNDATASIZE SWAP1 DUP2 ADD PUSH1 0x1F NOT AND DUP3 ADD PUSH1 0x40 MSTORE PUSH2 0xD61 SWAP2 SWAP1 DUP2 ADD SWAP1 PUSH2 0x3961 JUMP JUMPDEST DUP2 MSTORE PUSH1 0x20 ADD PUSH1 0x1 PUSH1 0x1 PUSH1 0xA0 SHL SUB DUP5 AND PUSH2 0xD7A JUMPI PUSH0 PUSH2 0xDE6 JUMP JUMPDEST PUSH1 0x1 SLOAD PUSH1 0x40 MLOAD PUSH4 0x70A08231 PUSH1 0xE0 SHL DUP2 MSTORE PUSH1 0x1 PUSH1 0x1 PUSH1 0xA0 SHL SUB DUP7 DUP2 AND PUSH1 0x4 DUP4 ADD MSTORE SWAP1 SWAP2 AND SWAP1 PUSH4 0x70A08231 SWAP1 PUSH1 0x24 ADD PUSH1 0x20 PUSH1 0x40 MLOAD DUP1 DUP4 SUB DUP2 DUP7 GAS STATICCALL ISZERO DUP1 ISZERO PUSH2 0xDC2 JUMPI RETURNDATASIZE PUSH0 DUP1 RETURNDATACOPY RETURNDATASIZE PUSH0 REVERT JUMPDEST POP POP POP POP PUSH1 0x40 MLOAD RETURNDATASIZE PUSH1 0x1F NOT PUSH1 0x1F DUP3 ADD AND DUP3 ADD DUP1 PUSH1 0x40 MSTORE POP DUP2 ADD SWAP1 PUSH2 0xDE6 SWAP2 SWAP1 PUSH2 0x39EF JUMP JUMPDEST DUP2 MSTORE PUSH1 0x20 ADD PUSH1 0x1 PUSH1 0x1 PUSH1 0xA0 SHL SUB DUP5 AND PUSH2 0xDFF JUMPI PUSH0 PUSH2 0xE71 JUMP JUMPDEST PUSH1 0x1 SLOAD PUSH1 0x40 MLOAD PUSH4 0x6EB1769F PUSH1 0xE1 SHL DUP2 MSTORE PUSH1 0x1 PUSH1 0x1 PUSH1 0xA0 SHL SUB DUP7 DUP2 AND PUSH1 0x4 DUP4 ADD MSTORE ADDRESS PUSH1 0x24 DUP4 ADD MSTORE SWAP1 SWAP2 AND SWAP1 PUSH4 0xDD62ED3E SWAP1 PUSH1 0x44 ADD PUSH1 0x20 PUSH1 0x40 MLOAD DUP1 DUP4 SUB DUP2 DUP7 GAS STATICCALL ISZERO DUP1 ISZERO PUSH2 0xE4D JUMPI RETURNDATASIZE PUSH0 DUP1 RETURNDATACOPY RETURNDATASIZE PUSH0 REVERT JUMPDEST POP POP POP POP PUSH1 0x40 MLOAD RETURNDATASIZE PUSH1 0x1F NOT PUSH1 0x1F DUP3 ADD AND DUP3 ADD DUP1 PUSH1 0x40 MSTORE POP DUP2 ADD SWAP1 PUSH2 0xE71 SWAP2 SWAP1 PUSH2 0x39EF JUMP JUMPDEST SWAP1 MSTORE SWAP3 SWAP2 POP POP JUMP JUMPDEST PUSH1 0x6 SLOAD PUSH1 0x1 PUSH1 0x1 PUSH1 0xA0 SHL SUB AND CALLER EQ PUSH2 0xEA3 JUMPI PUSH1 0x40 MLOAD PUSH3 0x461BCD PUSH1 0xE5 SHL DUP2 MSTORE PUSH1 0x4 ADD PUSH2 0x9F6 SWAP1 PUSH2 0x38CF JUMP JUMPDEST PUSH1 0x1 SLOAD PUSH1 0x1 PUSH1 0x1 PUSH1 0xA0 SHL SUB SWAP1 DUP2 AND SWAP1 DUP4 AND SUB PUSH2 0xF15 JUMPI PUSH1 0x40 MLOAD PUSH3 0x461BCD PUSH1 0xE5 SHL DUP2 MSTORE PUSH1 0x20 PUSH1 0x4 DUP3 ADD MSTORE PUSH1 0x2B PUSH1 0x24 DUP3 ADD MSTORE PUSH32 0x43616E74207265636F7765722067616D6520746F6B656E2E204F6E6C79206261 PUSH1 0x44 DUP3 ADD MSTORE PUSH11 0x6E6B207769746864726177 PUSH1 0xA8 SHL PUSH1 0x64 DUP3 ADD MSTORE PUSH1 0x84 ADD PUSH2 0x9F6 JUMP JUMPDEST PUSH1 0x6 SLOAD PUSH1 0x40 MLOAD PUSH4 0xA9059CBB PUSH1 0xE0 SHL DUP2 MSTORE PUSH1 0x1 PUSH1 0x1 PUSH1 0xA0 SHL SUB SWAP2 DUP3 AND PUSH1 0x4 DUP3 ADD MSTORE PUSH1 0x24 DUP2 ADD DUP4 SWAP1 MSTORE SWAP1 DUP4 AND SWAP1 PUSH4 0xA9059CBB SWAP1 PUSH1 0x44 ADD PUSH1 0x20 PUSH1 0x40 MLOAD DUP1 DUP4 SUB DUP2 PUSH0 DUP8 GAS CALL ISZERO DUP1 ISZERO PUSH2 0xF65 JUMPI RETURNDATASIZE PUSH0 DUP1 RETURNDATACOPY RETURNDATASIZE PUSH0 REVERT JUMPDEST POP POP POP POP PUSH1 0x40 MLOAD RETURNDATASIZE PUSH1 0x1F NOT PUSH1 0x1F DUP3 ADD AND DUP3 ADD DUP1 PUSH1 0x40 MSTORE POP DUP2 ADD SWAP1 PUSH2 0xF89 SWAP2 SWAP1 PUSH2 0x3A06 JUMP JUMPDEST POP POP POP JUMP JUMPDEST PUSH1 0x60 PUSH1 0x16 SLOAD DUP4 GT ISZERO PUSH2 0xFD1 JUMPI PUSH1 0x40 DUP1 MLOAD PUSH0 DUP1 DUP3 MSTORE PUSH1 0x20 DUP3 ADD SWAP1 SWAP3 MSTORE SWAP1 PUSH2 0xA40 JUMP JUMPDEST PUSH2 0xFB7 PUSH2 0x32A0 JUMP JUMPDEST DUP2 MSTORE PUSH1 0x20 ADD SWAP1 PUSH1 0x1 SWAP1 SUB SWAP1 DUP2 PUSH2 0xFAF JUMPI SWAP1 POP POP SWAP1 POP PUSH2 0xBA9 JUMP JUMPDEST DUP3 ISZERO DUP1 ISZERO PUSH2 0xFDD JUMPI POP DUP2 ISZERO JUMPDEST ISZERO PUSH2 0xFE8 JUMPI PUSH1 0x16 SLOAD SWAP2 POP JUMPDEST PUSH1 0x16 SLOAD PUSH2 0xFF5 DUP4 DUP6 PUSH2 0x3907 JUMP JUMPDEST GT ISZERO PUSH2 0x100C JUMPI DUP3 PUSH1 0x16 SLOAD PUSH2 0x1009 SWAP2 SWAP1 PUSH2 0x391A JUMP JUMPDEST SWAP2 POP JUMPDEST PUSH0 DUP3 PUSH1 0x1 PUSH1 0x1 PUSH1 0x40 SHL SUB DUP2 GT ISZERO PUSH2 0x1025 JUMPI PUSH2 0x1025 PUSH2 0x36E9 JUMP JUMPDEST PUSH1 0x40 MLOAD SWAP1 DUP1 DUP3 MSTORE DUP1 PUSH1 0x20 MUL PUSH1 0x20 ADD DUP3 ADD PUSH1 0x40 MSTORE DUP1 ISZERO PUSH2 0x105E JUMPI DUP2 PUSH1 0x20 ADD JUMPDEST PUSH2 0x104B PUSH2 0x32A0 JUMP JUMPDEST DUP2 MSTORE PUSH1 0x20 ADD SWAP1 PUSH1 0x1 SWAP1 SUB SWAP1 DUP2 PUSH2 0x1043 JUMPI SWAP1 POP JUMPDEST POP SWAP1 POP PUSH0 JUMPDEST DUP4 DUP2 LT ISZERO PUSH2 0xBA5 JUMPI PUSH1 0x17 PUSH0 DUP7 DUP4 PUSH1 0x16 SLOAD PUSH2 0x107D SWAP2 SWAP1 PUSH2 0x391A JUMP JUMPDEST PUSH2 0x1087 SWAP2 SWAP1 PUSH2 0x391A JUMP JUMPDEST DUP2 MSTORE PUSH1 0x20 ADD SWAP1 DUP2 MSTORE PUSH1 0x20 ADD PUSH0 KECCAK256 PUSH1 0x40 MLOAD DUP1 PUSH2 0x160 ADD PUSH1 0x40 MSTORE SWAP1 DUP2 PUSH0 DUP3 ADD SLOAD DUP2 MSTORE PUSH1 0x20 ADD PUSH1 0x1 DUP3 ADD PUSH0 SWAP1 SLOAD SWAP1 PUSH2 0x100 EXP SWAP1 DIV PUSH1 0xFF AND PUSH1 0x5 DUP2 GT ISZERO PUSH2 0x10CC JUMPI PUSH2 0x10CC PUSH2 0x34C1 JUMP JUMPDEST PUSH1 0x5 DUP2 GT ISZERO PUSH2 0x10DD JUMPI PUSH2 0x10DD PUSH2 0x34C1 JUMP JUMPDEST DUP2 MSTORE PUSH1 0x20 ADD PUSH1 0x2 DUP3 ADD SLOAD DUP2 MSTORE PUSH1 0x20 ADD PUSH1 0x3 DUP3 ADD SLOAD DUP2 MSTORE PUSH1 0x20 ADD PUSH1 0x4 DUP3 ADD SLOAD DUP2 MSTORE PUSH1 0x20 ADD PUSH1 0x5 DUP3 ADD SLOAD DUP2 MSTORE PUSH1 0x20 ADD PUSH1 0x6 DUP3 ADD SLOAD DUP2 MSTORE PUSH1 0x20 ADD PUSH1 0x7 DUP3 ADD SLOAD DUP2 MSTORE PUSH1 0x20 ADD PUSH1 0x8 DUP3 ADD SLOAD DUP2 MSTORE PUSH1 0x20 ADD PUSH1 0x9 DUP3 ADD SLOAD DUP2 MSTORE PUSH1 0x20 ADD PUSH1 0xA DUP3 ADD SLOAD DUP2 MSTORE POP POP DUP3 DUP3 DUP2 MLOAD DUP2 LT PUSH2 0x114D JUMPI PUSH2 0x114D PUSH2 0x392D JUMP JUMPDEST PUSH1 0x20 SWAP1 DUP2 MUL SWAP2 SWAP1 SWAP2 ADD ADD MSTORE PUSH1 0x1 ADD PUSH2 0x1063 JUMP JUMPDEST PUSH1 0x6 SLOAD PUSH1 0x1 PUSH1 0x1 PUSH1 0xA0 SHL SUB AND CALLER EQ PUSH2 0x118A JUMPI PUSH1 0x40 MLOAD PUSH3 0x461BCD PUSH1 0xE5 SHL DUP2 MSTORE PUSH1 0x4 ADD PUSH2 0x9F6 SWAP1 PUSH2 0x38CF JUMP JUMPDEST PUSH1 0xF SSTORE JUMP JUMPDEST PUSH2 0x1197 PUSH2 0x3131 JUMP JUMPDEST CALLER PUSH0 SWAP1 DUP2 MSTORE PUSH1 0x10 PUSH1 0x20 MSTORE PUSH1 0x40 SWAP1 KECCAK256 PUSH1 0x2 DUP2 ADD SLOAD DUP3 GT ISZERO PUSH2 0x11F9 JUMPI PUSH1 0x40 MLOAD PUSH3 0x461BCD PUSH1 0xE5 SHL DUP2 MSTORE PUSH1 0x20 PUSH1 0x4 DUP3 ADD MSTORE PUSH1 0x1B PUSH1 0x24 DUP3 ADD MSTORE PUSH32 0x4E6F7420656E6F75676874206465706F7369742062616C616E63650000000000 PUSH1 0x44 DUP3 ADD MSTORE PUSH1 0x64 ADD PUSH2 0x9F6 JUMP JUMPDEST PUSH1 0x1 SLOAD PUSH1 0x40 MLOAD PUSH4 0xA9059CBB PUSH1 0xE0 SHL DUP2 MSTORE CALLER PUSH1 0x4 DUP3 ADD MSTORE PUSH1 0x24 DUP2 ADD DUP5 SWAP1 MSTORE PUSH1 0x1 PUSH1 0x1 PUSH1 0xA0 SHL SUB SWAP1 SWAP2 AND SWAP1 PUSH4 0xA9059CBB SWAP1 PUSH1 0x44 ADD PUSH1 0x20 PUSH1 0x40 MLOAD DUP1 DUP4 SUB DUP2 PUSH0 DUP8 GAS CALL ISZERO DUP1 ISZERO PUSH2 0x1247 JUMPI RETURNDATASIZE PUSH0 DUP1 RETURNDATACOPY RETURNDATASIZE PUSH0 REVERT JUMPDEST POP POP POP POP PUSH1 0x40 MLOAD RETURNDATASIZE PUSH1 0x1F NOT PUSH1 0x1F DUP3 ADD AND DUP3 ADD DUP1 PUSH1 0x40 MSTORE POP DUP2 ADD SWAP1 PUSH2 0x126B SWAP2 SWAP1 PUSH2 0x3A06 JUMP JUMPDEST POP DUP2 DUP2 PUSH1 0x2 ADD PUSH0 DUP3 DUP3 SLOAD PUSH2 0x127F SWAP2 SWAP1 PUSH2 0x391A JUMP JUMPDEST SWAP3 POP POP DUP2 SWAP1 SSTORE POP DUP2 PUSH1 0xE PUSH0 DUP3 DUP3 SLOAD PUSH2 0x1297 SWAP2 SWAP1 PUSH2 0x391A JUMP JUMPDEST SWAP1 SWAP2 SSTORE POP POP PUSH1 0x1 PUSH0 SSTORE POP POP JUMP JUMPDEST POP JUMP JUMPDEST PUSH1 0x5 SLOAD PUSH1 0x1 PUSH1 0x1 PUSH1 0xA0 SHL SUB AND CALLER EQ PUSH2 0x12D1 JUMPI PUSH1 0x40 MLOAD PUSH3 0x461BCD PUSH1 0xE5 SHL DUP2 MSTORE PUSH1 0x4 ADD PUSH2 0x9F6 SWAP1 PUSH2 0x3A25 JUMP JUMPDEST PUSH1 0x2 PUSH0 DUP3 DUP2 MSTORE PUSH1 0x17 PUSH1 0x20 MSTORE PUSH1 0x40 SWAP1 KECCAK256 PUSH1 0x1 ADD SLOAD PUSH1 0xFF AND PUSH1 0x5 DUP2 GT ISZERO PUSH2 0x12F8 JUMPI PUSH2 0x12F8 PUSH2 0x34C1 JUMP JUMPDEST EQ PUSH2 0x1333 JUMPI PUSH1 0x40 MLOAD PUSH3 0x461BCD PUSH1 0xE5 SHL DUP2 MSTORE PUSH1 0x20 PUSH1 0x4 DUP3 ADD MSTORE PUSH1 0xB PUSH1 0x24 DUP3 ADD MSTORE PUSH11 0x4E6F742070656E64696E67 PUSH1 0xA8 SHL PUSH1 0x44 DUP3 ADD MSTORE PUSH1 0x64 ADD PUSH2 0x9F6 JUMP JUMPDEST PUSH0 DUP2 DUP2 MSTORE PUSH1 0x17 PUSH1 0x20 SWAP1 DUP2 MSTORE PUSH1 0x40 SWAP2 DUP3 SWAP1 KECCAK256 PUSH1 0x1 DUP2 ADD DUP1 SLOAD PUSH1 0xFF NOT AND PUSH1 0x3 OR SWAP1 SSTORE TIMESTAMP PUSH1 0x2 DUP3 ADD SSTORE PUSH1 0x4 DUP2 ADD SLOAD PUSH1 0x6 SWAP1 SWAP2 ADD SLOAD DUP4 MLOAD DUP6 DUP2 MSTORE SWAP3 DUP4 ADD SWAP2 SWAP1 SWAP2 MSTORE DUP2 DUP4 ADD MSTORE SWAP1 MLOAD PUSH32 0xA359B664A68ACD8839E42112EB50EFF3408165E15074FDE89DDB58A0DB2E691D SWAP2 PUSH1 0x60 SWAP1 DUP3 SWAP1 SUB ADD SWAP1 LOG1 POP JUMP JUMPDEST PUSH1 0x6 SLOAD PUSH1 0x1 PUSH1 0x1 PUSH1 0xA0 SHL SUB AND CALLER EQ PUSH2 0x13CE JUMPI PUSH1 0x40 MLOAD PUSH3 0x461BCD PUSH1 0xE5 SHL DUP2 MSTORE PUSH1 0x4 ADD PUSH2 0x9F6 SWAP1 PUSH2 0x38CF JUMP JUMPDEST PUSH2 0x13D6 PUSH2 0x3131 JUMP JUMPDEST PUSH0 DUP2 GT PUSH2 0x1425 JUMPI PUSH1 0x40 MLOAD PUSH3 0x461BCD PUSH1 0xE5 SHL DUP2 MSTORE PUSH1 0x20 PUSH1 0x4 DUP3 ADD MSTORE PUSH1 0x1D PUSH1 0x24 DUP3 ADD MSTORE PUSH32 0x416D6F756E74206D7573742062652067726561746572207468616E2030000000 PUSH1 0x44 DUP3 ADD MSTORE PUSH1 0x64 ADD PUSH2 0x9F6 JUMP JUMPDEST PUSH1 0x1 SLOAD PUSH1 0x40 MLOAD PUSH4 0x23B872DD PUSH1 0xE0 SHL DUP2 MSTORE CALLER PUSH1 0x4 DUP3 ADD MSTORE ADDRESS PUSH1 0x24 DUP3 ADD MSTORE PUSH1 0x44 DUP2 ADD DUP4 SWAP1 MSTORE PUSH1 0x1 PUSH1 0x1 PUSH1 0xA0 SHL SUB SWAP1 SWAP2 AND SWAP1 PUSH4 0x23B872DD SWAP1 PUSH1 0x64 ADD PUSH1 0x20 PUSH1 0x40 MLOAD DUP1 DUP4 SUB DUP2 PUSH0 DUP8 GAS CALL ISZERO DUP1 ISZERO PUSH2 0x1479 JUMPI RETURNDATASIZE PUSH0 DUP1 RETURNDATACOPY RETURNDATASIZE PUSH0 REVERT JUMPDEST POP POP POP POP PUSH1 0x40 MLOAD RETURNDATASIZE PUSH1 0x1F NOT PUSH1 0x1F DUP3 ADD AND DUP3 ADD DUP1 PUSH1 0x40 MSTORE POP DUP2 ADD SWAP1 PUSH2 0x149D SWAP2 SWAP1 PUSH2 0x3A06 JUMP JUMPDEST POP DUP1 PUSH1 0x8 PUSH0 DUP3 DUP3 SLOAD PUSH2 0x14AF SWAP2 SWAP1 PUSH2 0x3907 JUMP JUMPDEST SWAP1 SWAP2 SSTORE POP POP PUSH1 0x1 PUSH0 SSTORE POP JUMP JUMPDEST PUSH1 0x6 SLOAD PUSH1 0x1 PUSH1 0x1 PUSH1 0xA0 SHL SUB AND CALLER EQ PUSH2 0x14E5 JUMPI PUSH1 0x40 MLOAD PUSH3 0x461BCD PUSH1 0xE5 SHL DUP2 MSTORE PUSH1 0x4 ADD PUSH2 0x9F6 SWAP1 PUSH2 0x38CF JUMP JUMPDEST PUSH1 0x5 DUP1 SLOAD PUSH1 0x1 PUSH1 0x1 PUSH1 0xA0 SHL SUB NOT AND PUSH1 0x1 PUSH1 0x1 PUSH1 0xA0 SHL SUB SWAP3 SWAP1 SWAP3 AND SWAP2 SWAP1 SWAP2 OR SWAP1 SSTORE JUMP JUMPDEST PUSH2 0x150F PUSH2 0x3131 JUMP JUMPDEST PUSH1 0x6 SLOAD PUSH1 0x1 PUSH1 0x1 PUSH1 0xA0 SHL SUB AND CALLER EQ DUP1 PUSH2 0x1532 JUMPI POP PUSH1 0x5 SLOAD PUSH1 0x1 PUSH1 0x1 PUSH1 0xA0 SHL SUB AND CALLER EQ JUMPDEST PUSH2 0x1575 JUMPI PUSH1 0x40 MLOAD PUSH3 0x461BCD PUSH1 0xE5 SHL DUP2 MSTORE PUSH1 0x20 PUSH1 0x4 DUP3 ADD MSTORE PUSH1 0x14 PUSH1 0x24 DUP3 ADD MSTORE PUSH20 0x4F6E6C79206F776E6572206F72206F7261636C65 PUSH1 0x60 SHL PUSH1 0x44 DUP3 ADD MSTORE PUSH1 0x64 ADD PUSH2 0x9F6 JUMP JUMPDEST PUSH1 0x2 PUSH0 DUP3 DUP2 MSTORE PUSH1 0x17 PUSH1 0x20 MSTORE PUSH1 0x40 SWAP1 KECCAK256 PUSH1 0x1 ADD SLOAD PUSH1 0xFF AND PUSH1 0x5 DUP2 GT ISZERO PUSH2 0x159C JUMPI PUSH2 0x159C PUSH2 0x34C1 JUMP JUMPDEST EQ DUP1 PUSH2 0x15CC JUMPI POP PUSH1 0x3 PUSH0 DUP3 DUP2 MSTORE PUSH1 0x17 PUSH1 0x20 MSTORE PUSH1 0x40 SWAP1 KECCAK256 PUSH1 0x1 ADD SLOAD PUSH1 0xFF AND PUSH1 0x5 DUP2 GT ISZERO PUSH2 0x15CA JUMPI PUSH2 0x15CA PUSH2 0x34C1 JUMP JUMPDEST EQ JUMPDEST PUSH2 0x160D JUMPI PUSH1 0x40 MLOAD PUSH3 0x461BCD PUSH1 0xE5 SHL DUP2 MSTORE PUSH1 0x20 PUSH1 0x4 DUP3 ADD MSTORE PUSH1 0x12 PUSH1 0x24 DUP3 ADD MSTORE PUSH18 0x2737BA103832B73234B7339037B910393AB7 PUSH1 0x71 SHL PUSH1 0x44 DUP3 ADD MSTORE PUSH1 0x64 ADD PUSH2 0x9F6 JUMP JUMPDEST PUSH0 DUP2 DUP2 MSTORE PUSH1 0x17 PUSH1 0x20 MSTORE PUSH1 0x40 DUP2 KECCAK256 PUSH1 0x1 DUP2 ADD DUP1 SLOAD PUSH1 0xFF NOT AND PUSH1 0x5 OR SWAP1 SSTORE TIMESTAMP PUSH1 0x3 SWAP1 SWAP2 ADD SSTORE JUMPDEST PUSH0 DUP3 DUP2 MSTORE PUSH1 0x17 PUSH1 0x20 MSTORE PUSH1 0x40 SWAP1 KECCAK256 PUSH1 0x4 ADD SLOAD DUP2 LT ISZERO PUSH2 0x1719 JUMPI PUSH0 DUP3 DUP2 MSTORE PUSH1 0x18 PUSH1 0x20 SWAP1 DUP2 MSTORE PUSH1 0x40 DUP1 DUP4 KECCAK256 DUP5 DUP5 MSTORE DUP1 DUP4 MSTORE DUP2 DUP5 KECCAK256 DUP1 SLOAD DUP6 MSTORE PUSH1 0x12 DUP5 MSTORE DUP3 DUP6 KECCAK256 SLOAD PUSH1 0x1 PUSH1 0x1 PUSH1 0xA0 SHL SUB AND DUP6 MSTORE PUSH1 0x10 DUP5 MSTORE SWAP2 DUP5 KECCAK256 DUP6 DUP6 MSTORE SWAP3 MSTORE PUSH1 0x1 ADD SLOAD PUSH1 0x2 DUP3 ADD DUP1 SLOAD SWAP3 SWAP4 SWAP2 SWAP3 SWAP1 SWAP2 SWAP1 PUSH2 0x16A1 SWAP1 DUP5 SWAP1 PUSH2 0x3907 JUMP JUMPDEST SWAP1 SWAP2 SSTORE POP POP PUSH0 DUP4 DUP2 MSTORE PUSH1 0x18 PUSH1 0x20 SWAP1 DUP2 MSTORE PUSH1 0x40 DUP1 DUP4 KECCAK256 DUP6 DUP5 MSTORE SWAP1 SWAP2 MSTORE DUP2 KECCAK256 PUSH1 0x1 ADD SLOAD PUSH1 0x3 DUP4 ADD DUP1 SLOAD SWAP2 SWAP3 SWAP1 SWAP2 PUSH2 0x16D7 SWAP1 DUP5 SWAP1 PUSH2 0x391A JUMP JUMPDEST SWAP1 SWAP2 SSTORE POP POP PUSH0 DUP4 DUP2 MSTORE PUSH1 0x18 PUSH1 0x20 SWAP1 DUP2 MSTORE PUSH1 0x40 DUP1 DUP4 KECCAK256 DUP6 DUP5 MSTORE SWAP1 SWAP2 MSTORE DUP2 KECCAK256 PUSH1 0x1 ADD SLOAD PUSH1 0xE DUP1 SLOAD SWAP2 SWAP3 SWAP1 SWAP2 PUSH2 0x170B SWAP1 DUP5 SWAP1 PUSH2 0x3907 JUMP JUMPDEST SWAP1 SWAP2 SSTORE POP POP POP PUSH1 0x1 ADD PUSH2 0x1631 JUMP JUMPDEST POP PUSH1 0x40 MLOAD DUP2 DUP2 MSTORE PUSH32 0xFCAA91C5F18DB2A6C2F172BBCD4A3C8A2F06BBEFAF847B579A6DF431B77BB745 SWAP1 PUSH1 0x20 ADD PUSH1 0x40 MLOAD DUP1 SWAP2 SUB SWAP1 LOG1 PUSH2 0x12A4 PUSH1 0x1 PUSH0 SSTORE JUMP JUMPDEST PUSH0 PUSH1 0x16 SLOAD PUSH1 0x1 PUSH2 0x1766 SWAP2 SWAP1 PUSH2 0x3907 JUMP JUMPDEST SWAP1 POP SWAP1 JUMP JUMPDEST PUSH1 0x6 SLOAD PUSH1 0x1 PUSH1 0x1 PUSH1 0xA0 SHL SUB AND CALLER EQ PUSH2 0x1795 JUMPI PUSH1 0x40 MLOAD PUSH3 0x461BCD PUSH1 0xE5 SHL DUP2 MSTORE PUSH1 0x4 ADD PUSH2 0x9F6 SWAP1 PUSH2 0x38CF JUMP JUMPDEST PUSH2 0x179D PUSH2 0x3131 JUMP JUMPDEST PUSH1 0x9 SLOAD DUP2 GT ISZERO PUSH2 0x17DD JUMPI PUSH1 0x40 MLOAD PUSH3 0x461BCD PUSH1 0xE5 SHL DUP2 MSTORE PUSH1 0x20 PUSH1 0x4 DUP3 ADD MSTORE PUSH1 0xB PUSH1 0x24 DUP3 ADD MSTORE PUSH11 0x139BDD08195B9BDD59DA1D PUSH1 0xAA SHL PUSH1 0x44 DUP3 ADD MSTORE PUSH1 0x64 ADD PUSH2 0x9F6 JUMP JUMPDEST PUSH1 0x1 SLOAD PUSH1 0x40 MLOAD PUSH4 0x23B872DD PUSH1 0xE0 SHL DUP2 MSTORE CALLER PUSH1 0x4 DUP3 ADD MSTORE ADDRESS PUSH1 0x24 DUP3 ADD MSTORE PUSH1 0x44 DUP2 ADD DUP4 SWAP1 MSTORE PUSH1 0x1 PUSH1 0x1 PUSH1 0xA0 SHL SUB SWAP1 SWAP2 AND SWAP1 PUSH4 0x23B872DD SWAP1 PUSH1 0x64 ADD PUSH1 0x20 PUSH1 0x40 MLOAD DUP1 DUP4 SUB DUP2 PUSH0 DUP8 GAS CALL ISZERO DUP1 ISZERO PUSH2 0x1831 JUMPI RETURNDATASIZE PUSH0 DUP1 RETURNDATACOPY RETURNDATASIZE PUSH0 REVERT JUMPDEST POP POP POP POP PUSH1 0x40 MLOAD RETURNDATASIZE PUSH1 0x1F NOT PUSH1 0x1F DUP3 ADD AND DUP3 ADD DUP1 PUSH1 0x40 MSTORE POP DUP2 ADD SWAP1 PUSH2 0x1855 SWAP2 SWAP1 PUSH2 0x3A06 JUMP JUMPDEST POP DUP1 PUSH1 0x9 PUSH0 DUP3 DUP3 SLOAD PUSH2 0x1867 SWAP2 SWAP1 PUSH2 0x391A JUMP JUMPDEST SWAP3 POP POP DUP2 SWAP1 SSTORE POP DUP1 PUSH1 0x8 PUSH0 DUP3 DUP3 SLOAD PUSH2 0x14AF SWAP2 SWAP1 PUSH2 0x3907 JUMP JUMPDEST PUSH1 0x6 SLOAD PUSH1 0x1 PUSH1 0x1 PUSH1 0xA0 SHL SUB AND CALLER EQ PUSH2 0x18A9 JUMPI PUSH1 0x40 MLOAD PUSH3 0x461BCD PUSH1 0xE5 SHL DUP2 MSTORE PUSH1 0x4 ADD PUSH2 0x9F6 SWAP1 PUSH2 0x38CF JUMP JUMPDEST PUSH1 0x15 SSTORE JUMP JUMPDEST PUSH1 0x6 SLOAD PUSH1 0x1 PUSH1 0x1 PUSH1 0xA0 SHL SUB AND CALLER EQ PUSH2 0x18D8 JUMPI PUSH1 0x40 MLOAD PUSH3 0x461BCD PUSH1 0xE5 SHL DUP2 MSTORE PUSH1 0x4 ADD PUSH2 0x9F6 SWAP1 PUSH2 0x38CF JUMP JUMPDEST PUSH1 0x14 SSTORE JUMP JUMPDEST PUSH0 DUP1 DUP5 DUP4 PUSH1 0x40 MLOAD PUSH1 0x20 ADD PUSH2 0x18FB SWAP3 SWAP2 SWAP1 SWAP2 DUP3 MSTORE PUSH1 0x20 DUP3 ADD MSTORE PUSH1 0x40 ADD SWAP1 JUMP JUMPDEST PUSH1 0x40 DUP1 MLOAD PUSH1 0x1F NOT DUP2 DUP5 SUB ADD DUP2 MSTORE SWAP2 SWAP1 MSTORE DUP1 MLOAD PUSH1 0x20 SWAP1 SWAP2 ADD KECCAK256 DUP5 EQ SWAP2 POP POP SWAP4 SWAP3 POP POP POP JUMP JUMPDEST PUSH1 0x6 SLOAD PUSH1 0x1 PUSH1 0x1 PUSH1 0xA0 SHL SUB AND CALLER EQ PUSH2 0x1949 JUMPI PUSH1 0x40 MLOAD PUSH3 0x461BCD PUSH1 0xE5 SHL DUP2 MSTORE PUSH1 0x4 ADD PUSH2 0x9F6 SWAP1 PUSH2 0x38CF JUMP JUMPDEST PUSH1 0x2 SSTORE JUMP JUMPDEST PUSH1 0x60 DUP1 PUSH1 0x60 DUP1 PUSH1 0x17 PUSH0 DUP9 DUP2 MSTORE PUSH1 0x20 ADD SWAP1 DUP2 MSTORE PUSH1 0x20 ADD PUSH0 KECCAK256 PUSH1 0x4 ADD SLOAD DUP7 GT ISZERO PUSH2 0x19CB JUMPI PUSH1 0x40 DUP1 MLOAD PUSH0 DUP1 DUP3 MSTORE PUSH1 0x20 DUP3 ADD SWAP1 SWAP3 MSTORE SWAP1 PUSH2 0x19A0 JUMP JUMPDEST PUSH2 0x198D PUSH2 0x3261 JUMP JUMPDEST DUP2 MSTORE PUSH1 0x20 ADD SWAP1 PUSH1 0x1 SWAP1 SUB SWAP1 DUP2 PUSH2 0x1985 JUMPI SWAP1 POP JUMPDEST POP PUSH1 0x40 DUP1 MLOAD PUSH0 DUP1 DUP3 MSTORE PUSH1 0x20 DUP3 ADD DUP2 DUP2 MSTORE DUP3 DUP5 ADD SWAP2 DUP3 MSTORE PUSH1 0x60 DUP4 ADD SWAP1 SWAP4 MSTORE SWAP3 SWAP7 POP SWAP5 POP SWAP3 POP SWAP1 POP PUSH2 0x1D2C JUMP JUMPDEST DUP6 ISZERO DUP1 ISZERO PUSH2 0x19D7 JUMPI POP DUP5 ISZERO JUMPDEST ISZERO PUSH2 0x19F0 JUMPI PUSH0 DUP8 DUP2 MSTORE PUSH1 0x17 PUSH1 0x20 MSTORE PUSH1 0x40 SWAP1 KECCAK256 PUSH1 0x4 ADD SLOAD SWAP5 POP JUMPDEST PUSH0 DUP8 DUP2 MSTORE PUSH1 0x17 PUSH1 0x20 MSTORE PUSH1 0x40 SWAP1 KECCAK256 PUSH1 0x4 ADD SLOAD PUSH2 0x1A0B DUP7 DUP9 PUSH2 0x3907 JUMP JUMPDEST GT ISZERO PUSH2 0x1A30 JUMPI PUSH0 DUP8 DUP2 MSTORE PUSH1 0x17 PUSH1 0x20 MSTORE PUSH1 0x40 SWAP1 KECCAK256 PUSH1 0x4 ADD SLOAD PUSH2 0x1A2D SWAP1 DUP8 SWAP1 PUSH2 0x391A JUMP JUMPDEST SWAP5 POP JUMPDEST DUP5 PUSH1 0x1 PUSH1 0x1 PUSH1 0x40 SHL SUB DUP2 GT ISZERO PUSH2 0x1A48 JUMPI PUSH2 0x1A48 PUSH2 0x36E9 JUMP JUMPDEST PUSH1 0x40 MLOAD SWAP1 DUP1 DUP3 MSTORE DUP1 PUSH1 0x20 MUL PUSH1 0x20 ADD DUP3 ADD PUSH1 0x40 MSTORE DUP1 ISZERO PUSH2 0x1A81 JUMPI DUP2 PUSH1 0x20 ADD JUMPDEST PUSH2 0x1A6E PUSH2 0x3261 JUMP JUMPDEST DUP2 MSTORE PUSH1 0x20 ADD SWAP1 PUSH1 0x1 SWAP1 SUB SWAP1 DUP2 PUSH2 0x1A66 JUMPI SWAP1 POP JUMPDEST POP SWAP4 POP DUP5 PUSH1 0x1 PUSH1 0x1 PUSH1 0x40 SHL SUB DUP2 GT ISZERO PUSH2 0x1A9C JUMPI PUSH2 0x1A9C PUSH2 0x36E9 JUMP JUMPDEST PUSH1 0x40 MLOAD SWAP1 DUP1 DUP3 MSTORE DUP1 PUSH1 0x20 MUL PUSH1 0x20 ADD DUP3 ADD PUSH1 0x40 MSTORE DUP1 ISZERO PUSH2 0x1AC5 JUMPI DUP2 PUSH1 0x20 ADD PUSH1 0x20 DUP3 MUL DUP1 CALLDATASIZE DUP4 CALLDATACOPY ADD SWAP1 POP JUMPDEST POP SWAP3 POP DUP5 PUSH1 0x1 PUSH1 0x1 PUSH1 0x40 SHL SUB DUP2 GT ISZERO PUSH2 0x1AE0 JUMPI PUSH2 0x1AE0 PUSH2 0x36E9 JUMP JUMPDEST PUSH1 0x40 MLOAD SWAP1 DUP1 DUP3 MSTORE DUP1 PUSH1 0x20 MUL PUSH1 0x20 ADD DUP3 ADD PUSH1 0x40 MSTORE DUP1 ISZERO PUSH2 0x1B09 JUMPI DUP2 PUSH1 0x20 ADD PUSH1 0x20 DUP3 MUL DUP1 CALLDATASIZE DUP4 CALLDATACOPY ADD SWAP1 POP JUMPDEST POP SWAP1 POP PUSH0 JUMPDEST DUP6 DUP2 LT ISZERO PUSH2 0x1D2A JUMPI PUSH0 DUP9 DUP2 MSTORE PUSH1 0x17 PUSH1 0x20 MSTORE PUSH1 0x40 DUP2 KECCAK256 PUSH1 0x4 ADD SLOAD PUSH1 0x1 SWAP1 DUP10 SWAP1 PUSH2 0x1B37 SWAP1 DUP6 SWAP1 PUSH2 0x391A JUMP JUMPDEST PUSH2 0x1B41 SWAP2 SWAP1 PUSH2 0x391A JUMP JUMPDEST PUSH2 0x1B4B SWAP2 SWAP1 PUSH2 0x391A JUMP JUMPDEST PUSH0 DUP11 DUP2 MSTORE PUSH1 0x18 PUSH1 0x20 SWAP1 DUP2 MSTORE PUSH1 0x40 DUP1 DUP4 KECCAK256 DUP5 DUP5 MSTORE DUP3 MSTORE DUP1 DUP4 KECCAK256 SLOAD DUP4 MSTORE PUSH1 0x12 DUP3 MSTORE DUP1 DUP4 KECCAK256 SLOAD PUSH1 0x1 PUSH1 0x1 PUSH1 0xA0 SHL SUB SWAP1 DUP2 AND DUP5 MSTORE PUSH1 0x10 DUP4 MSTORE SWAP3 DUP2 SWAP1 KECCAK256 DUP2 MLOAD PUSH1 0xE0 DUP2 ADD DUP4 MSTORE DUP2 SLOAD SWAP1 SWAP5 AND DUP5 MSTORE PUSH1 0x1 DUP2 ADD SLOAD SWAP3 DUP5 ADD SWAP3 SWAP1 SWAP3 MSTORE PUSH1 0x2 DUP3 ADD SLOAD SWAP1 DUP4 ADD MSTORE PUSH1 0x3 DUP2 ADD SLOAD PUSH1 0x60 DUP4 ADD MSTORE PUSH1 0x4 DUP2 ADD SLOAD PUSH1 0x80 DUP4 ADD MSTORE PUSH1 0x5 DUP2 ADD SLOAD PUSH1 0xA0 DUP4 ADD MSTORE PUSH1 0x6 ADD SLOAD PUSH1 0xC0 DUP3 ADD MSTORE DUP8 MLOAD SWAP2 SWAP3 POP SWAP1 DUP2 SWAP1 DUP9 SWAP1 DUP6 SWAP1 DUP2 LT PUSH2 0x1BE8 JUMPI PUSH2 0x1BE8 PUSH2 0x392D JUMP JUMPDEST PUSH1 0x20 SWAP1 DUP2 MUL SWAP2 SWAP1 SWAP2 ADD DUP2 ADD SWAP2 SWAP1 SWAP2 MSTORE PUSH0 DUP12 DUP2 MSTORE PUSH1 0x18 DUP3 MSTORE PUSH1 0x40 DUP1 DUP3 KECCAK256 DUP6 DUP4 MSTORE SWAP1 SWAP3 MSTORE KECCAK256 PUSH1 0x1 ADD SLOAD DUP7 MLOAD DUP8 SWAP1 DUP6 SWAP1 DUP2 LT PUSH2 0x1C23 JUMPI PUSH2 0x1C23 PUSH2 0x392D JUMP JUMPDEST PUSH1 0x20 SWAP1 DUP2 MUL SWAP2 SWAP1 SWAP2 ADD DUP2 ADD SWAP2 SWAP1 SWAP2 MSTORE PUSH0 DUP12 DUP2 MSTORE PUSH1 0x1D DUP3 MSTORE PUSH1 0x40 DUP1 DUP3 KECCAK256 DUP5 DUP5 ADD MLOAD DUP4 MSTORE SWAP1 SWAP3 MSTORE KECCAK256 SLOAD PUSH1 0xFF AND ISZERO PUSH2 0x1D20 JUMPI PUSH0 DUP11 DUP2 MSTORE PUSH1 0x1B PUSH1 0x20 SWAP1 DUP2 MSTORE PUSH1 0x40 DUP1 DUP4 KECCAK256 PUSH1 0x1C DUP4 MSTORE DUP2 DUP5 KECCAK256 DUP6 DUP5 ADD MLOAD DUP6 MSTORE DUP4 MSTORE DUP2 DUP5 KECCAK256 SLOAD DUP5 MSTORE SWAP1 SWAP2 MSTORE SWAP1 KECCAK256 PUSH1 0x1 ADD SLOAD DUP6 MLOAD DUP7 SWAP1 DUP6 SWAP1 DUP2 LT PUSH2 0x1C94 JUMPI PUSH2 0x1C94 PUSH2 0x392D JUMP JUMPDEST PUSH1 0x20 SWAP1 DUP2 MUL SWAP2 SWAP1 SWAP2 ADD DUP2 ADD SWAP2 SWAP1 SWAP2 MSTORE PUSH0 DUP12 DUP2 MSTORE PUSH1 0x1B DUP3 MSTORE PUSH1 0x40 DUP1 DUP3 KECCAK256 PUSH1 0x1C DUP5 MSTORE DUP2 DUP4 KECCAK256 DUP6 DUP6 ADD MLOAD DUP5 MSTORE DUP5 MSTORE DUP2 DUP4 KECCAK256 SLOAD DUP4 MSTORE DUP4 MSTORE DUP1 DUP3 KECCAK256 PUSH1 0x1 SWAP1 DUP2 ADD SLOAD DUP15 DUP5 MSTORE PUSH1 0x18 DUP6 MSTORE DUP3 DUP5 KECCAK256 DUP8 DUP6 MSTORE SWAP1 SWAP5 MSTORE SWAP2 KECCAK256 ADD SLOAD PUSH8 0xDE0B6B3A7640000 SWAP2 PUSH2 0x1CF7 SWAP2 PUSH2 0x3A4A JUMP JUMPDEST PUSH2 0x1D01 SWAP2 SWAP1 PUSH2 0x3A61 JUMP JUMPDEST DUP5 DUP5 DUP2 MLOAD DUP2 LT PUSH2 0x1D13 JUMPI PUSH2 0x1D13 PUSH2 0x392D JUMP JUMPDEST PUSH1 0x20 MUL PUSH1 0x20 ADD ADD DUP2 DUP2 MSTORE POP POP JUMPDEST POP POP PUSH1 0x1 ADD PUSH2 0x1B0E JUMP JUMPDEST POP JUMPDEST SWAP4 POP SWAP4 POP SWAP4 POP SWAP4 JUMP JUMPDEST PUSH1 0x6 SLOAD PUSH1 0x1 PUSH1 0x1 PUSH1 0xA0 SHL SUB AND CALLER EQ PUSH2 0x1D5F JUMPI PUSH1 0x40 MLOAD PUSH3 0x461BCD PUSH1 0xE5 SHL DUP2 MSTORE PUSH1 0x4 ADD PUSH2 0x9F6 SWAP1 PUSH2 0x38CF JUMP JUMPDEST PUSH1 0x4 SSTORE JUMP JUMPDEST PUSH2 0x1D6C PUSH2 0x3131 JUMP JUMPDEST PUSH0 DUP2 GT PUSH2 0x1DBB JUMPI PUSH1 0x40 MLOAD PUSH3 0x461BCD PUSH1 0xE5 SHL DUP2 MSTORE PUSH1 0x20 PUSH1 0x4 DUP3 ADD MSTORE PUSH1 0x1D PUSH1 0x24 DUP3 ADD MSTORE PUSH32 0x416D6F756E74206D7573742062652067726561746572207468616E2030000000 PUSH1 0x44 DUP3 ADD MSTORE PUSH1 0x64 ADD PUSH2 0x9F6 JUMP JUMPDEST PUSH1 0x1 SLOAD PUSH1 0x40 MLOAD PUSH4 0x23B872DD PUSH1 0xE0 SHL DUP2 MSTORE CALLER PUSH1 0x4 DUP3 ADD MSTORE ADDRESS PUSH1 0x24 DUP3 ADD MSTORE PUSH1 0x44 DUP2 ADD DUP4 SWAP1 MSTORE PUSH1 0x1 PUSH1 0x1 PUSH1 0xA0 SHL SUB SWAP1 SWAP2 AND SWAP1 PUSH4 0x23B872DD SWAP1 PUSH1 0x64 ADD PUSH1 0x20 PUSH1 0x40 MLOAD DUP1 DUP4 SUB DUP2 PUSH0 DUP8 GAS CALL ISZERO DUP1 ISZERO PUSH2 0x1E0F JUMPI RETURNDATASIZE PUSH0 DUP1 RETURNDATACOPY RETURNDATASIZE PUSH0 REVERT JUMPDEST POP POP POP POP PUSH1 0x40 MLOAD RETURNDATASIZE PUSH1 0x1F NOT PUSH1 0x1F DUP3 ADD AND DUP3 ADD DUP1 PUSH1 0x40 MSTORE POP DUP2 ADD SWAP1 PUSH2 0x1E33 SWAP2 SWAP1 PUSH2 0x3A06 JUMP JUMPDEST POP PUSH2 0x1E3D CALLER PUSH2 0x3188 JUMP JUMPDEST CALLER PUSH0 SWAP1 DUP2 MSTORE PUSH1 0x10 PUSH1 0x20 MSTORE PUSH1 0x40 DUP2 KECCAK256 PUSH1 0x2 DUP2 ADD DUP1 SLOAD SWAP2 SWAP3 DUP5 SWAP3 PUSH2 0x1E60 SWAP1 DUP5 SWAP1 PUSH2 0x3907 JUMP JUMPDEST SWAP3 POP POP DUP2 SWAP1 SSTORE POP DUP2 PUSH1 0xE PUSH0 DUP3 DUP3 SLOAD PUSH2 0x1297 SWAP2 SWAP1 PUSH2 0x3907 JUMP JUMPDEST PUSH1 0x6 SLOAD PUSH1 0x1 PUSH1 0x1 PUSH1 0xA0 SHL SUB AND CALLER EQ PUSH2 0x1EA2 JUMPI PUSH1 0x40 MLOAD PUSH3 0x461BCD PUSH1 0xE5 SHL DUP2 MSTORE PUSH1 0x4 ADD PUSH2 0x9F6 SWAP1 PUSH2 0x38CF JUMP JUMPDEST PUSH2 0x1EAA PUSH2 0x3131 JUMP JUMPDEST PUSH1 0x8 SLOAD DUP2 GT ISZERO PUSH2 0x1EF1 JUMPI PUSH1 0x40 MLOAD PUSH3 0x461BCD PUSH1 0xE5 SHL DUP2 MSTORE PUSH1 0x20 PUSH1 0x4 DUP3 ADD MSTORE PUSH1 0x12 PUSH1 0x24 DUP3 ADD MSTORE PUSH18 0x4E6F7420656E6F75746820696E2062616E6B PUSH1 0x70 SHL PUSH1 0x44 DUP3 ADD MSTORE PUSH1 0x64 ADD PUSH2 0x9F6 JUMP JUMPDEST PUSH1 0x1 SLOAD PUSH1 0x40 MLOAD PUSH4 0xA9059CBB PUSH1 0xE0 SHL DUP2 MSTORE CALLER PUSH1 0x4 DUP3 ADD MSTORE PUSH1 0x24 DUP2 ADD DUP4 SWAP1 MSTORE PUSH1 0x1 PUSH1 0x1 PUSH1 0xA0 SHL SUB SWAP1 SWAP2 AND SWAP1 PUSH4 0xA9059CBB SWAP1 PUSH1 0x44 ADD PUSH1 0x20 PUSH1 0x40 MLOAD DUP1 DUP4 SUB DUP2 PUSH0 DUP8 GAS CALL ISZERO DUP1 ISZERO PUSH2 0x1F3F JUMPI RETURNDATASIZE PUSH0 DUP1 RETURNDATACOPY RETURNDATASIZE PUSH0 REVERT JUMPDEST POP POP POP POP PUSH1 0x40 MLOAD RETURNDATASIZE PUSH1 0x1F NOT PUSH1 0x1F DUP3 ADD AND DUP3 ADD DUP1 PUSH1 0x40 MSTORE POP DUP2 ADD SWAP1 PUSH2 0x1F63 SWAP2 SWAP1 PUSH2 0x3A06 JUMP JUMPDEST POP DUP1 PUSH1 0x8 PUSH0 DUP3 DUP3 SLOAD PUSH2 0x14AF SWAP2 SWAP1 PUSH2 0x391A JUMP JUMPDEST PUSH1 0x5 SLOAD PUSH1 0x1 PUSH1 0x1 PUSH1 0xA0 SHL SUB AND CALLER EQ PUSH2 0x1F9F JUMPI PUSH1 0x40 MLOAD PUSH3 0x461BCD PUSH1 0xE5 SHL DUP2 MSTORE PUSH1 0x4 ADD PUSH2 0x9F6 SWAP1 PUSH2 0x3A25 JUMP JUMPDEST PUSH1 0x16 SLOAD PUSH0 SWAP1 DUP2 MSTORE PUSH1 0x17 PUSH1 0x20 MSTORE PUSH1 0x40 DUP2 KECCAK256 PUSH1 0x1 ADD SLOAD PUSH1 0xFF AND PUSH1 0x5 DUP2 GT ISZERO PUSH2 0x1FC7 JUMPI PUSH2 0x1FC7 PUSH2 0x34C1 JUMP JUMPDEST EQ DUP1 PUSH2 0x1FFA JUMPI POP PUSH1 0x4 PUSH1 0x16 SLOAD PUSH0 SWAP1 DUP2 MSTORE PUSH1 0x17 PUSH1 0x20 MSTORE PUSH1 0x40 SWAP1 KECCAK256 PUSH1 0x1 ADD SLOAD PUSH1 0xFF AND PUSH1 0x5 DUP2 GT ISZERO PUSH2 0x1FF8 JUMPI PUSH2 0x1FF8 PUSH2 0x34C1 JUMP JUMPDEST EQ JUMPDEST DUP1 PUSH2 0x202C JUMPI POP PUSH1 0x5 PUSH1 0x16 SLOAD PUSH0 SWAP1 DUP2 MSTORE PUSH1 0x17 PUSH1 0x20 MSTORE PUSH1 0x40 SWAP1 KECCAK256 PUSH1 0x1 ADD SLOAD PUSH1 0xFF AND PUSH1 0x5 DUP2 GT ISZERO PUSH2 0x202A JUMPI PUSH2 0x202A PUSH2 0x34C1 JUMP JUMPDEST EQ JUMPDEST PUSH2 0x2070 JUMPI PUSH1 0x40 MLOAD PUSH3 0x461BCD PUSH1 0xE5 SHL DUP2 MSTORE PUSH1 0x20 PUSH1 0x4 DUP3 ADD MSTORE PUSH1 0x15 PUSH1 0x24 DUP3 ADD MSTORE PUSH21 0x141C995D881C9BDD5B99081B9BDD0818DB1BDCD959 PUSH1 0x5A SHL PUSH1 0x44 DUP3 ADD MSTORE PUSH1 0x64 ADD PUSH2 0x9F6 JUMP JUMPDEST PUSH0 DUP2 DUP2 MSTORE PUSH1 0x1E PUSH1 0x20 MSTORE PUSH1 0x40 SWAP1 KECCAK256 SLOAD PUSH1 0xFF AND ISZERO PUSH2 0x20C2 JUMPI PUSH1 0x40 MLOAD PUSH3 0x461BCD PUSH1 0xE5 SHL DUP2 MSTORE PUSH1 0x20 PUSH1 0x4 DUP3 ADD MSTORE PUSH1 0x11 PUSH1 0x24 DUP3 ADD MSTORE PUSH17 0x12185CDA08185B1C9958591E481D5CD959 PUSH1 0x7A SHL PUSH1 0x44 DUP3 ADD MSTORE PUSH1 0x64 ADD PUSH2 0x9F6 JUMP JUMPDEST PUSH0 DUP2 DUP2 MSTORE PUSH1 0x1E PUSH1 0x20 MSTORE PUSH1 0x40 DUP2 KECCAK256 DUP1 SLOAD PUSH1 0xFF NOT AND PUSH1 0x1 OR SWAP1 SSTORE PUSH1 0x16 DUP1 SLOAD SWAP2 PUSH2 0x20E8 DUP4 PUSH2 0x3A80 JUMP JUMPDEST SWAP1 SWAP2 SSTORE POP POP PUSH1 0x16 SLOAD PUSH0 DUP2 DUP2 MSTORE PUSH1 0x17 PUSH1 0x20 DUP2 DUP2 MSTORE PUSH1 0x40 DUP1 DUP5 KECCAK256 DUP2 MLOAD PUSH2 0x160 DUP2 ADD DUP4 MSTORE DUP7 DUP2 MSTORE PUSH1 0x2 DUP2 DUP6 ADD SWAP1 DUP2 MSTORE TIMESTAMP SWAP4 DUP3 ADD SWAP4 SWAP1 SWAP4 MSTORE PUSH1 0x60 DUP2 ADD DUP7 SWAP1 MSTORE PUSH1 0x4 DUP3 ADD SLOAD PUSH1 0x80 DUP3 ADD MSTORE PUSH1 0xA0 DUP2 ADD DUP7 SWAP1 MSTORE PUSH1 0x6 DUP3 ADD SLOAD PUSH1 0xC0 DUP3 ADD MSTORE PUSH1 0xE0 DUP2 ADD DUP7 SWAP1 MSTORE PUSH2 0x100 DUP2 ADD DUP7 SWAP1 MSTORE PUSH2 0x120 DUP2 ADD DUP9 SWAP1 MSTORE PUSH2 0x140 DUP2 ADD DUP7 SWAP1 MSTORE SWAP5 DUP7 SWAP1 MSTORE SWAP3 SWAP1 SWAP2 MSTORE DUP3 MLOAD DUP3 SSTORE MLOAD PUSH1 0x1 DUP1 DUP4 ADD DUP1 SLOAD SWAP4 SWAP5 SWAP4 DUP6 SWAP4 SWAP3 PUSH1 0xFF NOT SWAP2 SWAP1 SWAP2 AND SWAP1 DUP4 PUSH1 0x5 DUP2 GT ISZERO PUSH2 0x2191 JUMPI PUSH2 0x2191 PUSH2 0x34C1 JUMP JUMPDEST MUL OR SWAP1 SSTORE POP PUSH1 0x40 DUP3 ADD MLOAD PUSH1 0x2 DUP3 ADD SSTORE PUSH1 0x60 DUP3 ADD MLOAD PUSH1 0x3 DUP3 ADD SSTORE PUSH1 0x80 DUP3 ADD MLOAD PUSH1 0x4 DUP3 ADD SSTORE PUSH1 0xA0 DUP3 ADD MLOAD PUSH1 0x5 DUP3 ADD SSTORE PUSH1 0xC0 DUP3 ADD MLOAD PUSH1 0x6 DUP3 ADD SSTORE PUSH1 0xE0 DUP3 ADD MLOAD PUSH1 0x7 DUP3 ADD SSTORE PUSH2 0x100 DUP3 ADD MLOAD PUSH1 0x8 DUP3 ADD SSTORE PUSH2 0x120 DUP3 ADD MLOAD PUSH1 0x9 DUP3 ADD SSTORE PUSH2 0x140 SWAP1 SWAP2 ADD MLOAD PUSH1 0xA SWAP1 SWAP2 ADD SSTORE PUSH1 0x1 PUSH1 0x17 PUSH0 PUSH2 0x2204 DUP6 DUP5 PUSH2 0x3907 JUMP JUMPDEST DUP2 MSTORE PUSH1 0x20 ADD SWAP1 DUP2 MSTORE PUSH1 0x20 ADD PUSH0 KECCAK256 PUSH1 0x1 ADD PUSH0 PUSH2 0x100 EXP DUP2 SLOAD DUP2 PUSH1 0xFF MUL NOT AND SWAP1 DUP4 PUSH1 0x5 DUP2 GT ISZERO PUSH2 0x2234 JUMPI PUSH2 0x2234 PUSH2 0x34C1 JUMP JUMPDEST MUL OR SWAP1 SSTORE POP PUSH1 0x40 DUP1 MLOAD DUP4 DUP2 MSTORE PUSH1 0x20 DUP2 ADD DUP6 SWAP1 MSTORE PUSH32 0x3357C3C0655880285DC537CFE8D4510DD2641D10C070E47478E726BB67DD2439 SWAP2 ADD PUSH1 0x40 MLOAD DUP1 SWAP2 SUB SWAP1 LOG1 POP POP POP JUMP JUMPDEST PUSH1 0x5 SLOAD PUSH1 0x1 PUSH1 0x1 PUSH1 0xA0 SHL SUB AND CALLER EQ PUSH2 0x22A1 JUMPI PUSH1 0x40 MLOAD PUSH3 0x461BCD PUSH1 0xE5 SHL DUP2 MSTORE PUSH1 0x4 ADD PUSH2 0x9F6 SWAP1 PUSH2 0x3A25 JUMP JUMPDEST PUSH1 0x2 PUSH0 DUP4 DUP2 MSTORE PUSH1 0x17 PUSH1 0x20 MSTORE PUSH1 0x40 SWAP1 KECCAK256 PUSH1 0x1 ADD SLOAD PUSH1 0xFF AND PUSH1 0x5 DUP2 GT ISZERO PUSH2 0x22C8 JUMPI PUSH2 0x22C8 PUSH2 0x34C1 JUMP JUMPDEST EQ PUSH2 0x2309 JUMPI PUSH1 0x40 MLOAD PUSH3 0x461BCD PUSH1 0xE5 SHL DUP2 MSTORE PUSH1 0x20 PUSH1 0x4 DUP3 ADD MSTORE PUSH1 0x11 PUSH1 0x24 DUP3 ADD MSTORE PUSH17 0x139BDD081C195B991A5B99C81C9BDD5B99 PUSH1 0x7A SHL PUSH1 0x44 DUP3 ADD MSTORE PUSH1 0x64 ADD PUSH2 0x9F6 JUMP JUMPDEST PUSH0 DUP3 DUP2 MSTORE PUSH1 0x17 PUSH1 0x20 MSTORE PUSH1 0x40 DUP2 KECCAK256 PUSH1 0x4 ADD SLOAD DUP2 JUMPDEST DUP4 MLOAD DUP2 LT ISZERO PUSH2 0x2594 JUMPI PUSH0 PUSH1 0x10 PUSH0 PUSH1 0x12 PUSH0 DUP9 DUP7 DUP2 MLOAD DUP2 LT PUSH2 0x233E JUMPI PUSH2 0x233E PUSH2 0x392D JUMP JUMPDEST PUSH1 0x20 MUL PUSH1 0x20 ADD ADD MLOAD PUSH0 ADD MLOAD DUP2 MSTORE PUSH1 0x20 ADD SWAP1 DUP2 MSTORE PUSH1 0x20 ADD PUSH0 KECCAK256 PUSH0 SWAP1 SLOAD SWAP1 PUSH2 0x100 EXP SWAP1 DIV PUSH1 0x1 PUSH1 0x1 PUSH1 0xA0 SHL SUB AND PUSH1 0x1 PUSH1 0x1 PUSH1 0xA0 SHL SUB AND PUSH1 0x1 PUSH1 0x1 PUSH1 0xA0 SHL SUB AND DUP2 MSTORE PUSH1 0x20 ADD SWAP1 DUP2 MSTORE PUSH1 0x20 ADD PUSH0 KECCAK256 SWAP1 POP DUP5 DUP3 DUP2 MLOAD DUP2 LT PUSH2 0x239C JUMPI PUSH2 0x239C PUSH2 0x392D JUMP JUMPDEST PUSH1 0x20 MUL PUSH1 0x20 ADD ADD MLOAD PUSH1 0x20 ADD MLOAD DUP2 PUSH1 0x2 ADD SLOAD LT ISZERO DUP1 ISZERO PUSH2 0x23D8 JUMPI POP PUSH0 DUP7 DUP2 MSTORE PUSH1 0x1A PUSH1 0x20 SWAP1 DUP2 MSTORE PUSH1 0x40 DUP1 DUP4 KECCAK256 PUSH1 0x1 DUP6 ADD SLOAD DUP5 MSTORE SWAP1 SWAP2 MSTORE SWAP1 KECCAK256 SLOAD PUSH1 0xFF AND ISZERO JUMPDEST DUP1 ISZERO PUSH2 0x2403 JUMPI POP PUSH1 0x14 SLOAD DUP6 DUP4 DUP2 MLOAD DUP2 LT PUSH2 0x23F4 JUMPI PUSH2 0x23F4 PUSH2 0x392D JUMP JUMPDEST PUSH1 0x20 MUL PUSH1 0x20 ADD ADD MLOAD PUSH1 0x20 ADD MLOAD LT ISZERO JUMPDEST DUP1 ISZERO PUSH2 0x242E JUMPI POP PUSH1 0x15 SLOAD DUP6 DUP4 DUP2 MLOAD DUP2 LT PUSH2 0x241F JUMPI PUSH2 0x241F PUSH2 0x392D JUMP JUMPDEST PUSH1 0x20 MUL PUSH1 0x20 ADD ADD MLOAD PUSH1 0x20 ADD MLOAD GT ISZERO JUMPDEST ISZERO PUSH2 0x258B JUMPI DUP5 DUP3 DUP2 MLOAD DUP2 LT PUSH2 0x2445 JUMPI PUSH2 0x2445 PUSH2 0x392D JUMP JUMPDEST PUSH1 0x20 MUL PUSH1 0x20 ADD ADD MLOAD PUSH1 0x20 ADD MLOAD DUP2 PUSH1 0x2 ADD PUSH0 DUP3 DUP3 SLOAD PUSH2 0x2463 SWAP2 SWAP1 PUSH2 0x391A JUMP JUMPDEST SWAP3 POP POP DUP2 SWAP1 SSTORE POP DUP5 DUP3 DUP2 MLOAD DUP2 LT PUSH2 0x247C JUMPI PUSH2 0x247C PUSH2 0x392D JUMP JUMPDEST PUSH1 0x20 MUL PUSH1 0x20 ADD ADD MLOAD PUSH1 0x20 ADD MLOAD DUP2 PUSH1 0x3 ADD PUSH0 DUP3 DUP3 SLOAD PUSH2 0x249A SWAP2 SWAP1 PUSH2 0x3907 JUMP JUMPDEST SWAP1 SWAP2 SSTORE POP POP PUSH1 0x6 DUP2 ADD DUP7 SWAP1 SSTORE PUSH1 0x1 DUP2 ADD SLOAD PUSH0 SWAP1 DUP2 MSTORE PUSH1 0x13 PUSH1 0x20 SWAP1 DUP2 MSTORE PUSH1 0x40 DUP1 DUP4 KECCAK256 PUSH1 0x5 DUP6 ADD DUP1 SLOAD DUP6 MSTORE SWAP3 MSTORE DUP3 KECCAK256 DUP9 SWAP1 SSTORE DUP1 SLOAD SWAP2 PUSH2 0x24D6 DUP4 PUSH2 0x3A80 JUMP JUMPDEST SWAP2 SWAP1 POP SSTORE POP DUP5 DUP3 DUP2 MLOAD DUP2 LT PUSH2 0x24ED JUMPI PUSH2 0x24ED PUSH2 0x392D JUMP JUMPDEST PUSH1 0x20 SWAP1 DUP2 MUL SWAP2 SWAP1 SWAP2 ADD DUP2 ADD MLOAD PUSH0 DUP9 DUP2 MSTORE PUSH1 0x18 DUP4 MSTORE PUSH1 0x40 DUP1 DUP3 KECCAK256 DUP8 DUP4 MSTORE DUP5 MSTORE DUP1 DUP3 KECCAK256 DUP4 MLOAD DUP2 SSTORE SWAP3 DUP5 ADD MLOAD PUSH1 0x1 SWAP4 DUP5 ADD SSTORE DUP10 DUP3 MSTORE PUSH1 0x1A DUP5 MSTORE DUP1 DUP3 KECCAK256 DUP6 DUP5 ADD SLOAD DUP4 MSTORE SWAP1 SWAP4 MSTORE SWAP2 SWAP1 SWAP2 KECCAK256 DUP1 SLOAD PUSH1 0xFF NOT AND SWAP1 SWAP2 OR SWAP1 SSTORE DUP3 PUSH2 0x2548 DUP2 PUSH2 0x3A80 JUMP JUMPDEST SWAP4 POP POP DUP5 DUP3 DUP2 MLOAD DUP2 LT PUSH2 0x255D JUMPI PUSH2 0x255D PUSH2 0x392D JUMP JUMPDEST PUSH1 0x20 MUL PUSH1 0x20 ADD ADD MLOAD PUSH1 0x20 ADD MLOAD DUP5 PUSH2 0x2574 SWAP2 SWAP1 PUSH2 0x3907 JUMP JUMPDEST PUSH1 0xA DUP1 SLOAD SWAP2 SWAP6 POP PUSH0 PUSH2 0x2585 DUP4 PUSH2 0x3A80 JUMP JUMPDEST SWAP2 SWAP1 POP SSTORE POP JUMPDEST POP PUSH1 0x1 ADD PUSH2 0x231C JUMP JUMPDEST POP DUP2 PUSH1 0xE PUSH0 DUP3 DUP3 SLOAD PUSH2 0x25A6 SWAP2 SWAP1 PUSH2 0x391A JUMP JUMPDEST SWAP3 POP POP DUP2 SWAP1 SSTORE POP DUP2 PUSH1 0xC PUSH0 DUP3 DUP3 SLOAD PUSH2 0x25BE SWAP2 SWAP1 PUSH2 0x3907 JUMP JUMPDEST SWAP1 SWAP2 SSTORE POP POP PUSH0 DUP5 DUP2 MSTORE PUSH1 0x17 PUSH1 0x20 MSTORE PUSH1 0x40 DUP2 KECCAK256 PUSH1 0x6 ADD DUP1 SLOAD DUP5 SWAP3 SWAP1 PUSH2 0x25E3 SWAP1 DUP5 SWAP1 PUSH2 0x3907 JUMP JUMPDEST SWAP1 SWAP2 SSTORE POP POP PUSH0 DUP5 DUP2 MSTORE PUSH1 0x17 PUSH1 0x20 MSTORE PUSH1 0x40 SWAP1 DUP2 SWAP1 KECCAK256 PUSH1 0x4 ADD DUP3 SWAP1 SSTORE MLOAD PUSH32 0xCCA211B74F4F28C1EAE2F7FB019D9077E72F9590980D41F0F18B34CCEEFBB903 SWAP1 PUSH2 0x262D SWAP1 DUP7 SWAP1 DUP7 SWAP1 PUSH2 0x3A98 JUMP JUMPDEST PUSH1 0x40 MLOAD DUP1 SWAP2 SUB SWAP1 LOG1 POP POP POP POP JUMP JUMPDEST PUSH1 0x1 PUSH1 0x1 PUSH1 0xA0 SHL SUB DUP1 DUP5 AND PUSH0 DUP2 DUP2 MSTORE PUSH1 0x10 PUSH1 0x20 SWAP1 DUP2 MSTORE PUSH1 0x40 SWAP2 DUP3 SWAP1 KECCAK256 DUP3 MLOAD PUSH1 0xE0 DUP2 ADD DUP5 MSTORE DUP2 SLOAD SWAP1 SWAP6 AND DUP1 DUP7 MSTORE PUSH1 0x1 DUP3 ADD SLOAD SWAP3 DUP7 ADD SWAP3 SWAP1 SWAP3 MSTORE PUSH1 0x2 DUP2 ADD SLOAD SWAP3 DUP6 ADD SWAP3 SWAP1 SWAP3 MSTORE PUSH1 0x3 DUP3 ADD SLOAD PUSH1 0x60 DUP6 DUP2 ADD SWAP2 SWAP1 SWAP2 MSTORE PUSH1 0x4 DUP4 ADD SLOAD PUSH1 0x80 DUP7 ADD MSTORE PUSH1 0x5 DUP4 ADD SLOAD PUSH1 0xA0 DUP7 ADD MSTORE PUSH1 0x6 SWAP1 SWAP3 ADD SLOAD PUSH1 0xC0 DUP6 ADD MSTORE SWAP1 SWAP3 DUP4 SWAP3 DUP4 SWAP3 DUP4 SWAP3 SWAP2 SWAP1 SUB PUSH2 0x2AF2 JUMPI DUP1 PUSH1 0xA0 ADD MLOAD DUP8 GT ISZERO PUSH2 0x2724 JUMPI PUSH1 0x40 DUP1 MLOAD PUSH0 DUP1 DUP3 MSTORE PUSH1 0x20 DUP3 ADD SWAP1 SWAP3 MSTORE SWAP1 PUSH2 0x26F7 JUMP JUMPDEST PUSH2 0x26E4 PUSH2 0x32A0 JUMP JUMPDEST DUP2 MSTORE PUSH1 0x20 ADD SWAP1 PUSH1 0x1 SWAP1 SUB SWAP1 DUP2 PUSH2 0x26DC JUMPI SWAP1 POP JUMPDEST POP PUSH1 0x40 DUP1 MLOAD PUSH0 DUP1 DUP3 MSTORE PUSH1 0x20 DUP3 ADD DUP2 DUP2 MSTORE DUP3 DUP5 ADD SWAP2 DUP3 MSTORE PUSH1 0x60 DUP4 ADD SWAP1 SWAP4 MSTORE SWAP3 SWAP8 POP SWAP6 POP SWAP4 POP SWAP2 POP PUSH2 0x1D2C SWAP1 POP JUMP JUMPDEST DUP7 ISZERO DUP1 ISZERO PUSH2 0x2730 JUMPI POP DUP6 ISZERO JUMPDEST ISZERO PUSH2 0x273D JUMPI DUP1 PUSH1 0xA0 ADD MLOAD SWAP6 POP JUMPDEST PUSH1 0xA0 DUP2 ADD MLOAD PUSH2 0x274C DUP8 DUP10 PUSH2 0x3907 JUMP JUMPDEST GT ISZERO PUSH2 0x2765 JUMPI DUP7 DUP2 PUSH1 0xA0 ADD MLOAD PUSH2 0x2762 SWAP2 SWAP1 PUSH2 0x391A JUMP JUMPDEST SWAP6 POP JUMPDEST DUP6 PUSH1 0x1 PUSH1 0x1 PUSH1 0x40 SHL SUB DUP2 GT ISZERO PUSH2 0x277D JUMPI PUSH2 0x277D PUSH2 0x36E9 JUMP JUMPDEST PUSH1 0x40 MLOAD SWAP1 DUP1 DUP3 MSTORE DUP1 PUSH1 0x20 MUL PUSH1 0x20 ADD DUP3 ADD PUSH1 0x40 MSTORE DUP1 ISZERO PUSH2 0x27B6 JUMPI DUP2 PUSH1 0x20 ADD JUMPDEST PUSH2 0x27A3 PUSH2 0x32A0 JUMP JUMPDEST DUP2 MSTORE PUSH1 0x20 ADD SWAP1 PUSH1 0x1 SWAP1 SUB SWAP1 DUP2 PUSH2 0x279B JUMPI SWAP1 POP JUMPDEST POP SWAP5 POP DUP6 PUSH1 0x1 PUSH1 0x1 PUSH1 0x40 SHL SUB DUP2 GT ISZERO PUSH2 0x27D1 JUMPI PUSH2 0x27D1 PUSH2 0x36E9 JUMP JUMPDEST PUSH1 0x40 MLOAD SWAP1 DUP1 DUP3 MSTORE DUP1 PUSH1 0x20 MUL PUSH1 0x20 ADD DUP3 ADD PUSH1 0x40 MSTORE DUP1 ISZERO PUSH2 0x27FA JUMPI DUP2 PUSH1 0x20 ADD PUSH1 0x20 DUP3 MUL DUP1 CALLDATASIZE DUP4 CALLDATACOPY ADD SWAP1 POP JUMPDEST POP SWAP4 POP DUP6 PUSH1 0x1 PUSH1 0x1 PUSH1 0x40 SHL SUB DUP2 GT ISZERO PUSH2 0x2815 JUMPI PUSH2 0x2815 PUSH2 0x36E9 JUMP JUMPDEST PUSH1 0x40 MLOAD SWAP1 DUP1 DUP3 MSTORE DUP1 PUSH1 0x20 MUL PUSH1 0x20 ADD DUP3 ADD PUSH1 0x40 MSTORE DUP1 ISZERO PUSH2 0x283E JUMPI DUP2 PUSH1 0x20 ADD PUSH1 0x20 DUP3 MUL DUP1 CALLDATASIZE DUP4 CALLDATACOPY ADD SWAP1 POP JUMPDEST POP SWAP3 POP DUP6 PUSH1 0x1 PUSH1 0x1 PUSH1 0x40 SHL SUB DUP2 GT ISZERO PUSH2 0x2859 JUMPI PUSH2 0x2859 PUSH2 0x36E9 JUMP JUMPDEST PUSH1 0x40 MLOAD SWAP1 DUP1 DUP3 MSTORE DUP1 PUSH1 0x20 MUL PUSH1 0x20 ADD DUP3 ADD PUSH1 0x40 MSTORE DUP1 ISZERO PUSH2 0x2882 JUMPI DUP2 PUSH1 0x20 ADD PUSH1 0x20 DUP3 MUL DUP1 CALLDATASIZE DUP4 CALLDATACOPY ADD SWAP1 POP JUMPDEST POP SWAP2 POP PUSH0 JUMPDEST DUP7 DUP2 LT ISZERO PUSH2 0x2AEB JUMPI PUSH0 PUSH1 0x13 PUSH0 DUP5 PUSH1 0x20 ADD MLOAD DUP2 MSTORE PUSH1 0x20 ADD SWAP1 DUP2 MSTORE PUSH1 0x20 ADD PUSH0 KECCAK256 PUSH0 PUSH1 0x1 DUP12 DUP6 DUP8 PUSH1 0xA0 ADD MLOAD PUSH2 0x28B9 SWAP2 SWAP1 PUSH2 0x391A JUMP JUMPDEST PUSH2 0x28C3 SWAP2 SWAP1 PUSH2 0x391A JUMP JUMPDEST PUSH2 0x28CD SWAP2 SWAP1 PUSH2 0x391A JUMP JUMPDEST DUP2 MSTORE PUSH1 0x20 DUP1 DUP3 ADD SWAP3 SWAP1 SWAP3 MSTORE PUSH1 0x40 SWAP1 DUP2 ADD PUSH0 SWAP1 DUP2 KECCAK256 SLOAD DUP1 DUP3 MSTORE PUSH1 0x17 DUP5 MSTORE DUP3 DUP3 KECCAK256 DUP4 MLOAD PUSH2 0x160 DUP2 ADD SWAP1 SWAP5 MSTORE DUP1 SLOAD DUP5 MSTORE PUSH1 0x1 DUP2 ADD SLOAD SWAP2 SWAP6 POP SWAP2 SWAP4 DUP4 ADD SWAP1 PUSH1 0xFF AND PUSH1 0x5 DUP2 GT ISZERO PUSH2 0x291B JUMPI PUSH2 0x291B PUSH2 0x34C1 JUMP JUMPDEST PUSH1 0x5 DUP2 GT ISZERO PUSH2 0x292C JUMPI PUSH2 0x292C PUSH2 0x34C1 JUMP JUMPDEST DUP2 MSTORE PUSH1 0x2 DUP3 ADD SLOAD PUSH1 0x20 DUP1 DUP4 ADD SWAP2 SWAP1 SWAP2 MSTORE PUSH1 0x3 DUP4 ADD SLOAD PUSH1 0x40 DUP1 DUP5 ADD SWAP2 SWAP1 SWAP2 MSTORE PUSH1 0x4 DUP5 ADD SLOAD PUSH1 0x60 DUP5 ADD MSTORE PUSH1 0x5 DUP5 ADD SLOAD PUSH1 0x80 DUP5 ADD MSTORE PUSH1 0x6 DUP5 ADD SLOAD PUSH1 0xA0 DUP5 ADD MSTORE PUSH1 0x7 DUP5 ADD SLOAD PUSH1 0xC0 DUP5 ADD MSTORE PUSH1 0x8 DUP5 ADD SLOAD PUSH1 0xE0 DUP5 ADD MSTORE PUSH1 0x9 DUP5 ADD SLOAD PUSH2 0x100 DUP5 ADD MSTORE PUSH1 0xA SWAP1 SWAP4 ADD SLOAD PUSH2 0x120 SWAP1 SWAP3 ADD SWAP2 SWAP1 SWAP2 MSTORE PUSH0 DUP6 DUP2 MSTORE PUSH1 0x18 DUP3 MSTORE DUP3 DUP2 KECCAK256 PUSH1 0x19 DUP4 MSTORE DUP4 DUP3 KECCAK256 DUP10 DUP5 ADD MLOAD DUP4 MSTORE DUP4 MSTORE DUP4 DUP3 KECCAK256 SLOAD DUP3 MSTORE DUP3 MSTORE DUP3 SWAP1 KECCAK256 DUP3 MLOAD DUP1 DUP5 ADD SWAP1 SWAP4 MSTORE DUP1 SLOAD DUP4 MSTORE PUSH1 0x1 ADD SLOAD SWAP1 DUP3 ADD MSTORE DUP10 MLOAD SWAP2 SWAP3 POP SWAP1 DUP3 SWAP1 DUP11 SWAP1 DUP7 SWAP1 DUP2 LT PUSH2 0x29EA JUMPI PUSH2 0x29EA PUSH2 0x392D JUMP JUMPDEST PUSH1 0x20 MUL PUSH1 0x20 ADD ADD DUP2 SWAP1 MSTORE POP DUP1 PUSH1 0x20 ADD MLOAD DUP9 DUP6 DUP2 MLOAD DUP2 LT PUSH2 0x2A0C JUMPI PUSH2 0x2A0C PUSH2 0x392D JUMP JUMPDEST PUSH1 0x20 SWAP1 DUP2 MUL SWAP2 SWAP1 SWAP2 ADD DUP2 ADD SWAP2 SWAP1 SWAP2 MSTORE PUSH0 DUP5 DUP2 MSTORE PUSH1 0x1D DUP3 MSTORE PUSH1 0x40 DUP1 DUP3 KECCAK256 DUP9 DUP5 ADD MLOAD DUP4 MSTORE SWAP1 SWAP3 MSTORE KECCAK256 SLOAD PUSH1 0xFF AND ISZERO PUSH2 0x2AE0 JUMPI PUSH0 DUP4 DUP2 MSTORE PUSH1 0x1B PUSH1 0x20 SWAP1 DUP2 MSTORE PUSH1 0x40 DUP1 DUP4 KECCAK256 PUSH1 0x1C DUP4 MSTORE DUP2 DUP5 KECCAK256 DUP10 DUP5 ADD MLOAD DUP6 MSTORE DUP4 MSTORE DUP2 DUP5 KECCAK256 SLOAD DUP5 MSTORE DUP3 MSTORE SWAP2 DUP3 SWAP1 KECCAK256 DUP3 MLOAD DUP1 DUP5 ADD SWAP1 SWAP4 MSTORE DUP1 SLOAD DUP4 MSTORE PUSH1 0x1 ADD SLOAD DUP3 DUP3 ADD DUP2 SWAP1 MSTORE SWAP1 DUP4 ADD MLOAD PUSH8 0xDE0B6B3A7640000 SWAP2 PUSH2 0x2A93 SWAP2 PUSH2 0x3A4A JUMP JUMPDEST PUSH2 0x2A9D SWAP2 SWAP1 PUSH2 0x3A61 JUMP JUMPDEST DUP9 DUP7 DUP2 MLOAD DUP2 LT PUSH2 0x2AAF JUMPI PUSH2 0x2AAF PUSH2 0x392D JUMP JUMPDEST PUSH1 0x20 MUL PUSH1 0x20 ADD ADD DUP2 DUP2 MSTORE POP POP DUP1 PUSH1 0x20 ADD MLOAD DUP8 DUP7 DUP2 MLOAD DUP2 LT PUSH2 0x2AD2 JUMPI PUSH2 0x2AD2 PUSH2 0x392D JUMP JUMPDEST PUSH1 0x20 MUL PUSH1 0x20 ADD ADD DUP2 DUP2 MSTORE POP POP POP JUMPDEST POP POP POP PUSH1 0x1 ADD PUSH2 0x2887 JUMP JUMPDEST POP POP PUSH2 0x1D2C JUMP JUMPDEST PUSH1 0x40 DUP1 MLOAD PUSH0 DUP1 DUP3 MSTORE PUSH1 0x20 DUP3 ADD SWAP1 SWAP3 MSTORE SWAP1 PUSH2 0x2B22 JUMP JUMPDEST PUSH2 0x2B0F PUSH2 0x32A0 JUMP JUMPDEST DUP2 MSTORE PUSH1 0x20 ADD SWAP1 PUSH1 0x1 SWAP1 SUB SWAP1 DUP2 PUSH2 0x2B07 JUMPI SWAP1 POP JUMPDEST POP PUSH1 0x40 DUP1 MLOAD PUSH0 DUP1 DUP3 MSTORE PUSH1 0x20 DUP3 ADD DUP2 DUP2 MSTORE DUP3 DUP5 ADD SWAP2 DUP3 MSTORE PUSH1 0x60 DUP4 ADD SWAP1 SWAP4 MSTORE SWAP3 SWAP12 SWAP1 SWAP11 POP SWAP1 SWAP9 POP SWAP1 SWAP7 POP SWAP5 POP POP POP POP POP JUMP JUMPDEST PUSH1 0x6 SLOAD PUSH1 0x1 PUSH1 0x1 PUSH1 0xA0 SHL SUB AND CALLER EQ PUSH2 0x2B7C JUMPI PUSH1 0x40 MLOAD PUSH3 0x461BCD PUSH1 0xE5 SHL DUP2 MSTORE PUSH1 0x4 ADD PUSH2 0x9F6 SWAP1 PUSH2 0x38CF JUMP JUMPDEST PUSH1 0x7 DUP1 SLOAD PUSH1 0x1 PUSH1 0x1 PUSH1 0xA0 SHL SUB NOT AND PUSH1 0x1 PUSH1 0x1 PUSH1 0xA0 SHL SUB SWAP3 SWAP1 SWAP3 AND SWAP2 SWAP1 SWAP2 OR SWAP1 SSTORE JUMP JUMPDEST PUSH1 0x6 SLOAD PUSH1 0x1 PUSH1 0x1 PUSH1 0xA0 SHL SUB AND CALLER EQ PUSH2 0x2BC8 JUMPI PUSH1 0x40 MLOAD PUSH3 0x461BCD PUSH1 0xE5 SHL DUP2 MSTORE PUSH1 0x4 ADD PUSH2 0x9F6 SWAP1 PUSH2 0x38CF JUMP JUMPDEST PUSH1 0x6 DUP1 SLOAD PUSH1 0x1 PUSH1 0x1 PUSH1 0xA0 SHL SUB NOT AND PUSH1 0x1 PUSH1 0x1 PUSH1 0xA0 SHL SUB SWAP3 SWAP1 SWAP3 AND SWAP2 SWAP1 SWAP2 OR SWAP1 SSTORE JUMP JUMPDEST PUSH1 0x5 SLOAD PUSH1 0x1 PUSH1 0x1 PUSH1 0xA0 SHL SUB AND CALLER EQ PUSH2 0x2C14 JUMPI PUSH1 0x40 MLOAD PUSH3 0x461BCD PUSH1 0xE5 SHL DUP2 MSTORE PUSH1 0x4 ADD PUSH2 0x9F6 SWAP1 PUSH2 0x3A25 JUMP JUMPDEST PUSH2 0x2C1C PUSH2 0x3131 JUMP JUMPDEST PUSH1 0x3 PUSH0 DUP6 DUP2 MSTORE PUSH1 0x17 PUSH1 0x20 MSTORE PUSH1 0x40 SWAP1 KECCAK256 PUSH1 0x1 ADD SLOAD PUSH1 0xFF AND PUSH1 0x5 DUP2 GT ISZERO PUSH2 0x2C43 JUMPI PUSH2 0x2C43 PUSH2 0x34C1 JUMP JUMPDEST EQ PUSH2 0x2C7D JUMPI PUSH1 0x40 MLOAD PUSH3 0x461BCD PUSH1 0xE5 SHL DUP2 MSTORE PUSH1 0x20 PUSH1 0x4 DUP3 ADD MSTORE PUSH1 0xA PUSH1 0x24 DUP3 ADD MSTORE PUSH10 0x139BDD081C9D5B9B9959 PUSH1 0xB2 SHL PUSH1 0x44 DUP3 ADD MSTORE PUSH1 0x64 ADD PUSH2 0x9F6 JUMP JUMPDEST PUSH0 DUP5 DUP2 MSTORE PUSH1 0x17 PUSH1 0x20 MSTORE PUSH1 0x40 SWAP1 KECCAK256 PUSH1 0x9 ADD SLOAD PUSH2 0x2C9A SWAP1 DUP5 SWAP1 DUP5 PUSH2 0x18DD JUMP JUMPDEST PUSH2 0x2CDD JUMPI PUSH1 0x40 MLOAD PUSH3 0x461BCD PUSH1 0xE5 SHL DUP2 MSTORE PUSH1 0x20 PUSH1 0x4 DUP3 ADD MSTORE PUSH1 0x14 PUSH1 0x24 DUP3 ADD MSTORE PUSH20 0x2737BA103B30B634B21036BAB63A34B83634B2B9 PUSH1 0x61 SHL PUSH1 0x44 DUP3 ADD MSTORE PUSH1 0x64 ADD PUSH2 0x9F6 JUMP JUMPDEST PUSH0 DUP5 DUP2 MSTORE PUSH1 0x17 PUSH1 0x20 MSTORE PUSH1 0x40 DUP2 KECCAK256 PUSH1 0x8 DUP2 ADD DUP6 SWAP1 SSTORE PUSH1 0xA DUP2 ADD DUP5 SWAP1 SSTORE PUSH1 0x1 DUP2 ADD DUP1 SLOAD PUSH1 0xFF NOT AND PUSH1 0x4 OR SWAP1 SSTORE TIMESTAMP PUSH1 0x3 DUP3 ADD SSTORE SWAP1 DUP1 DUP1 DUP1 JUMPDEST DUP6 MLOAD DUP2 LT ISZERO PUSH2 0x2F30 JUMPI PUSH0 DUP7 DUP3 DUP2 MLOAD DUP2 LT PUSH2 0x2D2E JUMPI PUSH2 0x2D2E PUSH2 0x392D JUMP JUMPDEST PUSH1 0x20 SWAP1 DUP2 MUL SWAP2 SWAP1 SWAP2 ADD DUP2 ADD MLOAD MLOAD PUSH0 DUP2 DUP2 MSTORE PUSH1 0x12 DUP4 MSTORE PUSH1 0x40 DUP1 DUP3 KECCAK256 SLOAD PUSH1 0x1 PUSH1 0x1 PUSH1 0xA0 SHL SUB AND DUP3 MSTORE PUSH1 0x10 DUP5 MSTORE DUP1 DUP3 KECCAK256 DUP15 DUP4 MSTORE PUSH1 0x1A DUP6 MSTORE DUP2 DUP4 KECCAK256 DUP5 DUP5 MSTORE SWAP1 SWAP5 MSTORE SWAP1 KECCAK256 SLOAD SWAP1 SWAP3 POP PUSH1 0xFF AND DUP1 ISZERO PUSH2 0x2D99 JUMPI POP PUSH0 DUP12 DUP2 MSTORE PUSH1 0x1D PUSH1 0x20 SWAP1 DUP2 MSTORE PUSH1 0x40 DUP1 DUP4 KECCAK256 DUP6 DUP5 MSTORE SWAP1 SWAP2 MSTORE SWAP1 KECCAK256 SLOAD PUSH1 0xFF AND ISZERO JUMPDEST ISZERO PUSH2 0x2F26 JUMPI PUSH0 DUP12 DUP2 MSTORE PUSH1 0x18 PUSH1 0x20 SWAP1 DUP2 MSTORE PUSH1 0x40 DUP1 DUP4 KECCAK256 PUSH1 0x19 DUP4 MSTORE DUP2 DUP5 KECCAK256 DUP7 DUP6 MSTORE DUP4 MSTORE DUP2 DUP5 KECCAK256 SLOAD DUP5 MSTORE SWAP1 SWAP2 MSTORE SWAP1 KECCAK256 PUSH1 0x1 ADD SLOAD PUSH2 0x2DD3 SWAP1 DUP7 PUSH2 0x3907 JUMP JUMPDEST PUSH0 DUP13 DUP2 MSTORE PUSH1 0x18 PUSH1 0x20 SWAP1 DUP2 MSTORE PUSH1 0x40 DUP1 DUP4 KECCAK256 PUSH1 0x19 DUP4 MSTORE DUP2 DUP5 KECCAK256 DUP8 DUP6 MSTORE DUP4 MSTORE DUP2 DUP5 KECCAK256 SLOAD DUP5 MSTORE DUP3 MSTORE DUP1 DUP4 KECCAK256 DUP2 MLOAD DUP1 DUP4 ADD SWAP1 SWAP3 MSTORE DUP1 SLOAD DUP3 MSTORE PUSH1 0x1 ADD SLOAD SWAP2 DUP2 ADD SWAP2 SWAP1 SWAP2 MSTORE DUP11 MLOAD SWAP3 SWAP8 POP SWAP2 PUSH8 0xDE0B6B3A7640000 SWAP1 DUP12 SWAP1 DUP8 SWAP1 DUP2 LT PUSH2 0x2E33 JUMPI PUSH2 0x2E33 PUSH2 0x392D JUMP JUMPDEST PUSH1 0x20 MUL PUSH1 0x20 ADD ADD MLOAD PUSH1 0x20 ADD MLOAD DUP4 PUSH1 0x20 ADD MLOAD PUSH2 0x2E4E SWAP2 SWAP1 PUSH2 0x3A4A JUMP JUMPDEST PUSH2 0x2E58 SWAP2 SWAP1 PUSH2 0x3A61 JUMP JUMPDEST SWAP1 POP PUSH2 0x2E64 DUP2 DUP10 PUSH2 0x3907 JUMP JUMPDEST SWAP8 POP DUP1 DUP4 PUSH1 0x4 ADD PUSH0 DUP3 DUP3 SLOAD PUSH2 0x2E79 SWAP2 SWAP1 PUSH2 0x3907 JUMP JUMPDEST SWAP3 POP POP DUP2 SWAP1 SSTORE POP DUP1 DUP4 PUSH1 0x2 ADD PUSH0 DUP3 DUP3 SLOAD PUSH2 0x2E93 SWAP2 SWAP1 PUSH2 0x3907 JUMP JUMPDEST SWAP1 SWAP2 SSTORE POP POP PUSH0 DUP14 DUP2 MSTORE PUSH1 0x1D PUSH1 0x20 SWAP1 DUP2 MSTORE PUSH1 0x40 DUP1 DUP4 KECCAK256 DUP8 DUP5 MSTORE SWAP1 SWAP2 MSTORE SWAP1 KECCAK256 DUP1 SLOAD PUSH1 0xFF NOT AND PUSH1 0x1 OR SWAP1 SSTORE DUP10 MLOAD DUP11 SWAP1 DUP7 SWAP1 DUP2 LT PUSH2 0x2ECF JUMPI PUSH2 0x2ECF PUSH2 0x392D JUMP JUMPDEST PUSH1 0x20 SWAP1 DUP2 MUL SWAP2 SWAP1 SWAP2 ADD DUP2 ADD MLOAD PUSH0 DUP16 DUP2 MSTORE PUSH1 0x1B DUP4 MSTORE PUSH1 0x40 DUP1 DUP3 KECCAK256 DUP11 DUP4 MSTORE DUP5 MSTORE DUP1 DUP3 KECCAK256 DUP4 MLOAD DUP2 SSTORE SWAP3 DUP5 ADD MLOAD PUSH1 0x1 SWAP1 SWAP4 ADD SWAP3 SWAP1 SWAP3 SSTORE DUP16 DUP2 MSTORE PUSH1 0x1C DUP4 MSTORE DUP2 DUP2 KECCAK256 DUP8 DUP3 MSTORE SWAP1 SWAP3 MSTORE SWAP1 KECCAK256 DUP7 SWAP1 SSTORE DUP6 PUSH2 0x2F20 DUP2 PUSH2 0x3A80 JUMP JUMPDEST SWAP7 POP POP POP POP JUMPDEST POP POP PUSH1 0x1 ADD PUSH2 0x2D12 JUMP JUMPDEST POP DUP3 PUSH1 0xE PUSH0 DUP3 DUP3 SLOAD PUSH2 0x2F42 SWAP2 SWAP1 PUSH2 0x3907 JUMP JUMPDEST SWAP3 POP POP DUP2 SWAP1 SSTORE POP DUP1 PUSH1 0xB PUSH0 DUP3 DUP3 SLOAD PUSH2 0x2F5A SWAP2 SWAP1 PUSH2 0x3907 JUMP JUMPDEST SWAP3 POP POP DUP2 SWAP1 SSTORE POP DUP3 PUSH1 0xD PUSH0 DUP3 DUP3 SLOAD PUSH2 0x2F72 SWAP2 SWAP1 PUSH2 0x3907 JUMP JUMPDEST SWAP1 SWAP2 SSTORE POP POP PUSH1 0x7 DUP5 ADD DUP4 SWAP1 SSTORE PUSH1 0x5 DUP5 ADD DUP2 SWAP1 SSTORE PUSH1 0x6 DUP5 ADD SLOAD PUSH0 SWAP1 PUSH2 0x2F97 SWAP1 DUP5 SWAP1 PUSH2 0x391A JUMP JUMPDEST SWAP1 POP PUSH0 PUSH2 0x2710 PUSH1 0xF SLOAD PUSH2 0x2710 PUSH2 0x2FAD SWAP2 SWAP1 PUSH2 0x391A JUMP JUMPDEST PUSH2 0x2FB7 SWAP1 DUP5 PUSH2 0x3A4A JUMP JUMPDEST PUSH2 0x2FC1 SWAP2 SWAP1 PUSH2 0x3A61 JUMP JUMPDEST SWAP1 POP PUSH0 PUSH2 0x2710 PUSH1 0xF SLOAD DUP5 PUSH2 0x2FD5 SWAP2 SWAP1 PUSH2 0x3A4A JUMP JUMPDEST PUSH2 0x2FDF SWAP2 SWAP1 PUSH2 0x3A61 JUMP JUMPDEST SWAP1 POP DUP2 PUSH1 0x8 PUSH0 DUP3 DUP3 SLOAD PUSH2 0x2FF2 SWAP2 SWAP1 PUSH2 0x3907 JUMP JUMPDEST SWAP1 SWAP2 SSTORE POP POP PUSH1 0x8 SLOAD DUP7 GT PUSH2 0x301C JUMPI DUP6 PUSH1 0x8 PUSH0 DUP3 DUP3 SLOAD PUSH2 0x3011 SWAP2 SWAP1 PUSH2 0x391A JUMP JUMPDEST SWAP1 SWAP2 SSTORE POP PUSH2 0x3033 SWAP1 POP JUMP JUMPDEST DUP6 PUSH1 0x9 PUSH0 DUP3 DUP3 SLOAD PUSH2 0x302D SWAP2 SWAP1 PUSH2 0x3907 JUMP JUMPDEST SWAP1 SWAP2 SSTORE POP POP JUMPDEST DUP1 ISZERO PUSH2 0x30B1 JUMPI PUSH1 0x1 SLOAD PUSH1 0x7 SLOAD PUSH1 0x40 MLOAD PUSH4 0xA9059CBB PUSH1 0xE0 SHL DUP2 MSTORE PUSH1 0x1 PUSH1 0x1 PUSH1 0xA0 SHL SUB SWAP2 DUP3 AND PUSH1 0x4 DUP3 ADD MSTORE PUSH1 0x24 DUP2 ADD DUP5 SWAP1 MSTORE SWAP2 AND SWAP1 PUSH4 0xA9059CBB SWAP1 PUSH1 0x44 ADD PUSH1 0x20 PUSH1 0x40 MLOAD DUP1 DUP4 SUB DUP2 PUSH0 DUP8 GAS CALL ISZERO DUP1 ISZERO PUSH2 0x308B JUMPI RETURNDATASIZE PUSH0 DUP1 RETURNDATACOPY RETURNDATASIZE PUSH0 REVERT JUMPDEST POP POP POP POP PUSH1 0x40 MLOAD RETURNDATASIZE PUSH1 0x1F NOT PUSH1 0x1F DUP3 ADD AND DUP3 ADD DUP1 PUSH1 0x40 MSTORE POP DUP2 ADD SWAP1 PUSH2 0x30AF SWAP2 SWAP1 PUSH2 0x3A06 JUMP JUMPDEST POP JUMPDEST PUSH1 0x9 DUP8 ADD SLOAD PUSH1 0x4 DUP9 ADD SLOAD PUSH1 0x6 DUP10 ADD SLOAD PUSH1 0x40 DUP1 MLOAD DUP16 DUP2 MSTORE PUSH1 0x20 DUP2 ADD DUP16 SWAP1 MSTORE DUP1 DUP3 ADD DUP15 SWAP1 MSTORE PUSH1 0x60 DUP2 ADD SWAP5 SWAP1 SWAP5 MSTORE PUSH1 0x80 DUP5 ADD SWAP3 SWAP1 SWAP3 MSTORE PUSH1 0xA0 DUP4 ADD MSTORE PUSH1 0xC0 DUP3 ADD DUP9 SWAP1 MSTORE MLOAD PUSH32 0xEB030656C7EE2589CDFFC41B1300BBE114ECD21972DEC0E8E5A4B5576E433415 SWAP2 DUP2 SWAP1 SUB PUSH1 0xE0 ADD SWAP1 LOG1 POP POP POP POP POP POP POP PUSH2 0x312B PUSH1 0x1 PUSH0 SSTORE JUMP JUMPDEST POP POP POP POP JUMP JUMPDEST PUSH1 0x2 PUSH0 SLOAD SUB PUSH2 0x3182 JUMPI PUSH1 0x40 MLOAD PUSH3 0x461BCD PUSH1 0xE5 SHL DUP2 MSTORE PUSH1 0x20 PUSH1 0x4 DUP3 ADD MSTORE PUSH1 0x1F PUSH1 0x24 DUP3 ADD MSTORE PUSH32 0x5265656E7472616E637947756172643A207265656E7472616E742063616C6C00 PUSH1 0x44 DUP3 ADD MSTORE PUSH1 0x64 ADD PUSH2 0x9F6 JUMP JUMPDEST PUSH1 0x2 PUSH0 SSTORE JUMP JUMPDEST PUSH1 0x1 PUSH1 0x1 PUSH1 0xA0 SHL SUB DUP1 DUP3 AND PUSH0 DUP2 DUP2 MSTORE PUSH1 0x10 PUSH1 0x20 MSTORE PUSH1 0x40 SWAP1 KECCAK256 SLOAD SWAP1 SWAP2 AND EQ PUSH2 0x12A4 JUMPI PUSH1 0x11 DUP1 SLOAD SWAP1 PUSH0 PUSH2 0x31B8 DUP4 PUSH2 0x3A80 JUMP JUMPDEST SWAP1 SWAP2 SSTORE POP POP PUSH1 0x11 SLOAD PUSH1 0x40 DUP1 MLOAD PUSH1 0xE0 DUP2 ADD DUP3 MSTORE PUSH1 0x1 PUSH1 0x1 PUSH1 0xA0 SHL SUB SWAP4 DUP5 AND DUP1 DUP3 MSTORE PUSH1 0x20 DUP1 DUP4 ADD DUP6 DUP2 MSTORE PUSH0 DUP5 DUP7 ADD DUP2 DUP2 MSTORE PUSH1 0x60 DUP7 ADD DUP3 DUP2 MSTORE PUSH1 0x80 DUP8 ADD DUP4 DUP2 MSTORE PUSH1 0xA0 DUP9 ADD DUP5 DUP2 MSTORE PUSH1 0xC0 DUP10 ADD DUP6 DUP2 MSTORE DUP9 DUP7 MSTORE PUSH1 0x10 DUP9 MSTORE DUP11 DUP7 KECCAK256 SWAP10 MLOAD DUP11 SLOAD SWAP14 AND PUSH1 0x1 PUSH1 0x1 PUSH1 0xA0 SHL SUB NOT SWAP14 DUP15 AND OR DUP11 SSTORE SWAP6 MLOAD PUSH1 0x1 DUP11 ADD SSTORE SWAP3 MLOAD PUSH1 0x2 DUP10 ADD SSTORE SWAP1 MLOAD PUSH1 0x3 DUP9 ADD SSTORE MLOAD PUSH1 0x4 DUP8 ADD SSTORE MLOAD PUSH1 0x5 DUP7 ADD SSTORE SWAP1 MLOAD PUSH1 0x6 SWAP1 SWAP5 ADD SWAP4 SWAP1 SWAP4 SSTORE SWAP4 DUP3 MSTORE PUSH1 0x12 SWAP1 SWAP4 MSTORE KECCAK256 DUP1 SLOAD SWAP1 SWAP3 AND OR SWAP1 SSTORE JUMP JUMPDEST PUSH1 0x40 MLOAD DUP1 PUSH1 0xE0 ADD PUSH1 0x40 MSTORE DUP1 PUSH0 PUSH1 0x1 PUSH1 0x1 PUSH1 0xA0 SHL SUB AND DUP2 MSTORE PUSH1 0x20 ADD PUSH0 DUP2 MSTORE PUSH1 0x20 ADD PUSH0 DUP2 MSTORE PUSH1 0x20 ADD PUSH0 DUP2 MSTORE PUSH1 0x20 ADD PUSH0 DUP2 MSTORE PUSH1 0x20 ADD PUSH0 DUP2 MSTORE PUSH1 0x20 ADD PUSH0 DUP2 MSTORE POP SWAP1 JUMP JUMPDEST PUSH1 0x40 DUP1 MLOAD PUSH2 0x160 DUP2 ADD SWAP1 SWAP2 MSTORE PUSH0 DUP1 DUP3 MSTORE PUSH1 0x20 DUP3 ADD SWAP1 DUP2 MSTORE PUSH1 0x20 ADD PUSH0 DUP2 MSTORE PUSH1 0x20 ADD PUSH0 DUP2 MSTORE PUSH1 0x20 ADD PUSH0 DUP2 MSTORE PUSH1 0x20 ADD PUSH0 DUP2 MSTORE PUSH1 0x20 ADD PUSH0 DUP2 MSTORE PUSH1 0x20 ADD PUSH0 DUP2 MSTORE PUSH1 0x20 ADD PUSH0 DUP2 MSTORE PUSH1 0x20 ADD PUSH0 DUP1 NOT AND DUP2 MSTORE PUSH1 0x20 ADD PUSH0 DUP1 NOT AND DUP2 MSTORE POP SWAP1 JUMP JUMPDEST PUSH0 PUSH1 0x20 DUP3 DUP5 SUB SLT ISZERO PUSH2 0x3307 JUMPI PUSH0 DUP1 REVERT JUMPDEST POP CALLDATALOAD SWAP2 SWAP1 POP JUMP JUMPDEST PUSH0 DUP1 PUSH1 0x40 DUP4 DUP6 SUB SLT ISZERO PUSH2 0x331F JUMPI PUSH0 DUP1 REVERT JUMPDEST POP POP DUP1 CALLDATALOAD SWAP3 PUSH1 0x20 SWAP1 SWAP2 ADD CALLDATALOAD SWAP2 POP JUMP JUMPDEST PUSH0 DUP2 MLOAD DUP1 DUP5 MSTORE PUSH1 0x20 DUP1 DUP6 ADD SWAP5 POP PUSH1 0x20 DUP5 ADD PUSH0 JUMPDEST DUP4 DUP2 LT ISZERO PUSH2 0x33A4 JUMPI DUP2 MLOAD DUP1 MLOAD PUSH1 0x1 PUSH1 0x1 PUSH1 0xA0 SHL SUB AND DUP9 MSTORE DUP4 DUP2 ADD MLOAD DUP5 DUP10 ADD MSTORE PUSH1 0x40 DUP1 DUP3 ADD MLOAD SWAP1 DUP10 ADD MSTORE PUSH1 0x60 DUP1 DUP3 ADD MLOAD SWAP1 DUP10 ADD MSTORE PUSH1 0x80 DUP1 DUP3 ADD MLOAD SWAP1 DUP10 ADD MSTORE PUSH1 0xA0 DUP1 DUP3 ADD MLOAD SWAP1 DUP10 ADD MSTORE PUSH1 0xC0 SWAP1 DUP2 ADD MLOAD SWAP1 DUP9 ADD MSTORE PUSH1 0xE0 SWAP1 SWAP7 ADD SWAP6 SWAP1 DUP3 ADD SWAP1 PUSH1 0x1 ADD PUSH2 0x3341 JUMP JUMPDEST POP SWAP5 SWAP6 SWAP5 POP POP POP POP POP JUMP JUMPDEST PUSH1 0x20 DUP2 MSTORE PUSH0 PUSH2 0x33C1 PUSH1 0x20 DUP4 ADD DUP5 PUSH2 0x332E JUMP JUMPDEST SWAP4 SWAP3 POP POP POP JUMP JUMPDEST DUP1 CALLDATALOAD PUSH1 0x1 PUSH1 0x1 PUSH1 0xA0 SHL SUB DUP2 AND DUP2 EQ PUSH2 0x33DE JUMPI PUSH0 DUP1 REVERT JUMPDEST SWAP2 SWAP1 POP JUMP JUMPDEST PUSH0 PUSH1 0x20 DUP3 DUP5 SUB SLT ISZERO PUSH2 0x33F3 JUMPI PUSH0 DUP1 REVERT JUMPDEST PUSH2 0x33C1 DUP3 PUSH2 0x33C8 JUMP JUMPDEST PUSH0 JUMPDEST DUP4 DUP2 LT ISZERO PUSH2 0x3416 JUMPI DUP2 DUP2 ADD MLOAD DUP4 DUP3 ADD MSTORE PUSH1 0x20 ADD PUSH2 0x33FE JUMP JUMPDEST POP POP PUSH0 SWAP2 ADD MSTORE JUMP JUMPDEST PUSH0 DUP2 MLOAD DUP1 DUP5 MSTORE PUSH2 0x3435 DUP2 PUSH1 0x20 DUP7 ADD PUSH1 0x20 DUP7 ADD PUSH2 0x33FC JUMP JUMPDEST PUSH1 0x1F ADD PUSH1 0x1F NOT AND SWAP3 SWAP1 SWAP3 ADD PUSH1 0x20 ADD SWAP3 SWAP2 POP POP JUMP JUMPDEST PUSH1 0x20 DUP2 MSTORE PUSH1 0x1 DUP1 PUSH1 0xA0 SHL SUB DUP3 MLOAD AND PUSH1 0x20 DUP3 ADD MSTORE PUSH1 0xFF PUSH1 0x20 DUP4 ADD MLOAD AND PUSH1 0x40 DUP3 ADD MSTORE PUSH0 PUSH1 0x40 DUP4 ADD MLOAD PUSH1 0xC0 PUSH1 0x60 DUP5 ADD MSTORE PUSH2 0x3483 PUSH1 0xE0 DUP5 ADD DUP3 PUSH2 0x341E JUMP JUMPDEST SWAP1 POP PUSH1 0x60 DUP5 ADD MLOAD PUSH1 0x1F NOT DUP5 DUP4 SUB ADD PUSH1 0x80 DUP6 ADD MSTORE PUSH2 0x34A0 DUP3 DUP3 PUSH2 0x341E JUMP JUMPDEST SWAP2 POP POP PUSH1 0x80 DUP5 ADD MLOAD PUSH1 0xA0 DUP5 ADD MSTORE PUSH1 0xA0 DUP5 ADD MLOAD PUSH1 0xC0 DUP5 ADD MSTORE DUP1 SWAP2 POP POP SWAP3 SWAP2 POP POP JUMP JUMPDEST PUSH4 0x4E487B71 PUSH1 0xE0 SHL PUSH0 MSTORE PUSH1 0x21 PUSH1 0x4 MSTORE PUSH1 0x24 PUSH0 REVERT JUMPDEST PUSH1 0x6 DUP2 LT PUSH2 0x34F1 JUMPI PUSH4 0x4E487B71 PUSH1 0xE0 SHL PUSH0 MSTORE PUSH1 0x21 PUSH1 0x4 MSTORE PUSH1 0x24 PUSH0 REVERT JUMPDEST SWAP1 MSTORE JUMP JUMPDEST PUSH1 0x20 DUP2 ADD PUSH2 0xBA9 DUP3 DUP5 PUSH2 0x34D5 JUMP JUMPDEST PUSH0 DUP1 PUSH1 0x40 DUP4 DUP6 SUB SLT ISZERO PUSH2 0x3514 JUMPI PUSH0 DUP1 REVERT JUMPDEST PUSH2 0x351D DUP4 PUSH2 0x33C8 JUMP JUMPDEST SWAP5 PUSH1 0x20 SWAP4 SWAP1 SWAP4 ADD CALLDATALOAD SWAP4 POP POP POP JUMP JUMPDEST PUSH0 DUP2 MLOAD DUP1 DUP5 MSTORE PUSH1 0x20 DUP1 DUP6 ADD SWAP5 POP PUSH1 0x20 DUP5 ADD PUSH0 JUMPDEST DUP4 DUP2 LT ISZERO PUSH2 0x33A4 JUMPI DUP2 MLOAD DUP1 MLOAD DUP9 MSTORE DUP4 DUP2 ADD MLOAD PUSH2 0x355C DUP6 DUP11 ADD DUP3 PUSH2 0x34D5 JUMP JUMPDEST POP PUSH1 0x40 DUP2 DUP2 ADD MLOAD SWAP1 DUP10 ADD MSTORE PUSH1 0x60 DUP1 DUP3 ADD MLOAD SWAP1 DUP10 ADD MSTORE PUSH1 0x80 DUP1 DUP3 ADD MLOAD SWAP1 DUP10 ADD MSTORE PUSH1 0xA0 DUP1 DUP3 ADD MLOAD SWAP1 DUP10 ADD MSTORE PUSH1 0xC0 DUP1 DUP3 ADD MLOAD SWAP1 DUP10 ADD MSTORE PUSH1 0xE0 DUP1 DUP3 ADD MLOAD SWAP1 DUP10 ADD MSTORE PUSH2 0x100 DUP1 DUP3 ADD MLOAD SWAP1 DUP10 ADD MSTORE PUSH2 0x120 DUP1 DUP3 ADD MLOAD SWAP1 DUP10 ADD MSTORE PUSH2 0x140 SWAP1 DUP2 ADD MLOAD SWAP1 DUP9 ADD MSTORE PUSH2 0x160 SWAP1 SWAP7 ADD SWAP6 SWAP1 DUP3 ADD SWAP1 PUSH1 0x1 ADD PUSH2 0x353E JUMP JUMPDEST PUSH1 0x20 DUP2 MSTORE PUSH0 PUSH2 0x33C1 PUSH1 0x20 DUP4 ADD DUP5 PUSH2 0x352B JUMP JUMPDEST DUP12 DUP2 MSTORE PUSH2 0x160 DUP2 ADD PUSH2 0x35F4 PUSH1 0x20 DUP4 ADD DUP14 PUSH2 0x34D5 JUMP JUMPDEST PUSH1 0x40 DUP3 ADD SWAP11 SWAP1 SWAP11 MSTORE PUSH1 0x60 DUP2 ADD SWAP9 SWAP1 SWAP9 MSTORE PUSH1 0x80 DUP9 ADD SWAP7 SWAP1 SWAP7 MSTORE PUSH1 0xA0 DUP8 ADD SWAP5 SWAP1 SWAP5 MSTORE PUSH1 0xC0 DUP7 ADD SWAP3 SWAP1 SWAP3 MSTORE PUSH1 0xE0 DUP6 ADD MSTORE PUSH2 0x100 DUP5 ADD MSTORE PUSH2 0x120 DUP4 ADD MSTORE PUSH2 0x140 SWAP1 SWAP2 ADD MSTORE SWAP3 SWAP2 POP POP JUMP JUMPDEST PUSH0 DUP1 PUSH0 PUSH1 0x60 DUP5 DUP7 SUB SLT ISZERO PUSH2 0x364C JUMPI PUSH0 DUP1 REVERT JUMPDEST POP POP DUP2 CALLDATALOAD SWAP4 PUSH1 0x20 DUP4 ADD CALLDATALOAD SWAP4 POP PUSH1 0x40 SWAP1 SWAP3 ADD CALLDATALOAD SWAP2 SWAP1 POP JUMP JUMPDEST PUSH0 DUP2 MLOAD DUP1 DUP5 MSTORE PUSH1 0x20 DUP1 DUP6 ADD SWAP5 POP PUSH1 0x20 DUP5 ADD PUSH0 JUMPDEST DUP4 DUP2 LT ISZERO PUSH2 0x33A4 JUMPI DUP2 MLOAD DUP8 MSTORE SWAP6 DUP3 ADD SWAP6 SWAP1 DUP3 ADD SWAP1 PUSH1 0x1 ADD PUSH2 0x3676 JUMP JUMPDEST PUSH1 0x80 DUP2 MSTORE PUSH0 PUSH2 0x36A4 PUSH1 0x80 DUP4 ADD DUP8 PUSH2 0x332E JUMP JUMPDEST DUP3 DUP2 SUB PUSH1 0x20 DUP5 ADD MSTORE PUSH2 0x36B6 DUP2 DUP8 PUSH2 0x3663 JUMP JUMPDEST SWAP1 POP DUP3 DUP2 SUB PUSH1 0x40 DUP5 ADD MSTORE PUSH2 0x36CA DUP2 DUP7 PUSH2 0x3663 JUMP JUMPDEST SWAP1 POP DUP3 DUP2 SUB PUSH1 0x60 DUP5 ADD MSTORE PUSH2 0x36DE DUP2 DUP6 PUSH2 0x3663 JUMP JUMPDEST SWAP8 SWAP7 POP POP POP POP POP POP POP JUMP JUMPDEST PUSH4 0x4E487B71 PUSH1 0xE0 SHL PUSH0 MSTORE PUSH1 0x41 PUSH1 0x4 MSTORE PUSH1 0x24 PUSH0 REVERT JUMPDEST PUSH1 0x40 MLOAD PUSH1 0x1F DUP3 ADD PUSH1 0x1F NOT AND DUP2 ADD PUSH1 0x1 PUSH1 0x1 PUSH1 0x40 SHL SUB DUP2 GT DUP3 DUP3 LT OR ISZERO PUSH2 0x3725 JUMPI PUSH2 0x3725 PUSH2 0x36E9 JUMP JUMPDEST PUSH1 0x40 MSTORE SWAP2 SWAP1 POP JUMP JUMPDEST PUSH0 PUSH1 0x1 PUSH1 0x1 PUSH1 0x40 SHL SUB DUP1 DUP5 GT ISZERO PUSH2 0x3746 JUMPI PUSH2 0x3746 PUSH2 0x36E9 JUMP JUMPDEST PUSH1 0x20 PUSH2 0x3757 PUSH1 0x20 DUP7 PUSH1 0x5 SHL ADD PUSH2 0x36FD JUMP JUMPDEST DUP6 DUP2 MSTORE SWAP3 POP PUSH1 0x20 DUP4 ADD PUSH1 0x6 DUP7 SWAP1 SHL DUP6 ADD DUP8 DUP2 GT ISZERO PUSH2 0x3773 JUMPI PUSH0 DUP1 REVERT JUMPDEST DUP6 JUMPDEST DUP2 DUP2 LT ISZERO PUSH2 0x37C3 JUMPI PUSH1 0x40 DUP1 DUP3 DUP12 SUB SLT ISZERO PUSH2 0x378D JUMPI PUSH0 DUP1 REVERT JUMPDEST DUP1 MLOAD DUP2 DUP2 ADD DUP2 DUP2 LT DUP9 DUP3 GT OR ISZERO PUSH2 0x37A6 JUMPI PUSH2 0x37A6 PUSH2 0x36E9 JUMP JUMPDEST SWAP1 SWAP2 MSTORE DUP2 CALLDATALOAD DUP2 MSTORE DUP5 DUP3 ADD CALLDATALOAD DUP6 DUP3 ADD MSTORE DUP4 MSTORE SWAP2 DUP4 ADD SWAP2 PUSH1 0x40 ADD PUSH2 0x3775 JUMP JUMPDEST POP POP POP POP POP SWAP4 SWAP3 POP POP POP JUMP JUMPDEST PUSH0 DUP1 PUSH1 0x40 DUP4 DUP6 SUB SLT ISZERO PUSH2 0x37E0 JUMPI PUSH0 DUP1 REVERT JUMPDEST DUP3 CALLDATALOAD SWAP2 POP PUSH1 0x20 DUP4 ADD CALLDATALOAD PUSH1 0x1 PUSH1 0x1 PUSH1 0x40 SHL SUB DUP2 GT ISZERO PUSH2 0x37FC JUMPI PUSH0 DUP1 REVERT JUMPDEST DUP4 ADD PUSH1 0x1F DUP2 ADD DUP6 SGT PUSH2 0x380C JUMPI PUSH0 DUP1 REVERT JUMPDEST PUSH2 0x381B DUP6 DUP3 CALLDATALOAD PUSH1 0x20 DUP5 ADD PUSH2 0x372D JUMP JUMPDEST SWAP2 POP POP SWAP3 POP SWAP3 SWAP1 POP JUMP JUMPDEST PUSH0 DUP1 PUSH0 PUSH1 0x60 DUP5 DUP7 SUB SLT ISZERO PUSH2 0x3837 JUMPI PUSH0 DUP1 REVERT JUMPDEST PUSH2 0x3840 DUP5 PUSH2 0x33C8 JUMP JUMPDEST SWAP6 PUSH1 0x20 DUP6 ADD CALLDATALOAD SWAP6 POP PUSH1 0x40 SWAP1 SWAP5 ADD CALLDATALOAD SWAP4 SWAP3 POP POP POP JUMP JUMPDEST PUSH1 0x80 DUP2 MSTORE PUSH0 PUSH2 0x36A4 PUSH1 0x80 DUP4 ADD DUP8 PUSH2 0x352B JUMP JUMPDEST PUSH0 DUP1 PUSH0 DUP1 PUSH1 0x80 DUP6 DUP8 SUB SLT ISZERO PUSH2 0x387A JUMPI PUSH0 DUP1 REVERT JUMPDEST DUP5 CALLDATALOAD SWAP4 POP PUSH1 0x20 DUP6 ADD CALLDATALOAD SWAP3 POP PUSH1 0x40 DUP6 ADD CALLDATALOAD SWAP2 POP PUSH1 0x60 DUP6 ADD CALLDATALOAD PUSH1 0x1 PUSH1 0x1 PUSH1 0x40 SHL SUB DUP2 GT ISZERO PUSH2 0x38A4 JUMPI PUSH0 DUP1 REVERT JUMPDEST DUP6 ADD PUSH1 0x1F DUP2 ADD DUP8 SGT PUSH2 0x38B4 JUMPI PUSH0 DUP1 REVERT JUMPDEST PUSH2 0x38C3 DUP8 DUP3 CALLDATALOAD PUSH1 0x20 DUP5 ADD PUSH2 0x372D JUMP JUMPDEST SWAP2 POP POP SWAP3 SWAP6 SWAP2 SWAP5 POP SWAP3 POP JUMP JUMPDEST PUSH1 0x20 DUP1 DUP3 MSTORE PUSH1 0xA SWAP1 DUP3 ADD MSTORE PUSH10 0x27B7363C9037BBB732B9 PUSH1 0xB1 SHL PUSH1 0x40 DUP3 ADD MSTORE PUSH1 0x60 ADD SWAP1 JUMP JUMPDEST PUSH4 0x4E487B71 PUSH1 0xE0 SHL PUSH0 MSTORE PUSH1 0x11 PUSH1 0x4 MSTORE PUSH1 0x24 PUSH0 REVERT JUMPDEST DUP1 DUP3 ADD DUP1 DUP3 GT ISZERO PUSH2 0xBA9 JUMPI PUSH2 0xBA9 PUSH2 0x38F3 JUMP JUMPDEST DUP2 DUP2 SUB DUP2 DUP2 GT ISZERO PUSH2 0xBA9 JUMPI PUSH2 0xBA9 PUSH2 0x38F3 JUMP JUMPDEST PUSH4 0x4E487B71 PUSH1 0xE0 SHL PUSH0 MSTORE PUSH1 0x32 PUSH1 0x4 MSTORE PUSH1 0x24 PUSH0 REVERT JUMPDEST PUSH0 PUSH1 0x20 DUP3 DUP5 SUB SLT ISZERO PUSH2 0x3951 JUMPI PUSH0 DUP1 REVERT JUMPDEST DUP2 MLOAD PUSH1 0xFF DUP2 AND DUP2 EQ PUSH2 0x33C1 JUMPI PUSH0 DUP1 REVERT JUMPDEST PUSH0 PUSH1 0x20 DUP3 DUP5 SUB SLT ISZERO PUSH2 0x3971 JUMPI PUSH0 DUP1 REVERT JUMPDEST DUP2 MLOAD PUSH1 0x1 PUSH1 0x1 PUSH1 0x40 SHL SUB DUP1 DUP3 GT ISZERO PUSH2 0x3987 JUMPI PUSH0 DUP1 REVERT JUMPDEST DUP2 DUP5 ADD SWAP2 POP DUP5 PUSH1 0x1F DUP4 ADD SLT PUSH2 0x399A JUMPI PUSH0 DUP1 REVERT JUMPDEST DUP2 MLOAD DUP2 DUP2 GT ISZERO PUSH2 0x39AC JUMPI PUSH2 0x39AC PUSH2 0x36E9 JUMP JUMPDEST PUSH2 0x39BF PUSH1 0x1F DUP3 ADD PUSH1 0x1F NOT AND PUSH1 0x20 ADD PUSH2 0x36FD JUMP JUMPDEST SWAP2 POP DUP1 DUP3 MSTORE DUP6 PUSH1 0x20 DUP3 DUP6 ADD ADD GT ISZERO PUSH2 0x39D5 JUMPI PUSH0 DUP1 REVERT JUMPDEST PUSH2 0x39E6 DUP2 PUSH1 0x20 DUP5 ADD PUSH1 0x20 DUP7 ADD PUSH2 0x33FC JUMP JUMPDEST POP SWAP5 SWAP4 POP POP POP POP JUMP JUMPDEST PUSH0 PUSH1 0x20 DUP3 DUP5 SUB SLT ISZERO PUSH2 0x39FF JUMPI PUSH0 DUP1 REVERT JUMPDEST POP MLOAD SWAP2 SWAP1 POP JUMP JUMPDEST PUSH0 PUSH1 0x20 DUP3 DUP5 SUB SLT ISZERO PUSH2 0x3A16 JUMPI PUSH0 DUP1 REVERT JUMPDEST DUP2 MLOAD DUP1 ISZERO ISZERO DUP2 EQ PUSH2 0x33C1 JUMPI PUSH0 DUP1 REVERT JUMPDEST PUSH1 0x20 DUP1 DUP3 MSTORE PUSH1 0xB SWAP1 DUP3 ADD MSTORE PUSH11 0x4F6E6C79206F7261636C65 PUSH1 0xA8 SHL PUSH1 0x40 DUP3 ADD MSTORE PUSH1 0x60 ADD SWAP1 JUMP JUMPDEST DUP1 DUP3 MUL DUP2 ISZERO DUP3 DUP3 DIV DUP5 EQ OR PUSH2 0xBA9 JUMPI PUSH2 0xBA9 PUSH2 0x38F3 JUMP JUMPDEST PUSH0 DUP3 PUSH2 0x3A7B JUMPI PUSH4 0x4E487B71 PUSH1 0xE0 SHL PUSH0 MSTORE PUSH1 0x12 PUSH1 0x4 MSTORE PUSH1 0x24 PUSH0 REVERT JUMPDEST POP DIV SWAP1 JUMP JUMPDEST PUSH0 PUSH1 0x1 DUP3 ADD PUSH2 0x3A91 JUMPI PUSH2 0x3A91 PUSH2 0x38F3 JUMP JUMPDEST POP PUSH1 0x1 ADD SWAP1 JUMP JUMPDEST PUSH0 PUSH1 0x40 DUP1 DUP4 ADD DUP6 DUP5 MSTORE PUSH1 0x20 PUSH1 0x40 PUSH1 0x20 DUP7 ADD MSTORE DUP2 DUP7 MLOAD DUP1 DUP5 MSTORE PUSH1 0x60 DUP8 ADD SWAP2 POP PUSH1 0x20 DUP9 ADD SWAP4 POP PUSH0 JUMPDEST DUP2 DUP2 LT ISZERO PUSH2 0x3AE3 JUMPI DUP5 MLOAD DUP1 MLOAD DUP5 MSTORE DUP5 ADD MLOAD DUP5 DUP5 ADD MSTORE SWAP4 DUP4 ADD SWAP4 SWAP2 DUP6 ADD SWAP2 PUSH1 0x1 ADD PUSH2 0x3ABE JUMP JUMPDEST POP SWAP1 SWAP9 SWAP8 POP POP POP POP POP POP POP POP JUMP INVALID LOG2 PUSH5 0x6970667358 0x22 SLT KECCAK256 PUSH10 0x560A8B2542C3543895F 0xC8 MSIZE PUSH10 0xE30E2EEE38380C576CB7 0xCA DUP14 0xCC 0xCB PUSH7 0x8DC0F764736F6C PUSH4 0x43000818 STOP CALLER "
		},
		"gasEstimates": {
			"creation": {
				"codeDepositCost": "3028600",
				"executionCost": "infinite",
				"totalCost": "infinite"
			},
			"external": {
				"PRECISION()": "317",
				"bankAmount()": "2394",
				"burnAndStakeAddress()": "2404",
				"cancelRound(uint256)": "infinite",
				"cashOut(uint256)": "infinite",
				"checkHash(uint256,bytes32,bytes32)": "650",
				"deposit(uint256)": "infinite",
				"depositPendingAmount(uint256)": "infinite",
				"depositToBank(uint256)": "infinite",
				"enterToRound(uint256,(uint256,uint256)[])": "infinite",
				"finishRound(uint256,uint256,bytes32,(uint256,uint256)[])": "infinite",
				"getCurrentRound()": "2348",
				"getCurrentRoundState()": "4653",
				"getNextRound()": "2492",
				"getPlayerRounds(address,uint256,uint256)": "infinite",
				"getPlayers(uint256,uint256)": "infinite",
				"getRoundPlayers(uint256,uint256,uint256)": "infinite",
				"getRounds(uint256,uint256)": "infinite",
				"getTokenInfo(address)": "infinite",
				"maxBet()": "2374",
				"maxMultiplier()": "2375",
				"minBet()": "2374",
				"minMultiplier()": "2395",
				"onLosePercentToProcess()": "2352",
				"oracle()": "2404",
				"owner()": "2469",
				"pendingBankAmount()": "2395",
				"pendingRound(bytes32)": "258626",
				"players(address)": "15460",
				"playersCount()": "2373",
				"playersList(uint256)": "2587",
				"playersRounds(uint256,uint256)": "2609",
				"recoverWrongToken(address,uint256)": "infinite",
				"roundCoolDown()": "2394",
				"roundPlayers(uint256,uint256)": "4760",
				"roundPlayersCashOut(uint256,uint256)": "4738",
				"roundPlayersCashOutClaimed(uint256,uint256)": "2610",
				"roundPlayersCashOutIds(uint256,uint256)": "2632",
				"roundPlayersExists(uint256,uint256)": "2632",
				"roundPlayersIds(uint256,uint256)": "2651",
				"rounds(uint256)": "24020",
				"roundsCounter()": "2397",
				"setBurnAndStakeAddress(address)": "26842",
				"setBurnAndStakePercent(uint256)": "24574",
				"setMaxBet(uint256)": "24529",
				"setMaxMultiplier(uint256)": "24532",
				"setMinBet(uint256)": "24551",
				"setMinMultiplier(uint256)": "24552",
				"setOracle(address)": "26843",
				"setRoundCoolDown(uint256)": "24551",
				"startRound(uint256)": "56909",
				"token()": "2446",
				"totalBets()": "2395",
				"totalBetsAmount()": "2416",
				"totalCashOut()": "2352",
				"totalCashOutAmount()": "2417",
				"totalPlayersDeposit()": "2350",
				"transferOwnership(address)": "26775",
				"usedHashes(bytes32)": "2514",
				"withdrawBank(uint256)": "infinite"
			},
			"internal": {
				"registerPlayer(address)": "infinite"
			}
		},
		"methodIdentifiers": {
			"PRECISION()": "aaf5eb68",
			"bankAmount()": "b42a275e",
			"burnAndStakeAddress()": "773ed91e",
			"cancelRound(uint256)": "7e07ab09",
			"cashOut(uint256)": "5c7b79f5",
			"checkHash(uint256,bytes32,bytes32)": "9972780a",
			"deposit(uint256)": "b6b55f25",
			"depositPendingAmount(uint256)": "81a486f7",
			"depositToBank(uint256)": "79c3f683",
			"enterToRound(uint256,(uint256,uint256)[])": "ce314f43",
			"finishRound(uint256,uint256,bytes32,(uint256,uint256)[])": "f715db58",
			"getCurrentRound()": "a32bf597",
			"getCurrentRoundState()": "38a50817",
			"getNextRound()": "8011d1ed",
			"getPlayerRounds(address,uint256,uint256)": "cfbd9c95",
			"getPlayers(uint256,uint256)": "0d2dce22",
			"getRoundPlayers(uint256,uint256,uint256)": "a4ab9235",
			"getRounds(uint256,uint256)": "40f74f47",
			"getTokenInfo(address)": "1f69565f",
			"maxBet()": "2e5b2168",
			"maxMultiplier()": "0187aea0",
			"minBet()": "9619367d",
			"minMultiplier()": "a24e0d87",
			"onLosePercentToProcess()": "22d4bcbd",
			"oracle()": "7dc0d1d0",
			"owner()": "8da5cb5b",
			"pendingBankAmount()": "79e02b95",
			"pendingRound(bytes32)": "cb02c10a",
			"players(address)": "e2eb41ff",
			"playersCount()": "a3f67d6d",
			"playersList(uint256)": "7319b43e",
			"playersRounds(uint256,uint256)": "4aa82380",
			"recoverWrongToken(address,uint256)": "3c28f9ce",
			"roundCoolDown()": "e4a9f192",
			"roundPlayers(uint256,uint256)": "671eea01",
			"roundPlayersCashOut(uint256,uint256)": "91b1db18",
			"roundPlayersCashOutClaimed(uint256,uint256)": "9b29953b",
			"roundPlayersCashOutIds(uint256,uint256)": "13b8ac5e",
			"roundPlayersExists(uint256,uint256)": "bed8840c",
			"roundPlayersIds(uint256,uint256)": "fca8d843",
			"rounds(uint256)": "8c65c81f",
			"roundsCounter()": "034420c4",
			"setBurnAndStakeAddress(address)": "dbbe2550",
			"setBurnAndStakePercent(uint256)": "50570248",
			"setMaxBet(uint256)": "881eff1e",
			"setMaxMultiplier(uint256)": "01526a43",
			"setMinBet(uint256)": "88ea41b9",
			"setMinMultiplier(uint256)": "9fd751c7",
			"setOracle(address)": "7adbf973",
			"setRoundCoolDown(uint256)": "b32f59f0",
			"startRound(uint256)": "5fc3d52d",
			"token()": "fc0c546a",
			"totalBets()": "befa1e2f",
			"totalBetsAmount()": "efbd7bd2",
			"totalCashOut()": "074e0036",
			"totalCashOutAmount()": "a2791143",
			"totalPlayersDeposit()": "e1496286",
			"transferOwnership(address)": "f2fde38b",
			"usedHashes(bytes32)": "aef18bf7",
			"withdrawBank(uint256)": "be2ff4a9"
		}
	},
	"abi": [
		{
			"inputs": [
				{
					"internalType": "address",
					"name": "_tokenAddress",
					"type": "address"
				}
			],
			"stateMutability": "nonpayable",
			"type": "constructor"
		},
		{
			"anonymous": false,
			"inputs": [
				{
					"indexed": false,
					"internalType": "uint256",
					"name": "roundId",
					"type": "uint256"
				}
			],
			"name": "RoundCanceled",
			"type": "event"
		},
		{
			"anonymous": false,
			"inputs": [
				{
					"indexed": false,
					"internalType": "uint256",
					"name": "roundId",
					"type": "uint256"
				},
				{
					"components": [
						{
							"internalType": "uint256",
							"name": "playerId",
							"type": "uint256"
						},
						{
							"internalType": "uint256",
							"name": "betAmount",
							"type": "uint256"
						}
					],
					"indexed": false,
					"internalType": "struct GGWorldCrashGame.RoundPlayer[]",
					"name": "players",
					"type": "tuple[]"
				}
			],
			"name": "RoundEntering",
			"type": "event"
		},
		{
			"anonymous": false,
			"inputs": [
				{
					"indexed": false,
					"internalType": "uint256",
					"name": "roundId",
					"type": "uint256"
				},
				{
					"indexed": false,
					"internalType": "uint256",
					"name": "multiplier",
					"type": "uint256"
				},
				{
					"indexed": false,
					"internalType": "bytes32",
					"name": "multiplierSalt",
					"type": "bytes32"
				},
				{
					"indexed": false,
					"internalType": "bytes32",
					"name": "multiplierHash",
					"type": "bytes32"
				},
				{
					"indexed": false,
					"internalType": "uint256",
					"name": "playerCount",
					"type": "uint256"
				},
				{
					"indexed": false,
					"internalType": "uint256",
					"name": "betsAmount",
					"type": "uint256"
				},
				{
					"indexed": false,
					"internalType": "uint256",
					"name": "cashOutAmount",
					"type": "uint256"
				}
			],
			"name": "RoundFinished",
			"type": "event"
		},
		{
			"anonymous": false,
			"inputs": [
				{
					"indexed": false,
					"internalType": "uint256",
					"name": "roundId",
					"type": "uint256"
				},
				{
					"indexed": false,
					"internalType": "bytes32",
					"name": "multiplierHash",
					"type": "bytes32"
				}
			],
			"name": "RoundPending",
			"type": "event"
		},
		{
			"anonymous": false,
			"inputs": [
				{
					"indexed": false,
					"internalType": "uint256",
					"name": "roundId",
					"type": "uint256"
				},
				{
					"indexed": false,
					"internalType": "uint256",
					"name": "playersCount",
					"type": "uint256"
				},
				{
					"indexed": false,
					"internalType": "uint256",
					"name": "betsAmount",
					"type": "uint256"
				}
			],
			"name": "RoundStarted",
			"type": "event"
		},
		{
			"inputs": [],
			"name": "PRECISION",
			"outputs": [
				{
					"internalType": "uint256",
					"name": "",
					"type": "uint256"
				}
			],
			"stateMutability": "view",
			"type": "function"
		},
		{
			"inputs": [],
			"name": "bankAmount",
			"outputs": [
				{
					"internalType": "uint256",
					"name": "",
					"type": "uint256"
				}
			],
			"stateMutability": "view",
			"type": "function"
		},
		{
			"inputs": [],
			"name": "burnAndStakeAddress",
			"outputs": [
				{
					"internalType": "address",
					"name": "",
					"type": "address"
				}
			],
			"stateMutability": "view",
			"type": "function"
		},
		{
			"inputs": [
				{
					"internalType": "uint256",
					"name": "roundId",
					"type": "uint256"
				}
			],
			"name": "cancelRound",
			"outputs": [],
			"stateMutability": "nonpayable",
			"type": "function"
		},
		{
			"inputs": [
				{
					"internalType": "uint256",
					"name": "amount",
					"type": "uint256"
				}
			],
			"name": "cashOut",
			"outputs": [],
			"stateMutability": "nonpayable",
			"type": "function"
		},
		{
			"inputs": [
				{
					"internalType": "uint256",
					"name": "multiplier",
					"type": "uint256"
				},
				{
					"internalType": "bytes32",
					"name": "multiplierHash",
					"type": "bytes32"
				},
				{
					"internalType": "bytes32",
					"name": "multiplierSalt",
					"type": "bytes32"
				}
			],
			"name": "checkHash",
			"outputs": [
				{
					"internalType": "bool",
					"name": "",
					"type": "bool"
				}
			],
			"stateMutability": "pure",
			"type": "function"
		},
		{
			"inputs": [
				{
					"internalType": "uint256",
					"name": "amount",
					"type": "uint256"
				}
			],
			"name": "deposit",
			"outputs": [],
			"stateMutability": "nonpayable",
			"type": "function"
		},
		{
			"inputs": [
				{
					"internalType": "uint256",
					"name": "amount",
					"type": "uint256"
				}
			],
			"name": "depositPendingAmount",
			"outputs": [],
			"stateMutability": "nonpayable",
			"type": "function"
		},
		{
			"inputs": [
				{
					"internalType": "uint256",
					"name": "amount",
					"type": "uint256"
				}
			],
			"name": "depositToBank",
			"outputs": [],
			"stateMutability": "nonpayable",
			"type": "function"
		},
		{
			"inputs": [
				{
					"internalType": "uint256",
					"name": "roundId",
					"type": "uint256"
				},
				{
					"components": [
						{
							"internalType": "uint256",
							"name": "playerId",
							"type": "uint256"
						},
						{
							"internalType": "uint256",
							"name": "betAmount",
							"type": "uint256"
						}
					],
					"internalType": "struct GGWorldCrashGame.RoundPlayer[]",
					"name": "_players",
					"type": "tuple[]"
				}
			],
			"name": "enterToRound",
			"outputs": [],
			"stateMutability": "nonpayable",
			"type": "function"
		},
		{
			"inputs": [
				{
					"internalType": "uint256",
					"name": "roundId",
					"type": "uint256"
				},
				{
					"internalType": "uint256",
					"name": "multiplier",
					"type": "uint256"
				},
				{
					"internalType": "bytes32",
					"name": "multiplierSalt",
					"type": "bytes32"
				},
				{
					"components": [
						{
							"internalType": "uint256",
							"name": "playerId",
							"type": "uint256"
						},
						{
							"internalType": "uint256",
							"name": "multiplier",
							"type": "uint256"
						}
					],
					"internalType": "struct GGWorldCrashGame.CashOutPlayer[]",
					"name": "cashOutPlayers",
					"type": "tuple[]"
				}
			],
			"name": "finishRound",
			"outputs": [],
			"stateMutability": "nonpayable",
			"type": "function"
		},
		{
			"inputs": [],
			"name": "getCurrentRound",
			"outputs": [
				{
					"internalType": "uint256",
					"name": "",
					"type": "uint256"
				}
			],
			"stateMutability": "view",
			"type": "function"
		},
		{
			"inputs": [],
			"name": "getCurrentRoundState",
			"outputs": [
				{
					"internalType": "enum GGWorldCrashGame.ROUND_STATE",
					"name": "",
					"type": "uint8"
				}
			],
			"stateMutability": "view",
			"type": "function"
		},
		{
			"inputs": [],
			"name": "getNextRound",
			"outputs": [
				{
					"internalType": "uint256",
					"name": "",
					"type": "uint256"
				}
			],
			"stateMutability": "view",
			"type": "function"
		},
		{
			"inputs": [
				{
					"internalType": "address",
					"name": "playerAddress",
					"type": "address"
				},
				{
					"internalType": "uint256",
					"name": "offset",
					"type": "uint256"
				},
				{
					"internalType": "uint256",
					"name": "limit",
					"type": "uint256"
				}
			],
			"name": "getPlayerRounds",
			"outputs": [
				{
					"components": [
						{
							"internalType": "uint256",
							"name": "roundId",
							"type": "uint256"
						},
						{
							"internalType": "enum GGWorldCrashGame.ROUND_STATE",
							"name": "state",
							"type": "uint8"
						},
						{
							"internalType": "uint256",
							"name": "startsIn",
							"type": "uint256"
						},
						{
							"internalType": "uint256",
							"name": "endsIn",
							"type": "uint256"
						},
						{
							"internalType": "uint256",
							"name": "playersCount",
							"type": "uint256"
						},
						{
							"internalType": "uint256",
							"name": "cashOutCount",
							"type": "uint256"
						},
						{
							"internalType": "uint256",
							"name": "betsAmount",
							"type": "uint256"
						},
						{
							"internalType": "uint256",
							"name": "cashOutAmount",
							"type": "uint256"
						},
						{
							"internalType": "uint256",
							"name": "multiplier",
							"type": "uint256"
						},
						{
							"internalType": "bytes32",
							"name": "multiplierHash",
							"type": "bytes32"
						},
						{
							"internalType": "bytes32",
							"name": "multiplierSalt",
							"type": "bytes32"
						}
					],
					"internalType": "struct GGWorldCrashGame.Round[]",
					"name": "ret",
					"type": "tuple[]"
				},
				{
					"internalType": "uint256[]",
					"name": "bets",
					"type": "uint256[]"
				},
				{
					"internalType": "uint256[]",
					"name": "cashouts",
					"type": "uint256[]"
				},
				{
					"internalType": "uint256[]",
					"name": "multipliers",
					"type": "uint256[]"
				}
			],
			"stateMutability": "view",
			"type": "function"
		},
		{
			"inputs": [
				{
					"internalType": "uint256",
					"name": "offset",
					"type": "uint256"
				},
				{
					"internalType": "uint256",
					"name": "limit",
					"type": "uint256"
				}
			],
			"name": "getPlayers",
			"outputs": [
				{
					"components": [
						{
							"internalType": "address",
							"name": "playerAddress",
							"type": "address"
						},
						{
							"internalType": "uint256",
							"name": "playerId",
							"type": "uint256"
						},
						{
							"internalType": "uint256",
							"name": "depositAmount",
							"type": "uint256"
						},
						{
							"internalType": "uint256",
							"name": "betsAmount",
							"type": "uint256"
						},
						{
							"internalType": "uint256",
							"name": "cashOutAmount",
							"type": "uint256"
						},
						{
							"internalType": "uint256",
							"name": "roundsCount",
							"type": "uint256"
						},
						{
							"internalType": "uint256",
							"name": "currentRoundId",
							"type": "uint256"
						}
					],
					"internalType": "struct GGWorldCrashGame.Player[]",
					"name": "",
					"type": "tuple[]"
				}
			],
			"stateMutability": "view",
			"type": "function"
		},
		{
			"inputs": [
				{
					"internalType": "uint256",
					"name": "roundId",
					"type": "uint256"
				},
				{
					"internalType": "uint256",
					"name": "offset",
					"type": "uint256"
				},
				{
					"internalType": "uint256",
					"name": "limit",
					"type": "uint256"
				}
			],
			"name": "getRoundPlayers",
			"outputs": [
				{
					"components": [
						{
							"internalType": "address",
							"name": "playerAddress",
							"type": "address"
						},
						{
							"internalType": "uint256",
							"name": "playerId",
							"type": "uint256"
						},
						{
							"internalType": "uint256",
							"name": "depositAmount",
							"type": "uint256"
						},
						{
							"internalType": "uint256",
							"name": "betsAmount",
							"type": "uint256"
						},
						{
							"internalType": "uint256",
							"name": "cashOutAmount",
							"type": "uint256"
						},
						{
							"internalType": "uint256",
							"name": "roundsCount",
							"type": "uint256"
						},
						{
							"internalType": "uint256",
							"name": "currentRoundId",
							"type": "uint256"
						}
					],
					"internalType": "struct GGWorldCrashGame.Player[]",
					"name": "ret",
					"type": "tuple[]"
				},
				{
					"internalType": "uint256[]",
					"name": "bets",
					"type": "uint256[]"
				},
				{
					"internalType": "uint256[]",
					"name": "multipliers",
					"type": "uint256[]"
				},
				{
					"internalType": "uint256[]",
					"name": "cashoutAmounts",
					"type": "uint256[]"
				}
			],
			"stateMutability": "view",
			"type": "function"
		},
		{
			"inputs": [
				{
					"internalType": "uint256",
					"name": "offset",
					"type": "uint256"
				},
				{
					"internalType": "uint256",
					"name": "limit",
					"type": "uint256"
				}
			],
			"name": "getRounds",
			"outputs": [
				{
					"components": [
						{
							"internalType": "uint256",
							"name": "roundId",
							"type": "uint256"
						},
						{
							"internalType": "enum GGWorldCrashGame.ROUND_STATE",
							"name": "state",
							"type": "uint8"
						},
						{
							"internalType": "uint256",
							"name": "startsIn",
							"type": "uint256"
						},
						{
							"internalType": "uint256",
							"name": "endsIn",
							"type": "uint256"
						},
						{
							"internalType": "uint256",
							"name": "playersCount",
							"type": "uint256"
						},
						{
							"internalType": "uint256",
							"name": "cashOutCount",
							"type": "uint256"
						},
						{
							"internalType": "uint256",
							"name": "betsAmount",
							"type": "uint256"
						},
						{
							"internalType": "uint256",
							"name": "cashOutAmount",
							"type": "uint256"
						},
						{
							"internalType": "uint256",
							"name": "multiplier",
							"type": "uint256"
						},
						{
							"internalType": "bytes32",
							"name": "multiplierHash",
							"type": "bytes32"
						},
						{
							"internalType": "bytes32",
							"name": "multiplierSalt",
							"type": "bytes32"
						}
					],
					"internalType": "struct GGWorldCrashGame.Round[]",
					"name": "",
					"type": "tuple[]"
				}
			],
			"stateMutability": "view",
			"type": "function"
		},
		{
			"inputs": [
				{
					"internalType": "address",
					"name": "playerAddress",
					"type": "address"
				}
			],
			"name": "getTokenInfo",
			"outputs": [
				{
					"components": [
						{
							"internalType": "address",
							"name": "tokenAddress",
							"type": "address"
						},
						{
							"internalType": "uint8",
							"name": "decimals",
							"type": "uint8"
						},
						{
							"internalType": "string",
							"name": "name",
							"type": "string"
						},
						{
							"internalType": "string",
							"name": "symbol",
							"type": "string"
						},
						{
							"internalType": "uint256",
							"name": "balance",
							"type": "uint256"
						},
						{
							"internalType": "uint256",
							"name": "allowance",
							"type": "uint256"
						}
					],
					"internalType": "struct GGWorldCrashGame.GameTokenInfo",
					"name": "",
					"type": "tuple"
				}
			],
			"stateMutability": "view",
			"type": "function"
		},
		{
			"inputs": [],
			"name": "maxBet",
			"outputs": [
				{
					"internalType": "uint256",
					"name": "",
					"type": "uint256"
				}
			],
			"stateMutability": "view",
			"type": "function"
		},
		{
			"inputs": [],
			"name": "maxMultiplier",
			"outputs": [
				{
					"internalType": "uint256",
					"name": "",
					"type": "uint256"
				}
			],
			"stateMutability": "view",
			"type": "function"
		},
		{
			"inputs": [],
			"name": "minBet",
			"outputs": [
				{
					"internalType": "uint256",
					"name": "",
					"type": "uint256"
				}
			],
			"stateMutability": "view",
			"type": "function"
		},
		{
			"inputs": [],
			"name": "minMultiplier",
			"outputs": [
				{
					"internalType": "uint256",
					"name": "",
					"type": "uint256"
				}
			],
			"stateMutability": "view",
			"type": "function"
		},
		{
			"inputs": [],
			"name": "onLosePercentToProcess",
			"outputs": [
				{
					"internalType": "uint256",
					"name": "",
					"type": "uint256"
				}
			],
			"stateMutability": "view",
			"type": "function"
		},
		{
			"inputs": [],
			"name": "oracle",
			"outputs": [
				{
					"internalType": "address",
					"name": "",
					"type": "address"
				}
			],
			"stateMutability": "view",
			"type": "function"
		},
		{
			"inputs": [],
			"name": "owner",
			"outputs": [
				{
					"internalType": "address",
					"name": "",
					"type": "address"
				}
			],
			"stateMutability": "view",
			"type": "function"
		},
		{
			"inputs": [],
			"name": "pendingBankAmount",
			"outputs": [
				{
					"internalType": "uint256",
					"name": "",
					"type": "uint256"
				}
			],
			"stateMutability": "view",
			"type": "function"
		},
		{
			"inputs": [
				{
					"internalType": "bytes32",
					"name": "multiplierHash",
					"type": "bytes32"
				}
			],
			"name": "pendingRound",
			"outputs": [],
			"stateMutability": "nonpayable",
			"type": "function"
		},
		{
			"inputs": [
				{
					"internalType": "address",
					"name": "",
					"type": "address"
				}
			],
			"name": "players",
			"outputs": [
				{
					"internalType": "address",
					"name": "playerAddress",
					"type": "address"
				},
				{
					"internalType": "uint256",
					"name": "playerId",
					"type": "uint256"
				},
				{
					"internalType": "uint256",
					"name": "depositAmount",
					"type": "uint256"
				},
				{
					"internalType": "uint256",
					"name": "betsAmount",
					"type": "uint256"
				},
				{
					"internalType": "uint256",
					"name": "cashOutAmount",
					"type": "uint256"
				},
				{
					"internalType": "uint256",
					"name": "roundsCount",
					"type": "uint256"
				},
				{
					"internalType": "uint256",
					"name": "currentRoundId",
					"type": "uint256"
				}
			],
			"stateMutability": "view",
			"type": "function"
		},
		{
			"inputs": [],
			"name": "playersCount",
			"outputs": [
				{
					"internalType": "uint256",
					"name": "",
					"type": "uint256"
				}
			],
			"stateMutability": "view",
			"type": "function"
		},
		{
			"inputs": [
				{
					"internalType": "uint256",
					"name": "",
					"type": "uint256"
				}
			],
			"name": "playersList",
			"outputs": [
				{
					"internalType": "address",
					"name": "",
					"type": "address"
				}
			],
			"stateMutability": "view",
			"type": "function"
		},
		{
			"inputs": [
				{
					"internalType": "uint256",
					"name": "",
					"type": "uint256"
				},
				{
					"internalType": "uint256",
					"name": "",
					"type": "uint256"
				}
			],
			"name": "playersRounds",
			"outputs": [
				{
					"internalType": "uint256",
					"name": "",
					"type": "uint256"
				}
			],
			"stateMutability": "view",
			"type": "function"
		},
		{
			"inputs": [
				{
					"internalType": "address",
					"name": "tokenAddress",
					"type": "address"
				},
				{
					"internalType": "uint256",
					"name": "amount",
					"type": "uint256"
				}
			],
			"name": "recoverWrongToken",
			"outputs": [],
			"stateMutability": "nonpayable",
			"type": "function"
		},
		{
			"inputs": [],
			"name": "roundCoolDown",
			"outputs": [
				{
					"internalType": "uint256",
					"name": "",
					"type": "uint256"
				}
			],
			"stateMutability": "view",
			"type": "function"
		},
		{
			"inputs": [
				{
					"internalType": "uint256",
					"name": "",
					"type": "uint256"
				},
				{
					"internalType": "uint256",
					"name": "",
					"type": "uint256"
				}
			],
			"name": "roundPlayers",
			"outputs": [
				{
					"internalType": "uint256",
					"name": "playerId",
					"type": "uint256"
				},
				{
					"internalType": "uint256",
					"name": "betAmount",
					"type": "uint256"
				}
			],
			"stateMutability": "view",
			"type": "function"
		},
		{
			"inputs": [
				{
					"internalType": "uint256",
					"name": "",
					"type": "uint256"
				},
				{
					"internalType": "uint256",
					"name": "",
					"type": "uint256"
				}
			],
			"name": "roundPlayersCashOut",
			"outputs": [
				{
					"internalType": "uint256",
					"name": "playerId",
					"type": "uint256"
				},
				{
					"internalType": "uint256",
					"name": "multiplier",
					"type": "uint256"
				}
			],
			"stateMutability": "view",
			"type": "function"
		},
		{
			"inputs": [
				{
					"internalType": "uint256",
					"name": "",
					"type": "uint256"
				},
				{
					"internalType": "uint256",
					"name": "",
					"type": "uint256"
				}
			],
			"name": "roundPlayersCashOutClaimed",
			"outputs": [
				{
					"internalType": "bool",
					"name": "",
					"type": "bool"
				}
			],
			"stateMutability": "view",
			"type": "function"
		},
		{
			"inputs": [
				{
					"internalType": "uint256",
					"name": "",
					"type": "uint256"
				},
				{
					"internalType": "uint256",
					"name": "",
					"type": "uint256"
				}
			],
			"name": "roundPlayersCashOutIds",
			"outputs": [
				{
					"internalType": "uint256",
					"name": "",
					"type": "uint256"
				}
			],
			"stateMutability": "view",
			"type": "function"
		},
		{
			"inputs": [
				{
					"internalType": "uint256",
					"name": "",
					"type": "uint256"
				},
				{
					"internalType": "uint256",
					"name": "",
					"type": "uint256"
				}
			],
			"name": "roundPlayersExists",
			"outputs": [
				{
					"internalType": "bool",
					"name": "",
					"type": "bool"
				}
			],
			"stateMutability": "view",
			"type": "function"
		},
		{
			"inputs": [
				{
					"internalType": "uint256",
					"name": "",
					"type": "uint256"
				},
				{
					"internalType": "uint256",
					"name": "",
					"type": "uint256"
				}
			],
			"name": "roundPlayersIds",
			"outputs": [
				{
					"internalType": "uint256",
					"name": "",
					"type": "uint256"
				}
			],
			"stateMutability": "view",
			"type": "function"
		},
		{
			"inputs": [
				{
					"internalType": "uint256",
					"name": "",
					"type": "uint256"
				}
			],
			"name": "rounds",
			"outputs": [
				{
					"internalType": "uint256",
					"name": "roundId",
					"type": "uint256"
				},
				{
					"internalType": "enum GGWorldCrashGame.ROUND_STATE",
					"name": "state",
					"type": "uint8"
				},
				{
					"internalType": "uint256",
					"name": "startsIn",
					"type": "uint256"
				},
				{
					"internalType": "uint256",
					"name": "endsIn",
					"type": "uint256"
				},
				{
					"internalType": "uint256",
					"name": "playersCount",
					"type": "uint256"
				},
				{
					"internalType": "uint256",
					"name": "cashOutCount",
					"type": "uint256"
				},
				{
					"internalType": "uint256",
					"name": "betsAmount",
					"type": "uint256"
				},
				{
					"internalType": "uint256",
					"name": "cashOutAmount",
					"type": "uint256"
				},
				{
					"internalType": "uint256",
					"name": "multiplier",
					"type": "uint256"
				},
				{
					"internalType": "bytes32",
					"name": "multiplierHash",
					"type": "bytes32"
				},
				{
					"internalType": "bytes32",
					"name": "multiplierSalt",
					"type": "bytes32"
				}
			],
			"stateMutability": "view",
			"type": "function"
		},
		{
			"inputs": [],
			"name": "roundsCounter",
			"outputs": [
				{
					"internalType": "uint256",
					"name": "",
					"type": "uint256"
				}
			],
			"stateMutability": "view",
			"type": "function"
		},
		{
			"inputs": [
				{
					"internalType": "address",
					"name": "_address",
					"type": "address"
				}
			],
			"name": "setBurnAndStakeAddress",
			"outputs": [],
			"stateMutability": "nonpayable",
			"type": "function"
		},
		{
			"inputs": [
				{
					"internalType": "uint256",
					"name": "amount",
					"type": "uint256"
				}
			],
			"name": "setBurnAndStakePercent",
			"outputs": [],
			"stateMutability": "nonpayable",
			"type": "function"
		},
		{
			"inputs": [
				{
					"internalType": "uint256",
					"name": "amount",
					"type": "uint256"
				}
			],
			"name": "setMaxBet",
			"outputs": [],
			"stateMutability": "nonpayable",
			"type": "function"
		},
		{
			"inputs": [
				{
					"internalType": "uint256",
					"name": "newValue",
					"type": "uint256"
				}
			],
			"name": "setMaxMultiplier",
			"outputs": [],
			"stateMutability": "nonpayable",
			"type": "function"
		},
		{
			"inputs": [
				{
					"internalType": "uint256",
					"name": "amount",
					"type": "uint256"
				}
			],
			"name": "setMinBet",
			"outputs": [],
			"stateMutability": "nonpayable",
			"type": "function"
		},
		{
			"inputs": [
				{
					"internalType": "uint256",
					"name": "newValue",
					"type": "uint256"
				}
			],
			"name": "setMinMultiplier",
			"outputs": [],
			"stateMutability": "nonpayable",
			"type": "function"
		},
		{
			"inputs": [
				{
					"internalType": "address",
					"name": "newOracle",
					"type": "address"
				}
			],
			"name": "setOracle",
			"outputs": [],
			"stateMutability": "nonpayable",
			"type": "function"
		},
		{
			"inputs": [
				{
					"internalType": "uint256",
					"name": "newValue",
					"type": "uint256"
				}
			],
			"name": "setRoundCoolDown",
			"outputs": [],
			"stateMutability": "nonpayable",
			"type": "function"
		},
		{
			"inputs": [
				{
					"internalType": "uint256",
					"name": "roundId",
					"type": "uint256"
				}
			],
			"name": "startRound",
			"outputs": [],
			"stateMutability": "nonpayable",
			"type": "function"
		},
		{
			"inputs": [],
			"name": "token",
			"outputs": [
				{
					"internalType": "contract IERC20",
					"name": "",
					"type": "address"
				}
			],
			"stateMutability": "view",
			"type": "function"
		},
		{
			"inputs": [],
			"name": "totalBets",
			"outputs": [
				{
					"internalType": "uint256",
					"name": "",
					"type": "uint256"
				}
			],
			"stateMutability": "view",
			"type": "function"
		},
		{
			"inputs": [],
			"name": "totalBetsAmount",
			"outputs": [
				{
					"internalType": "uint256",
					"name": "",
					"type": "uint256"
				}
			],
			"stateMutability": "view",
			"type": "function"
		},
		{
			"inputs": [],
			"name": "totalCashOut",
			"outputs": [
				{
					"internalType": "uint256",
					"name": "",
					"type": "uint256"
				}
			],
			"stateMutability": "view",
			"type": "function"
		},
		{
			"inputs": [],
			"name": "totalCashOutAmount",
			"outputs": [
				{
					"internalType": "uint256",
					"name": "",
					"type": "uint256"
				}
			],
			"stateMutability": "view",
			"type": "function"
		},
		{
			"inputs": [],
			"name": "totalPlayersDeposit",
			"outputs": [
				{
					"internalType": "uint256",
					"name": "",
					"type": "uint256"
				}
			],
			"stateMutability": "view",
			"type": "function"
		},
		{
			"inputs": [
				{
					"internalType": "address",
					"name": "newOwner",
					"type": "address"
				}
			],
			"name": "transferOwnership",
			"outputs": [],
			"stateMutability": "nonpayable",
			"type": "function"
		},
		{
			"inputs": [
				{
					"internalType": "bytes32",
					"name": "",
					"type": "bytes32"
				}
			],
			"name": "usedHashes",
			"outputs": [
				{
					"internalType": "bool",
					"name": "",
					"type": "bool"
				}
			],
			"stateMutability": "view",
			"type": "function"
		},
		{
			"inputs": [
				{
					"internalType": "uint256",
					"name": "amount",
					"type": "uint256"
				}
			],
			"name": "withdrawBank",
			"outputs": [],
			"stateMutability": "nonpayable",
			"type": "function"
		}
	]
}